:100000000C94381C0C945E1C0C945E1C0C945E1CAE
:100010000C945E1C0C945E1C0C945E1C0C945E1C78
:100020000C945E1C0C945E1C0C945E1C0C945E1C68
:100030000C945E1C0C945E1C0C94D53C0C945E1CC1
:100040000C945E1C0C945E1C0C945E1C0C945E1C48
:100050000C945E1C0C945E1C0C945E1C0C945E1C38
:100060000C945E1C0C945E1C0C945E1C0C945E1C28
:100070000C945E1C0C945E1C0C945E1C0C945E1C18
:100080000C945E1C0C945E1C0C945E1C0C945E1C08
:100090000C945E1C0C945E1C0C945E1C0C945E1CF8
:1000A0000C945E1C0C945E1C0C945E1C0C945E1CE8
:1000B0000C945E1C0C945E1C0C945E1C0C945E1CD8
:1000C0000C945E1C0C945E1C0C945E1C0C945E1CC8
:1000D0000C945E1C0C945E1C0C945E1C0C945E1CB8
:1000E0000C945E1C0C945E1C0C945E1C0C945E1CA8
:1000F0000C945E1C0C945E1C0C945E1C0C945E1C98
:100100000C945E1C0C945E1C0C945E1C0C945E1C87
:100110000C945E1C0C945E1C0C945E1C0C945E1C77
:100120000C945E1C0C945E1C0C945E1C0C945E1C67
:100130000C945E1C0C945E1C0C945E1C0C945E1C57
:100140000C945E1C0C945E1C0C945E1C0C945E1C47
:100150000C945E1C0C945E1C0C945E1C0C945E1C37
:100160000C945E1C0C945E1C0C945E1C0C945E1C27
:100170000C945E1C0C945E1C0C945E1C0C945E1C17
:100180000C945E1C0C945E1C0C945E1C0C945E1C07
:100190000C945E1C0C945E1C0C945E1C0C945E1CF7
:1001A0000C945E1C0C945E1C0C945E1C0C945E1CE7
:1001B0000C945E1C0C945E1C0C945E1C0C945E1CD7
:1001C0000C945E1C0C945E1C0C945E1C0C945E1CC7
:1001D0000C945E1C0C945E1C0C945E1C0C945E1CB7
:1001E0000C945E1C0C945E1C0C945E1C0C945E1CA7
:1001F0000C945E1C0C94601C0C9458260C94F71CF8
:100200000C942827FFFFFFFFFFFFFFFFFFFFE773AF
:10021000E773E773E773E773E773E773E773E7730E
:10022000E773E773800380039FFF9FFF9FFFFFFF3C
:10023000FFFFFE3FFE3FFEFFFEFFFEFFE00FC00799
:100240008EE39EF39EF39EF39EF39EF39EF39EF346
:100250008EE3C007E00FFEFFFEFFFEFFFEFFFEFF86
:10026000F39FE38FF39FFFFFFFFFF83FE01FC7CF30
:10027000CFE7CFE7C007C007FFE7FFE7FFE7CF8F74
:10028000C00FF03FFFFFFFFFFFFFFFFFFFFFEFFF8C
:10029000C03FE01FFFCFFFE7F067E017C7C7CFE31E
:1002A000CFE38FE38FE3CFE7CFE7CFE7E78FE00F31
:1002B000F83FFFFFFFFFFFFFFFFFFFFFFFFFFFFF15
:1002C000FFFFFFFFFFFFFFFFFC1FFBEFF7FFF7FF45
:1002D000F01FF3E7F7F3F7FBF3FBF4F7C60FFFFFAD
:1002E000FFFFFFFFFFFFFFFFFFFFFFFFFFFFFFFF1E
:1002F000FFFFFFFFFFFFFFFFFFFFFFFFFFFFFFFF0E
:10030000FFFFFEFFFFFFFFFFFFFFFFFFFFFFFFFFFE
:10031000FFFFFFFFFFFFFFFFFFFFFFFEFFFFFFFFEE
:10032000FFFFFFFFFFFFFFFFFFFFFFFFFFFFFFFFDD
:10033000FFFFFFFFFEFFFFFFFFFFFFFFFFFFFFFFCE
:10034000FFFFFFFFFFFFFFFFFFFFFFFFFFFEFFFFBE
:10035000FFFFFFFFFFFFFFFFFFFFFFFFFFFFFFFFAD
:10036000FFFFFFFFFFFFFEFFFFFFFFFFFFFFFFFF9E
:10037000FCE7FCFFFFFFFFFFFFFFFFFFFFFFFFFEAC
:10038000FFFFFFFFFFFFFFFFFFFCE7FCFFFE3F1C3F
:1003900078FFFFFFFFFFFFFFFEFFFFFFFFFFFFFFF5
:1003A000FFFFFCFFFCFFFE1E1E79FFFFFFFFFFFFAC
:1003B000FFFEFFFFFFFFFFFFFFFFFFFCFFFCFFFE55
:1003C0001E1F31FFFFFFFFFFFFFFFEFFFFFFFFFFCD
:1003D000FFFFFFF07CE784F87E5C9F13FFFFFFFFC9
:1003E000FFFFFFFEFFFFFFFFFFFFFFFFE01CE70037
:1003F000E01E4C9F87FFFFFFFFFFFFFFFEFFFFFF99
:10040000FFFFFFFFFFC79CE638E79E4C9FC7FFFF3B
:10041000FFFFFFFFFFFEFFFFFFFFFFFFFFFFCFCC50
:10042000E67CCFCE619FC7FFFFFFFFFFFFFFFEFF10
:10043000FFFFFFFFFFFFFFC00CE67CCFCE619F8771
:10044000FFFFFFFFFFFFFFFEFFFFFFFFFFFFFFFFBD
:10045000C00CE67CCFCE739F93FFFFFFFFFFFFFF33
:10046000FEFFFFFFFFFFFFFFFFFFCCE67CCFCE7359
:100470009F31FFFFFFFFFFFFFFFEFFFFFFFFFFFFBB
:10048000FFFFDF9CE638E79E7F9E39FFFFFFFFFFFF
:10049000FFFFFEFFFFFFFFFFFFFFFFC01CE700E0C5
:1004A0001E7F9E7CFFFFFFFFFFFFFFFEFFFFFFFFA2
:1004B000FFFFFFFFE07CE784F87E7F9C7C7FFFFFEF
:1004C000FFFFFFFFFEFFFFFFFFFFFFFFFFFFFFFF3D
:1004D000FFFFFFFFFFFFFFFFFFFFFFFFFFFEFFFF2D
:1004E000FFFFFFFFFFFFFFFFFFFFFFFFFFFFFFFF1C
:1004F000FFFFFFFFFFFFFEFFFFFFFFFFFFFFFFFF0D
:10050000FFFFFFFFFFFFFFFFFFFFFFFFFFFFFFFEFC
:10051000FFFFFFFFFFFFFFFFFFFFFFFFFFFFFFFFEB
:10052000FFFFFFFFFFFFFFFFFEFFFFFFFFFFFFFFDC
:10053000FFFFFFFFFFFFFFFFFFFFFFFFFFFFFFFFCB
:10054000FFFEFFFFFFFFFFFFFFFFFFFFFFFFFFFFBC
:10055000FFFFFFFFFFFFFFFFFFFFFEFFFFFFFFFFAC
:10056000FFFFFFFFFFFFFFFFFFFFFFFFFFFFFFFF9B
:10057000FFFFFFFEFFFFFFFFFFFFFFFFFFFFFFFF8C
:10058000FFFFFFFFFFFFFFFFFFFFFFFFFEFFFFFF7C
:10059000FFFFFFFFFFFFFFFFFFFFFFFFFFFFFFFF6B
:1005A000FFFFFFFFFFFEFFFFFFFFFFFFFFFFFFFF5C
:1005B000FFFFFFFFFFFFFFFFFFFFFFFFFFFFFEFF4C
:1005C000FFFFFFFFFFFFFFFFFFFFFFFFFFFFFFFF3B
:1005D000FFFFFFFFFFFFFFFEFFFFFFFFFFFFFFFF2C
:1005E000FFFFFFFFFFFFFFFFFFFFFFFFFFFFFFFF1B
:1005F000FEFFFFFFFFFFFFFFFFFFFFFFFFFFFFFF0C
:10060000FFFFFFFFFFFFFFFFFFFEFFFFFFFFFFFFFB
:10061000FFFFFFFFFFFFFFFFFFFFFFFFFFFFFFFFEA
:10062000FFFFFEFFFFFFFFFFFFFFFFFFFFFFFFFFDB
:10063000FFFFFFFFFFFFFFFFFFFFFFFEFFFFFFFFCB
:10064000FFFFFFFFFFFFFFFFFFFFFFFFFFFFFFFFBA
:10065000FFFFFFFFFEFFFFFFFFFFFFFFFFFFFFFFAB
:10066000FFFFFFFFFFFFFFFFFFFFFFFFFFFEFFFF9B
:10067000FFFFFFFFFFFFFFFFFFFFFFFFFFFFFFFF8A
:10068000FFFFFFFFFFFFFEFFFFFFFFFFFFFFFFFF7B
:10069000FFFFFFFFFFFFFFFFFFFFFFFFFFFFFFFE6B
:1006A000FFFFFFFFFFFFFFFFFFFFFFFFFFFFFFFF5A
:1006B000FFFFFFFFFFFFFFFFFEFFFFFFFFFFFFFF4B
:1006C000FFFFFFFFFFFFFFFFFFFFFFFFFFFFFFFF3A
:1006D000FFFEFFFFFFFFFFFFFFFFFFFFFFFFFFFF2B
:1006E000FFFFFFFFFFFFFFFFFFFFFEFFFFFFFFFF1B
:1006F000FFFE07FFFFFFFFFFFFFBFEFFFFFFFFFF08
:10070000FFFFFFFEFFFFFFFFFFFFFC03FFFFFFFFF9
:10071000FFFFF9FE7FFFFFFFFFFFFFFFFEFFFFFF71
:10072000FFFFFFF8F3FFFFFFFFFFFFF8FC7FFFFF76
:10073000FFFFFFFFFFFEFFFFFFFFFFFFF9F3FFFFDC
:10074000FFFFFFFFF8787FFFFFFFFFFFFFFFFEFFC8
:10075000FFFFFFFFFFF9F3FFFFFFFFFFFFF8307F11
:10076000FFFFFFFFFFFFFFFEFFFFFF80F8F9F9F338
:10077000E03E3E7E00F80D837FFFFFFFFFFFFFFF9F
:10078000FEFFFFFF00FC79FCF3C01F1E7C00F00C95
:10079000C33FFFFFFFFFFFFFFFFEFFFFFE3FFE39EE
:1007A000F8038F8F8E78FCE3FCE73FFFFFFFFFFF2E
:1007B000FFFFFEFFFFFE7FFF19F0039FCFC679FC0E
:1007C000E7FCFF3FFFFFFFFFFFFFFFFEFFFFFE0015
:1007D000FF89E3F39FCFE279FCE00CFF3FFFFFFFCF
:1007E000FFFFFFFFFEFFFFFE007FC1E7F39FCFF09B
:1007F00079FCE006FFBFFFFFFFFFFFFFFFFEFFFFEB
:10080000FE7E3FE1E7F39FCFF879FCE7E27F9FFFB1
:10081000FFFFFFFFFFFFFEFFFFFE7F3FC1E7F39FEC
:10082000CFF079FCE7F27F9FFFFFFFFFFFFFFFFEA6
:10083000FFFFFE7F3F89E7F39FCFE279FCE7F27F7E
:100840009FFFFFFFFFFFFFFFFEFFFFFE7F3F19E758
:10085000F39FCFC679FCE7F27F9FFFFFFE3FFFFFCC
:10086000FFFEFFFFFE7E3E39E3F38F8F8E78FCE7BD
:10087000E27F9FFFFFF80FFFFFFFFEFFFFFE007C00
:1008800079F003C01F1E7C00E0073FCFFFFFF00799
:10089000FFFFFFFEFFFFFE00F8F9F803E03E3E7E9B
:1008A00000E00F3FCFFFFFF007FFFFFFFEFFFFFF5E
:1008B000FFFFFFFFFFFFFFFFFFFCFFFFFFFFFFFF4B
:1008C000F003FFFFFFFEFFFFFFFFFFFFFFFFFFFF44
:1008D000FFFFFCFFFFFFFFFFFFF003FFFFFFFEFF37
:1008E000FFFFFFFFFFFFFFFFFFFFFFFCFFFFFFFF1B
:1008F000FFFFF003FFFFFFFEFFFFFFFFFFFFFFFF14
:10090000FFFFFFFFFCFFFFFFFFFFFFF003FFFFFF05
:10091000FEFFFFFFFFFFFFFFFFFFFFFFFFFCFFFFEB
:10092000FFFFFFFFF803FFFFFFFEFFFFFFFFFFFFDB
:10093000FFFFFFFFFFFFFFFFFFFFFFFFFFF803FFCA
:10094000FFFFFEFFFFFFFFFFFFFFFFFFFFFFFFFFB8
:10095000FFFFFFFFFFFFF803FFFFFFFEFFFFFFFFAB
:10096000FFFFFFFFFFFFFFFFFFFFFFFFFFFFFFFC9A
:1009700003FFFFFFFEFFFFFFFFFFFFFFFFFFFFFF84
:10098000FFFFFFFFFFFFFFFFFC01FFFFFFFEFFFF79
:10099000FFFFFFFFFCF3FFFFFFFFFFFFFFFFFFFF76
:1009A000FFFC01FFFFFFFEFFFFFFFFFFFFFCF3FF68
:1009B000FFFFFFFFFFFFFFFFFFFFFC01FFFFFFFE49
:1009C000FFFFFFFFFFFFFCF3FFFFFFFFFFFFFFFF46
:1009D000FFFFFFFC01FFFFFFFEFFFFFFFFFFFFFC2C
:1009E000F3FFFFFFFFFFFFFFFFFFFFFFFE01FFFF22
:1009F000FFFEFFFFFFFFFFFFFC73FFFFFFFFFFFF97
:100A0000FFFFFFFFFFFE01FFFFFFFEFFFFFFFFFFF6
:100A1000FFFC33FFFFFFFFFFFFFFFFFFFFFFFE01B4
:100A2000FFFFFFFEFFFFFFFFFFFFFC93FFFFFFFF46
:100A3000FFFFFFFFFFFFFFFF01FFFFFFFEFFFFFFC5
:100A4000FFFFFFFCC3FFFFFFFFFFFFFFFFFFFFFFF5
:100A5000FF01FFFFFFFEFFFFFFFFFFFFFCE3FFFFC4
:100A6000FFFFFFFFFFFFFFFFFFFF01FFFFFFFEFF95
:100A7000FFFFFFFFFFFCF3FFFFFFFFFFFFFFFFFF95
:100A8000FFFFFF01FFFFFFFEFFFFFFFFFFFFFCF384
:100A9000FFFFFFFFFFFFFFFFFFFFFFFF01FFFFFF64
:100AA000FEFFFFFFFFFFFFFCF3FFFFFFFFFFFFFF66
:100AB000FFFFFFFFFF80FFFFFFFEFFFFFFFFFFFFC6
:100AC000FCF3FFFFFFFFFFFFFFFFFFFFFFFF80FFC4
:100AD000FFFFFEFFFFFFFFFFFFFFFFFFFFFFFFFF27
:100AE000FFFFFFFFFFFFFF80FFFFFFFEFFFFFFFF96
:100AF000FFFFFFFFFFFFFFFFFFFFFFFFFFFFFFFF06
:100B0000C1FFFFFFFEFFFFFFFFFFFFFFFFFFFFFF34
:100B1000FFFFFFFFFFFFFFFFFFC1FFFFFFFEFFFF24
:100B2000FFFFFFFFFFFFFFFFFFFFFFFFFFFFFFFFD5
:100B3000FFFFC0FFFFFFFEFFFFFFFFFFFFFFFFFF05
:100B4000FFFFFFFFFFFFFFFFFFFFFFE0FFFFFFFED5
:100B5000FFFFFFFFFFFFFFFFFFFFFFFFFFFFFFFFA5
:100B6000FFFFFFFFE0FFFFFFFEFFFFFFFFFFFFFFB5
:100B7000FFFFFFFFFFFFFFFFFFFFFFFFFFE0FFFFA4
:100B8000FFFEFFFFFFFFFFFFFFFFFFFFFFFFFFFF76
:100B9000FFFFFFFFFFFFE0FFFFFFFEFFFFFFFFFF85
:100BA000FFFFFFFFFFFFFFFFFFFFFFFFFFFFFFE074
:100BB000FFFFFFFEFFFFFFFFFFFFFFFFFFFFFFFF46
:100BC000FFFFFFFFFFFFFFFFF07FFFFFFEFFFFFFC5
:100BD000FFFFFFFFFFFFFFFFFFFFFFFFFFFFFFFF25
:100BE000FFF07FFFFFFEFFFFFFFFFFFFFFFFFFFFA5
:100BF000FFFFFFFFFFFFFFFFFFFFF07FFFFFFEFF95
:100C0000FFFFFFFFFFFFFFFFFFFFFFFFFFFFFFFFF4
:100C1000FFFFFFF07FFFFFFEFFFFFFFFFFFFFFFF74
:100C2000FFFFFFFFFFFFFFFFFFFFFFFFF07FFFFF63
:100C3000FEFFFFFFFFFFFFFFFFFFFFFFFFFFFFFFC5
:100C4000FFFFFFFFFFF07FFFFFFEFFFFFFFFFFFF44
:100C5000FFFFFFFFFFFFFFFFFFFFFFFFFFFFF07F33
:100C6000FFFFFEFFFFFFFFFFFFFFFFFFFFFFFFFF95
:100C7000FFFFFFFFFFFFFFF83FFFFFFEFFFFFFFF4C
:100C8000FFFFFFFFFFFFFFFFFFFFFFFFFFFFFFFF74
:100C9000FC7FFFFFFEFFFFFFFFFFFFFFFFFFFFFFE8
:100CA000FFFFFFFFFFFFFFFFFFFC7FFFFFFEFFFFD8
:100CB000FFFFFFFFFFFFFFFFFFFFFFFFFFFFFFFF44
:100CC000FFFFFC7FFFFFFEFFFFFFFFFFFFFFFFFFB8
:100CD000FFFFFFFFFFFFFFFFFFFFFFFC7FFFFFFEA8
:100CE000FFFFFFFFFFFFFFFFFFFFFFFFFFFFFFFF14
:100CF000FFFFFFFFFC7FFFFFFEFFFFFFFFFFE01F87
:100D0000FFFFFFFFFFFFFFFFFFFFFFFFFFF83FFFBA
:100D1000FFFEFFFFFFC000000007FFFFFFFFFFFF18
:100D2000FFFFFFFFFFFFFC1FFFFFFEFFFFFF800035
:100D3000000001FFFFFFFFFFFFFFFFFFFFFFFFFCC2
:100D40001FFFFFFEFFFFFF0000000000FFFFFFFF8F
:100D5000FFFFFFFFFFFFFFFFFC1FFFFFFEFFFFFF87
:100D600000000000001FFFFFFFFFFFFFFFFFFFFF6E
:100D7000FFFC1FFFFFFEFFFFFF00000000001FFF42
:100D8000FFFFFFFFFFFFFFFFFFFFFC1FFFFFFEFF57
:100D9000FFFE00000000000FFFFFFFFFFFFFE0FF6E
:100DA000FFFFFFFE3FFFFFFEFFFFFC000000000013
:100DB0000FFFFFFFFFFFFFC07FFFFFFFFE1FFFFFD3
:100DC000FEFFFFFC01FFE000000FFFFFFFFFFFFF42
:100DD000807FFFFFFFFE1FFFFFFEFFFFF803FFFF07
:100DE000E00007FFFFFFFFFFFF807FFFFFFFFF1F08
:100DF000FFFFFEFFFFF803FFFFFFF003FFFFFFFF12
:100E0000FFFF803FFFFFFFFF1FFFFFFEFFFFF0031D
:100E1000FFFFFFF803FFFFFFFFFFFF803FFFFFFF24
:100E2000FE0FFFFFFEFFFFF003FFFFFFF803FFFFD2
:100E3000FFFFC1FF803FFFFFFFFE0FFFFFFEFFFF31
:100E4000E007FFFFFFF803FFFFFFFF80FF803FFF8A
:100E5000FFFFFF07FFFFFEFFFFC007FFFFFFF803D5
:100E6000FFFFFFFF007F803FFFFFFFFF07FFFFFE49
:100E7000FFFFC00FFFFFFFF803FFFFFFFF003F80F2
:100E80003FFFFFFFFF07FFFFFEFFFF801FFFFFFF8A
:100E9000F803FFFFFFFF003F803FFFFFFFFF07FF5B
:100EA000FFFEFFFF801FFFFFFFF803FFFFFFFF00B4
:100EB0001FC01FFFFFFFFF83FFFFFEFFFF803FFFFD
:100EC000FFFFF803FFFFFFFF001FC01FFFFFFFFF33
:100ED00083FFFFFEFFFF807FFFFFFFF803FFFFFFA1
:100EE000FF001FC01FFFFFFFFF83FFFFFEFFFF008C
:100EF0007FFFFFFFF803FFFFFFFE001FC01FFFFF84
:100F0000FFFFC3FFFFFEFFFF00FFFFFFFFF803FF30
:100F1000FFFFFE001FC01FFFFFFFFFC1FFFFFEFF1F
:100F2000FE00FFFFFFFFF803FFFFFFFC001FC01FD5
:100F3000FFFFFFFFE0FFFFFEFFFE00FFFFFFFFF8E8
:100F400003FFFFFFFC001FC01FFFFFFFFFE0FFFFCD
:100F5000FEFFFE00FFFFFFFFF803FFFFFFFC001F87
:100F6000E00FFFFFFFFFE07FFFFEFFFE00FFFFFF40
:100F7000FFF803FFFFFFFC001FE00FFFFFFFFFF084
:100F80007FFFFEFFFE00FFFFFFFFF803FFFFFFFCF8
:100F9000001FE00FFFFFFFFFF07FFFFEFFFE00FFDF
:100FA000FFFFFFFC03FFFFFFFE001FE00FFFFFFF3F
:100FB000FFF83FFFFEFFFE00FFFFFFFFFC03FFFF08
:100FC000FFFE001FE00FFFFFFFFFF81FFFFEFFFE09
:100FD000007FFFFFFFFE03FFFFFFFE001FE00FFF8C
:100FE000FFFFFFFC1FFFFEFFFE007FFFFFFFFE0372
:100FF000FFFFFFFC001FF00FFFFFFFFFFC0FFFFED6
:10100000FFFE003FFFFFFFFE03FFFFFFFC001FF09E
:101010000FFFFFFFFFFC07FFFEFFFF000FFFFFFFBB
:10102000FE03FFFFFFFC001FF80FFFFFFFFFFE079F
:10103000FFFEFFFF0007FFFFFFFE03FFFFFFFC00B7
:101040001FF80FFFFFFFFFFF03FFFEFFFF8003FFFF
:10105000FFFFFF07FFFFFFF8001FF80FFFFFFFFF75
:10106000FF03FFFEFFFF80007FFFFFFF03FFFFFF87
:10107000F8001FF80FFFFFFFFFFF81FFFEFFFF805B
:101080000003FFFFFF03FFFFFFF0001FF80FFFFF4C
:10109000FFFFFF80FFFEFFFFC000003FFFFF03FFD9
:1010A000FFFFE0001FF80FFFFFFFFFFFC07FFEFF05
:1010B000FFE0000000FFFF03FFFFFFC0001FF80F6D
:1010C000FFFFFFFFFFC07FFEFFFFF800000000FFF3
:1010D00081FFFFFF80000FF80FFFFFFFFFFFE03FE2
:1010E000FEFFFFFC000000000001FFFFFF80000F7B
:1010F000F80FFFFFFFFFFFE03FFEFFFFFE000000D5
:10110000000001FFFFFF000007F80FFFFFFFFFFFD8
:10111000F01FFEFFFFFF800000000001FFFFFF0047
:101120000001F00FFFFFFFFFFFF01FFEFFFFFFC0FA
:101130000000000001FFFFFF000000E007FE0FFFBE
:10114000FFFFF81FFEFFFFFFF80000000001FFFF98
:10115000FF0020002007FC07FFFFFFF81FFEFFFF36
:10116000FFFFC000000000FFFFFF007000000FF84D
:1011700003FFFFFFFC0FFEFFFFFFFFFF000000006B
:10118000FFFFFF007800000FF803FFFFFFF80FFEDE
:10119000FFFFFFFFFFF8000000FFFFFF80FC0000E3
:1011A0001FF803FFFFFFFC07FEFFFFFFFFFFFFF03D
:1011B00000007FFFFFC1FE00001FF803FFFFFFFCE0
:1011C00007FEFFFFFFFFFFFFFE00003FFFFFFFFEE8
:1011D00000001FF003FFFFFFFC03FEFFFFFFFFFF08
:1011E000FFFFF0003FFFFFFFFF00003FF003FFFFA6
:1011F000FFFE01FEFFFFFFFFFFFFFFFF883FFFFF36
:10120000FFFFC0007FF007FFFFFFFE01FEFFFFFFB3
:10121000FFFFFFFFFFF81FFFFFFFFFC000FFF0070A
:10122000FFFFFFFE01FEFFFFFFFFFFFFFFFFF81FB5
:10123000FFFFFFFFE001FFF007FFFFFFFF01FEFFE1
:10124000FFFFFFFFFFFFFFFC1FFFFFFFFFF003FF9C
:10125000F007FFFFFFFF00FEFFFFFFFFFFFFFFFFA5
:10126000FC0FFFFFFFFFFC1FFFF007FFFFFFFF006A
:101270007EFFFFFFFFFFFFFFFFFE0FFFFFFFFFFFF0
:10128000FFFFF007F8000000007EFFFFFFFFFFFFF9
:10129000FFFFFF0FFFFFFFFFFFFFFFF00000000059
:1012A00000007EFFFFFFFFFFFFFFFFFF87FFFFFF45
:1012B000FFFFFFFFF00000000000003EFFFFFFFF08
:1012C000FFFFFFFFFF87FFFFFFFFFFFFFFF00000B3
:1012D000000000001EFFFFFFFFFFFFFFFFFFC3FF37
:1012E000FFFFFFFFFFFFF00000000000001EFFFFF8
:1012F000FFFFFFFFFFFFFFC3FFFFFFFFFFFFFFF841
:101300000000000000001EFFFFFFFFFFFFFFFFFFC8
:10131000E3FFFFFFFFFFFFFFF80000000000003EBB
:10132000FFFFFFFFFFFFFFFFFFC1FFFFFFFFFFFF0B
:10133000FFF80000000000007EFFFFFFFFFFFFFF3F
:10134000FFFFE0FFFFFFFFFFFFFFFC0000000000CA
:1013500000FEFFFFFFFFFFFFFFFFFFE0FFFFFFFFBC
:10136000FFFFFFFFF001FFFFFFFFFEFFFFFFFFFF9B
:10137000FFFFFFFFE0FFFFFFFFFFFFFFFFFFFFFF9C
:10138000FFFFFFFEFFFFFFFFFFFFFFFFFFF07FFFFD
:10139000FFFFFFFFFFFFFFFFFFFFFFFFFEFFFFFF5E
:1013A000FFFFFFFFFFFFF8FFFFFFFFFFFFFFFFFF54
:1013B000FFFFFFFFFFFEFFFFFFFFFFFFFFFFFFF845
:1013C0007FFFFFFFFFFFFFFFFFFFFFFFFFFFFEFFAE
:1013D000FFFFFFFFFFFFFFFFF87FFFFFFFFFFFFFA4
:1013E000FFFFFFFFFFFFFFFEFFFFFFFFFFFFFFFF0E
:1013F000FFFC3FFFFFFFFFFFFFFFFFFFFFFFFFFFC0
:10140000FEFFFFFFFFFFFFFFFFFFFC1FFFFFFFFFD0
:10141000FFFFFFFFFFFFFFFFFFFEFFFFFFFFFFFFDD
:10142000FFFFFFFC1FFFFFFFFFFFFFFFFFFFFFFFAF
:10143000FFFFFEFFFFFFFFFFFFFFFFFFFC1FFFFFA0
:10144000FFFFFFFFFFFFFFFFFFFFFFFEFFFFFFFFAD
:10145000FFFFFFFFFFFE0FFFFFFFFFFFFFFFFFFF8D
:10146000FFFFFFFFFEFFFFFFFFFFFFFFFFFFFE0F7E
:10147000FFFFFFFFFFFFFFFFFFFFFFFFFFFEFFFF7D
:10148000FFFFFFFFFFFFFFFE0FFFFFFFFFFFFFFF5D
:10149000FFFFFFFFFFFFFEFFFFFFFFFFFFFFFFFF5D
:1014A000FE07FFFFFFFFFFFFFFFFFFFFFFFFFFFE46
:1014B000FFFFFFFFFFFFFFFFFFFE07FFFFFFFFFF35
:1014C000FFFFFFFFFFFFFFFFFEFFFFFFFFFFFFFF2D
:1014D000FFFFFF03FFFFFFFFFFFFFFFFFFFFFFFF18
:1014E000FFFEFFFFFFFFFFFFFFFFFFFE03FFFFFF0A
:1014F000FFFFFFFFFFFFFFFFFFFFFEFFFFFFFFFFFD
:10150000FFFFFFFFFF03FFFFFFFFFFFFFFFFFFFFE7
:10151000FFFFFFFEFFFFFFFFFFFFFFFFFFFF03FFD8
:10152000FFFFFFFFFFFFFFFFFFFFFFFFFEFFFFFFCC
:10153000FFFFFFFFFFFFFF83FFFFFFFFFFFFFFFF37
:10154000FFFFFFFFFFFEFFFFFFFFFFFFFFFFFFFFAC
:1015500081FFFFFFFFFFFFFFFFFFFFFFFFFFFEFF1A
:10156000FFFFFFFFFFFFFFFFFF81FFFFFFFFFFFF09
:10157000FFFFFFFFFFFFFFFEFFFFFFFFFFFFFFFF7C
:10158000FFFF80FFFFFFFFFFFFFFFFFFFFFFFFFFEA
:10159000FEFFFFFFFFFFFFFFFFFFFF80FFFFFFFFDB
:1015A000FFFFFFFFFFFFFFFFFFFEFFFFFFFFFFFF4C
:1015B000FFFFFFFF80FFFFFFFFFFFFFFFFFFFFFFBA
:1015C000FFFFFEFFFFFFFFFFFFFFFFFFFF80FFFFAB
:1015D000FFFFFFFFFFFFFFFFFFFFFFFEFFFFFFFF1C
:1015E000FFFFFFFFFFFF007FFFFFFFFFFFFFFFFF8A
:1015F000FFFFFFFFFEFFFFFFFFFFFFFFFFFFFF00FB
:101600007FFFFFFFFFFFFFFFFFFFFFFFFFFEFFFF6B
:10161000FFFFFFFFFFFFFFFF007FFFFFFFFFFFFF59
:10162000FFFFFFFFFFFFFEFFFFFFFFFFFFFFFFFFCB
:10163000FF80FFFFFFFFFFFFFFFFFFFFFFFFFFFE3A
:10164000FFFFFFFFFFFFFFFFFFFFC1FFFFFFFFFFE8
:10165000FFFFFFFFFFFFFFFFFEFFFFFFFFFFFFFF9B
:10166000FFFFFFE3FFFFFFFFFFFFFFFFFFFFFFFFA6
:10167000FFFE1018180818180800000000000000ED
:1016800000000000000013144412000000000000DD
:1016900000020201111212222266696959589999B1
:1016A0008800000000F8B4135135515119010000B1
:1016B000F3F3F3F3F3F3F7FFF3F3FFFFFF0000009F
:1016C000000000000000000000000000000000001A
:1016D000000000000000000000000000000000000A
:1016E00000000000000000000000000000000000FA
:1016F00000000000000000000000000000000000EA
:1017000000000000000000000000E783C1E9E9C319
:1017100087979781C1E7FF000000000000000000EC
:1017200000000000000000000000000000000000B9
:1017300000000000000000000000000000000000A9
:101740000000000000000000000000000000000099
:101750000000000000000000000000000000000089
:1017600000000000DFC7E3F3FBF9F9F9FBF3E3C77F
:10177000DF0000000000000000000000000000008A
:101780000000000000000000000000000000000059
:101790000000000000000000000000000000000049
:1017A0000000000000000000000000000000000039
:1017B0000000000000000000000000000000E7C77B
:1017C0009F9F3F3F3F3F3F1F9FC7E7000000000034
:1017D0000000000000000000000000000000000009
:1017E00000000000000000000000000000000000F9
:1017F00000000000000000000000000000000000E9
:1018000000000000000000000000000000000000D8
:101810000000000000000000EFE3E1EDEFEFEFEF6C
:101820008181FFFFFF0000000000000000000000B9
:1018300000000000000000000000000000000000A8
:101840000000000000000000000000000000000098
:101850000000000000000000000000000000000088
:101860000000000000000000000000000000000078
:101870000000C3819F9F9FCFE7F38181FFFFFF009F
:101880000000000000000000000000000000000058
:101890000000000000000000000000000000000048
:1018A0000000000000000000000000000000000038
:1018B0000000000000000000000000000000000028
:1018C000000000000000000000000000FFBF9FC7F4
:1018D000F1F8F1C79FBFFFFFFF000000000000000C
:1018E00000000000000000000000000000000000F8
:1018F00000000000000000000000000000000000E8
:1019000000000000000000000000000000000000D7
:1019100000000000000000000000000000000000C7
:101920000000000000008181CFE7C7839F9F81C135
:10193000FFFFFF00000000000000000000000000AA
:101940000000000000000000000000000000000097
:101950000000000000000000000000000000000087
:101960000000000000000000000000000000000077
:101970000000000000000000000000000000000067
:10198000CFCFC7D3D90000DFDFDFFFFFFF000000AC
:101990000000000000000000000000000000000047
:1019A0000000000000000000000000000000000037
:1019B0000000000000000000000000000000000027
:1019C0000000000000000000000000000000000017
:1019D00000000000000000000000FFFFFFB9B999FF
:1019E0008183BFBFFFFFFF00000000000000000078
:1019F00000000000000000000000000000000000E7
:101A000000000000000000000000000000000000D6
:101A100000000000000000000000000000000000C6
:101A200000000000000000000000000000000000B6
:101A300000000000F9F9F3F3F7E7EFCFCF9F9FBF66
:101A4000FF00000000000000000000000000000097
:101A50000000000000000000000000000000000086
:101A60000000000000000000000000000000000076
:101A70000000000000000000000000000000000066
:101A80000000000000000000000000000000838350
:101A9000FBFBC3839F9F81E3FFFFFF00000000006B
:101AA0000000000000000000000000000000000036
:101AB0000000000000000000000000000000000026
:101AC0000000000000000000000000000000000016
:101AD0000000000000000000000000000000000006
:101AE0000000000000000000C9E9E9E9FFFFFFFF76
:101AF000FFFFFFFFFF0000000000000000000000EB
:101B000000000000000000000000000000000000D5
:101B100000000000000000000000000000000000C5
:101B200000000000000000000000000000000000B5
:101B300000000000000000000000000000000000A5
:101B40000000CFC7F3F9C181391981C3FFFFFF003E
:101B50000000000000000000000000000000000085
:101B60000000000000000000000000000000000075
:101B70000000000000000000000000000000000065
:101B80000000000000000000000000000000000055
:101B900000000000000000000000000081819FDFC5
:101BA000CFEFE7F7F3FBFFFFFF00000000000000AE
:101BB0000000000000000000000000000000000025
:101BC0000000000000000000000000000000000015
:101BD0000000000000000000000000000000000005
:101BE00000000000000000000000000000000000F5
:101BF000000000000000E7E7E7E7FFFFFFFFFFFF4F
:101C0000FFFFFF00000000000000000000000000D7
:101C100000000000000000000000000000000000C4
:101C200000000000000000000000000000000000B4
:101C300000000000000000000000000000000000A4
:101C40000000000000000000000000000000000094
:101C5000C3819999C383993981C3FFFFFF000000B5
:101C60000000000000000000000000000000000074
:101C70000000000000000000000000000000000064
:101C80000000000000000000000000000000000054
:101C90000000000000000000000000000000000044
:101CA00000000000000000000000C381193901831A
:101CB0009F9FC3F3FFFFFF00000000000000000033
:101CC0000000000000000000000000000000000014
:101CD0000000000000000000000000000000000004
:101CE00000000000000000000000000000000000F4
:101CF00000000000000000000000000000000000E4
:101D0000000000008181F9F9F9F9F9F9F9F9F9818F
:101D10008100000000000000000000000000000042
:101D200000000000000000000000000000000000B3
:101D300000000000000000000000000000000000A3
:101D40000000000000000000000000000000000093
:101D5000000000000000000000000000000083837D
:101D60009F9F9F9F9F9F9F9F9F83830000000000D6
:101D70000000000000000000000000000000000063
:101D80000000000000000000000000000000000053
:101D90000000000000000000000000000000000043
:101DA0000000000000000000000000000000000033
:101DB0000000000000000000FFFFFFB99989A1B1F9
:101DC000B1B9FFFFFF0000000000000000000000AC
:101DD0000000000000000000000000000000000003
:101DE00000000000000000000000000000000000F3
:101DF00000000000000000000000000000000000E3
:101E000000000000000000000000000000000000D2
:101E10000000FFFFFFC3839F83990103FFFFFF00C3
:101E200000000000000000000000000000000000B2
:101E300000000000000000000000000000000000A2
:101E40000000000000000000000000000000000092
:101E50000000000000000000000000000000000082
:101E6000000000000000000000000000E3C1C9E322
:101E7000F3610C1C0061FFFFFF0000000000000088
:101E80000000000000000000000000000000000052
:101E90000000000000000000000000000000000042
:101EA0000000000000000000000000000000000032
:101EB0000000000000000000000000000000000022
:101EC0000000000000009F83F1C181383D1981C3EB
:101ED000FFFFFF0000000000000000000000000005
:101EE00000000000000000000000000000000000F2
:101EF00000000000000000000000000000000000E2
:101F000000000000000000000000000000000000D1
:101F100000000000000000000000000000000000C1
:101F2000FFFFFF3C3C20000C2020FFFFFF000000D3
:101F300000000000000000000000000000000000A1
:101F40000000000000000000000000000000000091
:101F50000000000000000000000000000000000081
:101F60000000000000000000000000000000000071
:101F700000000000000000000000FFFFFF8783B9A1
:101F8000F9F98387FFFFFF00000000000000000058
:101F90000000000000000000000000000000000041
:101FA0000000000000000000000000000000000031
:101FB0000000000000000000000000000000000021
:101FC0000000000000000000000000000000000011
:101FD00000000000FFFFFF8383939B9900003C3CBF
:101FE000FF000000000000000000000000000000F2
:101FF00000000000000000000000000000000000E1
:1020000000000000000000000000000000000000D0
:1020100000000000000000000000000000000000C0
:102020000000000000000000000000000000FFFFB2
:10203000FFC3813901F98183FFFFFF000000000029
:102040000000000000000000000000000000000090
:102050000000000000000000000000000000000080
:102060000000000000000000000000000000000070
:102070000000000000000000000000000000000060
:1020800000000000000000009B9BFFC3813901F9A4
:102090008183FFFFFF00000000000000000000003F
:1020A0000000000000000000000000000000000030
:1020B0000000000000000000000000000000000020
:1020C0000000000000000000000000000000000010
:1020D0000000000000000000000000000000000000
:1020E0000000E3E3E781012424240181E7E7E7001E
:1020F00000000000000000000000000000000000E0
:1021000000000000000000000000000000000000CF
:1021100000000000000000000000000000000000BF
:1021200000000000000000000000000000000000AF
:10213000000000000000000000000000FFFFFF01A1
:102140000133F3F3C1C1FFFFFF00000000000000F6
:10215000000000000000000000000000000000007F
:10216000000000000000000000000000000000006F
:10217000000000000000000000000000000000005F
:10218000000000000000000000000000000000004F
:10219000000000000000FFFFFF24A18181A1252491
:1021A000FFFFFF0000000000000000000000000032
:1021B000000000000000000000000000000000001F
:1021C000000000000000000000000000000000000F
:1021D00000000000000000000000000000000000FF
:1021E00000000000000000000000000000000000EF
:1021F000FFB7970101D38181C9E9FFFFFF0000000C
:1022000000000000000000000000000000000000CE
:1022100000000000000000000000000000000000BE
:1022200000000000000000000000000000000000AE
:10223000000000000000000000000000000000009E
:1022400000000000000000000000FFFFFFB99989B6
:10225000A1B1B1B9FFFFFF000000000000000000C5
:10226000000000000000000000000000000000006E
:10227000000000000000000000000000000000005E
:10228000000000000000000000000000000000004E
:10229000000000000000000000000000000000003E
:1022A00000000000FFFFFF8381B98183B1B9FFFF08
:1022B000FF0000000000000000000000000000001F
:1022C000000000000000000000000000000000000E
:1022D00000000000000000000000000000000000FE
:1022E00000000000000000000000000000000000EE
:1022F0000000000000000000000000000000FFFFE0
:10230000FF8D05212125058DFFFFFF000000000046
:1023100000000000000000000000000000000000BD
:1023200000000000000000000000000000000000AD
:10233000000000000000000000000000000000009D
:10234000000000000000000000000000000000008D
:102350000000000000000000FFFFFF3999C9C1C95B
:102360001939FFFFFF00000000000000000000001E
:10237000000000000000000000000000000000005D
:10238000000000000000000000000000000000004D
:10239000000000000000000000000000000000003D
:1023A000000000000000000000000000000000002D
:1023B0000000FFFFFF8383939B99989CFFFFFF0022
:1023C000000000000000000000000000000000000D
:1023D00000000000000000000000000000000000FD
:1023E00000000000000000000000000000000000ED
:1023F00000000000000000000000000000000000DD
:10240000000000000000000000000000FFFFFF3897
:102410001800242C3C3CFFFFFF00000000000000DF
:1024200000000000000000000000000000000000AC
:10243000000000000000000000000000000000009C
:10244000000000000000000000000000000000008C
:10245000000000000000000000000000000000007C
:10246000000000000000FFFFFFF9F981811981C120
:10247000FFFFFF000000000000000000000000005F
:10248000000000000000000000000000000000004C
:10249000000000000000000000000000000000003C
:1024A000000000000000000000000000000000002C
:1024B000000000000000000000000000000000001C
:1024C000FFFFFFFFFFC3C3FFFFFFFFFFFF00000091
:1024D00000000000000000000000000000000000FC
:1024E00000000000000000000000000000000000EC
:1024F00000000000000000000000000000000000DC
:1025000000000000000000000000000000000000CB
:1025100000000000000000000000FFFFFF3939014B
:1025200001393939FFFFFF00000000000000000002
:10253000000000000000000000000000000000009B
:10254000000000000000000000000000000000008B
:10255000000000000000000000000000000000007B
:10256000000000000000000000000000000000006B
:1025700000000000FFFFFFC381393C3981C3FFFF2A
:10258000FF0000000000000000000000000000004C
:10259000000000000000000000000000000000003B
:1025A000000000000000000000000000000000002B
:1025B000000000000000000000000000000000001B
:1025C0000000000000000000000000000000FFFF0D
:1025D000FF01013939393939FFFFFF0000000000E0
:1025E00000000000000000000000000000000000EB
:1025F00000000000000000000000000000000000DB
:1026000000000000000000000000000000000000CA
:1026100000000000000000000000000000000000BA
:102620000000000000000000713494C4E187436B97
:102630004D9FFFFFFF0000000000000000000000B1
:10264000000000000000000000000000000000008A
:10265000000000000000000000000000000000007A
:10266000000000000000000000000000000000006A
:10267000000000000000000000000000000000005A
:102680000000FFE7E7E70101E7E7E7FFFFFFFF00E3
:10269000000000000000000000000000000000003A
:1026A000000000000000000000000000000000002A
:1026B000000000000000000000000000000000001A
:1026C000000000000000000000000000000000000A
:1026D000000000000000000000000000FFFFFF807D
:1026E0008039391981C1F9F9F900000000000000B2
:1026F00000000000000000000000000000000000DA
:1027000000000000000000000000000000000000C9
:1027100000000000000000000000000000000000B9
:1027200000000000000000000000000000000000A9
:10273000000000000000FFFFFF24242424240000E8
:10274000FFFFFF000000000000000000000000008C
:102750000000000000000000000000000000000079
:102760000000000000000000000000000000000069
:102770000000000000000000000000000000000059
:102780000000000000000000000000000000000049
:10279000FFFFFFA4A4A4A4A400007F7FFF0000000B
:1027A0000000000000000000000000000000000029
:1027B0000000000000000000000000000000000019
:1027C0000000000000000000000000000000000009
:1027D00000000000000000000000000000000000F9
:1027E00000000000000000000000BF9F9FCFCFEF5F
:1027F000E7F7F3FBF9F9FF0000000000000000001C
:1028000000000000000000000000000000000000C8
:1028100000000000000000000000000000000000B8
:1028200000000000000000000000000000000000A8
:102830000000000000000000000000000000000098
:1028400000000000DBD3C70101C7D3DBFFFFFFFFA0
:10285000FF00000000000000000000000000000079
:102860000000000000000000000000000000000068
:102870000000000000000000000000000000000058
:102880000000000000000000000000000000000048
:102890000000000000000000000000000000FFFF3A
:1028A000FF010125E7E78181FFFFFF000000000035
:1028B0000000000000000000000000000000000018
:1028C0000000000000000000000000000000000008
:1028D00000000000000000000000000000000000F8
:1028E00000000000000000000000000000000000E8
:1028F0000000000000000000FFFFFFFFF3818FFFDA
:10290000FFFFFFFFFF0000000000000000000000CC
:1029100000000000000000000000000000000000B7
:1029200000000000000000000000000000000000A7
:102930000000000000000000000000000000000097
:102940000000000000000000000000000000000087
:102950000000FEFEFE989898989800007E7EFE008B
:102960000000000000000000000000000000000067
:102970000000000000000000000000000000000057
:102980000000000000000000000000000000000047
:102990000000000000000000000000000000000037
:1029A000000000000000000000000000FFFFFFF03A
:1029B000F08303338383FFFFFF000000000000006B
:1029C0000000000000000000000000000000000007
:1029D00000000000000000000000000000000000F7
:1029E00000000000000000000000000000000000E7
:1029F00000000000000000000000000000000000D7
:102A0000000000000000FFFFFFC0C0CCC09C80C0E1
:102A1000FFFFFF00000000000000000000000000B9
:102A200000000000000000000000000000000000A6
:102A30000000000000000000000000000000000096
:102A40000000000000000000000000000000000086
:102A50000000000000000000000000000000000076
:102A6000C3819D9FCFE7E7FFE7E7FFFFFF0000007F
:102A70000000000000000000000000000000000056
:102A80000000000000000000000000000000000046
:102A90000000000000000000000000000000000036
:102AA0000000000000000000000000000000000026
:102AB00000000000000000000000FFFFFF3993C38A
:102AC000C7C39939FFFFFF000000000000000000AD
:102AD00000000000000000000000000000000000F6
:102AE00000000000000000000000000000000000E6
:102AF00000000000000000000000000000000000D6
:102B000000000000000000000000000000000000C5
:102B100000000000FFFFFF3C39999393C7C7CFE146
:102B2000F3000000000000000000000000000000B2
:102B30000000000000000000000000000000000095
:102B40000000000000000000000000000000000085
:102B50000000000000000000000000000000000075
:102B60000000000000000000000000000000FFFF67
:102B7000FF8381998F3F8183FFFFFF0000000000EA
:102B80000000000000000000000000000000000045
:102B90000000000000000000000000000000000035
:102BA0000000000000000000000000000000000025
:102BB0000000000000000000000000000000000015
:102BC0000000000000000000FFFFFFFFFFFFFFFF0D
:102BD000F3E3E7F7FB000000000000000000000046
:102BE00000000000000000000000000000000000E5
:102BF00000000000000000000000000000000000D5
:102C000000000000000000000000000000000000C4
:102C100000000000000000000000000000000000B4
:102C200000008F87E7E7E7F1F1E7E7E7E7878F0045
:102C30000000000000000000000000000000000094
:102C40000000000000000000000000000000000084
:102C50000000000000000000000000000000000074
:102C60000000000000000000000000000000000064
:102C7000000000000000000000000000E1E1CFCFF4
:102C8000CF8F8FCFCFCFE7E1E10000000000000041
:102C90000000000000000000000000000000000034
:102CA0000000000000000000000000000000000024
:102CB0000000000000000000000000000000000014
:102CC0000000000000000000000000000000000004
:102CD000000000000000FFFFFF8381B98183B1B9CC
:102CE000FFFFFF00000000000000000000000000E7
:102CF00000000000000000000000000000000000D4
:102D000000000000000000000000000000000000C3
:102D100000000000000000000000000000000000B3
:102D200000000000000000000000000000000000A3
:102D3000FFFFFFC1811D071F81C1FFFFFF000000D2
:102D40000000000000000000000000000000000083
:102D50000000000000000000000000000000000073
:102D60000000000000000000000000000000000063
:102D70000000000000000000000000000000000053
:102D800000000000000000000000D3C7FFB999094F
:102D9000A1B1B1B9FFFFFF0000000000000000007A
:102DA0000000000000000000000000000000000023
:102DB0000000000000000000000000000000000013
:102DC0000000000000000000000000000000000003
:102DD00000000000000000000000000000000000F3
:102DE00000000000FFFFFFFFFFFFFFFFFFFFFFFFEF
:102DF000FF000000000000000000000000000000D4
:102E000000000000000000000000000000000000C2
:102E100000000000000000000000000000000000B2
:102E200000000000000000000000000000000000A2
:102E30000000000000000000000000000000FFFF94
:102E4000FFFFFFFFFFFFE7E7FFFFFF0000000000BD
:102E50000000000000000000000000000000000072
:102E60000000000000000000000000000000000062
:102E70000000000000000000000000000000000052
:102E80000000000000000000000000000000000042
:102E90000000000000000000C38119190D313999AC
:102EA00081C3FFFFFF0000000000000000000000E1
:102EB0000000000000000000000000000000000012
:102EC0000000000000000000000000000000000002
:102ED00000000000000000000000000000000000F2
:102EE00000000000000000000000000000000000E2
:102EF0000000FFFFFFE7E7FFFFFFFFE7E7FFFF003F
:102F000000000000000000000000000000000000C1
:102F100000000000000000000000000000000000B1
:102F200000000000000000000000000000000000A1
:102F30000000000000000000000000000000000091
:102F4000000000000000000000000000FFFFFFC1C3
:102F5000819F81809C0011FFFF00000000000000A5
:102F60000000000000000000000000000000000061
:102F70000000000000000000000000000000000051
:102F80000000000000000000000000000000000041
:102F90000000000000000000000000000000000031
:102FA000000000000000F8F8F98101317979390159
:102FB00083FFFF0000000000000000000000000090
:102FC0000000000000000000000000000000000001
:102FD00000000000000000000000000000000000F1
:102FE00000000000000000000000000000000000E1
:102FF00000000000000000000000000000000000D1
:10300000FFFFFF8381B8FCFCF80183FFFF00000095
:1030100000000000000000000000000000000000B0
:1030200000000000000000000000000000000000A0
:103030000000000000000000000000000000000090
:103040000000000000000000000000000000000080
:10305000000000000000000000008F8F9F81809C16
:103060009C9C9C0021FFFF0000000000000000006D
:103070000000000000000000000000000000000050
:103080000000000000000000000000000000000040
:103090000000000000000000000000000000000030
:1030A0000000000000000000000000000000000020
:1030B00000000000FFFFFFC3813C0000FC8183FF94
:1030C000FF00000000000000000000000000000001
:1030D00000000000000000000000000000000000F0
:1030E00000000000000000000000000000000000E0
:1030F00000000000000000000000000000000000D0
:1031000000000000000000000000000000000703B5
:10311000F38080F3F3F3F38000FFFF000000000072
:10312000000000000000000000000000000000009F
:10313000000000000000000000000000000000008F
:10314000000000000000000000000000000000007F
:10315000000000000000000000000000000000006F
:103160000000000000000000FFFFFF8301989C9C0E
:103170001880019F81000000000000000000000096
:10318000000000000000000000000000000000003F
:10319000000000000000000000000000000000002F
:1031A000000000000000000000000000000000001F
:1031B000000000000000000000000000000000000F
:1031C0000000F8F8F98901317939793979FFFF0080
:1031D00000000000000000000000000000000000EF
:1031E00000000000000000000000000000000000DF
:1031F00000000000000000000000000000000000CF
:1032000000000000000000000000000000000000BE
:10321000000000000000000000000000E7E7FFE001
:10322000E0E7E7E7E70000FFFF0000000000000024
:10323000000000000000000000000000000000008E
:10324000000000000000000000000000000000007E
:10325000000000000000000000000000000000006E
:10326000000000000000000000000000000000005E
:103270000000000000009F9FFF81839F9F9F9F9FF2
:103280009F9F81000000000000000000000000007F
:10329000000000000000000000000000000000002E
:1032A000000000000000000000000000000000001E
:1032B000000000000000000000000000000000000E
:1032C00000000000000000000000000000000000FE
:1032D000F8F8F9391989C1C1991939FFFF000000BF
:1032E00000000000000000000000000000000000DE
:1032F00000000000000000000000000000000000CE
:1033000000000000000000000000000000000000BD
:1033100000000000000000000000000000000000AD
:1033200000000000000000000000E1E1E7E7E7E73F
:10333000E7E7E7070FFFFF000000000000000000C4
:10334000000000000000000000000000000000007D
:10335000000000000000000000000000000000006D
:10336000000000000000000000000000000000005D
:10337000000000000000000000000000000000004D
:1033800000000000FFFFFF1200262626262626FF4B
:10339000FF0000000000000000000000000000002E
:1033A000000000000000000000000000000000001D
:1033B000000000000000000000000000000000000D
:1033C00000000000000000000000000000000000FD
:1033D0000000000000000000000000000000FFFFEF
:1033E000FF0800317979797979FFFF00000000004A
:1033F00000000000000000000000000000000000CD
:1034000000000000000000000000000000000000BC
:1034100000000000000000000000000000000000AC
:10342000000000000000000000000000000000009C
:103430000000000000000000FFFFFFC1801C3C3CBA
:103440001C80C3FFFF00000000000000000000001F
:10345000000000000000000000000000000000006C
:10346000000000000000000000000000000000005C
:10347000000000000000000000000000000000004C
:10348000000000000000000000000000000000003C
:103490000000FFFF0800317979390181F9F9F9005D
:1034A000000000000000000000000000000000001C
:1034B000000000000000000000000000000000000C
:1034C00000000000000000000000000000000000FC
:1034D00000000000000000000000000000000000EC
:1034E000000000000000000000000000FFFF8381DA
:1034F000989C9C9C80819F9F1F0000000000000002
:1035000000000000000000000000000000000000BB
:1035100000000000000000000000000000000000AB
:10352000000000000000000000000000000000009B
:10353000000000000000000000000000000000008B
:10354000000000000000FFFF880033F3F3F38080E9
:10355000FFFFFF000000000000000000000000006E
:10356000000000000000000000000000000000005B
:10357000000000000000000000000000000000004B
:10358000000000000000000000000000000000003B
:10359000000000000000000000000000000000002B
:1035A000FFFF8180F8E1879D80C1FFFFFF000000E1
:1035B000000000000000000000000000000000000B
:1035C00000000000000000000000000000000000FB
:1035D00000000000000000000000000000000000EB
:1035E00000000000000000000000000000000000DB
:1035F00000000000000000000000F3F30000F3F3FF
:10360000F3730307FFFFFF0000000000000000004D
:1036100000000000000000000000000000000000AA
:10362000000000000000000000000000000000009A
:10363000000000000000000000000000000000008A
:10364000000000000000000000000000000000007A
:1036500000000000FFFF8C8C9C9C9C9C0031FFFFB5
:10366000FF0000000000000000000000000000005B
:10367000000000000000000000000000000000004A
:10368000000000000000000000000000000000003A
:10369000000000000000000000000000000000002A
:1036A0000000000000000000000000000000FFFF1C
:1036B0003C1C9999C1C3C3E7FFFFFF000000000055
:1036C00000000000000000000000000000000000FA
:1036D00000000000000000000000000000000000EA
:1036E00000000000000000000000000000000000DA
:1036F00000000000000000000000000000000000CA
:103700000000000000000000FFFF7E3E2424008037
:103710008899FFFFFF00000000000000000000008B
:103720000000000000000000000000000000000099
:103730000000000000000000000000000000000089
:103740000000000000000000000000000000000079
:103750000000000000000000000000000000000069
:103760000000FFFF1C99C1C3C3C9981CFFFFFF00E5
:103770000000000000000000000000000000000049
:103780000000000000000000000000000000000039
:103790000000000000000000000000000000000029
:1037A0000000000000000000000000000000000019
:1037B000000000000000000000000000FFFF3C3C93
:1037C0009C9999D3C3C3E7E1F10000000000000019
:1037D00000000000000000000000000000000000E9
:1037E00000000000000000000000000000000000D9
:1037F00000000000000000000000000000000000C9
:1038000000000000000000000000000000000000B8
:10381000000000000000FFFF00008FC7F3F9000068
:10382000FFFFFF000000000000000000000000009B
:103830000000000000000000000000000000000088
:103840000000000000000000000000000000000078
:103850000000000000000000000000000000000068
:103860000000000000000000000000000000000058
:1038700011241FBECFEFCDBFDFE3DEBF00E00CBFE2
:1038800018BE19BE1ABE1BBE10E2A0E0B0E2ECE00A
:10389000FBE700E00BBF02C007900D92AC3DB10703
:1038A000D9F71BBE13E3ACEDB0E201C01D92A0320C
:1038B000B107E1F70E94313D0C94843D0C94000067
:1038C000CF93DF931F92CDB7DEB780E090E20E94E6
:1038D000971C88EE93E00E94DE2A0E94741F84EFFA
:1038E00091E00E94DE2A48EC50E068EC70E08AEE3D
:1038F00092E00E94982084EF91E00E94DE2A8AE103
:1039000090E20E94971C0E94192689838981803148
:10391000D1F389810E944826F6CF81E08093010689
:10392000089581E08093070608950C94DE2ACF93D2
:10393000DF931F921F92CDB7DEB789839A8320E071
:1039400044E650E0BE016F5F7F4F80911633909147
:1039500017330E94F3300F900F90DF91CF910895AD
:10396000E0EAF6E088E085838183E0EAFBE083E03B
:10397000858383818F63838389E186831782848132
:103980008D60848308959091A10B95FFFCCF809367
:10399000A00B0895EF92FF921F93CF93DF931F9296
:1039A000CDB7DEB77C011982FC0101900020E9F758
:1039B00031971E2F181B19828981811758F489812C
:1039C000F701E80FF11D80810E94C31C89818F5F80
:1039D0008983F2CF8AE00E94C31C8DE00E94C31C41
:1039E0000F90DF91CF911F91FF90EF900895CF93AB
:1039F000DF931F921F92CDB7DEB78091163390915F
:103A000017330E9419348823C1F34FEF5FEFBE01D3
:103A10006F5F7F4F80911633909117330E94F3317F
:103A2000813059F789819A81009739F30E94CA1C25
:103A3000E4CF0C94DE2A8093C3088091C20887FFEC
:103A4000FCCF80E008950F931F93CF93DF938C01F9
:103A5000EB018091040681FF03C082E0809306069B
:103A600010921C3320911C3330E02C173D0760F47A
:103A7000F801E20FF31F80810E941B1D90911C33FF
:103A80009F5F90931C33EECFDF91CF911F910F91E9
:103A900008950F931F93CF93DF938C01EB018091D7
:103AA000040681FD03C082E08093050610921C335A
:103AB00020911C3330E02C173D0760F4F801E20F31
:103AC000F31F80810E941B1D90911C339F5F909378
:103AD0001C33EECFDF91CF911F910F91089580910C
:103AE000080683FF05C084E690E00E94DE2AF7CF37
:103AF00008958091440684FF03C080E180934606C8
:103B00008091040681FF03C082E08093060682E272
:103B10000E941B1D8091040681FD03C082E08093FA
:103B2000050684EC0E941B1D8091440684FD03C0A1
:103B300080E1809345068091440684FF03C080E1C4
:103B4000809346068091040681FF03C082E0809343
:103B5000060680E20E941B1D8091440684FD03C07E
:103B600080E1809345068091440684FF03C080E194
:103B7000809346068091040681FF03C082E0809313
:103B800006068FEF0E941B1D8091440684FD03C032
:103B900080E1809345060C946F1D0F931F93CF9384
:103BA000DF93EC018B010E946F1D8091440684FF1E
:103BB00003C080E1809346068091040681FF03C024
:103BC00082E0809306068EE40E941B1D83E0D5955B
:103BD000C7958A95E1F78091040681FD03C082E0D4
:103BE000809305068C2F0E941B1D8091440684FD46
:103BF00003C080E1809345068091440684FF03C0A2
:103C000080E1809346068091040681FF03C082E034
:103C1000809306068FE40E941B1D8091040681FD9F
:103C200003C082E080930506802F0E941B1D8091B7
:103C3000040681FD03C082E080930506812F0E9467
:103C40001B1D8091440684FD03C080E180934506DE
:103C5000DF91CF911F910F910895EF92FF920F93F3
:103C60001F93CF93DF93182FE62ED42FC52FF22E5C
:103C7000032F8091440684FF03C080E180934606B1
:103C80008091040681FF03C082E08093060684E4ED
:103C90000E941B1D8091040681FD03C082E0809379
:103CA0000506812F0E941B1D8091040681FD03C023
:103CB00082E0809305068E2D0E941B1D8091440694
:103CC00084FD03C080E1809345068091440684FF13
:103CD00003C080E1809346068091040681FF03C003
:103CE00082E08093060685E40E941B1D80910406F5
:103CF00081FD03C082E0809305068D2F0E941B1D6D
:103D00008091040681FD03C082E0809305068C2F1C
:103D10000E941B1D8091040681FD03C082E08093F8
:103D200005068F2D0E941B1D8091040681FD03C096
:103D300082E080930506802F0E941B1D809144061F
:103D400084FD03C080E1809345068091440684FF92
:103D500003C080E1809346068091040681FF03C082
:103D600082E0809306068EE40E941B1D809104066B
:103D700081FD03C082E080930506812F0E941B1DF8
:103D80008091440684FD03C080E1809345068091C4
:103D9000440684FF03C080E18093460680910406B8
:103DA00081FF03C082E0809306068FE40E941B1D02
:103DB0008091040681FD03C082E0809305068D2F6B
:103DC0000E941B1D8091040681FD03C082E0809348
:103DD00005068C2F0E941B1D8091440684FD03C0A4
:103DE00080E180934506DF91CF911F910F91FF9065
:103DF000EF9008950F931F93CF93DF93182F27EC25
:103E000030E047EC50E060E080E00E942D1E8091A1
:103E1000440684FF03C080E1809346068091040637
:103E200081FF03C082E08093060684E20E941B1D8E
:103E3000C8E8D3E102E08091040681FF0093050603
:103E4000812F0E941B1D2197B1F78091440684FDAC
:103E500003C080E180934506DF91CF911F910F91C0
:103E600008951F93CF93DF93EC018091440684FF64
:103E700003C080E1809346068091040681FF03C061
:103E800082E08093060682E30E941B1D10921C3381
:103E900012E090911C339E3190F4FE01E90FF11D68
:103EA000E4918091040681FF109305068E2F0E94F5
:103EB0001B1D90911C339F5F90931C33EACF809120
:103EC000440684FD03C080E180934506DF91CF91D5
:103ED0001F9108958FEF0E94FA1E0E94791D80E0C5
:103EE0000E94FA1E0C94791DCF9380EB80934106BB
:103EF0008091440684FD03C080E18093450698E0EC
:103F00009093020680E58093C00810921A331092B5
:103F10001B3382E08093010680E180930106909339
:103F200002069091440694FF80934506C0E1C09339
:103F3000060684E690E00E94DE2AC093050688EE1D
:103F400093E00E94DE2A8091440684FDC0934606D9
:103F50008091040681FF03C082E08093060681E021
:103F60000E941B1D8091040681FD03C082E08093A6
:103F7000050687EC0E941B1D8091040681FD03C08D
:103F800082E08093050680E00E941B1D809104065C
:103F900081FD03C082E08093050680E00E941B1D26
:103FA0008091440684FD03C080E1809345068091A2
:103FB000440684FF03C080E1809346068091040696
:103FC00081FF03C082E0809306068CE00E941B1DE7
:103FD0008091040681FD03C082E08093050687ED91
:103FE0000E941B1D8091040681FD03C082E0809326
:103FF000050686ED0E941B1D8091040681FD03C00D
:1040000082E0809305068DE90E941B1D8091440685
:1040100084FD03C080E1809345068091440684FFBF
:1040200003C080E1809346068091040681FF03C0AF
:1040300082E0809306068CE20E941B1D809104069C
:1040400081FD03C082E08093050688EA0E941B1D63
:104050008091440684FD03C080E1809345068091F1
:10406000440684FF03C080E18093460680910406E5
:1040700081FF03C082E0809306068AE30E941B1D35
:104080008091040681FD03C082E0809305068AE1E9
:104090000E941B1D8091440684FD03C080E1809333
:1040A00045068091440684FF03C080E18093460664
:1040B0008091040681FF03C082E0809306068BE3B3
:1040C0000E941B1D8091040681FD03C082E0809345
:1040D000050688E00E941B1D8091440684FD03C0F4
:1040E00080E1809345068091440684FF03C080E10F
:1040F000809346068091040681FF03C082E080938E
:10410000060681E10E941B1D8091040681FD03C00B
:1041100082E08093050681E00E941B1D8091440689
:1041200084FD03C080E180934506CF910C946A1F03
:104130007F928F929F92AF92BF92CF92DF92EF9237
:10414000FF920F931F93CF93DF938C01EB017A01C2
:104150006B0187E0C80ED11C23E0D694C7942A9542
:10416000E1F781E996E10E94311F8091440684FFC6
:1041700003C080E1809346068091040681FF03C05E
:1041800082E08093060682E20E941B1D8091040655
:1041900081FD03C082E08093050680EC0E941B1D18
:1041A0008091440684FD03C080E1809345068091A0
:1041B000440684FF03C080E1809346068091040694
:1041C00081FF03C082E08093060680E20E941B1DEF
:1041D0008091440684FD03C080E1809345060E94DF
:1041E0006F1D6FEF6C0D20E030E0A70141505109C9
:1041F00080E00E942D1EDD27279693E0D595C79578
:104200009A95E1F78091440684FF03C080E1809392
:1042100046068091040681FF03C082E08093060673
:1042200084E20E941B1DC12CD12CA12CB12C82E058
:10423000782EAE14BF0429F1D0E0DC17F0F401159C
:10424000110549F48091040681FF709205068FEFF5
:104250000E941B1D10C046018FEF881A980AF801B2
:10426000EC0DFD1D84919091040691FF709205065E
:104270000E941B1D6401DF5FE0CF8FEFA81AB80A10
:10428000D8CF8091440684FD03C080E18093450629
:104290000E946F1D8091440684FF03C080E18093DB
:1042A00046068091040681FF03C082E080930606E3
:1042B00082E20E941B1D8091040681FD03C082E002
:1042C0008093050687EC0E941B1D8091440684FDA7
:1042D00003C080E1809345068091440684FF03C0BB
:1042E00080E1809346068091040681FF03C082E04E
:1042F0008093060680E20E941B1D8091440684FD87
:1043000003C080E1809345068091440684FF03C08A
:1043100080E1809346068091040681FF03C082E01D
:10432000809306068FEF0E941B1D8091440684FD3A
:1043300003C080E1809345060E946F1D8091440672
:1043400084FF03C080E1809346068091040681FFCC
:1043500003C082E08093060682E20E941B1D8091CA
:10436000040681FD03C082E08093050680EC0E9474
:104370001B1D8091440684FD03C080E180934506A7
:104380008091440684FF03C080E1809346068091BB
:10439000040681FF03C082E08093060680E20E944B
:1043A0001B1D8091440684FD03C080E18093450677
:1043B000DF91CF911F910F91FF90EF90DF90CF9001
:1043C000BF90AF909F908F907F900C946F1D8091C5
:1043D000440684FF03C080E1809346068091040672
:1043E00081FF03C082E08093060682E20E941B1DCB
:1043F0008091040681FD03C082E08093050684E07D
:104400000E941B1D8091440684FD03C080E18093BF
:1044100045068091440684FF03C080E180934606F0
:104420008091040681FF03C082E08093060680E24B
:104430000E941B1D8091440684FD03C080E180938F
:1044400045068091440684FF03C080E180934606C0
:104450008091040681FF03C082E0809306068FEFFF
:104460000E941B1D8091440684FD03C080E180935F
:10447000450608952F923F924F925F926F927F92DE
:104480008F929F92AF92BF92CF92DF92EF92FF9264
:104490000F931F93CF93DF935C01462E542E022F70
:1044A0000E946F1D82E796E10E94311F80914406B1
:1044B00084FF03C080E1809346068091040681FF5B
:1044C00003C082E08093060682E20E941B1D809159
:1044D000040681FD03C082E08093050680EC0E9403
:1044E0001B1D8091440684FD03C080E18093450636
:1044F0008091440684FF03C080E18093460680914A
:10450000040681FF03C082E08093060680E20E94D9
:104510001B1D8091440684FD03C080E18093450605
:104520000E946F1D20E030E047EC50E068E180E041
:104530000E942D1EC0901A33D0901B3380914406E8
:1045400084FF03C080E1809346068091040681FFCA
:1045500003C082E08093060684E20E941B1D58EC93
:10456000E52EF12CC0E0D0E062E0762E19E1C11416
:10457000D10449F48091040681FF709205068FEF03
:104580000E941B1D10C04E018FEF881A980AF60179
:10459000EC0FFD1F84919091040691FF7092050627
:1045A0000E941B1DE401115011F781E0E81AF10887
:1045B000E9F68091440684FD03C080E180934506BE
:1045C0000E94E72120E030E047EC50E068E180E025
:1045D0000E942D1EC0901A33D0901B338091440648
:1045E00084FF03C080E1809346068091040681FF2A
:1045F00003C082E08093060684E20E941B1D38EC13
:10460000E32EF12CC0E0D0E042E0742E19E1C11499
:10461000D10449F48091040681FF709205068FEF62
:104620000E941B1D10C04E018FEF881A980AF601D8
:10463000EC0FFD1F84919091040691FF7092050686
:104640000E941B1DE401115011F781E0E81AF108E6
:10465000E9F68091440684FD03C080E1809345061D
:1046600010921C3310E048018CE0880E911C90E100
:10467000292E22E0322E80911C33841508F04AC086
:10468000F501E80FF11D80810E949A266C019401CA
:10469000A801652D852D0E942D1E8091440684FD64
:1046A000209246068091040681FD3092060684E23F
:1046B0000E941B1D8DE0E82EF12CC0E0D0E0C1145B
:1046C000D10449F48091040681FF309205068FEFF2
:1046D0000E941B1D10C03E018FEF681A780AF60178
:1046E000EC0FFD1F84919091040691FF3092050616
:1046F0000E941B1DE30181E0E81AF10801F7809197
:10470000440684FF2092450680911C338F5F80937E
:104710001C33B1CF0E94E7218091440684FF03C07F
:1047200080E1809346068091040681FF03C082E009
:104730008093060682E20E941B1D8091040681FD83
:1047400003C082E08093050680EC0E941B1D8091CF
:10475000440684FD03C080E18093450680914406B1
:1047600084FF03C080E1809346068091040681FFA8
:1047700003C082E08093060680E20E941B1D8091A8
:10478000440684FD03C080E180934506DF91CF910C
:104790001F910F91FF90EF90DF90CF90BF90AF905F
:1047A0009F908F907F906F905F904F903F902F9051
:1047B0000C946F1D2F923F924F925F926F927F9257
:1047C0008F929F92AF92BF92CF92DF92EF92FF9221
:1047D0000F931F93CF93DF938C016B017A010E949B
:1047E0006F1D82E796E10E94311F8091440684FF8D
:1047F00003C080E1809346068091040681FF03C0D8
:1048000082E08093060682E20E941B1D80910406CE
:1048100081FD03C082E08093050680EC0E941B1D91
:104820008091440684FD03C080E180934506809119
:10483000440684FF03C080E180934606809104060D
:1048400081FF03C082E08093060680E20E941B1D68
:104850008091440684FD03C080E1809345060E9458
:104860006F1D20E030E047EC50E068E180E00E94FE
:104870002D1E8091440684FF03C080E1809346068C
:104880008091040681FF03C082E08093060684E2E3
:104890000E941B1D68ECA62EB12CC0E0D0E072E097
:1048A000672E59E1752E0115110549F48091040612
:1048B00081FF609205068FEF0E941B1D10C04E0104
:1048C0008FEF881A980AF801EC0FFD1F84919091E0
:1048D000040691FF609205060E941B1DE4017A9474
:1048E0007110E1CF91E0A91AB108D9F68091440680
:1048F00084FD03C080E1809345060E94E72120E00B
:1049000030E047EC50E068E180E00E942D1E80918D
:10491000440684FF03C080E180934606809104062C
:1049200081FF03C082E08093060684E20E941B1D83
:1049300038ECA32EB12CC0E0D0E042E0642E29E197
:10494000722E0115110549F48091040681FF6092D1
:1049500005068FEF0E941B1D10C04E018FEF881AB5
:10496000980AF801EC0FFD1F84919091040691FFC5
:10497000609205060E941B1DE4017A947110E1CF3C
:1049800091E0A91AB108D9F68091440684FD03C0CC
:1049900080E18093450610921C3380E1482E92E01E
:1049A000592E80911C33282F30E02E153F0508F03A
:1049B0005EC0F60196E0899FE00DF11D1124A080F4
:1049C000B180C28103818481458150E010E09A0169
:1049D000200F311F215031096C2F680F61500E9448
:1049E0002D1ECF713C2E8091440684FD40924606D8
:1049F0008091040681FD5092060684E20E941B1DF0
:104A0000C0E0D0E0812C912C8016910628F5212C55
:104A10002314F0F4A114B10449F48091040681FF39
:104A2000509205068FEF0E941B1D10C03E018FEFB4
:104A3000681A780AF501EC0FFD1F84919091040625
:104A400091FF509205060E941B1DE3012394E0CFC5
:104A50009FEF891A990AD8CF8091440684FF40922B
:104A6000450680911C338F5F80931C339ACF0E9440
:104A7000E7218091440684FF03C080E180934606CD
:104A80008091040681FF03C082E08093060682E2E3
:104A90000E941B1D8091040681FD03C082E080936B
:104AA000050680EC0E941B1D8091440684FD03C016
:104AB00080E1809345068091440684FF03C080E135
:104AC000809346068091040681FF03C082E08093B4
:104AD000060680E20E941B1D8091440684FD03C0EF
:104AE00080E180934506DF91CF911F910F91FF9058
:104AF000EF90DF90CF90BF90AF909F908F907F907E
:104B00006F905F904F903F902F900C946F1D80EEB0
:104B100080936106E0E4F6E087E082838785806128
:104B2000878780898061808B81898061818B0895EE
:104B30001F93CF93DF9380EE8093620680E2809391
:104B400061068093650688E290E00E94951C1091B2
:104B5000480610FF07C081E690E20E94971CC1E062
:104B6000D0E002C0C0E0D0E011FF05C0C26087E61F
:104B700090E20E94971C12FF05C0C4608DE690E28F
:104B80000E94971C80E28093660680EE8093620606
:104B900080E4809361068093650688E290E00E943D
:104BA000951C1091480610FF05C0C86083E790E28D
:104BB0000E94971C11FF05C0C06189E790E20E9426
:104BC000971C12FF05C0C0628FE790E20E94971CFD
:104BD00080E48093660680EE8093620680E880938E
:104BE00061068093650688E290E00E94951C109112
:104BF000480610FF05C0C06485E890E20E94971C3B
:104C000011FF05C0C0688BE890E20E94971C12FF5C
:104C100005C0D16081E990E20E94971C80E88093F2
:104C2000660680EE80936206CE01DF91CF911F91E0
:104C300008950E949825009729F580911D33909141
:104C40001E33892B19F120E030E061E070E0822F03
:104C500040911D3350911E33FB01022E02C0EE0F16
:104C6000FF1F0A94E2F74E235F23452B31F42F5F99
:104C70003F4F2031310559F780E110921D331092DA
:104C80001E33089580931D3390931E3380E1089561
:104C900080931F3320E040E050E060E070E08091BE
:104CA0001833909119330C94F33080911F33089589
:104CB000CF93DF931F921F92CDB7DEB787E990E2C3
:104CC0000E94971C80E180931F330E94741F84EF21
:104CD00091E00E94951C48EC50E068EC70E08AEE90
:104CE00092E00E94982084EF91E00E94951C86EA51
:104CF00090E20E94971C1AE06FEF7FEF80911833CB
:104D0000909119330E9483328130B1F78DEB90E29C
:104D10000E94971C80911F3389831A8324E64AE0FE
:104D200062E0CE0101960E943A2288EE93E00E9452
:104D3000951CE2CF8A3538F42AE5829FC001112400
:104D40008055994E089580EB96E10895E0910A21EF
:104D5000F0910B218081811103C08FEF9FEF0CC078
:104D6000E0910A21F0910B210580F681E02D06806B
:104D7000F781E02D828193818093E1209093E2205E
:104D80000895EF92FF920F931F93CF93DF931F929B
:104D9000CDB7DEB77C010091E9201091EA20809127
:104DA000DC209091DD20029669830E94863569811E
:104DB0008FEFE816F80699F4662389F06091DC20FD
:104DC0007091DD206E5F7F4F8CEE90E20F90DF914F
:104DD000CF911F910F91FF90EF900C942D35E00E25
:104DE000F11EE091DC20F091DD20E282F3826091FF
:104DF000DC207091DD20E016F10678F48091082126
:104E0000909109216E5F7F4F0F90DF91CF911F919D
:104E10000F91FF90EF900C944E3580910A21909164
:104E20000B216E5F7F4F0E944E358091E120909163
:104E3000E220E816F90620F4E092E120F092E22068
:104E40000F90DF91CF911F910F91FF90EF900895F8
:104E50008091F520882309F10FB6F8940F92E09124
:104E6000FB20F091FC20C681D781CE0102960E94E2
:104E700086358091EB2081508093EB208091F52046
:104E800081508093F5200F900FBE8F89988D0E94DE
:104E9000A237CE010E94A237DBCF80911E21823043
:104EA000B8F20E947C3CD4CF2F923F925F926F92D7
:104EB0007F928F929F92AF92BF92CF92DF92EF92AA
:104EC000FF920F931F93CF93DF934C01562E172F12
:104ED0005A013901CA010E9470371C01009709F478
:104EE000D4C088E290E00E947037EC01009781F016
:104EF0002F8A388E650121E0C21AD108C20CD31C5A
:104F0000BC01675E7F4FE52DF12FCF01089607C0EA
:104F1000C1010E94A237B9C0E817F90749F09F0103
:104F20004191DB014D93BD01D9012C912111F4CFA9
:104F300018A2043008F003E00E8B09A31AA25E0148
:104F4000B2E0AB0EB11CC5010E942935CE010C9612
:104F50000E942935C887D98784E090E0801B910999
:104F60008C879D87CA8BDB8B1BA21CA21DA21EA255
:104F70001FA2A301B401C6010E94BF3B888399838D
:104F8000E114F10419F0F701C083D1830FB6F8944E
:104F90000F928091EB208F5F8093EB208091DC203B
:104FA0009091DD20892BD1F5C093DC20D093DD20BA
:104FB0008091EB20813009F041C08EE191E20E94A6
:104FC0001B3587E291E20E941B3580E391E20E944B
:104FD0001B3589E391E20E941B3585E191E20E9435
:104FE0001B358CE091E20E941B358FEF90E20E940E
:104FF0001B3586EF90E20E941B358CEE90E20E94FA
:105000001B3585E191E280930A2190930B218CE07E
:1050100091E2809308219093092110C08091E720AC
:1050200081110CC0E091DC20F091DD2096898E8901
:10503000891720F0C093DC20D093DD208091E320FD
:105040008F5F8093E3208E899091E820981710F469
:105050008093E820F9E08F9FC0011124B501825EA2
:105060009E4D0E942D350F900FBE8091E720882322
:1050700051F0E091DC20F091DD2096898E8998171F
:1050800010F40E947C3C81E001C08FEFDF91CF9152
:105090001F910F91FF90EF90DF90CF90BF90AF9056
:1050A0009F908F907F906F905F903F902F9008958A
:1050B0000F931F93CF93DF93EC010FB6F8940F92E9
:1050C000009721F4C091DC20D091DD208E010E5F8D
:1050D0001F4FC8010E9486358C899D89892B21F03C
:1050E000CE010C960E9486359091E3209F5F9093AD
:1050F000E3208091DC209091DD20C817D90759F476
:10510000B80186EF90E20E942D358091F5208F5FE7
:105110008093F5200EC08091EB2081508093EB208E
:105120008F89988D0E94A237CE010E94A2370E94DB
:10513000A6260F900FBE8091E720882349F080912A
:10514000DC209091DD20C817D90711F40E947C3C27
:10515000DF91CF911F910F9108950F931F93CF93DC
:10516000DF932091DC203091DD2082179307B9F185
:105170000097A9F10FB6F8940F92FC0122853385B0
:105180002C5E304251F5FC0124893589F0E22F3F35
:105190003F0719F1232B09F5EC018C010E5F1F4F1E
:1051A000C8010E9486359E898091E820891710F4F5
:1051B0009093E82029E0929FC0011124B801825EFB
:1051C0009E4D0E942D35E091DC20F091DD209E89DE
:1051D0008689981710F00E947C3C0F900FBEDF91DB
:1051E000CF911F910F910895EF92FF921F93CF934C
:1051F000DF93EC018A859B858C5E904299F48C89C3
:105200009D8920E28F3F920769F0892B59F48091A4
:10521000DE20882349F0BE01645F7F4F8FEF90E26C
:105220000E942D3510E021C0E091DC20F091DD20BE
:1052300011E09E898689981708F410E07E0182E0CB
:10524000E80EF11CC7010E9486359E898091E820F6
:10525000891710F49093E82029E0929FC00111244F
:10526000B701825E9E4D0E942D35812FDF91CF9137
:105270001F91FF90EF900895EF92FF920F938FEDA3
:10528000E82E80E2F82E00E020E030E045E550E036
:1052900066ED70E288E297E20E945427813091F433
:1052A000F8942FEF3FEF2093E1203093E22080939A
:1052B000E7201092E9201092EA200F91FF90EF90E2
:1052C0000C94363C0F91FF90EF900895F894109253
:1052D000E7200C947B3C8091DE208F5F8093DE2062
:1052E00008950FB6F8940F928091E9209091EA20EA
:1052F0000F900FBE08958091E9209091EA200895C3
:105300008091EB200895009721F48091DC2090910A
:10531000DD2049960895CF92DF92EF92FF920F938E
:105320001F93CF93DF938091DE2081118CC0009179
:10533000E9201091EA200F5F1F4F0093E92010939E
:10534000EA2001151105B9F480910A2190910B21F1
:10535000209108213091092120930A2130930B21BB
:1053600080930821909309218091E4208F5F80939E
:10537000E4200E94A6268091E1209091E220C0E0E6
:105380000817190708F44FC0D9E0E0910A21F091FD
:105390000B218081811103C08FEF9FEF11C0E0913D
:1053A0000A21F0910B210580F681E02DE680F7803F
:1053B000D70112968D919C9113970817190728F41D
:1053C0008093E1209093E2202EC06701B2E0CB0EE3
:1053D000D11CC6010E948635F70184899589892BE5
:1053E00021F0C7010C960E948635D70156969C91F4
:1053F0008091E820891710F49093E820D99FC0018C
:105400001124B601825E9E4D0E942D35E091DC2074
:10541000F091DD20D70156969C918689981708F463
:10542000B4CFC1E0B2CFE091DC20F091DD20E6897D
:10543000B9E0EB9FF0011124E25EFE4D80818230E5
:1054400040F0C1E006C08091E6208F5F8093E620A7
:10545000C0E08091E5208111C1E08C2FDF91CF91D8
:105460001F910F91FF90EF90DF90CF900895EF92F2
:10547000FF920F931F93CF93DF930FB6F8940F9281
:105480008091DE2081508093DE208091DE20882371
:1054900011F080E052C08091EB208823D1F3C0E06E
:1054A000D0E089E0F82EEE24E3948091FF20882359
:1054B00051F1E0910421F0910521C681D781CE01FF
:1054C0000C960E9486358E010E5F1F4FC8010E9408
:1054D00086359E898091E820891710F49093E82002
:1054E000F99EC0011124B801825E9E4D0E942D35A7
:1054F000E091DC20F091DD209E8986899817A8F242
:10550000E092E520D2CFCD2B11F00E94A626C091CB
:10551000E620CC2351F0D1E00E948B298111D09359
:10552000E520C150C9F71092E6208091E52088233C
:1055300009F4AFCF0E947C3C81E00F900FBEDF9159
:10554000CF911F910F91FF90EF9008950F931F93AC
:10555000CF93DF938C01EB010E946B294091E920EE
:105560005091EA20F801608171819B012C0F3D1F51
:105570004617570728F42617370748F491E004C068
:1055800091E02617370720F04217530708F090E004
:10559000F80120833183992331F060E0C901841B35
:1055A000950B0E94C1260E94372A811102C00E94D9
:1055B0007C3CDF91CF911F910F910895CF93DF93A2
:1055C0001F921F92CDB7DEB7009719F40E947C3C62
:1055D0000DC089839A830E946B2960E089819A813A
:1055E0000E94C1260E94372A882381F30F900F90D2
:1055F000DF91CF9108958091DE20882321F081E012
:105600008093E52008951092E5208091E82069E0DC
:10561000482F50E0649F9001659F300D1124F901DF
:10562000E25EFE4D9081911102C08150F1CFA181C7
:10563000B28112960D90BC91A02DA183B2832F5DF3
:105640003E4DA217B30731F412962D913C9113975A
:105650002183328399E0949FF001959FF00D1124EE
:10566000E25EFE4D0180F281E02D2681378120939C
:10567000DC203093DD208093E82008950F931F9362
:10568000CF93DF93EC010FB6F8940F92009721F4BB
:10569000C091DC20D091DD208E010E5F1F4FC8012C
:1056A0000E9486358C899D89892B21F0CE010C962C
:1056B0000E948635B8018CEE90E20E942D358FA1B4
:1056C000813009F41FA20F900FBE8091E72088233C
:1056D00039F00FB6F8940F920E94A6260F900FBED5
:1056E0008091DC209091DD20C817D907C1F480910A
:1056F000E720882319F00E947C3C11C09091EC2097
:105700008091EB20981305C01092DC201092DD20D0
:1057100006C0DF91CF911F910F910C94FB2ADF916E
:10572000CF911F910F910895CF93DF93EB012091BB
:10573000DC203091DD20B901645F7F4F0E944E353F
:1057400061E0CE01DF91CF910C94C126CF93DF931E
:10575000EA01E091DC20F091DD20706864877587B4
:105760006091DC207091DD20645F7F4F0E942D35B9
:1057700061E0CE01DF91CF910C94C1260F931F936E
:10578000CF93DF93DC011596ED91FC911697C681BE
:10579000D7818E01045F1F4FC8010E94863580911A
:1057A000DE20811114C00A501109C8010E948635FB
:1057B0009E898091E820891710F49093E820B9E041
:1057C0009B9FC0011124B801825E9E4D03C0B801A9
:1057D0008FEF90E20E942D35E091DC20F091DD20EA
:1057E0009E898689891720F481E08093E52001C095
:1057F00080E0DF91CF911F910F9108950F931F9338
:10580000CF93DF937068FC0160837183C681D78179
:105810000E9486358E010E5F1F4FC8010E9486359B
:105820009E898091E820891710F49093E820F9E090
:105830009F9FC0011124B801825E9E4D0E942D35AC
:10584000E091DC20F091DD209E898689891718F48B
:1058500081E08093E520DF91CF911F910F91089512
:105860000FB6F8940F922091E420FC012083209140
:10587000E9203091EA20218332830F900FBE0895F2
:105880002091E420FC0120832091E9203091EA203E
:10589000218332830895CF93DF930FB6F8940F924C
:1058A0004091E9205091EA20DC011196ED91FC91A4
:1058B0001297EB01288139812F3FDFEF3D07C9F0B7
:1058C000B091E420EC01A881BA1719F04E175F07D8
:1058D00090F44E1B5F0BFB014217530738F4241B57
:1058E000350B208331830E94402C03C0108211822B
:1058F00002C080E001C081E00F900FBEDF91CF9128
:10590000089581E08093E52008958091DC209091B6
:10591000DD2008950F931F93CF93DF93FC01009731
:1059200009F455C08689A091DC20B091DD205696FF
:105930009C91891708F041C02485358537FD0CC03E
:10594000A091DC20B091DD2056969C9124E030E0BF
:10595000291B31092487358729E0829FC001112442
:10596000825E9E4D2285338528173907E9F48F0121
:10597000EF012296CE010E948635E091DC20F09165
:10598000DD209689F801968B8091E820891710F424
:105990009093E820F9E09F9FC0011124BE01825E30
:1059A0009E4D0E942D3507C0A091DC20B091DD20D6
:1059B00056968C91868B81E00BC0A091DC20B09133
:1059C000DD2081E021A156969C91291708F080E006
:1059D000DF91CF911F910F9108950F931F93CF9354
:1059E000DF93FC01009711F480E02CC082A181506C
:1059F00082A3268991A12917B9F38111F5CFEF016F
:105A00008F010E5F1F4FC8010E94863599A19E8BA2
:105A1000492F50E024E030E0241B350B2C873D87D4
:105A20008091E820891710F49093E82029E0249FC2
:105A3000C001259F900D1124B801825E9E4D0E94E9
:105A40002D3581E0DF91CF911F910F9108950F9334
:105A50001F93CF93DF93FC010097D9F181A16817C1
:105A600008F4682F86898617A1F192A1913089F5F3
:105A7000668B2485358537FD06C024E030E0261B83
:105A800031092487358729E0829FC0011124825E75
:105A90009E4D2285338528173907D9F4EF018F01F0
:105AA0000E5F1F4FC8010E9486359E898091E820B5
:105AB000891710F49093E82029E0929FC0011124E7
:105AC000B801825E9E4DDF91CF911F910F910C9492
:105AD0002D35DF91CF911F910F910895E091DC203A
