:100000000C94720B0C94980B0C94980B0C94980B0A
:100010000C94980B0C94980B0C94980B0C94980BD4
:100020000C94980B0C94980B0C94980B0C94980BC4
:100030000C94980B0C94980B0C949C290C94980B92
:100040000C94980B0C94980B0C94980B0C94980BA4
:100050000C94980B0C94980B0C94980B0C94980B94
:100060000C94980B0C94980B0C94980B0C94980B84
:100070000C94980B0C94980B0C94980B0C94980B74
:100080000C94980B0C94980B0C94980B0C94980B64
:100090000C94980B0C94980B0C94980B0C94980B54
:1000A0000C94980B0C94980B0C94980B0C94980B44
:1000B0000C94980B0C94980B0C94980B0C94980B34
:1000C0000C94980B0C94980B0C94980B0C94980B24
:1000D0000C94980B0C94980B0C94980B0C94980B14
:1000E0000C94980B0C94980B0C94980B0C94980B04
:1000F0000C94980B0C94980B0C94980B0C94980BF4
:100100000C94980B0C94980B0C94980B0C94980BE3
:100110000C94980B0C94980B0C94980B0C94980BD3
:100120000C94980B0C94980B0C94980B0C94980BC3
:100130000C94980B0C94980B0C94980B0C94980BB3
:100140000C94980B0C94980B0C94980B0C94980BA3
:100150000C94980B0C94980B0C94980B0C94980B93
:100160000C94980B0C94980B0C94980B0C94980B83
:100170000C94980B0C94980B0C94980B0C94980B73
:100180000C94980B0C94980B0C94980B0C94980B63
:100190000C94980B0C94980B0C94980B0C94980B53
:1001A0000C94980B0C94980B0C94980B0C94980B43
:1001B0000C94980B0C94980B0C94980B0C94980B33
:1001C0000C94980B0C94980B0C94980B0C94980B23
:1001D0000C94980B0C94980B0C94980B0C94980B13
:1001E0000C94980B0C94980B0C94980B0C94980B03
:1001F0000C94980BDA0BDD0BE00BE30BE60BE90B31
:10020000EC0BEF0BF20BD70B0C94D70B0C949A0B57
:100210000C94DD0B0C94E60B0C94F20B0C94E30B9A
:100220000C94E90B0C94E00B0C94EC0B0C94EF1376
:100230000C94EF0B0C94DA0BFFFFFFFFFFFFFFFFA7
:10024000FFFFE773E773E773E773E773E773E7733A
:10025000E773E773E773E773800380039FFF9FFFF4
:100260009FFFFFFFFFFFFE3FFE3FFEFFFEFFFEFF83
:10027000E00FC0078EE39EF39EF39EF39EF39EF382
:100280009EF39EF38EE3C007E00FFEFFFEFFFEFF2E
:10029000FEFFFEFFF39FE38FF39FFFFFFFFFF83F9B
:1002A000E01FC7CFCFE7CFE7C007C007FFE7FFE7F3
:1002B000FFE7CF8FC00FF03FFFFFFFFFFFFFFFFF04
:1002C000FFFFEFFFC03FE01FFFCFFFE7F067E01742
:1002D000C7C7CFE3CFE38FE38FE3CFE7CFE7CFE726
:1002E000E78FE00FF83FFFFFFFFFFFFFFFFFFFFF7C
:1002F000FFFFFFFFFFFFFFFFFFFFFFFFFC1FFBEF05
:10030000F7FFF7FFF01FF3E7F7F3F7FBF3FBF4F763
:10031000C60FFFFFFFFFFFFFFFFFFFFFFFFFFFFF16
:10032000FFFFFFFFFFFFFFFFFFFFFFFFFFFFFFFFDD
:10033000FFFFFFFFFFFFFEFFFFFFFFFFFFFFFFFFCE
:10034000FFFFFFFFFFFFFFFFFFFFFFFFFFFFFFFEBE
:10035000FFFFFFFFFFFFFFFFFFFFFFFFFFFFFFFFAD
:10036000FFFFFFFFFFFFFFFFFEFFFFFFFFFFFFFF9E
:10037000FFFFFFFFFFFFFFFFFFFFFFFFFFFFFFFF8D
:10038000FFFEFFFFFFFFFFFFFFFFFFFFFFFFFFFF7E
:10039000FFFFFFFFFFFFFFFFFFFFFEFFFFFFFFFF6E
:1003A000FFFFFFFFFCE7FCFFFFFFFFFFFFFFFFFF7B
:1003B000FFFFFFFEFFFFFFFFFFFFFFFFFFFCE7FC6C
:1003C000FFFE3F1C78FFFFFFFFFFFFFFFEFFFFFF69
:1003D000FFFFFFFFFFFFFCFFFCFFFE1E1E79FFFF7C
:1003E000FFFFFFFFFFFEFFFFFFFFFFFFFFFFFFFC21
:1003F000FFFCFFFE1E1F31FFFFFFFFFFFFFFFEFFA1
:10040000FFFFFFFFFFFFFFF07CE784F87E5C9F1398
:10041000FFFFFFFFFFFFFFFEFFFFFFFFFFFFFFFFED
:10042000E01CE700E01E4C9F87FFFFFFFFFFFFFF80
:10043000FEFFFFFFFFFFFFFFFFC79CE638E79E4C74
:100440009FC7FFFFFFFFFFFFFFFEFFFFFFFFFFFF55
:10045000FFFFCFCCE67CCFCE619FC7FFFFFFFFFF42
:10046000FFFFFEFFFFFFFFFFFFFFFFC00CE67CCF9B
:10047000CE619F87FFFFFFFFFFFFFFFEFFFFFFFF34
:10048000FFFFFFFFC00CE67CCFCE739F93FFFFFF03
:10049000FFFFFFFFFEFFFFFFFFFFFFFFFFFFCCE6B9
:1004A0007CCFCE739F31FFFFFFFFFFFFFFFEFFFFFB
:1004B000FFFFFFFFFFFFDF9CE638E79E7F9E39FFCF
:1004C000FFFFFFFFFFFFFEFFFFFFFFFFFFFFFFC07C
:1004D0001CE700E01E7F9E7CFFFFFFFFFFFFFFFE8B
:1004E000FFFFFFFFFFFFFFFFE07CE784F87E7F9CBC
:1004F0007C7FFFFFFFFFFFFFFEFFFFFFFFFFFFFF10
:10050000FFFFFFFFFFFFFFFFFFFFFFFFFFFFFFFFFB
:10051000FFFEFFFFFFFFFFFFFFFFFFFFFFFFFFFFEC
:10052000FFFFFFFFFFFFFFFFFFFFFEFFFFFFFFFFDC
:10053000FFFFFFFFFFFFFFFFFFFFFFFFFFFFFFFFCB
:10054000FFFFFFFEFFFFFFFFFFFFFFFFFFFFFFFFBC
:10055000FFFFFFFFFFFFFFFFFFFFFFFFFEFFFFFFAC
:10056000FFFFFFFFFFFFFFFFFFFFFFFFFFFFFFFF9B
:10057000FFFFFFFFFFFEFFFFFFFFFFFFFFFFFFFF8C
:10058000FFFFFFFFFFFFFFFFFFFFFFFFFFFFFEFF7C
:10059000FFFFFFFFFFFFFFFFFFFFFFFFFFFFFFFF6B
:1005A000FFFFFFFFFFFFFFFEFFFFFFFFFFFFFFFF5C
:1005B000FFFFFFFFFFFFFFFFFFFFFFFFFFFFFFFF4B
:1005C000FEFFFFFFFFFFFFFFFFFFFFFFFFFFFFFF3C
:1005D000FFFFFFFFFFFFFFFFFFFEFFFFFFFFFFFF2C
:1005E000FFFFFFFFFFFFFFFFFFFFFFFFFFFFFFFF1B
:1005F000FFFFFEFFFFFFFFFFFFFFFFFFFFFFFFFF0C
:10060000FFFFFFFFFFFFFFFFFFFFFFFEFFFFFFFFFB
:10061000FFFFFFFFFFFFFFFFFFFFFFFFFFFFFFFFEA
:10062000FFFFFFFFFEFFFFFFFFFFFFFFFFFFFFFFDB
:10063000FFFFFFFFFFFFFFFFFFFFFFFFFFFEFFFFCB
:10064000FFFFFFFFFFFFFFFFFFFFFFFFFFFFFFFFBA
:10065000FFFFFFFFFFFFFEFFFFFFFFFFFFFFFFFFAB
:10066000FFFFFFFFFFFFFFFFFFFFFFFFFFFFFFFE9B
:10067000FFFFFFFFFFFFFFFFFFFFFFFFFFFFFFFF8A
:10068000FFFFFFFFFFFFFFFFFEFFFFFFFFFFFFFF7B
:10069000FFFFFFFFFFFFFFFFFFFFFFFFFFFFFFFF6A
:1006A000FFFEFFFFFFFFFFFFFFFFFFFFFFFFFFFF5B
:1006B000FFFFFFFFFFFFFFFFFFFFFEFFFFFFFFFF4B
:1006C000FFFFFFFFFFFFFFFFFFFFFFFFFFFFFFFF3A
:1006D000FFFFFFFEFFFFFFFFFFFFFFFFFFFFFFFF2B
:1006E000FFFFFFFFFFFFFFFFFFFFFFFFFEFFFFFF1B
:1006F000FFFFFFFFFFFFFFFFFFFFFFFFFFFFFFFF0A
:10070000FFFFFFFFFFFEFFFFFFFFFFFFFFFFFFFFFA
:10071000FFFFFFFFFFFFFFFFFFFFFFFFFFFFFEFFEA
:10072000FFFFFFFFFFFE07FFFFFFFFFFFFFBFEFFD7
:10073000FFFFFFFFFFFFFFFEFFFFFFFFFFFFFC03C9
:10074000FFFFFFFFFFFFF9FE7FFFFFFFFFFFFFFF40
:10075000FEFFFFFFFFFFFFF8F3FFFFFFFFFFFFF8C4
:10076000FC7FFFFFFFFFFFFFFFFEFFFFFFFFFFFF1D
:10077000F9F3FFFFFFFFFFFFF8787FFFFFFFFFFFA9
:10078000FFFFFEFFFFFFFFFFFFF9F3FFFFFFFFFF8C
:10079000FFF8307FFFFFFFFFFFFFFFFEFFFFFF803F
:1007A000F8F9F9F3E03E3E7E00F80D837FFFFFFF8E
:1007B000FFFFFFFFFEFFFFFF00FC79FCF3C01F1EE1
:1007C0007C00F00CC33FFFFFFFFFFFFFFFFEFFFFBA
:1007D000FE3FFE39F8038F8F8E78FCE3FCE73FFF86
:1007E000FFFFFFFFFFFFFEFFFFFE7FFF19F0039FEC
:1007F000CFC679FCE7FCFF3FFFFFFFFFFFFFFFFED7
:10080000FFFFFE00FF89E3F39FCFE279FCE00CFFDE
:100810003FFFFFFFFFFFFFFFFEFFFFFE007FC1E77F
:10082000F39FCFF079FCE006FFBFFFFFFFFFFFFF64
:10083000FFFEFFFFFE7E3FE1E7F39FCFF879FCE785
:10084000E27F9FFFFFFFFFFFFFFFFEFFFFFE7F3FF7
:10085000C1E7F39FCFF079FCE7F27F9FFFFFFFFF37
:10086000FFFFFFFEFFFFFE7F3F89E7F39FCFE279A7
:10087000FCE7F27F9FFFFFFFFFFFFFFFFEFFFFFE92
:100880007F3F19E7F39FCFC679FCE7F27F9FFFFF19
:10089000FE3FFFFFFFFEFFFFFE7E3E39E3F38F8F3B
:1008A0008E78FCE7E27F9FFFFFF80FFFFFFFFEFF60
:1008B000FFFE007C79F003C01F1E7C00E0073FCFE5
:1008C000FFFFF007FFFFFFFEFFFFFE00F8F9F80350
:1008D000E03E3E7E00E00F3FCFFFFFF007FFFFFF4F
:1008E000FEFFFFFFFFFFFFFFFFFFFFFFFFFCFFFF1C
:1008F000FFFFFFFFF003FFFFFFFEFFFFFFFFFFFF14
:10090000FFFFFFFFFFFFFCFFFFFFFFFFFFF003FF05
:10091000FFFFFEFFFFFFFFFFFFFFFFFFFFFFFFFCEB
:10092000FFFFFFFFFFFFF003FFFFFFFEFFFFFFFFE3
:10093000FFFFFFFFFFFFFFFFFCFFFFFFFFFFFFF0D9
:1009400003FFFFFFFEFFFFFFFFFFFFFFFFFFFFFFB4
:10095000FFFCFFFFFFFFFFFFF803FFFFFFFEFFFFAE
:10096000FFFFFFFFFFFFFFFFFFFFFFFFFFFFFFFF97
:10097000FFF803FFFFFFFEFFFFFFFFFFFFFFFFFF8B
:10098000FFFFFFFFFFFFFFFFFFFFF803FFFFFFFE7B
:10099000FFFFFFFFFFFFFFFFFFFFFFFFFFFFFFFF67
:1009A000FFFFFFFC03FFFFFFFEFFFFFFFFFFFFFF57
:1009B000FFFFFFFFFFFFFFFFFFFFFFFFFC01FFFF48
:1009C000FFFEFFFFFFFFFFFFFCF3FFFFFFFFFFFF47
:1009D000FFFFFFFFFFFC01FFFFFFFEFFFFFFFFFF29
:1009E000FFFCF3FFFFFFFFFFFFFFFFFFFFFFFC0127
:1009F000FFFFFFFEFFFFFFFFFFFFFCF3FFFFFFFF17
:100A0000FFFFFFFFFFFFFFFC01FFFFFFFEFFFFFFF8
:100A1000FFFFFFFCF3FFFFFFFFFFFFFFFFFFFFFFF5
:100A2000FE01FFFFFFFEFFFFFFFFFFFFFC73FFFF65
:100A3000FFFFFFFFFFFFFFFFFFFE01FFFFFFFEFFC6
:100A4000FFFFFFFFFFFC33FFFFFFFFFFFFFFFFFF85
:100A5000FFFFFE01FFFFFFFEFFFFFFFFFFFFFC9315
:100A6000FFFFFFFFFFFFFFFFFFFFFFFF01FFFFFF94
:100A7000FEFFFFFFFFFFFFFCC3FFFFFFFFFFFFFFC6
:100A8000FFFFFFFFFF01FFFFFFFEFFFFFFFFFFFF75
:100A9000FCE3FFFFFFFFFFFFFFFFFFFFFFFF01FF83
:100AA000FFFFFEFFFFFFFFFFFFFCF3FFFFFFFFFF66
:100AB000FFFFFFFFFFFFFF01FFFFFFFEFFFFFFFF45
:100AC000FFFFFCF3FFFFFFFFFFFFFFFFFFFFFFFF45
:100AD00001FFFFFFFEFFFFFFFFFFFFFCF3FFFFFF34
:100AE000FFFFFFFFFFFFFFFFFF80FFFFFFFEFFFF96
:100AF000FFFFFFFFFCF3FFFFFFFFFFFFFFFFFFFF15
:100B0000FFFF80FFFFFFFEFFFFFFFFFFFFFFFFFF75
:100B1000FFFFFFFFFFFFFFFFFFFFFF80FFFFFFFE65
:100B2000FFFFFFFFFFFFFFFFFFFFFFFFFFFFFFFFD5
:100B3000FFFFFFFFC1FFFFFFFEFFFFFFFFFFFFFF04
:100B4000FFFFFFFFFFFFFFFFFFFFFFFFFFC1FFFFF3
:100B5000FFFEFFFFFFFFFFFFFFFFFFFFFFFFFFFFA6
:100B6000FFFFFFFFFFFFC0FFFFFFFEFFFFFFFFFFD5
:100B7000FFFFFFFFFFFFFFFFFFFFFFFFFFFFFFE0A4
:100B8000FFFFFFFEFFFFFFFFFFFFFFFFFFFFFFFF76
:100B9000FFFFFFFFFFFFFFFFE0FFFFFFFEFFFFFF85
:100BA000FFFFFFFFFFFFFFFFFFFFFFFFFFFFFFFF55
:100BB000FFE0FFFFFFFEFFFFFFFFFFFFFFFFFFFF65
:100BC000FFFFFFFFFFFFFFFFFFFFE0FFFFFFFEFF55
:100BD000FFFFFFFFFFFFFFFFFFFFFFFFFFFFFFFF25
:100BE000FFFFFFE0FFFFFFFEFFFFFFFFFFFFFFFF35
:100BF000FFFFFFFFFFFFFFFFFFFFFFFFF07FFFFF94
:100C0000FEFFFFFFFFFFFFFFFFFFFFFFFFFFFFFFF5
:100C1000FFFFFFFFFFF07FFFFFFEFFFFFFFFFFFF74
:100C2000FFFFFFFFFFFFFFFFFFFFFFFFFFFFF07F63
:100C3000FFFFFEFFFFFFFFFFFFFFFFFFFFFFFFFFC5
:100C4000FFFFFFFFFFFFFFF07FFFFFFEFFFFFFFF44
:100C5000FFFFFFFFFFFFFFFFFFFFFFFFFFFFFFFFA4
:100C6000F07FFFFFFEFFFFFFFFFFFFFFFFFFFFFF24
:100C7000FFFFFFFFFFFFFFFFFFF07FFFFFFEFFFF14
:100C8000FFFFFFFFFFFFFFFFFFFFFFFFFFFFFFFF74
:100C9000FFFFF07FFFFFFEFFFFFFFFFFFFFFFFFFF4
:100CA000FFFFFFFFFFFFFFFFFFFFFFF83FFFFFFE1C
:100CB000FFFFFFFFFFFFFFFFFFFFFFFFFFFFFFFF44
:100CC000FFFFFFFFFC7FFFFFFEFFFFFFFFFFFFFFB8
:100CD000FFFFFFFFFFFFFFFFFFFFFFFFFFFC7FFFA7
:100CE000FFFEFFFFFFFFFFFFFFFFFFFFFFFFFFFF15
:100CF000FFFFFFFFFFFFFC7FFFFFFEFFFFFFFFFF88
:100D0000FFFFFFFFFFFFFFFFFFFFFFFFFFFFFFFCF6
:100D10007FFFFFFEFFFFFFFFFFFFFFFFFFFFFFFF64
:100D2000FFFFFFFFFFFFFFFFFC7FFFFFFEFFFFFF57
:100D3000FFFFE01FFFFFFFFFFFFFFFFFFFFFFFFFC2
:100D4000FFF83FFFFFFEFFFFFFC000000007FFFFAF
:100D5000FFFFFFFFFFFFFFFFFFFFFC1FFFFFFEFF87
:100D6000FFFF8000000001FFFFFFFFFFFFFFFFFF0D
:100D7000FFFFFFFC1FFFFFFEFFFFFF000000000062
:100D8000FFFFFFFFFFFFFFFFFFFFFFFFFC1FFFFF56
:100D9000FEFFFFFF00000000001FFFFFFFFFFFFF3F
:100DA000FFFFFFFFFFFC1FFFFFFEFFFFFF00000034
:100DB00000001FFFFFFFFFFFFFFFFFFFFFFFFC1F04
:100DC000FFFFFEFFFFFE00000000000FFFFFFFFF20
:100DD000FFFFE0FFFFFFFFFE3FFFFFFEFFFFFC0006
:100DE000000000000FFFFFFFFFFFFFC07FFFFFFFBE
:100DF000FE1FFFFFFEFFFFFC01FFE000000FFFFFF3
:100E0000FFFFFFFF807FFFFFFFFE1FFFFFFEFFFFD3
:100E1000F803FFFFE00007FFFFFFFFFFFF807FFFFA
:100E2000FFFFFF1FFFFFFEFFFFF803FFFFFFF003C1
:100E3000FFFFFFFFFFFF803FFFFFFFFF1FFFFFFEE2
:100E4000FFFFF003FFFFFFF803FFFFFFFFFFFF803F
:100E50003FFFFFFFFE0FFFFFFEFFFFF003FFFFFF5F
:100E6000F803FFFFFFFFC1FF803FFFFFFFFE0FFF03
:100E7000FFFEFFFFE007FFFFFFF803FFFFFFFF801C
:100E8000FF803FFFFFFFFF07FFFFFEFFFFC007FFE1
:100E9000FFFFF803FFFFFFFF007F803FFFFFFFFF23
:100EA00007FFFFFEFFFFC00FFFFFFFF803FFFFFF7D
:100EB000FF003F803FFFFFFFFF07FFFFFEFFFF80B8
:100EC0001FFFFFFFF803FFFFFFFF003F803FFFFF13
:100ED000FFFF07FFFFFEFFFF801FFFFFFFF803FF7D
:100EE000FFFFFF001FC01FFFFFFFFF83FFFFFEFF8D
:100EF000FF803FFFFFFFF803FFFFFFFF001FC01F42
:100F0000FFFFFFFF83FFFFFEFFFF807FFFFFFFF874
:100F100003FFFFFFFF001FC01FFFFFFFFF83FFFF57
:100F2000FEFFFF007FFFFFFFF803FFFFFFFE001F34
:100F3000C01FFFFFFFFFC3FFFFFEFFFF00FFFFFF1C
:100F4000FFF803FFFFFFFE001FC01FFFFFFFFFC1F1
:100F5000FFFFFEFFFE00FFFFFFFFF803FFFFFFFCA8
:100F6000001FC01FFFFFFFFFE0FFFFFEFFFE00FFAF
:100F7000FFFFFFF803FFFFFFFC001FC01FFFFFFF85
:100F8000FFE0FFFFFEFFFE00FFFFFFFFF803FFFF94
:100F9000FFFC001FE00FFFFFFFFFE07FFFFEFFFEF3
:100FA00000FFFFFFFFF803FFFFFFFC001FE00FFF44
:100FB000FFFFFFF07FFFFEFFFE00FFFFFFFFF803D4
:100FC000FFFFFFFC001FE00FFFFFFFFFF07FFFFEB2
:100FD000FFFE00FFFFFFFFFC03FFFFFFFE001FE01F
:100FE0000FFFFFFFFFF83FFFFEFFFE00FFFFFFFFC9
:100FF000FC03FFFFFFFE001FE00FFFFFFFFFF81FD6
:10100000FFFEFFFE007FFFFFFFFE03FFFFFFFE006E
:101010001FE00FFFFFFFFFFC1FFFFEFFFE007FFF33
:10102000FFFFFE03FFFFFFFC001FF00FFFFFFFFFAE
:10103000FC0FFFFEFFFE003FFFFFFFFE03FFFFFF71
:10104000FC001FF00FFFFFFFFFFC07FFFEFFFF008C
:101050000FFFFFFFFE03FFFFFFFC001FF80FFFFF66
:10106000FFFFFE07FFFEFFFF0007FFFFFFFE03FF7E
:10107000FFFFFC001FF80FFFFFFFFFFF03FFFEFF56
:10108000FF8003FFFFFFFF07FFFFFFF8001FF80FC0
:10109000FFFFFFFFFF03FFFEFFFF80007FFFFFFF5B
:1010A00003FFFFFFF8001FF80FFFFFFFFFFF81FFA7
:1010B000FEFFFF800003FFFFFF03FFFFFFF0001FA5
:1010C000F80FFFFFFFFFFF80FFFEFFFFC000003FA4
:1010D000FFFF03FFFFFFE0001FF80FFFFFFFFFFF11
:1010E000C07FFEFFFFE0000000FFFF03FFFFFFC027
:1010F000001FF80FFFFFFFFFFFC07FFEFFFFF8009C
:10110000000000FF81FFFFFF80000FF80FFFFFFFCF
:10111000FFFFE03FFEFFFFFC000000000001FFFFBB
:10112000FF80000FF80FFFFFFFFFFFE03FFEFFFF14
:10113000FE000000000001FFFFFF000007F80FFFA6
:10114000FFFFFFFFF01FFEFFFFFF80000000000118
:10115000FFFFFF000001F00FFFFFFFFFFFF01FFE8A
:10116000FFFFFFC00000000001FFFFFF000000E0E4
:1011700007FE0FFFFFFFF81FFEFFFFFFF800000054
:101180000001FFFFFF0020002007FC07FFFFFFF822
:101190001FFEFFFFFFFFC000000000FFFFFF007009
:1011A00000000FF803FFFFFFFC0FFEFFFFFFFFFF34
:1011B00000000000FFFFFF007800000FF803FFFFB2
:1011C000FFF80FFEFFFFFFFFFFF8000000FFFFFF2B
:1011D00080FC00001FF803FFFFFFFC07FEFFFFFF7E
:1011E000FFFFFFF000007FFFFFC1FE00001FF803BC
:1011F000FFFFFFFC07FEFFFFFFFFFFFFFE00003FBA
:10120000FFFFFFFE00001FF003FFFFFFFC03FEFFD8
:10121000FFFFFFFFFFFFF0003FFFFFFFFF00003F6A
:10122000F003FFFFFFFE01FEFFFFFFFFFFFFFFFFD9
:10123000883FFFFFFFFFC0007FF007FFFFFFFE01B9
:10124000FEFFFFFFFFFFFFFFFFF81FFFFFFFFFC0D5
:1012500000FFF007FFFFFFFE01FEFFFFFFFFFFFFA4
:10126000FFFFF81FFFFFFFFFE001FFF007FFFFFF99
:10127000FF01FEFFFFFFFFFFFFFFFFFC1FFFFFFF60
:10128000FFF003FFF007FFFFFFFF00FEFFFFFFFF80
:10129000FFFFFFFFFC0FFFFFFFFFFC1FFFF007FF3B
:1012A000FFFFFF007EFFFFFFFFFFFFFFFFFE0FFFBF
:1012B000FFFFFFFFFFFFF007F8000000007EFFFFC9
:1012C000FFFFFFFFFFFFFF0FFFFFFFFFFFFFFFF02D
:1012D0000000000000007EFFFFFFFFFFFFFFFFFF99
:1012E00087FFFFFFFFFFFFFFF00000000000003E50
:1012F000FFFFFFFFFFFFFFFFFF87FFFFFFFFFFFF76
:10130000FFF00000000000001EFFFFFFFFFFFFFFD7
:10131000FFFFC3FFFFFFFFFFFFFFF0000000000023
:10132000001EFFFFFFFFFFFFFFFFFFC3FFFFFFFFE9
:10133000FFFFFFF80000000000001EFFFFFFFFFF9F
:10134000FFFFFFFFE3FFFFFFFFFFFFFFF8000000CD
:101350000000003EFFFFFFFFFFFFFFFFFFC1FFFF99
:10136000FFFFFFFFFFF80000000000007EFFFFFF0F
:10137000FFFFFFFFFFFFE0FFFFFFFFFFFFFFFC009E
:101380000000000000FEFFFFFFFFFFFFFFFFFFE088
:10139000FFFFFFFFFFFFFFFFF001FFFFFFFFFEFF6B
:1013A000FFFFFFFFFFFFFFFFE0FFFFFFFFFFFFFF6C
:1013B000FFFFFFFFFFFFFFFEFFFFFFFFFFFFFFFF3E
:1013C000FFF07FFFFFFFFFFFFFFFFFFFFFFFFFFFBC
:1013D000FEFFFFFFFFFFFFFFFFFFF8FFFFFFFFFF25
:1013E000FFFFFFFFFFFFFFFFFFFEFFFFFFFFFFFF0E
:1013F000FFFFFFF87FFFFFFFFFFFFFFFFFFFFFFF84
:10140000FFFFFEFFFFFFFFFFFFFFFFFFF87FFFFF74
:10141000FFFFFFFFFFFFFFFFFFFFFFFEFFFFFFFFDD
:10142000FFFFFFFFFFFC3FFFFFFFFFFFFFFFFFFF8F
:10143000FFFFFFFFFEFFFFFFFFFFFFFFFFFFFC1FA0
:10144000FFFFFFFFFFFFFFFFFFFFFFFFFFFEFFFFAD
:10145000FFFFFFFFFFFFFFFC1FFFFFFFFFFFFFFF7F
:10146000FFFFFFFFFFFFFEFFFFFFFFFFFFFFFFFF8D
:10147000FC1FFFFFFFFFFFFFFFFFFFFFFFFFFFFE60
:10148000FFFFFFFFFFFFFFFFFFFE0FFFFFFFFFFF5D
:10149000FFFFFFFFFFFFFFFFFEFFFFFFFFFFFFFF5D
:1014A000FFFFFE0FFFFFFFFFFFFFFFFFFFFFFFFF3D
:1014B000FFFEFFFFFFFFFFFFFFFFFFFE0FFFFFFF2E
:1014C000FFFFFFFFFFFFFFFFFFFFFEFFFFFFFFFF2D
:1014D000FFFFFFFFFE07FFFFFFFFFFFFFFFFFFFF15
:1014E000FFFFFFFEFFFFFFFFFFFFFFFFFFFE07FF06
:1014F000FFFFFFFFFFFFFFFFFFFFFFFFFEFFFFFFFD
:10150000FFFFFFFFFFFFFF03FFFFFFFFFFFFFFFFE7
:10151000FFFFFFFFFFFEFFFFFFFFFFFFFFFFFFFEDD
:1015200003FFFFFFFFFFFFFFFFFFFFFFFFFFFEFFC8
:10153000FFFFFFFFFFFFFFFFFF03FFFFFFFFFFFFB7
:10154000FFFFFFFFFFFFFFFEFFFFFFFFFFFFFFFFAC
:10155000FFFF03FFFFFFFFFFFFFFFFFFFFFFFFFF97
:10156000FEFFFFFFFFFFFFFFFFFFFF83FFFFFFFF08
:10157000FFFFFFFFFFFFFFFFFFFEFFFFFFFFFFFF7C
:10158000FFFFFFFF81FFFFFFFFFFFFFFFFFFFFFFE9
:10159000FFFFFEFFFFFFFFFFFFFFFFFFFF81FFFFDA
:1015A000FFFFFFFFFFFFFFFFFFFFFFFEFFFFFFFF4C
:1015B000FFFFFFFFFFFF80FFFFFFFFFFFFFFFFFFBA
:1015C000FFFFFFFFFEFFFFFFFFFFFFFFFFFFFF80AB
:1015D000FFFFFFFFFFFFFFFFFFFFFFFFFFFEFFFF1C
:1015E000FFFFFFFFFFFFFFFF80FFFFFFFFFFFFFF8A
:1015F000FFFFFFFFFFFFFEFFFFFFFFFFFFFFFFFFFC
:10160000FF80FFFFFFFFFFFFFFFFFFFFFFFFFFFE6A
:10161000FFFFFFFFFFFFFFFFFFFF007FFFFFFFFF59
:10162000FFFFFFFFFFFFFFFFFEFFFFFFFFFFFFFFCB
:10163000FFFFFF007FFFFFFFFFFFFFFFFFFFFFFF39
:10164000FFFEFFFFFFFFFFFFFFFFFFFF007FFFFF2A
:10165000FFFFFFFFFFFFFFFFFFFFFEFFFFFFFFFF9B
:10166000FFFFFFFFFF80FFFFFFFFFFFFFFFFFFFF09
:10167000FFFFFFFEFFFFFFFFFFFFFFFFFFFFC1FFB9
:10168000FFFFFFFFFFFFFFFFFFFFFFFFFEFFFFFF6B
:10169000FFFFFFFFFFFFFFE3FFFFFFFFFFFFFFFF76
:1016A000FFFFFFFFFFFE10181808181808000000C1
:1016B00000000000000000000000131444120000AD
:1016C0000000000000020201111212222266696964
:1016D000595899998800000000F8B41351355151B8
:1016E0001901000011241FBECFEFCDBFDFE3DEBF25
:1016F00000E00CBF18BE19BE1ABE1BBE10E2A0E06F
:10170000B0E2E6E5F4E500E00BBF02C007900D9201
:10171000A03AB107D9F71BBE1EE2A0EAB0E201C0B1
:101720001D92A13FB107E1F70E94F8290C94292AE4
:101730000C940000CF93DF9300D000D0CDB7DEB77C
:1017400080E090E20E94310C88EE93E00E94A517A1
:101750000E947C0E84EF91E00E94A51748EC50E0B7
:1017600068EC70E08EE193E00E948F0F84EF91E0CF
:101770000E94A517BB24B39488E3E82E82E0F82EDC
:1017800092E0C92E27E1D22E0AE014E6B0920706B5
:101790000E9426138A30D1F390E08A30910528F513
:1017A000FC018827E650FF4F8F4F0C94172A8AE1DF
:1017B00090E21DC083E290E21AC08DE290E217C071
:1017C00087E390E214C081E490E211C08BE490E2E0
:1017D0000EC085E590E20BC08FE590E208C089E677
:1017E00090E205C083E790E202C08DE790E20E949C
:1017F000310CE982FA82CB82DC820D831E8341E0C8
:1018000050E0BE016F5F7F4F80E090E00E942811A2
:1018100088EE93E00E94A517B9CF81E0809301067E
:10182000089581E08093070608950C94A517E0EAD7
:10183000F6E088E085838183E0EAFBE083E085834E
:1018400083818F63838389E18683178284818D609E
:10185000848308959091A10B95FFFCCF8093A00BFA
:101860000895EF92FF921F93CF93DF931F92CDB70E
:10187000DEB77C011982FC0101900020E9F7319765
:101880001E2F181B19828981811758F48981F7014D
:10189000E80FF11D80810E942A0C89818F5F898366
:1018A000F2CF8AE00E942A0C8DE00E942A0C0F9051
:1018B000DF91CF911F91FF90EF90089580EB80937F
:1018C00041068091440684FD03C080E18093450673
:1018D00088E08093020680E58093C0080895809395
:1018E000C3088091C20887FFFCCF80E008958091F3
:1018F000080683FF05C084E690E00E94A517F7CF95
:1019000008958091440684FF03C080E180934606D9
:101910008091040681FF03C082E08093060682E284
:101920000E946F0C8091040681FD03C082E08093C9
:10193000050684EC0E946F0C8091440684FD03C070
:1019400080E1809345068091440684FF03C080E1D6
:10195000809346068091040681FF03C082E0809355
:10196000060680E20E946F0C8091440684FD03C04D
:1019700080E1809345068091440684FF03C080E1A6
:10198000809346068091040681FF03C082E0809325
:1019900006068FEF0E946F0C8091440684FD03C001
:1019A00080E1809345060C94770C0F931F93CF939F
:1019B000DF93EC018B010E94770C8091440684FF39
:1019C00003C080E1809346068091040681FF03C036
:1019D00082E0809306068EE40E946F0C83E0D5952A
:1019E000C7958A95E1F78091040681FD03C082E0E6
:1019F000809305068C2F0E946F0C8091440684FD15
:101A000003C080E1809345068091440684FF03C0B3
:101A100080E1809346068091040681FF03C082E046
:101A2000809306068FE40E946F0C8091040681FD6E
:101A300003C082E080930506802F0E946F0C809186
:101A4000040681FD03C082E080930506812F0E9479
:101A50006F0C8091440684FD03C080E180934506AD
:101A6000DF91CF911F910F910895EF92FF920F9305
:101A70001F93CF93DF93182FE62ED42FC52FF22E6E
:101A8000032F8091440684FF03C080E180934606C3
:101A90008091040681FF03C082E08093060684E4FF
:101AA0000E946F0C8091040681FD03C082E0809348
:101AB0000506812F0E946F0C8091040681FD03C0F2
:101AC00082E0809305068E2D0E946F0C8091440663
:101AD00084FD03C080E1809345068091440684FF25
:101AE00003C080E1809346068091040681FF03C015
:101AF00082E08093060685E40E946F0C80910406C4
:101B000081FD03C082E0809305068D2F0E946F0C3B
:101B10008091040681FD03C082E0809305068C2F2E
:101B20000E946F0C8091040681FD03C082E08093C7
:101B300005068F2D0E946F0C8091040681FD03C065
:101B400082E080930506802F0E946F0C80914406EE
:101B500084FD03C080E1809345068091440684FFA4
:101B600003C080E1809346068091040681FF03C094
:101B700082E0809306068EE40E946F0C809104063A
:101B800081FD03C082E080930506812F0E946F0CC7
:101B90008091440684FD03C080E1809345068091D6
:101BA000440684FF03C080E18093460680910406CA
:101BB00081FF03C082E0809306068FE40E946F0CD1
:101BC0008091040681FD03C082E0809305068D2F7D
:101BD0000E946F0C8091040681FD03C082E0809317
:101BE00005068C2F0E946F0C8091440684FD03C073
:101BF00080E180934506DF91CF911F910F91FF9077
:101C0000EF9008950F931F93CF93DF93182F27EC36
:101C100030E047EC50E060E080E00E94350D8091BC
:101C2000440684FF03C080E1809346068091040649
:101C300081FF03C082E08093060684E20E946F0C5D
:101C4000C8E8D3E102E08091040681FF0093050615
:101C5000812F0E946F0C2197B1F78091440684FD7B
:101C600003C080E180934506DF91CF911F910F91D2
:101C700008951F93CF93DF93EC018091440684FF76
:101C800003C080E1809346068091040681FF03C073
:101C900082E08093060682E30E946F0C1092F02E81
:101CA00012E09091F02E9E3190F4FE01E90FF11DAB
:101CB000E4918091040681FF109305068E2F0E9407
:101CC0006F0C9091F02E9F5F9093F02EEACF809151
:101CD000440684FD03C080E180934506DF91CF91E7
:101CE0001F9108958FEF0E94020E0E94810C80E0E8
:101CF0000E94020E0C94810CCF930E945E0C82E035
:101D00008093010680E18093010698E0909302069B
:101D10009091440694FF80934506C0E1C093060667
:101D200084E690E00E94A517C093050688EE93E034
:101D30000E94A5178091440684FDC09346068091B9
:101D4000040681FF03C082E08093060681E00E94C2
:101D50006F0C8091040681FD03C082E0809305062C
:101D600087EC0E946F0C8091040681FD03C082E025
:101D70008093050680E00E946F0C8091040681FD2F
:101D800003C082E08093050680E00E946F0C809182
:101D9000440684FD03C080E180934506809144069B
:101DA00084FF03C080E1809346068091040681FF92
:101DB00003C082E0809306068CE00E946F0C809145
:101DC000040681FD03C082E08093050687ED0E9432
:101DD0006F0C8091040681FD03C082E080930506AC
:101DE00086ED0E946F0C8091040681FD03C082E0A5
:101DF000809305068DE90E946F0C8091440684FD56
:101E000003C080E1809345068091440684FF03C0AF
:101E100080E1809346068091040681FF03C082E042
:101E2000809306068CE20E946F0C8091040681FD6F
:101E300003C082E08093050688EA0E946F0C8091BF
:101E4000440684FD03C080E18093450680914406EA
:101E500084FF03C080E1809346068091040681FFE1
:101E600003C082E0809306068AE30E946F0C809193
:101E7000040681FD03C082E0809305068AE10E948A
:101E80006F0C8091440684FD03C080E18093450679
:101E90008091440684FF03C080E1809346068091D0
:101EA000040681FF03C082E0809306068BE30E9454
:101EB0006F0C8091040681FD03C082E080930506CB
:101EC00088E00E946F0C8091440684FD03C080E18D
:101ED000809345068091440684FF03C080E180938F
:101EE00046068091040681FF03C082E080930606C7
:101EF00081E10E946F0C8091040681FD03C082E0A5
:101F00008093050681E00E946F0C8091440684FD59
:101F100003C080E180934506CF910C94720E6F92BE
:101F20007F928F929F92AF92BF92CF92DF92EF9269
:101F3000FF920F931F93CF93DF937C01EB018A01F4
:101F40006B0187E0C80ED11C23E0D694C7942A9574
:101F5000E1F785EC96E10E94390E8091440684FFFA
:101F600003C080E1809346068091040681FF03C090
:101F700082E08093060682E20E946F0C8091040644
:101F800081FD03C082E08093050680EC0E946F0C07
:101F90008091440684FD03C080E1809345068091D2
:101FA000440684FF03C080E18093460680910406C6
:101FB00081FF03C082E08093060680E20E946F0CDE
:101FC0008091440684FD03C080E1809345060E9411
:101FD000770C6FEF6C0D20E030E0A8014150510903
:101FE00080E00E94350DDD27279693E0D595C795B3
:101FF0009A95E1F77C2E8091440684FF03C080E12E
:10200000809346068091040681FF03C082E080939E
:10201000060684E20E946F0C812C912CA12CB12C1D
:1020200082E0682EA016B106D9F0C12CD12CC714BD
:1020300088F4F601E80DF91DEE0DFF1D84919091D5
:10204000040691FF609205060E946F0C8FEFC81A7C
:10205000D80AEDCF8C0E9D1E8FEFA81AB80AE2CFDA
:102060008091440684FD03C080E180934506809101
:10207000440684FF03C080E18093460680910406F5
:1020800081FF03C082E08093060682E20E946F0C0B
:102090008091040681FD03C082E08093050687ECF1
:1020A0000E946F0C8091440684FD03C080E1809300
:1020B00045068091440684FF03C080E18093460674
:1020C0008091040681FF03C082E08093060680E2CF
:1020D0000E946F0C8091440684FD03C080E18093D0
:1020E00045068091440684FF03C080E18093460644
:1020F0008091040681FF03C082E0809306068FEF83
:102100000E946F0C8091440684FD03C080E180939F
:1021100045060E94770C8091440684FF03C080E14D
:10212000809346068091040681FF03C082E080937D
:10213000060682E20E946F0C8091040681FD03C0B6
:1021400082E08093050680EC0E946F0C809144062B
:1021500084FD03C080E1809345068091440684FF9E
:1021600003C080E1809346068091040681FF03C08E
:1021700082E08093060680E20E946F0C8091440604
:1021800084FD03C080E180934506DF91CF911F91CC
:102190000F91FF90EF90DF90CF90BF90AF909F9006
:1021A0008F907F906F900C94770C8091440684FF01
:1021B00003C080E1809346068091040681FF03C03E
:1021C00082E08093060682E20E946F0C80910406F2
:1021D00081FD03C082E08093050684E00E946F0CBD
:1021E0008091440684FD03C080E180934506809180
:1021F000440684FF03C080E1809346068091040674
:1022000081FF03C082E08093060680E20E946F0C8B
:102210008091440684FD03C080E18093450680914F
:10222000440684FF03C080E1809346068091040643
:1022300081FF03C082E0809306068FEF0E946F0C3F
:102240008091440684FD03C080E180934506089593
:102250002F923F924F925F926F927F928F929F92B6
:10226000AF92BF92CF92DF92EF92FF920F931F93A4
:10227000CF93DF9300D0CDB7DEB73C015B016A019D
:1022800086EA96E10E94390E8091440684FF03C0DD
:1022900080E1809346068091040681FF03C082E0BE
:1022A0008093060682E20E946F0C8091040681FDF5
:1022B00003C082E08093050680EC0E946F0C809141
:1022C000440684FD03C080E1809345068091440666
:1022D00084FF03C080E1809346068091040681FF5D
:1022E00003C082E08093060680E20E946F0C80911A
:1022F000440684FD03C080E1809345060E94770C6C
:1023000020E030E047EC50E068E180E00E94350DCD
:102310006114710439F50E94770C8091440684FFA2
:1023200003C080E1809346068091040681FF03C0CC
:1023300082E08093060684E20E946F0C78ECE72E20
:10234000F12C02E019E18091040681FF009305065B
:102350008FEF0E946F0C1150B1F721E0E21AF108E3
:1023600089F731C08091440684FF03C080E18093E7
:1023700046068091040681FF03C082E08093060632
:1023800084E20E946F0CE12CF12C62E0962E00E0BA
:1023900010E0F801EE0DFF1DE60DF71D8491909100
:1023A000040691FF909205060E946F0C0F5F1F4F6D
:1023B0000931110571F739E1E30EF11C88E8E816DF
:1023C00083E1F80621F78091440684FD03C080E193
:1023D000809345060E94D51020E030E047EC50E0A5
:1023E00068E180E00E94350D6114710441F50E949E
:1023F000770C8091440684FF03C080E180934606F9
:102400008091040681FF03C082E08093060684E287
:102410000E946F0C08EC10E052E0E52E49E1F42E2A
:102420008091040681FFE09205068FEF0E946F0CF9
:10243000FA94F110F5CF0150110981F732C0809163
:10244000440684FF03C080E1809346068091040621
:1024500081FF03C082E08093060684E20E946F0C35
:10246000E12CF12C32E0932E00E010E0F801EE0DAB
:10247000FF1DE60DF71DE4918091040681FF909207
:1024800005068E2F0E946F0C0F5F1F4F093111053B
:1024900069F799E1E90EF11CE8E8EE16E3E1FE06C2
:1024A00019F78091440684FD03C080E180934506BE
:1024B0001092F02E90E1392E22E0222E8091F02E03
:1024C000282F30E02C153D0508F064C0F50126E00A
:1024D000829FE00DF11D112480809180F2800381A4
:1024E0008481458150E010E09A01200F311F215076
:1024F00031096F2D680F61500E94350DFF0CFF0CE4
:10250000FF0C8F2D90E09C0183E0369527958A95EE
:10251000E1F72A833B833A8139838091440684FD25
:10252000309246068091040681FD2092060684E2E0
:102530000E946F0C412C512C612C712C601671067D
:10254000F0F4E12CF12C9981E91688F4F701E40DFF
:10255000F51DE80DF91D84919091040691FF2092DC
:1025600005060E946F0C8FEFE81AF80AECCF2A815B
:102570003B81420E531E3FEF631A730ADFCF8091F7
:10258000440684FF309245068091F02E8F5F809341
:10259000F02E94CF0E94D5108091440684FF03C092
:1025A00080E1809346068091040681FF03C082E0AB
:1025B0008093060682E20E946F0C8091040681FDE2
:1025C00003C082E08093050680EC0E946F0C80912E
:1025D000440684FD03C080E1809345068091440653
:1025E00084FF03C080E1809346068091040681FF4A
:1025F00003C082E08093060680E20E946F0C809107
:10260000440684FD03C080E1809345062396CDBF38
:10261000DEBFDF91CF911F910F91FF90EF90DF9080
:10262000CF90BF90AF909F908F907F906F905F9072
:102630004F903F902F900C94770CE0E6F6E080EE00
:102640008183868387E080934206089580E28093A9
:10265000650630914806209148069091480680937F
:10266000660630FD28C021FD28C092FD28C080E408
:10267000809365063091480620914806909148065F
:102680008093660630FD1DC021FD1DC092FD1DC05A
:1026900080E8809365063091480620914806909125
:1026A00048068093660630FD12C021FD12C092FDDF
:1026B00012C08AE0089580E0089581E0089582E0E4
:1026C000089583E0089584E0089585E0089586E004
:1026D000089587E0089588E00895E091CE20F09174
:1026E000CF208081811103C08FEF9FEF0CC0E0915C
:1026F000CE20F091CF200580F681E02D0680F78175
:10270000E02D828193818093A5209093A620089547
:10271000EF92FF920F931F93CF93DF931F92CDB74A
:10272000DEB77C010091AD201091AE208091A020F9
:102730009091A120029669830E944D2269818FEFBA
:10274000E816F80699F4662389F06091A02070914C
:10275000A1206E5F7F4F80EB90E20F90DF91CF91D1
:102760001F910F91FF90EF900C94F421E00EF11E59
:10277000E091A020F091A120E282F3826091A0205C
:102780007091A120E016F10678F48091CC20909110
:10279000CD206E5F7F4F0F90DF91CF911F910F91F2
:1027A000FF90EF900C9415228091CE209091CF2035
:1027B0006E5F7F4F0E9415228091A5209091A620E8
:1027C000E816F90620F4E092A520F092A6200F90DA
:1027D000DF91CF911F910F91FF90EF90089580911D
:1027E000B920882309F10FB6F8940F92E091BF2029
:1027F000F091C020C681D781CE0102960E944D2261
:102800008091AF2081508093AF208091B92081507A
:102810008093B9200F900FBE8F89988D0E946924F4
:10282000CE010E946924DBCF8091E2208230B8F291
:102830000E944329D4CF2F923F925F926F927F9252
:102840008F929F92AF92BF92CF92DF92EF92FF92C0
:102850000F931F93CF93DF934C01562E172F5A01DE
:102860003901CA010E9437241C01009709F4D4C021
:1028700088E290E00E943724EC01009781F02F8AD3
:10288000388E650121E0C21AD108C20CD31CBC01EC
:10289000675E7F4FE52DF12FCF01089607C0C1017C
:1028A0000E946924B9C0E817F90749F09F014191D6
:1028B000DB014D93BD01D9012C912111F4CF18A258
:1028C000043008F003E00E8B09A31AA25E01B2E007
:1028D000AB0EB11CC5010E94F021CE010C960E94E6
:1028E000F021C887D98784E090E0801B91098C870C
:1028F0009D87CA8BDB8B1BA21CA21DA21EA21FA23E
:10290000A301B401C6010E94862888839983E1143B
:10291000F10419F0F701C083D1830FB6F8940F9238
:102920008091AF208F5F8093AF208091A020909105
:10293000A120892BD1F5C093A020D093A120809114
:10294000AF20813009F041C082EE90E20E94E22186
:102950008BEE90E20E94E22184EF90E20E94E2215D
:102960008DEF90E20E94E22189ED90E20E94E22147
:1029700080ED90E20E94E22183EC90E20E94E2214D
:102980008AEB90E20E94E22180EB90E20E94E22139
:1029900089ED90E28093CE209093CF2080ED90E25D
:1029A0008093CC209093CD2010C08091AB208111DA
:1029B0000CC0E091A020F091A12096898E89891702
:1029C00020F0C093A020D093A1208091A7208F5FFA
:1029D0008093A7208E899091AC20981710F4809353
:1029E000AC20F9E08F9FC0011124B5018E519F4D9D
:1029F0000E94F4210F900FBE8091AB20882351F0EC
:102A0000E091A020F091A12096898E89981710F46A
:102A10000E94432981E001C08FEFDF91CF911F9188
:102A20000F91FF90EF90DF90CF90BF90AF909F906D
:102A30008F907F906F905F903F902F9008950F93AD
:102A40001F93CF93DF93EC010FB6F8940F9200978A
:102A500021F4C091A020D091A1208E010E5F1F4FC4
:102A6000C8010E944D228C899D89892B21F0CE01BD
:102A70000C960E944D229091A7209F5F9093A720D3
:102A80008091A0209091A120C817D90759F4B801CE
:102A90008AEB90E20E94F4218091B9208F5F8093AD
:102AA000B9200EC08091AF2081508093AF208F89D4
:102AB000988D0E946924CE010E9469240E946D13A2
:102AC0000F900FBE8091AB20882349F08091A02009
:102AD0009091A120C817D90711F40E944329DF91D2
:102AE000CF911F910F9108950F931F93CF93DF9371
:102AF0002091A0203091A12082179307B9F100976F
:102B0000A9F10FB6F8940F92FC0122853385205B62
:102B1000304251F5FC0124893589F0E2233C3F071E
:102B200019F1232B09F5EC018C010E5F1F4FC80131
:102B30000E944D229E898091AC20891710F49093B9
:102B4000AC2029E0929FC0011124B8018E519F4D05
:102B50000E94F421E091A020F091A1209E89868915
:102B6000981710F00E9443290F900FBEDF91CF916C
:102B70001F910F910895EF92FF921F93CF93DF93D0
:102B8000EC018A859B85805B904299F48C899D89B4
:102B900020E2833C920769F0892B59F48091A220AE
:102BA000882349F0BE01645F7F4F83EC90E20E946E
:102BB000F42110E021C0E091A020F091A12011E0CB
:102BC0009E898689981708F410E07E0182E0E80E5D
:102BD000F11CC7010E944D229E898091AC2089176B
:102BE00010F49093AC2029E0929FC0011124B7010A
:102BF0008E519F4D0E94F421812FDF91CF911F9123
:102C0000FF90EF900895EF92FF920F9383EAE82EE2
:102C100080E2F82E00E020E030E045E550E06BE98E
:102C200070E28FEE93E10E941B14813091F4F894CE
:102C30002FEF3FEF2093A5203093A6208093AB2069
:102C40001092AD201092AE200F91FF90EF900C9457
:102C5000FD280F91FF90EF900895F8941092AB200B
:102C60000C9442298091A2208F5F8093A220089526
:102C70000FB6F8940F928091AD209091AE200F90F6
:102C80000FBE08958091AD209091AE20089580915F
:102C9000AF200895009721F48091A0209091A12069
:102CA00049960895CF92DF92EF92FF920F931F9370
:102CB000CF93DF938091A22081118CC00091AD2031
:102CC0001091AE200F5F1F4F0093AD201093AE20E8
:102CD00001151105B9F48091CE209091CF2020915B
:102CE000CC203091CD202093CE203093CF208093E4
:102CF000CC209093CD208091A8208F5F8093A82036
:102D00000E946D138091A5209091A620C0E0081725
:102D1000190708F44FC0D9E0E091CE20F091CF2000
:102D20008081811103C08FEF9FEF11C0E091CE2011
:102D3000F091CF200580F681E02DE680F780D70165
:102D400012968D919C9113970817190728F4809378
:102D5000A5209093A6202EC06701B2E0CB0ED11C17
:102D6000C6010E944D22F70184899589892B21F0A3
:102D7000C7010C960E944D22D70156969C918091D6
:102D8000AC20891710F49093AC20D99FC001112476
:102D9000B6018E519F4D0E94F421E091A020F09148
:102DA000A120D70156969C918689981708F4B4CF34
:102DB000C1E0B2CFE091A020F091A120E689B9E076
:102DC000EB9FF0011124EE51FF4D8081823040F0E5
:102DD000C1E006C08091AA208F5F8093AA20C0E046
:102DE0008091A9208111C1E08C2FDF91CF911F919B
:102DF0000F91FF90EF90DF90CF900895EF92FF92A8
:102E00000F931F93CF93DF930FB6F8940F92809197
:102E1000A22081508093A2208091A220882311F0CB
:102E200080E052C08091AF208823D1F3C0E0D0E091
:102E300089E0F82EEE24E3948091C320882351F199
:102E4000E091C820F091C920C681D781CE010C96AF
:102E50000E944D228E010E5F1F4FC8010E944D221D
:102E60009E898091AC20891710F49093AC20F99E34
:102E7000C0011124B8018E519F4D0E94F421E091B0
:102E8000A020F091A1209E8986899817A8F2E0924F
:102E9000A920D2CFCD2B11F00E946D13C091AA2092
:102EA000CC2351F0D1E00E9452168111D093A92079
:102EB000C150C9F71092AA208091A920882309F453
:102EC000AFCF0E94432981E00F900FBEDF91CF91D9
:102ED0001F910F91FF90EF9008950F931F93CF9341
:102EE000DF938C01EB010E9432164091AD2050918E
:102EF000AE20F801608171819B012C0F3D1F4617A8
:102F0000570728F42617370748F491E004C091E0EA
:102F10002617370720F04217530708F090E0F80112
:102F200020833183992331F060E0C901841B950B24
:102F30000E9488130E94FE16811102C00E9443293C
:102F4000DF91CF911F910F910895CF93DF931F923F
:102F50001F92CDB7DEB7009719F40E9443290DC028
:102F600089839A830E94321660E089819A810E9447
:102F700088130E94FE16882381F30F900F90DF9133
:102F8000CF9108958091A220882321F081E0809341
:102F9000A92008951092A9208091AC2069E0482FC3
:102FA00050E0649F9001659F300D1124F901EE51AE
:102FB000FF4D9081911102C08150F1CFA181B2816A
:102FC00012960D90BC91A02DA183B2832B513F4D41
:102FD000A217B30731F412962D913C9113972183D8
:102FE000328399E0949FF001959FF00D1124EE51EA
:102FF000FF4D0180F281E02D268137812093A020B2
:103000003093A1208093AC2008950F931F93CF930A
:10301000DF93EC010FB6F8940F92009721F4C09162
:10302000A020D091A1208E010E5F1F4FC8010E94E9
:103030004D228C899D89892B21F0CE010C960E940E
:103040004D22B80180EB90E20E94F4218FA18130E3
:1030500009F41FA20F900FBE8091AB20882339F096
:103060000FB6F8940F920E946D130F900FBE8091CF
:10307000A0209091A120C817D907C1F48091AB205E
:10308000882319F00E94432911C09091B0208091AB
:10309000AF20981305C01092A0201092A12006C066
:1030A000DF91CF911F910F910C94C217DF91CF91B7
:1030B0001F910F910895CF93DF93EB012091A020F2
:1030C0003091A120B901645F7F4F0E94152261E019
:1030D000CE01DF91CF910C948813CF93DF93EA0157
:1030E000E091A020F091A1207068648775876091BD
:1030F000A0207091A120645F7F4F0E94F42161E0C5
:10310000CE01DF91CF910C9488130F931F93CF932F
:10311000DF93DC011596ED91FC911697C681D7815E
:103120008E01045F1F4FC8010E944D228091A22092
:10313000811114C00A501109C8010E944D229E89B4
:103140008091AC20891710F49093AC20B9E09B9F3C
:10315000C0011124B8018E519F4D03C0B80183EC0A
:1031600090E20E94F421E091A020F091A1209E899C
:103170008689891720F481E08093A92001C080E02E
:10318000DF91CF911F910F9108950F931F93CF93CC
:10319000DF937068FC0160837183C681D7810E94D0
:1031A0004D228E010E5F1F4FC8010E944D229E8945
:1031B0008091AC20891710F49093AC20F9E09F9F88
:1031C000C0011124B8018E519F4D0E94F421E0915D
:1031D000A020F091A1209E898689891718F481E0AA
:1031E0008093A920DF91CF911F910F9108950FB681
:1031F000F8940F922091A820FC0120832091AD200B
:103200003091AE20218332830F900FBE089520911C
:10321000A820FC0120832091AD203091AE20218395
:1032200032830895CF93DF930FB6F8940F924091B5
:10323000AD205091AE20DC011196ED91FC911297DA
:10324000EB01288139812F3FDFEF3D07C9F0B091B5
:10325000A820EC01A881BA1719F04E175F0790F467
:103260004E1B5F0BFB014217530738F4241B350B31
:10327000208331830E94071903C01082118202C08B
:1032800080E001C081E00F900FBEDF91CF910895E3
:1032900081E08093A92008958091A0209091A120A1
:1032A00008950F931F93CF93DF93FC01009709F4C8
:1032B00055C08689A091A020B091A12056969C91DE
:1032C000891708F041C02485358537FD0CC0A091D1
:1032D000A020B091A12056969C9124E030E0291BBB
:1032E00031092487358729E0829FC00111248E513E
:1032F0009F4D2285338528173907E9F48F01EF01A7
:103300002296CE010E944D22E091A020F091A120B2
:103310009689F801968B8091AC20891710F49093D0
:10332000AC20F9E09F9FC0011124BE018E519F4D3A
:103330000E94F42107C0A091A020B091A120569630
:103340008C91868B81E00BC0A091A020B091A12030
:1033500081E021A156969C91291708F080E0DF9129
:10336000CF911F910F9108950F931F93CF93DF93E8
:10337000FC01009711F480E02CC082A1815082A34F
:10338000268991A12917B9F38111F5CFEF018F019A
:103390000E5F1F4FC8010E944D2299A19E8B492F9D
:1033A00050E024E030E0241B350B2C873D878091D2
:1033B000AC20891710F49093AC2029E0249FC00121
:1033C000259F900D1124B8018E519F4D0E94F4212C
:1033D00081E0DF91CF911F910F9108950F931F937B
:1033E000CF93DF93FC010097D9F181A1681708F40E
:1033F000682F86898617A1F192A1913089F5668B95
:103400002485358537FD06C024E030E0261B3109D0
:103410002487358729E0829FC00111248E519F4D5A
:103420002285338528173907D9F4EF018F010E5F04
:103430001F4FC8010E944D229E898091AC208917A0
:1034400010F49093AC2029E0929FC0011124B801A0
:103450008E519F4DDF91CF911F910F910C94F421CC
:10346000DF91CF911F910F910895E091A020F091ED
:10347000A12084859585E091A020F091A120A091C4
:10348000A020B091A12056964C9124E030E0241B5E
:1034900031092487358708958091A0209091A1203B
:1034A000892B39F0E091A020F091A12082A18F5FBB
:1034B00082A38091A0209091A12008950F931F9343
:1034C000182FCB010FB6F8940F92E091A020F09145
:1034D000A12043A154A165A176A1452B462B472BE2
:1034E00069F4E091A020F091A12021E027A30097AA
:1034F00029F061E00E9488130E9443290F900FBEBB
:103500000FB6F8940F92E091A020F091A12063A152
:1035100074A185A196A16115710581059105A9F098
:10352000E091A020F091A120112329F013A214A270
:1035300015A216A20AC08B019C0101501109210994
:10354000310903A314A325A336A3E091A020F09191
:10355000A12017A20F900FBE1F910F9108954F92B7
:103560005F926F927F928F929F92AF92BF92EF92F3
:10357000FF920F931F93CF93DF9300D01F92CDB78D
:10358000DEB70FB6F8940F92E091A020F091A12041
:10359000E7A1E23079F1E091A020F091A12043A0D1
:1035A00054A065A076A04B015C0180949094A094F7
:1035B000B094D501C40184219521A621B72183A30C
:1035C00094A3A5A3B6A3E091A020F091A12081E04F
:1035D00087A3E114F10471F061E0C70129833A8304
:1035E0004B835C830E9488130E9443295C814B813A
:1035F0003A8129810F900FBE0FB6F8940F920115F2
:10360000110569F0E091A020F091A12083A194A17F
:10361000A5A1B6A1F80180839183A283B383E09131
:10362000A020F091A12087A18230C1F4E091A020D8
:10363000F091A12083A194A1A5A1B6A1BA01A901ED
:10364000409550956095709584239523A623B723C4
:1036500083A394A3A5A3B6A381E001C080E0E09179
:10366000A020F091A12017A20F900FBE2496CDBFED
:10367000DEBFDF91CF911F910F91FF90EF90BF9030
:10368000AF909F908F907F906F905F904F90089534
:103690000F931F93CF93DF93FC010FB6F8940F9213
:1036A0000115110549F083A194A1A5A1B6A1E801D6
:1036B00088839983AA83BB8337A182E087A32230C2
:1036C00089F058F4213001F583A194A1A5A1B6A1F8
:1036D000482B592B6A2B7B2B13C0233089F02430C5
:1036E00069F012C083A194A1A5A1B6A10196A11D64
:1036F000B11D83A394A3A5A3B6A306C0323049F19C
:1037000043A354A365A376A3313009F5EF018F01DC
:103710000E5F1F4FC8010E944D229E898091AC20F0
:10372000891710F49093AC2029E0929FC0011124D6
:10373000B8018E519F4D0E94F421E091A020F0919C
:10374000A1209E898689891710F40E94432981E06F
:1037500001C080E00F900FBEDF91CF911F910F91BC
:103760000895EF92FF920F931F93CF93DF93FC0185
:103770000115110549F083A194A1A5A1B6A1E80105
:1037800088839983AA83BB8337A182E087A32230F1
:1037900089F058F4213001F583A194A1A5A1B6A127
:1037A000482B592B6A2B7B2B13C0233089F02430F4
:1037B00069F012C083A194A1A5A1B6A10196A11D93
:1037C000B11D83A394A3A5A3B6A306C03230D9F13B
:1037D00043A354A365A376A3313011F081E034C034
:1037E000EF018091A220811115C08F010E5F1F4F44
:1037F000C8010E944D222E898091AC20821710F4BE
:103800002093AC20E9E02E9FC0011124B8018E5115
:103810009F4D05C0BF01645F7F4F83EC90E20E9423
:10382000F421E091A020F091A1209E89868989173A
:10383000A8F6E114F10419F081E0E701888381E042
:103840008093A92001C080E0DF91CF911F910F915B
:10385000FF90EF900895EF92FF920F931F93CF93F5
:10386000DF93FC0127A182E087A383A194A1A5A1F6
:10387000B6A10196A11DB11D83A394A3A5A3B6A3D0
:103880002130A1F58B01EF018091A220811116C09A
:103890007F0132E0E30EF11CC7010E944D222E8908
:1038A0008091AC20821710F42093AC20E9E02E9F89
:1038B000C0011124B7018E519F4D05C0BF01645F47
:1038C0007F4F83EC90E20E94F421E091A020F091E0
:1038D000A1209E898689891748F40115110519F0E0
:1038E00081E0F801808381E08093A920DF91CF916E
:1038F0001F910F91FF90EF900895009721F4809110
:10390000A0209091A1200FB6F8940F92FC0127A15E
:10391000223019F417A281E001C080E00F900FBEA1
:1039200008950FB6F8940F92FC01928D0F900FBE80
:1039300081E0911180E008950F931F93CF93DF935F
:10394000EC01042F1A8D8C8D81110CC08881998116
:10395000892B09F03EC08C819D810E94B4191C8284
:103960001D8238C0482F50E0011115C08A819B810B
:103970000E94202A2C8D8A819B81820F911D8A832F
:103980009B832C813D818217930718F1888199814F
:103990008A839B831EC08E819F810E94202A8C8DEA
:1039A00090E09195819591092E813F81280F391FD3
:1039B0002E833F83488159812417350730F42C81A9
:1039C0003D81820F931F8E839F83023011F411116A
:1039D000115080E01F5F1A8FDF91CF911F910F91DF
:1039E0000895FC01CB01448D4423A1F050E02681D1
:1039F0003781240F351F268337836481758126170D
:103A0000370720F0208131812683378366817781D3
:103A10000C94202A0895EF92FF921F93CF93DF9387
:103A2000EC010FB6F8940F921E8D7C0181E1E80E37
:103A3000F11C11165CF48989882341F0C7010E94AA
:103A4000851881110E9448191150F3CF8FEF8E8F86
:103A50000F900FBE0FB6F8940F921D8D7E0188E077
:103A6000E80EF11C11165CF48885882341F0C7012B
:103A70000E94851881110E9448191150F3CF8FEFD1
:103A80008D8F0F900FBEDF91CF911F91FF90EF9020
:103A90000895CF93DF93EC010FB6F8940F9248810D
:103AA00059818B8D7C8D9A01879F200D311D1124AA
:103AB0002C833D831A8E4A835B8390E00197789F25
:103AC0009001799F300D1124CA01820F931F8E83BC
:103AD0009F838FEF8D8F8E8F61110CC08885882317
:103AE00089F0CE0108960E948518882359F00E941B
:103AF000432908C0CE0108960E94E221CE014196DA
:103B00000E94E2210F900FBE81E0DF91CF910895D6
:103B1000EF92FF921F93CF93DF931F92CDB7DEB743
:103B2000182F662321F0869FC001112402C080E077
:103B300090E04F9669830E9437247C016981009749
:103B400089F0611104C0FC018083918304C04F9609
:103B5000F70180839183F701138F648F61E0C701C0
:103B60000E94491DC7010F90DF91CF911F91FF90D7
:103B7000EF900895AF92BF92CF92DF92FF920F9392
:103B80001F93CF93DF93CDB7DEB72597CDBFDEBFB1
:103B90008C016B014C835D83F22E90E0580188E02C
:103BA000A80EB11C0FB6F8940F92F801228D838DE8
:103BB000281718F0F2E0FF1214C04F2DB601C8010B
:103BC0000E949C1CF8019189992321F0C80141961B
:103BD0000E94851881110E9443290F900FBE81E039
:103BE00050C02C813D81232B19F40F900FBE48C08B
:103BF000911104C0CE0101960E9407190F900FBECB
:103C00000E9432160FB6F8940F92F801858D8F3FFF
:103C100009F4158EF801868D8F3F09F4168E0F90EA
:103C20000FBEBE016C5F7F4FCE0101960E9412193C
:103C3000811121C00FB6F8940F92F801928D0F9068
:103C40000FBE838D981311C06C817D81C5010E94C8
:103C50005B18C8010E940B1D0E94FE16882311F0FC
:103C600091E0A0CF0E944329FBCFC8010E940B1D09
:103C70000E94FE16F5CFC8010E940B1D0E94FE1681
:103C800080E02596CDBFDEBFDF91CF911F910F91D0
:103C9000FF90DF90CF90BF90AF900895CF93DF93C8
:103CA000482F60E081E00E94881DEC01009761F0E0
:103CB0001C821D82188219821E8220E040E050E0A2
:103CC00060E070E00E94BA1DCE01DF91CF910895AF
:103CD000EF92FF921F93CF93DF93EC019A8D8B8D20
:103CE000981710F02230E1F47A011E8D422FCE0198
:103CF0000E949C1C1F3F81F48989882379F0CE01A2
:103D000041960E948518882349F0E114F10431F0AE
:103D100081E0F701808305C01F5F1E8F81E001C035
:103D200080E0DF91CF911F91FF90EF900895CF93A6
:103D3000DF93FC01928D838D9817C0F4868D9F5F71
:103D4000928F8F3F79F48189882371F0EB01CF0145
:103D500041960E948518882339F0209729F081E048
:103D6000888305C08F5F868F81E001C080E0DF918E
:103D7000CF910895AF92BF92CF92DF92FF920F93AF
:103D80001F93CF93DF93CDB7DEB72597CDBFDEBFAF
:103D90008C016B014C835D8390E0580181E1A80E9A
:103DA000B11C0FB6F8940F92F801F28CFF20A9F025
:103DB000B601C8010E94F11CFA94F801F28E8085C8
:103DC000882339F0C80108960E94851881110E9445
:103DD00043290F900FBE81E050C02C813D81232BE1
:103DE00019F40F900FBE48C0911104C0CE01019686
:103DF0000E9407190F900FBE0E9432160FB6F8945A
:103E00000F92F801858D8F3F09F4158EF801868D8C
:103E10008F3F09F4168E0F900FBEBE016C5F7F4F6F
:103E2000CE0101960E94121981111CC0C8010E9486
:103E3000911C882389F06C817D81C5010E945B18EB
:103E4000C8010E940B1D0E94FE16882311F091E00C
:103E5000A8CF0E944329FBCFC8010E940B1D0E94DE
:103E6000FE16F5CFC8010E940B1D0E94FE16C80168
:103E70000E94911C882359F380E02596CDBFDEBFB8
:103E8000DF91CF911F910F91FF90DF90CF90BF9066
:103E9000AF900895CF92DF92FF920F931F93CF932D
:103EA000DF93CDB7DEB72597CDBFDEBF8C016C8326
:103EB0007D83F12C20E06C0181E1C80ED11C0FB68E
:103EC000F8940F92D8015A969C915A979923E9F049
:103ED00091505A969C935A978D919C91892B29F4D5
:103EE0000E944C1AF80184839583D80118968C910E
:103EF000882339F0C80108960E94851881110E9414
:103F000043290F900FBE81E07AC08C819D81892B5F
:103F100009F472C0211104C0CE0101960E94071954
:103F20000F900FBE0E9432160FB6F8940F92F80150
:103F3000858D8F3F09F4158ED8015E968C915E9722
:103F40008F3F11F45E961C920F900FBEBE016C5F06
:103F50007F4FCE0101960E94121981112BC0C8011A
:103F60000E94911C882301F1F80180819181892BA5
:103F700051F40FB6F8940F92848195810E945119E3
:103F8000F82E0F900FBE6C817D81C6010E945B18D8
:103F9000C8010E940B1D0E94FE16882311F021E02B
:103FA0008ECF0E944329FBCFC8010E940B1D0E94A7
:103FB000FE16F5CFC8010E940B1D0E94FE16C80117
:103FC0000E94911C882359F3FF20C1F00FB6F8948A
:103FD0000F92F8018189882339F00688F789E02D4E
:103FE000808164E0681B01C060E0D80114968D9167
:103FF0009C9115970E94EE190F900FBE80E02596B8
:10400000CDBFDEBFDF91CF911F910F91FF90DF9069
:10401000CF900895CF92DF92EF92FF920F931F936C
:10402000CF93DF93CDB7DEB72597CDBFDEBF8C0131
:104030007B014C835D8390E0680181E1C80ED11C57
:104040000FB6F8940F92F801828D8823B9F0C680DC
:10405000D780B701C8010E94F11CF801C682D7823F
:104060008189882339F0C80141960E948518811101
:104070000E9443290F900FBE81E050C02C813D81EA
:10408000232B19F40F900FBE48C0911104C0CE012C
:1040900001960E9407190F900FBE0E9432160FB6AC
:1040A000F8940F92F801858D8F3F09F4158EF80171
:1040B000868D8F3F09F4168E0F900FBEBE016C5F88
:1040C0007F4FCE0101960E94121981111CC0C801B8
:1040D0000E94911C882389F06C817D81C6010E9419
:1040E0005B18C8010E940B1D0E94FE16882311F068
:1040F00091E0A6CF0E944329FBCFC8010E940B1D6F
:104100000E94FE16F5CFC8010E940B1D0E94FE16EC
:10411000C8010E94911C882359F380E02596CDBFE9
:10412000DEBFDF91CF911F910F91FF90EF90DF9055
:10413000CF900895EF92FF920F931F93CF93DF9349
:10414000FC01028D0023E9F07A01EC01158D0E943B
:10415000F11C01500A8F1F3F81F48885882379F074
:10416000CE0108960E948518882349F0E114F104D5
:1041700031F081E0F701808305C01F5F1D8F81E072
:1041800001C080E0DF91CF911F910F91FF90EF90E0
:1041900008950F931F93CF93DF93FC01228D222369
:1041A00049F0EC01068117810E94F11C0E831F83E8
:1041B00081E001C080E0DF91CF911F910F910895C0
:1041C0000FB6F8940F92FC01828D0F900FBE0895E8
:1041D0000FB6F8940F92FC01228D0F900FBE838DC5
:1041E000821B0895FC01828D08950C946924FC01C2
:1041F000928D81E0911180E00895FC01228D81E093
:10420000938D291380E00895CF93DF93EC01F89408
:104210000FB6F8940F928A8D9B8D0F900FBE891365
:104220000FC04115510549F0BE01685F7F4FCA01BB
:104230000E94E32278948CEF1BC0789480E018C031
:104240007894F8948A8D891788F440E0CE010E9412
:104250009C1C8989811102C081E009C0CE01419670
:104260000E9412248823C1F38BEF01C080E0789470
:10427000DF91CF910895CF93DF93EC01FB01F89488
:104280008A8D81110FC04115510549F0BE016F5E45
:104290007F4FCA010E94E32278948CEF30C078945B
:1042A00080E02DC07894F8948A8D882331F14C8D6C
:1042B00050E02E813F81240F351F2E833F838C8158
:1042C0009D812817390720F0888199818E839F83EB
:1042D0009A8D91509A8F6E817F81CF010E94202A02
:1042E0008885811102C081E009C0CE0108960E9434
:1042F00012248823C1F38BEF01C080E07894DF9112
:10430000CF9108950F931F93CF938C01C42FFC017D
:10431000928D838D981710F04C2F12C040E0C80189
:104320000E949C1CC111F8CFF8018189882339F0C3
:10433000C80141960E94122441E0811101C040E071
:10434000842FCF911F910F9108950F931F93CF93B7
:10435000DF93FC01828D882379F1248D30E0A681E2
:10436000B781A20FB31FA683B78384819581A81755
:10437000B90720F080819181868397838A01CB01E0
:10438000EF01428D4150428F66817781A9010E94E1
:10439000202AF8018081882311F081E00EC08885F1
:1043A0008823D9F3CE0108960E9412248823A9F30A
:1043B00081E0F801808301C080E0DF91CF911F91FF
:1043C0000F910895FC010396818392832FEF3FEFB5
:1043D000238334838583968387839087108208950F
:1043E000FC01108611860895CF93DF939C01FB0199
:1043F000DC011196CD91DC911297C283D3838C811D
:104400009D81848395838C819D81DC0112966D93BF
:104410007C9313976C837D8320873187F90180819A
:104420008F5F8083DF91CF9108950F931F93CF9378
:10443000DF938C01FB01808191818F3F2FEF9207E9
:1044400021F4E801AF81B8850EC0D8011396129609
:104450002D913C911397E901488159818417950763
:1044600010F0D901F4CF12968D919C91139782830D
:104470009383EC01EC83FD83A483B5831296ED93C3
:10448000FC93139700871187F80180818F5F8083E9
:10449000DF91CF911F910F910895CF93DF93FC018E
:1044A000A085B1858281938124813581EC012C83A3
:1044B0003D83C481D5818A839B8311968D919C9184
:1044C00012978E179F0721F41196CD93DC931297C4
:1044D000108611868C9181508C938C91DF91CF91B5
:1044E0000895CF92DF92EF92FF921F93CF93DF93C5
:1044F0006C01162FF42E8AE190E00E943724EC0123
:10450000009709F457C08091062190910721892BCB
:1045100021F5C0930621D09307218EE291E20E94FB
:10452000E22187E391E20E94E22185E291E20E948A
:10453000E2218CE191E20E94E2218FE091E20E946F
:10454000E22185E291E280931A2190931B218CE174
:1045500091E28093182190931921111111E0188E86
:10456000198E1E8BFF8AFE01C192D1927F01CF016D
:104570000E94F021CE010C960E94F021C887D987B5
:10458000CA8BDB8B82E090E0811B91098C879D8731
:104590009E8980910E21891710F490930E21F9E0E5
:1045A0009F9FC0011124B701825D9E4D0E94F4219E
:1045B00081E001C08FEFDF91CF911F91FF90EF90CD
:1045C000DF90CF9008950F931F93CF93DF938B01CC
:1045D000C0910C21D0910D21C80FD91F80910621C7
:1045E0009091072102960E944D22E0910621F091C0
:1045F0000721C283D38380910C2190910D21BF01AB
:104600006E5F7F4FC817D90728F4809118219091C9
:10461000192104C080911A2190911B210E9415221A
:104620000115110569F06091062170910721645F01
:104630007F4FC801DF91CF911F910F910C941522EC
:10464000DF91CF911F910F910895FF920F931F93C8
:10465000CF93DF9399E0F92E80910F21882311F1F8
:10466000F894E0911421F0911521C681D781CE01F3
:104670000C960E944D2278948E010E5F1F4FC80148
:104680000E944D229E8980910E21891710F49093EB
:104690000E21F99EC0011124B801825D9E4D0E9439
:1046A000F421DACF0E94381620910A2130910B2193
:1046B000821B930B809308219093092189E0F82EA7
:1046C000209108213091092180910C2190910D2198
:1046D0002115310509F454C0019680930C21909363
:1046E0000D21215031092093082130930921892B74
:1046F00009F03EC080911A2190911B212091182130
:104700003091192120931A2130931B218093182175
:10471000909319212DC00580F681E02DC681D781A7
:1047200020910C2130910D218A819B812817390716
:1047300038F2F8948E010E5F1F4FC8010E944D227F
:104740008C899D89892B21F0CE010C960E944D22E7
:1047500078949E8980910E21891710F490930E21F0
:10476000F99EC0011124B801825D9E4D0E94F42182
:10477000E0911A21F0911B2180818111CCCFA0CF33
:1047800080930A2190930B2180910E2169E0482F9C
:1047900050E0649F9001659F300D1124F901E25DA6
:1047A000FE4D908191110CC0811108C010920E2114
:1047B000DF91CF911F910F91FF9008958150E7CF26
:1047C00080930E21A181B28112960D90BC91A02DF3
:1047D000A183B2832F5C3E4DA217B30731F412962A
:1047E0008D919C9113978183928389E0849FF0013E
:1047F000859FF00D1124E25DFE4D0180F281E02DD8
:10480000868197818093062190930721DC01ED91A9
:10481000FC91119757966C91DF91CF911F910F9159
:10482000FF9019940F931F93CF93DF93DC0115969C
:10483000ED91FC911697C681D7818E01045F1F4FC1
:10484000C8010E944D22B8018FE091E20E94F4213C
:10485000E0910621F091072181E02E8996892917A0
:1048600008F480E0DF91CF911F910F910895CF93CD
:10487000DF93EC010E9432168091402190914121FA
:10488000892B31F485E491E280934021909341217A
:104890002091422130914321CE01820F931F8B3A08
:1048A0004DE0940770F42817390758F4C09140215F
:1048B000D0914121C20FD31F809342219093432175
:1048C00002C0C0E0D0E00E94FE16CE01DF91CF9181
:1048D0000895089510924221109243210895209145
:1048E0004221309143218BEA9DE0821B930B089576
:1048F000FC014481558122813381240F351F808141
:104900009181B901681B790BCB016417750710F011
:10491000841B950B0895AF92BF92CF92DF92EF92D6
:10492000FF920F931F93CF93DF936C015B017A018A
:10493000FC01C281D381848195818C1B9D0B8A01EE
:104940008417950708F48C01F60184859585A801E4
:10495000B5018C0F9D1F0E94202A0E151F0558F4CB
:10496000A701401B510BB501600F711FF601848533
:1049700095850E94202A97012C0F3D1FF601848106
:1049800095812817390710F0281B390BF60122836F
:104990003383C701DF91CF911F910F91FF90EF906B
:1049A000DF90CF90BF90AF900895CF92DF92EF92BB
:1049B000FF920F931F93CF93DF931F921F92CDB758
:1049C000DEB749835A8321153105C9F06B017C019B
:1049D000FC01868580FD07C04217530708F49A0141
:1049E00029833A830FC02017310748F042E050E096
:1049F000BE016F5F7F4FC7010E948B2403C080E020
:104A000090E006C049815A81B601C7010E948B24FB
:104A10000F900F90DF91CF911F910F91FF90EF902A
:104A2000DF90CF900895AF92BF92CF92DF92EF9236
:104A3000FF920F931F93CF93DF93EA01241735075B
:104A400008F4E901209799F1FC01E080F1802481CC
:104A500035812E193F096E012C173D0708F46901B5
:104A60005B018C01FC01648575856E0D7F1DA601BF
:104A7000C5010E94202ACC16DD0658F4AE014C195F
:104A80005D09F80164857585C5018C0D9D1D0E9429
:104A9000202ACE018E0D9F1DF801248135818217B9
:104AA000930710F0821B930BF80180839183CE0152
:104AB000DF91CF911F910F91FF90EF90DF90CF90FA
:104AC000BF90AF900895EF92FF921F93CF93DF9323
:104AD000EB0111E0413009F010E0209711F4C1E042
:104AE000D0E07C012FEFE21AF20A40960E943724B0
:104AF000FC01009771F08FE0DF011D928A95E9F7C4
:104B0000CF010F9684879587E482F582C683D78389
:104B10001687CF01DF91CF911F91FF90EF900895FD
:104B2000FC01268521FF0C9469242FE0FC011192E1
:104B30002A95E9F70895FC010FB6F8940F92808545
:104B40009185892BC9F482859385892BA9F4868563
:104B50002681378144815581648575859FE0DF0119
:104B60001D929A95E9F76487758744835583268358
:104B70003783868781E001C080E00F900FBE0895E3
:104B80006115710511F461E070E0FC01248135814B
:104B90002617370720F06683778381E0089580E049
:104BA0000895FC0124813581808191814281538166
:104BB000820F931F0197841B950B8217930710F0A8
:104BC000821B930B08950C9478244F925F926F92FE
:104BD0007F928F929F92AF92BF92CF92DF92EF928D
:104BE000FF920F931F93CF93DF93CDB7DEB7259737
:104BF000CDBFDEBF6C012B014A012C833D83FC013C
:104C000086853A0180FF03C0F2E06F0E711C8C8133
:104C10009D81892B21F4C6010E94D12538C0CE0187
:104C200001960E94F7180FB6F8940F92C6010E94E1
:104C3000D1255C018615970520F580E090E00E9463
:104C40007D1C0E944C19F601828793870F900FBE3E
:104C5000EC80FD8000E010E020E030E0A90160E0A1
:104C600070E0CB010E94AF1AF60112861386BE01D6
:104C70006C5F7F4FCE0101960E941219882399F232
:104C800002C00F900FBEC501AB2809F4C4CF830149
:104C90009C01A401B201C6010E94D5245C010097C9
:104CA000F9F0C6010E947824F60126813781821727
:104CB0009307B0F00E943216F60180859185892B0A
:104CC00069F08085918500E010E020E040E050E050
:104CD000BA010E94481BF601108611860E94FE163A
:104CE000C5012596CDBFDEBFDF91CF911F910F91FA
:104CF000FF90EF90DF90CF90BF90AF909F908F90FC
:104D00007F906F905F904F900895AF92BF92CF9237
:104D1000DF92EF92FF920F931F93CF93DF9300D018
:104D20001F92CDB7DEB75C017901FC0186858A014F
:104D300080FF02C00E5F1F4FC5014B835C836983F8
:104D40007A830E94D1259C014B815C8169817A81A3
:104D5000C5010E94D5246C010097D1F0C5010E94C5
:104D60007824F501268137818217930788F08085A2
:104D70009185892B69F08085918500E010E020E025
:104D800040E050E0BA010E94B11BF5011086118687
:104D9000C6012496CDBFDEBFDF91CF911F910F9149
:104DA000FF90EF90DF90CF90BF90AF9008956F92FB
:104DB0007F928F929F92AF92BF92CF92DF92EF92AB
:104DC000FF920F931F93CF93DF931F921F92CDB744
:104DD000DEB76C013B014A017901FC01868580FD4B
:104DE00003C0A12CB12C03C082E0A82EB12CE11489
:104DF000F10429F10FB6F8940F92C6010E947824AD
:104E00008C01A816B90648F080E090E00E947D1C55
:104E10000E944C19F601808791870F900FBEA01653
:104E2000B106B8F000E010E020E030E0A90160E059
:104E300070E0CB010E94AF1AF60110861186C60100
:104E40000E9478248C01A816B90618F0E12CF12CE8
:104E50003BC0A114B104C9F0F601E080F1809801D3
:104E6000A501BE016F5F7F4FC6010E941325898196
:104E70009A810A191B098816990630F4F601E08216
:104E8000F182812C912C01C04C019801A401B30145
:104E9000C6010E9413257C010097C1F20E943216C0
:104EA000F60182859385892B69F08285938500E0E0
:104EB00010E020E040E050E0BA010E94481BF601FB
:104EC000128613860E94FE16C7010F900F90DF9185
:104ED000CF911F910F91FF90EF90DF90CF90BF90F7
:104EE000AF909F908F907F906F900895EF92FF9278
:104EF0000F931F93CF93DF931F921F92CDB7DEB70F
:104F0000FC01268520FD03C080E090E017C08C01E5
:104F10000E94782483309105B8F3F801E080F18095
:104F20009C0142E050E0BE016F5F7F4FC8010E94CC
:104F3000132589819A81F801E082F1820F900F9008
:104F4000DF91CF911F910F91FF90EF9008954F92B5
:104F50005F926F927F928F929F92AF92BF92CF9209
:104F6000DF92EF92FF920F931F93CF93DF931F92E5
:104F70001F92CDB7DEB76C014B015A013901FC011C
:104F8000868580FD03C0E12CF12C03C082E0E82E71
:104F9000F12CC6010E9478248C01E816F90618F05D
:104FA000A12CB12C38C0E114F104C9F0F601408005
:104FB00051809C01A701BE016F5F7F4FC6010E9417
:104FC000132589819A810E191F09A816B90630F494
:104FD000F60140825182A12CB12C01C05C019801E4
:104FE000A501B401C6010E9413255C010097C1F21E
:104FF000F60182859385892B71F0828593857301F3
:1050000000E010E020E040E050E0BA010E94B11B57
:10501000F60112861386C5010F900F90DF91CF9194
:105020001F910F91FF90EF90DF90CF90BF90AF90C6
:105030009F908F907F906F905F904F900895FC01AC
:10504000208131814281538181E04217530709F069
:1050500080E00895CF93DF93FC01268520FD03C0F7
:10506000C0E0D0E002C0C2E0D0E00E94D12521E043
:10507000C817D90708F420E0822FDF91CF91089557
:10508000EF92FF920F931F93CF93DF93FC01208544
:105090003185232B81F07B01EC018085918500E037
:1050A00010E020E040E050E0BA010E94B11B1886F9
:1050B000198681E001C080E0DF91CF911F910F91AF
:1050C000FF90EF900895EF92FF920F931F93CF936D
:1050D000DF93FC0122853385232B81F07B01EC01DA
:1050E0008285938500E010E020E040E050E0BA01C6
:1050F0000E94B11B1A861B8681E001C080E0DF910F
:10510000CF911F910F91FF90EF9008950F931F93F0
:105110008B0171E1FC017083319762E2608331970A
:1051200023E32083222717FD2095322F3197008318
:10513000319710833197208331971082319720E87F
:10514000208331971082319722E02083319723E02A
:105150002083319724E02083319725E02083319705
:1051600026E02083319727E02083319728E02083B1
:10517000319729E02083319720E120833197708394
:10518000319722E12083319723E12083319724E175
:105190002083319725E12083319726E120833197C1
:1051A00027E12083319728E12083319729E120836B
:1051B000319720E22083319721E220833197608369
:1051C000319723E220833197408331975083319781
:1051D00026E22083319727E22083319728E220833B
:1051E000319729E22083319720E32083319721E30F
:1051F000208387971F910F910895F894E0E7F0E0DE
:1052000083818A7F8383E0E0F8E08FEC97E086A3D8
:1052100097A391E09683A0EAB0E012968C91129742
:10522000816012968C9390837894A091A020B09185
:10523000A1200D900DBE0D900EBEFF91EF91DF915C
:10524000CF91BF91AF919F918F917F916F915F911E
:105250004F913F912F911F910F91FF90EF90DF9011
:10526000CF90BF90AF909F908F907F906F905F9006
:105270004F903F902F901F900F900FBE0F9008956A
:1052800081E0089508950F920FB6F8940F921F923F
:1052900011242F923F924F925F926F927F928F9242
:1052A0009F92AF92BF92CF92DF92EF92FF920F93B5
:1052B0001F932F933F934F935F936F937F938F939E
:1052C0009F93AF93BF93CF93DF93EF93FF93A091FF
:1052D000A020B091A1200DB60D920EB60D920E94A5
:1052E000C217A091A020B091A1200D900DBE0D90ED
:1052F0000EBEFF91EF91DF91CF91BF91AF919F9142
:105300008F917F916F915F914F913F912F911F915D
:105310000F91FF90EF90DF90CF90BF90AF909F9054
:105320008F907F906F905F904F903F902F901F9045
:105330000F900FBE0F9008950F920FB6F8940F9232
:105340001F9211242F923F924F925F926F927F9201
:105350008F929F92AF92BF92CF92DF92EF92FF9285
:105360000F931F932F933F934F935F936F937F936D
:105370008F939F93AF93BF93CF93DF93EF93FF935D
:10538000A091A020B091A1200DB60D920EB60D9265
:105390000E94521681110E94C217A091A020B091C4
:1053A000A1200D900DBE0D900EBEFF91EF91DF91EB
:1053B000CF91BF91AF919F918F917F916F915F91AD
:1053C0004F913F912F911F910F91FF90EF90DF90A0
:1053D000CF90BF90AF909F908F907F906F905F9095
:1053E0004F903F902F901F900F900FBE0F901895E9
:1053F000EF92FF920F9381E0809301060E94170CB9
:105400000E941D13E12CF12C01E020E030E045E585
:1054100050E068E870E28AE99BE00E941B140E9459
:10542000031680E090E00F91FF90EF900895EE0F4B
:10543000FF1F881F8BBF0790F691E02D1BBE1994AC
:10544000FB01DC0102C001900D9241505040D8F7A1
:065450000895F894FFCF5F
:1054560053746172742076546F67676C655041307F
:105466005461736B207461736B004B4244206B650F
:105476007920004B4244206B65792031004B424431
:10548600206B65792032004B4244206B65792033CE
:10549600004B4244206B65792034004B4244206B1C
:1054A60065792035004B4244206B65792036004BE8
:1054B6004244206B65792037004B4244206B657966
:1054C6002038004B4244206B65792039004B42441A
:1054D600206B6579204E6F00626C696E6B5F504F72
:1054E6005254415F305F7461736B0049444C450010
:00000001FF
