:100000000C94381C0C945E1C0C945E1C0C945E1CAE
:100010000C945E1C0C945E1C0C945E1C0C945E1C78
:100020000C945E1C0C945E1C0C945E1C0C945E1C68
:100030000C945E1C0C945E1C0C947C3B0C945E1C1B
:100040000C945E1C0C945E1C0C945E1C0C945E1C48
:100050000C945E1C0C945E1C0C945E1C0C945E1C38
:100060000C945E1C0C945E1C0C945E1C0C945E1C28
:100070000C945E1C0C945E1C0C945E1C0C945E1C18
:100080000C945E1C0C945E1C0C945E1C0C945E1C08
:100090000C945E1C0C945E1C0C945E1C0C945E1CF8
:1000A0000C945E1C0C945E1C0C945E1C0C945E1CE8
:1000B0000C945E1C0C945E1C0C945E1C0C945E1CD8
:1000C0000C945E1C0C945E1C0C945E1C0C945E1CC8
:1000D0000C945E1C0C945E1C0C945E1C0C945E1CB8
:1000E0000C945E1C0C945E1C0C945E1C0C945E1CA8
:1000F0000C945E1C0C945E1C0C945E1C0C945E1C98
:100100000C945E1C0C945E1C0C945E1C0C945E1C87
:100110000C945E1C0C945E1C0C945E1C0C945E1C77
:100120000C945E1C0C945E1C0C945E1C0C945E1C67
:100130000C945E1C0C945E1C0C945E1C0C945E1C57
:100140000C945E1C0C945E1C0C945E1C0C945E1C47
:100150000C945E1C0C945E1C0C945E1C0C945E1C37
:100160000C945E1C0C945E1C0C945E1C0C945E1C27
:100170000C945E1C0C945E1C0C945E1C0C945E1C17
:100180000C945E1C0C945E1C0C945E1C0C945E1C07
:100190000C945E1C0C945E1C0C945E1C0C945E1CF7
:1001A0000C945E1C0C945E1C0C945E1C0C945E1CE7
:1001B0000C945E1C0C945E1C0C945E1C0C945E1CD7
:1001C0000C945E1C0C945E1C0C945E1C0C945E1CC7
:1001D0000C945E1C0C945E1C0C945E1C0C945E1CB7
:1001E0000C945E1C0C945E1C0C945E1C0C945E1CA7
:1001F0000C945E1C0C94601C0C94F1240C94021D55
:100200000C94CF25FFFFFFFFFFFFFFFFFFFFE7730A
:10021000E773E773E773E773E773E773E773E7730E
:10022000E773E773800380039FFF9FFF9FFFFFFF3C
:10023000FFFFFE3FFE3FFEFFFEFFFEFFE00FC00799
:100240008EE39EF39EF39EF39EF39EF39EF39EF346
:100250008EE3C007E00FFEFFFEFFFEFFFEFFFEFF86
:10026000F39FE38FF39FFFFFFFFFF83FE01FC7CF30
:10027000CFE7CFE7C007C007FFE7FFE7FFE7CF8F74
:10028000C00FF03FFFFFFFFFFFFFFFFFFFFFEFFF8C
:10029000C03FE01FFFCFFFE7F067E017C7C7CFE31E
:1002A000CFE38FE38FE3CFE7CFE7CFE7E78FE00F31
:1002B000F83FFFFFFFFFFFFFFFFFFFFFFFFFFFFF15
:1002C000FFFFFFFFFFFFFFFFFC1FFBEFF7FFF7FF45
:1002D000F01FF3E7F7F3F7FBF3FBF4F7C60FFFFFAD
:1002E000FFFFFFFFFFFFFFFFFFFFFFFFFFFFFFFF1E
:1002F000FFFFFFFFFFFFFFFFFFFFFFFFFFFFFFFF0E
:10030000FFFFFEFFFFFFFFFFFFFFFFFFFFFFFFFFFE
:10031000FFFFFFFFFFFFFFFFFFFFFFFEFFFFFFFFEE
:10032000FFFFFFFFFFFFFFFFFFFFFFFFFFFFFFFFDD
:10033000FFFFFFFFFEFFFFFFFFFFFFFFFFFFFFFFCE
:10034000FFFFFFFFFFFFFFFFFFFFFFFFFFFEFFFFBE
:10035000FFFFFFFFFFFFFFFFFFFFFFFFFFFFFFFFAD
:10036000FFFFFFFFFFFFFEFFFFFFFFFFFFFFFFFF9E
:10037000FCE7FCFFFFFFFFFFFFFFFFFFFFFFFFFEAC
:10038000FFFFFFFFFFFFFFFFFFFCE7FCFFFE3F1C3F
:1003900078FFFFFFFFFFFFFFFEFFFFFFFFFFFFFFF5
:1003A000FFFFFCFFFCFFFE1E1E79FFFFFFFFFFFFAC
:1003B000FFFEFFFFFFFFFFFFFFFFFFFCFFFCFFFE55
:1003C0001E1F31FFFFFFFFFFFFFFFEFFFFFFFFFFCD
:1003D000FFFFFFF07CE784F87E5C9F13FFFFFFFFC9
:1003E000FFFFFFFEFFFFFFFFFFFFFFFFE01CE70037
:1003F000E01E4C9F87FFFFFFFFFFFFFFFEFFFFFF99
:10040000FFFFFFFFFFC79CE638E79E4C9FC7FFFF3B
:10041000FFFFFFFFFFFEFFFFFFFFFFFFFFFFCFCC50
:10042000E67CCFCE619FC7FFFFFFFFFFFFFFFEFF10
:10043000FFFFFFFFFFFFFFC00CE67CCFCE619F8771
:10044000FFFFFFFFFFFFFFFEFFFFFFFFFFFFFFFFBD
:10045000C00CE67CCFCE739F93FFFFFFFFFFFFFF33
:10046000FEFFFFFFFFFFFFFFFFFFCCE67CCFCE7359
:100470009F31FFFFFFFFFFFFFFFEFFFFFFFFFFFFBB
:10048000FFFFDF9CE638E79E7F9E39FFFFFFFFFFFF
:10049000FFFFFEFFFFFFFFFFFFFFFFC01CE700E0C5
:1004A0001E7F9E7CFFFFFFFFFFFFFFFEFFFFFFFFA2
:1004B000FFFFFFFFE07CE784F87E7F9C7C7FFFFFEF
:1004C000FFFFFFFFFEFFFFFFFFFFFFFFFFFFFFFF3D
:1004D000FFFFFFFFFFFFFFFFFFFFFFFFFFFEFFFF2D
:1004E000FFFFFFFFFFFFFFFFFFFFFFFFFFFFFFFF1C
:1004F000FFFFFFFFFFFFFEFFFFFFFFFFFFFFFFFF0D
:10050000FFFFFFFFFFFFFFFFFFFFFFFFFFFFFFFEFC
:10051000FFFFFFFFFFFFFFFFFFFFFFFFFFFFFFFFEB
:10052000FFFFFFFFFFFFFFFFFEFFFFFFFFFFFFFFDC
:10053000FFFFFFFFFFFFFFFFFFFFFFFFFFFFFFFFCB
:10054000FFFEFFFFFFFFFFFFFFFFFFFFFFFFFFFFBC
:10055000FFFFFFFFFFFFFFFFFFFFFEFFFFFFFFFFAC
:10056000FFFFFFFFFFFFFFFFFFFFFFFFFFFFFFFF9B
:10057000FFFFFFFEFFFFFFFFFFFFFFFFFFFFFFFF8C
:10058000FFFFFFFFFFFFFFFFFFFFFFFFFEFFFFFF7C
:10059000FFFFFFFFFFFFFFFFFFFFFFFFFFFFFFFF6B
:1005A000FFFFFFFFFFFEFFFFFFFFFFFFFFFFFFFF5C
:1005B000FFFFFFFFFFFFFFFFFFFFFFFFFFFFFEFF4C
:1005C000FFFFFFFFFFFFFFFFFFFFFFFFFFFFFFFF3B
:1005D000FFFFFFFFFFFFFFFEFFFFFFFFFFFFFFFF2C
:1005E000FFFFFFFFFFFFFFFFFFFFFFFFFFFFFFFF1B
:1005F000FEFFFFFFFFFFFFFFFFFFFFFFFFFFFFFF0C
:10060000FFFFFFFFFFFFFFFFFFFEFFFFFFFFFFFFFB
:10061000FFFFFFFFFFFFFFFFFFFFFFFFFFFFFFFFEA
:10062000FFFFFEFFFFFFFFFFFFFFFFFFFFFFFFFFDB
:10063000FFFFFFFFFFFFFFFFFFFFFFFEFFFFFFFFCB
:10064000FFFFFFFFFFFFFFFFFFFFFFFFFFFFFFFFBA
:10065000FFFFFFFFFEFFFFFFFFFFFFFFFFFFFFFFAB
:10066000FFFFFFFFFFFFFFFFFFFFFFFFFFFEFFFF9B
:10067000FFFFFFFFFFFFFFFFFFFFFFFFFFFFFFFF8A
:10068000FFFFFFFFFFFFFEFFFFFFFFFFFFFFFFFF7B
:10069000FFFFFFFFFFFFFFFFFFFFFFFFFFFFFFFE6B
:1006A000FFFFFFFFFFFFFFFFFFFFFFFFFFFFFFFF5A
:1006B000FFFFFFFFFFFFFFFFFEFFFFFFFFFFFFFF4B
:1006C000FFFFFFFFFFFFFFFFFFFFFFFFFFFFFFFF3A
:1006D000FFFEFFFFFFFFFFFFFFFFFFFFFFFFFFFF2B
:1006E000FFFFFFFFFFFFFFFFFFFFFEFFFFFFFFFF1B
:1006F000FFFE07FFFFFFFFFFFFFBFEFFFFFFFFFF08
:10070000FFFFFFFEFFFFFFFFFFFFFC03FFFFFFFFF9
:10071000FFFFF9FE7FFFFFFFFFFFFFFFFEFFFFFF71
:10072000FFFFFFF8F3FFFFFFFFFFFFF8FC7FFFFF76
:10073000FFFFFFFFFFFEFFFFFFFFFFFFF9F3FFFFDC
:10074000FFFFFFFFF8787FFFFFFFFFFFFFFFFEFFC8
:10075000FFFFFFFFFFF9F3FFFFFFFFFFFFF8307F11
:10076000FFFFFFFFFFFFFFFEFFFFFF80F8F9F9F338
:10077000E03E3E7E00F80D837FFFFFFFFFFFFFFF9F
:10078000FEFFFFFF00FC79FCF3C01F1E7C00F00C95
:10079000C33FFFFFFFFFFFFFFFFEFFFFFE3FFE39EE
:1007A000F8038F8F8E78FCE3FCE73FFFFFFFFFFF2E
:1007B000FFFFFEFFFFFE7FFF19F0039FCFC679FC0E
:1007C000E7FCFF3FFFFFFFFFFFFFFFFEFFFFFE0015
:1007D000FF89E3F39FCFE279FCE00CFF3FFFFFFFCF
:1007E000FFFFFFFFFEFFFFFE007FC1E7F39FCFF09B
:1007F00079FCE006FFBFFFFFFFFFFFFFFFFEFFFFEB
:10080000FE7E3FE1E7F39FCFF879FCE7E27F9FFFB1
:10081000FFFFFFFFFFFFFEFFFFFE7F3FC1E7F39FEC
:10082000CFF079FCE7F27F9FFFFFFFFFFFFFFFFEA6
:10083000FFFFFE7F3F89E7F39FCFE279FCE7F27F7E
:100840009FFFFFFFFFFFFFFFFEFFFFFE7F3F19E758
:10085000F39FCFC679FCE7F27F9FFFFFFE3FFFFFCC
:10086000FFFEFFFFFE7E3E39E3F38F8F8E78FCE7BD
:10087000E27F9FFFFFF80FFFFFFFFEFFFFFE007C00
:1008800079F003C01F1E7C00E0073FCFFFFFF00799
:10089000FFFFFFFEFFFFFE00F8F9F803E03E3E7E9B
:1008A00000E00F3FCFFFFFF007FFFFFFFEFFFFFF5E
:1008B000FFFFFFFFFFFFFFFFFFFCFFFFFFFFFFFF4B
:1008C000F003FFFFFFFEFFFFFFFFFFFFFFFFFFFF44
:1008D000FFFFFCFFFFFFFFFFFFF003FFFFFFFEFF37
:1008E000FFFFFFFFFFFFFFFFFFFFFFFCFFFFFFFF1B
:1008F000FFFFF003FFFFFFFEFFFFFFFFFFFFFFFF14
:10090000FFFFFFFFFCFFFFFFFFFFFFF003FFFFFF05
:10091000FEFFFFFFFFFFFFFFFFFFFFFFFFFCFFFFEB
:10092000FFFFFFFFF803FFFFFFFEFFFFFFFFFFFFDB
:10093000FFFFFFFFFFFFFFFFFFFFFFFFFFF803FFCA
:10094000FFFFFEFFFFFFFFFFFFFFFFFFFFFFFFFFB8
:10095000FFFFFFFFFFFFF803FFFFFFFEFFFFFFFFAB
:10096000FFFFFFFFFFFFFFFFFFFFFFFFFFFFFFFC9A
:1009700003FFFFFFFEFFFFFFFFFFFFFFFFFFFFFF84
:10098000FFFFFFFFFFFFFFFFFC01FFFFFFFEFFFF79
:10099000FFFFFFFFFCF3FFFFFFFFFFFFFFFFFFFF76
:1009A000FFFC01FFFFFFFEFFFFFFFFFFFFFCF3FF68
:1009B000FFFFFFFFFFFFFFFFFFFFFC01FFFFFFFE49
:1009C000FFFFFFFFFFFFFCF3FFFFFFFFFFFFFFFF46
:1009D000FFFFFFFC01FFFFFFFEFFFFFFFFFFFFFC2C
:1009E000F3FFFFFFFFFFFFFFFFFFFFFFFE01FFFF22
:1009F000FFFEFFFFFFFFFFFFFC73FFFFFFFFFFFF97
:100A0000FFFFFFFFFFFE01FFFFFFFEFFFFFFFFFFF6
:100A1000FFFC33FFFFFFFFFFFFFFFFFFFFFFFE01B4
:100A2000FFFFFFFEFFFFFFFFFFFFFC93FFFFFFFF46
:100A3000FFFFFFFFFFFFFFFF01FFFFFFFEFFFFFFC5
:100A4000FFFFFFFCC3FFFFFFFFFFFFFFFFFFFFFFF5
:100A5000FF01FFFFFFFEFFFFFFFFFFFFFCE3FFFFC4
:100A6000FFFFFFFFFFFFFFFFFFFF01FFFFFFFEFF95
:100A7000FFFFFFFFFFFCF3FFFFFFFFFFFFFFFFFF95
:100A8000FFFFFF01FFFFFFFEFFFFFFFFFFFFFCF384
:100A9000FFFFFFFFFFFFFFFFFFFFFFFF01FFFFFF64
:100AA000FEFFFFFFFFFFFFFCF3FFFFFFFFFFFFFF66
:100AB000FFFFFFFFFF80FFFFFFFEFFFFFFFFFFFFC6
:100AC000FCF3FFFFFFFFFFFFFFFFFFFFFFFF80FFC4
:100AD000FFFFFEFFFFFFFFFFFFFFFFFFFFFFFFFF27
:100AE000FFFFFFFFFFFFFF80FFFFFFFEFFFFFFFF96
:100AF000FFFFFFFFFFFFFFFFFFFFFFFFFFFFFFFF06
:100B0000C1FFFFFFFEFFFFFFFFFFFFFFFFFFFFFF34
:100B1000FFFFFFFFFFFFFFFFFFC1FFFFFFFEFFFF24
:100B2000FFFFFFFFFFFFFFFFFFFFFFFFFFFFFFFFD5
:100B3000FFFFC0FFFFFFFEFFFFFFFFFFFFFFFFFF05
:100B4000FFFFFFFFFFFFFFFFFFFFFFE0FFFFFFFED5
:100B5000FFFFFFFFFFFFFFFFFFFFFFFFFFFFFFFFA5
:100B6000FFFFFFFFE0FFFFFFFEFFFFFFFFFFFFFFB5
:100B7000FFFFFFFFFFFFFFFFFFFFFFFFFFE0FFFFA4
:100B8000FFFEFFFFFFFFFFFFFFFFFFFFFFFFFFFF76
:100B9000FFFFFFFFFFFFE0FFFFFFFEFFFFFFFFFF85
:100BA000FFFFFFFFFFFFFFFFFFFFFFFFFFFFFFE074
:100BB000FFFFFFFEFFFFFFFFFFFFFFFFFFFFFFFF46
:100BC000FFFFFFFFFFFFFFFFF07FFFFFFEFFFFFFC5
:100BD000FFFFFFFFFFFFFFFFFFFFFFFFFFFFFFFF25
:100BE000FFF07FFFFFFEFFFFFFFFFFFFFFFFFFFFA5
:100BF000FFFFFFFFFFFFFFFFFFFFF07FFFFFFEFF95
:100C0000FFFFFFFFFFFFFFFFFFFFFFFFFFFFFFFFF4
:100C1000FFFFFFF07FFFFFFEFFFFFFFFFFFFFFFF74
:100C2000FFFFFFFFFFFFFFFFFFFFFFFFF07FFFFF63
:100C3000FEFFFFFFFFFFFFFFFFFFFFFFFFFFFFFFC5
:100C4000FFFFFFFFFFF07FFFFFFEFFFFFFFFFFFF44
:100C5000FFFFFFFFFFFFFFFFFFFFFFFFFFFFF07F33
:100C6000FFFFFEFFFFFFFFFFFFFFFFFFFFFFFFFF95
:100C7000FFFFFFFFFFFFFFF83FFFFFFEFFFFFFFF4C
:100C8000FFFFFFFFFFFFFFFFFFFFFFFFFFFFFFFF74
:100C9000FC7FFFFFFEFFFFFFFFFFFFFFFFFFFFFFE8
:100CA000FFFFFFFFFFFFFFFFFFFC7FFFFFFEFFFFD8
:100CB000FFFFFFFFFFFFFFFFFFFFFFFFFFFFFFFF44
:100CC000FFFFFC7FFFFFFEFFFFFFFFFFFFFFFFFFB8
:100CD000FFFFFFFFFFFFFFFFFFFFFFFC7FFFFFFEA8
:100CE000FFFFFFFFFFFFFFFFFFFFFFFFFFFFFFFF14
:100CF000FFFFFFFFFC7FFFFFFEFFFFFFFFFFE01F87
:100D0000FFFFFFFFFFFFFFFFFFFFFFFFFFF83FFFBA
:100D1000FFFEFFFFFFC000000007FFFFFFFFFFFF18
:100D2000FFFFFFFFFFFFFC1FFFFFFEFFFFFF800035
:100D3000000001FFFFFFFFFFFFFFFFFFFFFFFFFCC2
:100D40001FFFFFFEFFFFFF0000000000FFFFFFFF8F
:100D5000FFFFFFFFFFFFFFFFFC1FFFFFFEFFFFFF87
:100D600000000000001FFFFFFFFFFFFFFFFFFFFF6E
:100D7000FFFC1FFFFFFEFFFFFF00000000001FFF42
:100D8000FFFFFFFFFFFFFFFFFFFFFC1FFFFFFEFF57
:100D9000FFFE00000000000FFFFFFFFFFFFFE0FF6E
:100DA000FFFFFFFE3FFFFFFEFFFFFC000000000013
:100DB0000FFFFFFFFFFFFFC07FFFFFFFFE1FFFFFD3
:100DC000FEFFFFFC01FFE000000FFFFFFFFFFFFF42
:100DD000807FFFFFFFFE1FFFFFFEFFFFF803FFFF07
:100DE000E00007FFFFFFFFFFFF807FFFFFFFFF1F08
:100DF000FFFFFEFFFFF803FFFFFFF003FFFFFFFF12
:100E0000FFFF803FFFFFFFFF1FFFFFFEFFFFF0031D
:100E1000FFFFFFF803FFFFFFFFFFFF803FFFFFFF24
:100E2000FE0FFFFFFEFFFFF003FFFFFFF803FFFFD2
:100E3000FFFFC1FF803FFFFFFFFE0FFFFFFEFFFF31
:100E4000E007FFFFFFF803FFFFFFFF80FF803FFF8A
:100E5000FFFFFF07FFFFFEFFFFC007FFFFFFF803D5
:100E6000FFFFFFFF007F803FFFFFFFFF07FFFFFE49
:100E7000FFFFC00FFFFFFFF803FFFFFFFF003F80F2
:100E80003FFFFFFFFF07FFFFFEFFFF801FFFFFFF8A
:100E9000F803FFFFFFFF003F803FFFFFFFFF07FF5B
:100EA000FFFEFFFF801FFFFFFFF803FFFFFFFF00B4
:100EB0001FC01FFFFFFFFF83FFFFFEFFFF803FFFFD
:100EC000FFFFF803FFFFFFFF001FC01FFFFFFFFF33
:100ED00083FFFFFEFFFF807FFFFFFFF803FFFFFFA1
:100EE000FF001FC01FFFFFFFFF83FFFFFEFFFF008C
:100EF0007FFFFFFFF803FFFFFFFE001FC01FFFFF84
:100F0000FFFFC3FFFFFEFFFF00FFFFFFFFF803FF30
:100F1000FFFFFE001FC01FFFFFFFFFC1FFFFFEFF1F
:100F2000FE00FFFFFFFFF803FFFFFFFC001FC01FD5
:100F3000FFFFFFFFE0FFFFFEFFFE00FFFFFFFFF8E8
:100F400003FFFFFFFC001FC01FFFFFFFFFE0FFFFCD
:100F5000FEFFFE00FFFFFFFFF803FFFFFFFC001F87
:100F6000E00FFFFFFFFFE07FFFFEFFFE00FFFFFF40
:100F7000FFF803FFFFFFFC001FE00FFFFFFFFFF084
:100F80007FFFFEFFFE00FFFFFFFFF803FFFFFFFCF8
:100F9000001FE00FFFFFFFFFF07FFFFEFFFE00FFDF
:100FA000FFFFFFFC03FFFFFFFE001FE00FFFFFFF3F
:100FB000FFF83FFFFEFFFE00FFFFFFFFFC03FFFF08
:100FC000FFFE001FE00FFFFFFFFFF81FFFFEFFFE09
:100FD000007FFFFFFFFE03FFFFFFFE001FE00FFF8C
:100FE000FFFFFFFC1FFFFEFFFE007FFFFFFFFE0372
:100FF000FFFFFFFC001FF00FFFFFFFFFFC0FFFFED6
:10100000FFFE003FFFFFFFFE03FFFFFFFC001FF09E
:101010000FFFFFFFFFFC07FFFEFFFF000FFFFFFFBB
:10102000FE03FFFFFFFC001FF80FFFFFFFFFFE079F
:10103000FFFEFFFF0007FFFFFFFE03FFFFFFFC00B7
:101040001FF80FFFFFFFFFFF03FFFEFFFF8003FFFF
:10105000FFFFFF07FFFFFFF8001FF80FFFFFFFFF75
:10106000FF03FFFEFFFF80007FFFFFFF03FFFFFF87
:10107000F8001FF80FFFFFFFFFFF81FFFEFFFF805B
:101080000003FFFFFF03FFFFFFF0001FF80FFFFF4C
:10109000FFFFFF80FFFEFFFFC000003FFFFF03FFD9
:1010A000FFFFE0001FF80FFFFFFFFFFFC07FFEFF05
:1010B000FFE0000000FFFF03FFFFFFC0001FF80F6D
:1010C000FFFFFFFFFFC07FFEFFFFF800000000FFF3
:1010D00081FFFFFF80000FF80FFFFFFFFFFFE03FE2
:1010E000FEFFFFFC000000000001FFFFFF80000F7B
:1010F000F80FFFFFFFFFFFE03FFEFFFFFE000000D5
:10110000000001FFFFFF000007F80FFFFFFFFFFFD8
:10111000F01FFEFFFFFF800000000001FFFFFF0047
:101120000001F00FFFFFFFFFFFF01FFEFFFFFFC0FA
:101130000000000001FFFFFF000000E007FE0FFFBE
:10114000FFFFF81FFEFFFFFFF80000000001FFFF98
:10115000FF0020002007FC07FFFFFFF81FFEFFFF36
:10116000FFFFC000000000FFFFFF007000000FF84D
:1011700003FFFFFFFC0FFEFFFFFFFFFF000000006B
:10118000FFFFFF007800000FF803FFFFFFF80FFEDE
:10119000FFFFFFFFFFF8000000FFFFFF80FC0000E3
:1011A0001FF803FFFFFFFC07FEFFFFFFFFFFFFF03D
:1011B00000007FFFFFC1FE00001FF803FFFFFFFCE0
:1011C00007FEFFFFFFFFFFFFFE00003FFFFFFFFEE8
:1011D00000001FF003FFFFFFFC03FEFFFFFFFFFF08
:1011E000FFFFF0003FFFFFFFFF00003FF003FFFFA6
:1011F000FFFE01FEFFFFFFFFFFFFFFFF883FFFFF36
:10120000FFFFC0007FF007FFFFFFFE01FEFFFFFFB3
:10121000FFFFFFFFFFF81FFFFFFFFFC000FFF0070A
:10122000FFFFFFFE01FEFFFFFFFFFFFFFFFFF81FB5
:10123000FFFFFFFFE001FFF007FFFFFFFF01FEFFE1
:10124000FFFFFFFFFFFFFFFC1FFFFFFFFFF003FF9C
:10125000F007FFFFFFFF00FEFFFFFFFFFFFFFFFFA5
:10126000FC0FFFFFFFFFFC1FFFF007FFFFFFFF006A
:101270007EFFFFFFFFFFFFFFFFFE0FFFFFFFFFFFF0
:10128000FFFFF007F8000000007EFFFFFFFFFFFFF9
:10129000FFFFFF0FFFFFFFFFFFFFFFF00000000059
:1012A00000007EFFFFFFFFFFFFFFFFFF87FFFFFF45
:1012B000FFFFFFFFF00000000000003EFFFFFFFF08
:1012C000FFFFFFFFFF87FFFFFFFFFFFFFFF00000B3
:1012D000000000001EFFFFFFFFFFFFFFFFFFC3FF37
:1012E000FFFFFFFFFFFFF00000000000001EFFFFF8
:1012F000FFFFFFFFFFFFFFC3FFFFFFFFFFFFFFF841
:101300000000000000001EFFFFFFFFFFFFFFFFFFC8
:10131000E3FFFFFFFFFFFFFFF80000000000003EBB
:10132000FFFFFFFFFFFFFFFFFFC1FFFFFFFFFFFF0B
:10133000FFF80000000000007EFFFFFFFFFFFFFF3F
:10134000FFFFE0FFFFFFFFFFFFFFFC0000000000CA
:1013500000FEFFFFFFFFFFFFFFFFFFE0FFFFFFFFBC
:10136000FFFFFFFFF001FFFFFFFFFEFFFFFFFFFF9B
:10137000FFFFFFFFE0FFFFFFFFFFFFFFFFFFFFFF9C
:10138000FFFFFFFEFFFFFFFFFFFFFFFFFFF07FFFFD
:10139000FFFFFFFFFFFFFFFFFFFFFFFFFEFFFFFF5E
:1013A000FFFFFFFFFFFFF8FFFFFFFFFFFFFFFFFF54
:1013B000FFFFFFFFFFFEFFFFFFFFFFFFFFFFFFF845
:1013C0007FFFFFFFFFFFFFFFFFFFFFFFFFFFFEFFAE
:1013D000FFFFFFFFFFFFFFFFF87FFFFFFFFFFFFFA4
:1013E000FFFFFFFFFFFFFFFEFFFFFFFFFFFFFFFF0E
:1013F000FFFC3FFFFFFFFFFFFFFFFFFFFFFFFFFFC0
:10140000FEFFFFFFFFFFFFFFFFFFFC1FFFFFFFFFD0
:10141000FFFFFFFFFFFFFFFFFFFEFFFFFFFFFFFFDD
:10142000FFFFFFFC1FFFFFFFFFFFFFFFFFFFFFFFAF
:10143000FFFFFEFFFFFFFFFFFFFFFFFFFC1FFFFFA0
:10144000FFFFFFFFFFFFFFFFFFFFFFFEFFFFFFFFAD
:10145000FFFFFFFFFFFE0FFFFFFFFFFFFFFFFFFF8D
:10146000FFFFFFFFFEFFFFFFFFFFFFFFFFFFFE0F7E
:10147000FFFFFFFFFFFFFFFFFFFFFFFFFFFEFFFF7D
:10148000FFFFFFFFFFFFFFFE0FFFFFFFFFFFFFFF5D
:10149000FFFFFFFFFFFFFEFFFFFFFFFFFFFFFFFF5D
:1014A000FE07FFFFFFFFFFFFFFFFFFFFFFFFFFFE46
:1014B000FFFFFFFFFFFFFFFFFFFE07FFFFFFFFFF35
:1014C000FFFFFFFFFFFFFFFFFEFFFFFFFFFFFFFF2D
:1014D000FFFFFF03FFFFFFFFFFFFFFFFFFFFFFFF18
:1014E000FFFEFFFFFFFFFFFFFFFFFFFE03FFFFFF0A
:1014F000FFFFFFFFFFFFFFFFFFFFFEFFFFFFFFFFFD
:10150000FFFFFFFFFF03FFFFFFFFFFFFFFFFFFFFE7
:10151000FFFFFFFEFFFFFFFFFFFFFFFFFFFF03FFD8
:10152000FFFFFFFFFFFFFFFFFFFFFFFFFEFFFFFFCC
:10153000FFFFFFFFFFFFFF83FFFFFFFFFFFFFFFF37
:10154000FFFFFFFFFFFEFFFFFFFFFFFFFFFFFFFFAC
:1015500081FFFFFFFFFFFFFFFFFFFFFFFFFFFEFF1A
:10156000FFFFFFFFFFFFFFFFFF81FFFFFFFFFFFF09
:10157000FFFFFFFFFFFFFFFEFFFFFFFFFFFFFFFF7C
:10158000FFFF80FFFFFFFFFFFFFFFFFFFFFFFFFFEA
:10159000FEFFFFFFFFFFFFFFFFFFFF80FFFFFFFFDB
:1015A000FFFFFFFFFFFFFFFFFFFEFFFFFFFFFFFF4C
:1015B000FFFFFFFF80FFFFFFFFFFFFFFFFFFFFFFBA
:1015C000FFFFFEFFFFFFFFFFFFFFFFFFFF80FFFFAB
:1015D000FFFFFFFFFFFFFFFFFFFFFFFEFFFFFFFF1C
:1015E000FFFFFFFFFFFF007FFFFFFFFFFFFFFFFF8A
:1015F000FFFFFFFFFEFFFFFFFFFFFFFFFFFFFF00FB
:101600007FFFFFFFFFFFFFFFFFFFFFFFFFFEFFFF6B
:10161000FFFFFFFFFFFFFFFF007FFFFFFFFFFFFF59
:10162000FFFFFFFFFFFFFEFFFFFFFFFFFFFFFFFFCB
:10163000FF80FFFFFFFFFFFFFFFFFFFFFFFFFFFE3A
:10164000FFFFFFFFFFFFFFFFFFFFC1FFFFFFFFFFE8
:10165000FFFFFFFFFFFFFFFFFEFFFFFFFFFFFFFF9B
:10166000FFFFFFE3FFFFFFFFFFFFFFFFFFFFFFFFA6
:10167000FFFE1018180818180800000000000000ED
:1016800000000000000013144412000000000000DD
:1016900000020201111212222266696959589999B1
:1016A0008800000000F8B4135135515119010000B1
:1016B000F3F3F3F3F3F3F7FFF3F3FFFFFF0000009F
:1016C000000000000000000000000000000000001A
:1016D000000000000000000000000000000000000A
:1016E00000000000000000000000000000000000FA
:1016F00000000000000000000000000000000000EA
:1017000000000000000000000000E783C1E9E9C319
:1017100087979781C1E7FF000000000000000000EC
:1017200000000000000000000000000000000000B9
:1017300000000000000000000000000000000000A9
:101740000000000000000000000000000000000099
:101750000000000000000000000000000000000089
:1017600000000000DFC7E3F3FBF9F9F9FBF3E3C77F
:10177000DF0000000000000000000000000000008A
:101780000000000000000000000000000000000059
:101790000000000000000000000000000000000049
:1017A0000000000000000000000000000000000039
:1017B0000000000000000000000000000000E7C77B
:1017C0009F9F3F3F3F3F3F1F9FC7E7000000000034
:1017D0000000000000000000000000000000000009
:1017E00000000000000000000000000000000000F9
:1017F00000000000000000000000000000000000E9
:1018000000000000000000000000000000000000D8
:101810000000000000000000EFE3E1EDEFEFEFEF6C
:101820008181FFFFFF0000000000000000000000B9
:1018300000000000000000000000000000000000A8
:101840000000000000000000000000000000000098
:101850000000000000000000000000000000000088
:101860000000000000000000000000000000000078
:101870000000C3819F9F9FCFE7F38181FFFFFF009F
:101880000000000000000000000000000000000058
:101890000000000000000000000000000000000048
:1018A0000000000000000000000000000000000038
:1018B0000000000000000000000000000000000028
:1018C000000000000000000000000000FFBF9FC7F4
:1018D000F1F8F1C79FBFFFFFFF000000000000000C
:1018E00000000000000000000000000000000000F8
:1018F00000000000000000000000000000000000E8
:1019000000000000000000000000000000000000D7
:1019100000000000000000000000000000000000C7
:101920000000000000008181CFE7C7839F9F81C135
:10193000FFFFFF00000000000000000000000000AA
:101940000000000000000000000000000000000097
:101950000000000000000000000000000000000087
:101960000000000000000000000000000000000077
:101970000000000000000000000000000000000067
:10198000CFCFC7D3D90000DFDFDFFFFFFF000000AC
:101990000000000000000000000000000000000047
:1019A0000000000000000000000000000000000037
:1019B0000000000000000000000000000000000027
:1019C0000000000000000000000000000000000017
:1019D00000000000000000000000FFFFFFB9B999FF
:1019E0008183BFBFFFFFFF00000000000000000078
:1019F00000000000000000000000000000000000E7
:101A000000000000000000000000000000000000D6
:101A100000000000000000000000000000000000C6
:101A200000000000000000000000000000000000B6
:101A300000000000F9F9F3F3F7E7EFCFCF9F9FBF66
:101A4000FF00000000000000000000000000000097
:101A50000000000000000000000000000000000086
:101A60000000000000000000000000000000000076
:101A70000000000000000000000000000000000066
:101A80000000000000000000000000000000838350
:101A9000FBFBC3839F9F81E3FFFFFF00000000006B
:101AA0000000000000000000000000000000000036
:101AB0000000000000000000000000000000000026
:101AC0000000000000000000000000000000000016
:101AD0000000000000000000000000000000000006
:101AE0000000000000000000C9E9E9E9FFFFFFFF76
:101AF000FFFFFFFFFF0000000000000000000000EB
:101B000000000000000000000000000000000000D5
:101B100000000000000000000000000000000000C5
:101B200000000000000000000000000000000000B5
:101B300000000000000000000000000000000000A5
:101B40000000CFC7F3F9C181391981C3FFFFFF003E
:101B50000000000000000000000000000000000085
:101B60000000000000000000000000000000000075
:101B70000000000000000000000000000000000065
:101B80000000000000000000000000000000000055
:101B900000000000000000000000000081819FDFC5
:101BA000CFEFE7F7F3FBFFFFFF00000000000000AE
:101BB0000000000000000000000000000000000025
:101BC0000000000000000000000000000000000015
:101BD0000000000000000000000000000000000005
:101BE00000000000000000000000000000000000F5
:101BF000000000000000E7E7E7E7FFFFFFFFFFFF4F
:101C0000FFFFFF00000000000000000000000000D7
:101C100000000000000000000000000000000000C4
:101C200000000000000000000000000000000000B4
:101C300000000000000000000000000000000000A4
:101C40000000000000000000000000000000000094
:101C5000C3819999C383993981C3FFFFFF000000B5
:101C60000000000000000000000000000000000074
:101C70000000000000000000000000000000000064
:101C80000000000000000000000000000000000054
:101C90000000000000000000000000000000000044
:101CA00000000000000000000000C381193901831A
:101CB0009F9FC3F3FFFFFF00000000000000000033
:101CC0000000000000000000000000000000000014
:101CD0000000000000000000000000000000000004
:101CE00000000000000000000000000000000000F4
:101CF00000000000000000000000000000000000E4
:101D0000000000008181F9F9F9F9F9F9F9F9F9818F
:101D10008100000000000000000000000000000042
:101D200000000000000000000000000000000000B3
:101D300000000000000000000000000000000000A3
:101D40000000000000000000000000000000000093
:101D5000000000000000000000000000000083837D
:101D60009F9F9F9F9F9F9F9F9F83830000000000D6
:101D70000000000000000000000000000000000063
:101D80000000000000000000000000000000000053
:101D90000000000000000000000000000000000043
:101DA0000000000000000000000000000000000033
:101DB0000000000000000000FFFFFFB99989A1B1F9
:101DC000B1B9FFFFFF0000000000000000000000AC
:101DD0000000000000000000000000000000000003
:101DE00000000000000000000000000000000000F3
:101DF00000000000000000000000000000000000E3
:101E000000000000000000000000000000000000D2
:101E10000000FFFFFFC3839F83990103FFFFFF00C3
:101E200000000000000000000000000000000000B2
:101E300000000000000000000000000000000000A2
:101E40000000000000000000000000000000000092
:101E50000000000000000000000000000000000082
:101E6000000000000000000000000000E3C1C9E322
:101E7000F3610C1C0061FFFFFF0000000000000088
:101E80000000000000000000000000000000000052
:101E90000000000000000000000000000000000042
:101EA0000000000000000000000000000000000032
:101EB0000000000000000000000000000000000022
:101EC0000000000000009F83F1C181383D1981C3EB
:101ED000FFFFFF0000000000000000000000000005
:101EE00000000000000000000000000000000000F2
:101EF00000000000000000000000000000000000E2
:101F000000000000000000000000000000000000D1
:101F100000000000000000000000000000000000C1
:101F2000FFFFFF3C3C20000C2020FFFFFF000000D3
:101F300000000000000000000000000000000000A1
:101F40000000000000000000000000000000000091
:101F50000000000000000000000000000000000081
:101F60000000000000000000000000000000000071
:101F700000000000000000000000FFFFFF8783B9A1
:101F8000F9F98387FFFFFF00000000000000000058
:101F90000000000000000000000000000000000041
:101FA0000000000000000000000000000000000031
:101FB0000000000000000000000000000000000021
:101FC0000000000000000000000000000000000011
:101FD00000000000FFFFFF8383939B9900003C3CBF
:101FE000FF000000000000000000000000000000F2
:101FF00000000000000000000000000000000000E1
:1020000000000000000000000000000000000000D0
:1020100000000000000000000000000000000000C0
:102020000000000000000000000000000000FFFFB2
:10203000FFC3813901F98183FFFFFF000000000029
:102040000000000000000000000000000000000090
:102050000000000000000000000000000000000080
:102060000000000000000000000000000000000070
:102070000000000000000000000000000000000060
:1020800000000000000000009B9BFFC3813901F9A4
:102090008183FFFFFF00000000000000000000003F
:1020A0000000000000000000000000000000000030
:1020B0000000000000000000000000000000000020
:1020C0000000000000000000000000000000000010
:1020D0000000000000000000000000000000000000
:1020E0000000E3E3E781012424240181E7E7E7001E
:1020F00000000000000000000000000000000000E0
:1021000000000000000000000000000000000000CF
:1021100000000000000000000000000000000000BF
:1021200000000000000000000000000000000000AF
:10213000000000000000000000000000FFFFFF01A1
:102140000133F3F3C1C1FFFFFF00000000000000F6
:10215000000000000000000000000000000000007F
:10216000000000000000000000000000000000006F
:10217000000000000000000000000000000000005F
:10218000000000000000000000000000000000004F
:10219000000000000000FFFFFF24A18181A1252491
:1021A000FFFFFF0000000000000000000000000032
:1021B000000000000000000000000000000000001F
:1021C000000000000000000000000000000000000F
:1021D00000000000000000000000000000000000FF
:1021E00000000000000000000000000000000000EF
:1021F000FFB7970101D38181C9E9FFFFFF0000000C
:1022000000000000000000000000000000000000CE
:1022100000000000000000000000000000000000BE
:1022200000000000000000000000000000000000AE
:10223000000000000000000000000000000000009E
:1022400000000000000000000000FFFFFFB99989B6
:10225000A1B1B1B9FFFFFF000000000000000000C5
:10226000000000000000000000000000000000006E
:10227000000000000000000000000000000000005E
:10228000000000000000000000000000000000004E
:10229000000000000000000000000000000000003E
:1022A00000000000FFFFFF8381B98183B1B9FFFF08
:1022B000FF0000000000000000000000000000001F
:1022C000000000000000000000000000000000000E
:1022D00000000000000000000000000000000000FE
:1022E00000000000000000000000000000000000EE
:1022F0000000000000000000000000000000FFFFE0
:10230000FF8D05212125058DFFFFFF000000000046
:1023100000000000000000000000000000000000BD
:1023200000000000000000000000000000000000AD
:10233000000000000000000000000000000000009D
:10234000000000000000000000000000000000008D
:102350000000000000000000FFFFFF3999C9C1C95B
:102360001939FFFFFF00000000000000000000001E
:10237000000000000000000000000000000000005D
:10238000000000000000000000000000000000004D
:10239000000000000000000000000000000000003D
:1023A000000000000000000000000000000000002D
:1023B0000000FFFFFF8383939B99989CFFFFFF0022
:1023C000000000000000000000000000000000000D
:1023D00000000000000000000000000000000000FD
:1023E00000000000000000000000000000000000ED
:1023F00000000000000000000000000000000000DD
:10240000000000000000000000000000FFFFFF3897
:102410001800242C3C3CFFFFFF00000000000000DF
:1024200000000000000000000000000000000000AC
:10243000000000000000000000000000000000009C
:10244000000000000000000000000000000000008C
:10245000000000000000000000000000000000007C
:10246000000000000000FFFFFFF9F981811981C120
:10247000FFFFFF000000000000000000000000005F
:10248000000000000000000000000000000000004C
:10249000000000000000000000000000000000003C
:1024A000000000000000000000000000000000002C
:1024B000000000000000000000000000000000001C
:1024C000FFFFFFFFFFC3C3FFFFFFFFFFFF00000091
:1024D00000000000000000000000000000000000FC
:1024E00000000000000000000000000000000000EC
:1024F00000000000000000000000000000000000DC
:1025000000000000000000000000000000000000CB
:1025100000000000000000000000FFFFFF3939014B
:1025200001393939FFFFFF00000000000000000002
:10253000000000000000000000000000000000009B
:10254000000000000000000000000000000000008B
:10255000000000000000000000000000000000007B
:10256000000000000000000000000000000000006B
:1025700000000000FFFFFFC381393C3981C3FFFF2A
:10258000FF0000000000000000000000000000004C
:10259000000000000000000000000000000000003B
:1025A000000000000000000000000000000000002B
:1025B000000000000000000000000000000000001B
:1025C0000000000000000000000000000000FFFF0D
:1025D000FF01013939393939FFFFFF0000000000E0
:1025E00000000000000000000000000000000000EB
:1025F00000000000000000000000000000000000DB
:1026000000000000000000000000000000000000CA
:1026100000000000000000000000000000000000BA
:102620000000000000000000713494C4E187436B97
:102630004D9FFFFFFF0000000000000000000000B1
:10264000000000000000000000000000000000008A
:10265000000000000000000000000000000000007A
:10266000000000000000000000000000000000006A
:10267000000000000000000000000000000000005A
:102680000000FFE7E7E70101E7E7E7FFFFFFFF00E3
:10269000000000000000000000000000000000003A
:1026A000000000000000000000000000000000002A
:1026B000000000000000000000000000000000001A
:1026C000000000000000000000000000000000000A
:1026D000000000000000000000000000FFFFFF807D
:1026E0008039391981C1F9F9F900000000000000B2
:1026F00000000000000000000000000000000000DA
:1027000000000000000000000000000000000000C9
:1027100000000000000000000000000000000000B9
:1027200000000000000000000000000000000000A9
:10273000000000000000FFFFFF24242424240000E8
:10274000FFFFFF000000000000000000000000008C
:102750000000000000000000000000000000000079
:102760000000000000000000000000000000000069
:102770000000000000000000000000000000000059
:102780000000000000000000000000000000000049
:10279000FFFFFFA4A4A4A4A400007F7FFF0000000B
:1027A0000000000000000000000000000000000029
:1027B0000000000000000000000000000000000019
:1027C0000000000000000000000000000000000009
:1027D00000000000000000000000000000000000F9
:1027E00000000000000000000000BF9F9FCFCFEF5F
:1027F000E7F7F3FBF9F9FF0000000000000000001C
:1028000000000000000000000000000000000000C8
:1028100000000000000000000000000000000000B8
:1028200000000000000000000000000000000000A8
:102830000000000000000000000000000000000098
:1028400000000000DBD3C70101C7D3DBFFFFFFFFA0
:10285000FF00000000000000000000000000000079
:102860000000000000000000000000000000000068
:102870000000000000000000000000000000000058
:102880000000000000000000000000000000000048
:102890000000000000000000000000000000FFFF3A
:1028A000FF010125E7E78181FFFFFF000000000035
:1028B0000000000000000000000000000000000018
:1028C0000000000000000000000000000000000008
:1028D00000000000000000000000000000000000F8
:1028E00000000000000000000000000000000000E8
:1028F0000000000000000000FFFFFFFFF3818FFFDA
:10290000FFFFFFFFFF0000000000000000000000CC
:1029100000000000000000000000000000000000B7
:1029200000000000000000000000000000000000A7
:102930000000000000000000000000000000000097
:102940000000000000000000000000000000000087
:102950000000FEFEFE989898989800007E7EFE008B
:102960000000000000000000000000000000000067
:102970000000000000000000000000000000000057
:102980000000000000000000000000000000000047
:102990000000000000000000000000000000000037
:1029A000000000000000000000000000FFFFFFF03A
:1029B000F08303338383FFFFFF000000000000006B
:1029C0000000000000000000000000000000000007
:1029D00000000000000000000000000000000000F7
:1029E00000000000000000000000000000000000E7
:1029F00000000000000000000000000000000000D7
:102A0000000000000000FFFFFFC0C0CCC09C80C0E1
:102A1000FFFFFF00000000000000000000000000B9
:102A200000000000000000000000000000000000A6
:102A30000000000000000000000000000000000096
:102A40000000000000000000000000000000000086
:102A50000000000000000000000000000000000076
:102A6000C3819D9FCFE7E7FFE7E7FFFFFF0000007F
:102A70000000000000000000000000000000000056
:102A80000000000000000000000000000000000046
:102A90000000000000000000000000000000000036
:102AA0000000000000000000000000000000000026
:102AB00000000000000000000000FFFFFF3993C38A
:102AC000C7C39939FFFFFF000000000000000000AD
:102AD00000000000000000000000000000000000F6
:102AE00000000000000000000000000000000000E6
:102AF00000000000000000000000000000000000D6
:102B000000000000000000000000000000000000C5
:102B100000000000FFFFFF3C39999393C7C7CFE146
:102B2000F3000000000000000000000000000000B2
:102B30000000000000000000000000000000000095
:102B40000000000000000000000000000000000085
:102B50000000000000000000000000000000000075
:102B60000000000000000000000000000000FFFF67
:102B7000FF8381998F3F8183FFFFFF0000000000EA
:102B80000000000000000000000000000000000045
:102B90000000000000000000000000000000000035
:102BA0000000000000000000000000000000000025
:102BB0000000000000000000000000000000000015
:102BC0000000000000000000FFFFFFFFFFFFFFFF0D
:102BD000F3E3E7F7FB000000000000000000000046
:102BE00000000000000000000000000000000000E5
:102BF00000000000000000000000000000000000D5
:102C000000000000000000000000000000000000C4
:102C100000000000000000000000000000000000B4
:102C200000008F87E7E7E7F1F1E7E7E7E7878F0045
:102C30000000000000000000000000000000000094
:102C40000000000000000000000000000000000084
:102C50000000000000000000000000000000000074
:102C60000000000000000000000000000000000064
:102C7000000000000000000000000000E1E1CFCFF4
:102C8000CF8F8FCFCFCFE7E1E10000000000000041
:102C90000000000000000000000000000000000034
:102CA0000000000000000000000000000000000024
:102CB0000000000000000000000000000000000014
:102CC0000000000000000000000000000000000004
:102CD000000000000000FFFFFF8381B98183B1B9CC
:102CE000FFFFFF00000000000000000000000000E7
:102CF00000000000000000000000000000000000D4
:102D000000000000000000000000000000000000C3
:102D100000000000000000000000000000000000B3
:102D200000000000000000000000000000000000A3
:102D3000FFFFFFC1811D071F81C1FFFFFF000000D2
:102D40000000000000000000000000000000000083
:102D50000000000000000000000000000000000073
:102D60000000000000000000000000000000000063
:102D70000000000000000000000000000000000053
:102D800000000000000000000000D3C7FFB999094F
:102D9000A1B1B1B9FFFFFF0000000000000000007A
:102DA0000000000000000000000000000000000023
:102DB0000000000000000000000000000000000013
:102DC0000000000000000000000000000000000003
:102DD00000000000000000000000000000000000F3
:102DE00000000000FFFFFFFFFFFFFFFFFFFFFFFFEF
:102DF000FF000000000000000000000000000000D4
:102E000000000000000000000000000000000000C2
:102E100000000000000000000000000000000000B2
:102E200000000000000000000000000000000000A2
:102E30000000000000000000000000000000FFFF94
:102E4000FFFFFFFFFFFFE7E7FFFFFF0000000000BD
:102E50000000000000000000000000000000000072
:102E60000000000000000000000000000000000062
:102E70000000000000000000000000000000000052
:102E80000000000000000000000000000000000042
:102E90000000000000000000C38119190D313999AC
:102EA00081C3FFFFFF0000000000000000000000E1
:102EB0000000000000000000000000000000000012
:102EC0000000000000000000000000000000000002
:102ED00000000000000000000000000000000000F2
:102EE00000000000000000000000000000000000E2
:102EF0000000FFFFFFE7E7FFFFFFFFE7E7FFFF003F
:102F000000000000000000000000000000000000C1
:102F100000000000000000000000000000000000B1
:102F200000000000000000000000000000000000A1
:102F30000000000000000000000000000000000091
:102F4000000000000000000000000000FFFFFFC1C3
:102F5000819F81809C0011FFFF00000000000000A5
:102F60000000000000000000000000000000000061
:102F70000000000000000000000000000000000051
:102F80000000000000000000000000000000000041
:102F90000000000000000000000000000000000031
:102FA000000000000000F8F8F98101317979390159
:102FB00083FFFF0000000000000000000000000090
:102FC0000000000000000000000000000000000001
:102FD00000000000000000000000000000000000F1
:102FE00000000000000000000000000000000000E1
:102FF00000000000000000000000000000000000D1
:10300000FFFFFF8381B8FCFCF80183FFFF00000095
:1030100000000000000000000000000000000000B0
:1030200000000000000000000000000000000000A0
:103030000000000000000000000000000000000090
:103040000000000000000000000000000000000080
:10305000000000000000000000008F8F9F81809C16
:103060009C9C9C0021FFFF0000000000000000006D
:103070000000000000000000000000000000000050
:103080000000000000000000000000000000000040
:103090000000000000000000000000000000000030
:1030A0000000000000000000000000000000000020
:1030B00000000000FFFFFFC3813C0000FC8183FF94
:1030C000FF00000000000000000000000000000001
:1030D00000000000000000000000000000000000F0
:1030E00000000000000000000000000000000000E0
:1030F00000000000000000000000000000000000D0
:1031000000000000000000000000000000000703B5
:10311000F38080F3F3F3F38000FFFF000000000072
:10312000000000000000000000000000000000009F
:10313000000000000000000000000000000000008F
:10314000000000000000000000000000000000007F
:10315000000000000000000000000000000000006F
:103160000000000000000000FFFFFF8301989C9C0E
:103170001880019F81000000000000000000000096
:10318000000000000000000000000000000000003F
:10319000000000000000000000000000000000002F
:1031A000000000000000000000000000000000001F
:1031B000000000000000000000000000000000000F
:1031C0000000F8F8F98901317939793979FFFF0080
:1031D00000000000000000000000000000000000EF
:1031E00000000000000000000000000000000000DF
:1031F00000000000000000000000000000000000CF
:1032000000000000000000000000000000000000BE
:10321000000000000000000000000000E7E7FFE001
:10322000E0E7E7E7E70000FFFF0000000000000024
:10323000000000000000000000000000000000008E
:10324000000000000000000000000000000000007E
:10325000000000000000000000000000000000006E
:10326000000000000000000000000000000000005E
:103270000000000000009F9FFF81839F9F9F9F9FF2
:103280009F9F81000000000000000000000000007F
:10329000000000000000000000000000000000002E
:1032A000000000000000000000000000000000001E
:1032B000000000000000000000000000000000000E
:1032C00000000000000000000000000000000000FE
:1032D000F8F8F9391989C1C1991939FFFF000000BF
:1032E00000000000000000000000000000000000DE
:1032F00000000000000000000000000000000000CE
:1033000000000000000000000000000000000000BD
:1033100000000000000000000000000000000000AD
:1033200000000000000000000000E1E1E7E7E7E73F
:10333000E7E7E7070FFFFF000000000000000000C4
:10334000000000000000000000000000000000007D
:10335000000000000000000000000000000000006D
:10336000000000000000000000000000000000005D
:10337000000000000000000000000000000000004D
:1033800000000000FFFFFF1200262626262626FF4B
:10339000FF0000000000000000000000000000002E
:1033A000000000000000000000000000000000001D
:1033B000000000000000000000000000000000000D
:1033C00000000000000000000000000000000000FD
:1033D0000000000000000000000000000000FFFFEF
:1033E000FF0800317979797979FFFF00000000004A
:1033F00000000000000000000000000000000000CD
:1034000000000000000000000000000000000000BC
:1034100000000000000000000000000000000000AC
:10342000000000000000000000000000000000009C
:103430000000000000000000FFFFFFC1801C3C3CBA
:103440001C80C3FFFF00000000000000000000001F
:10345000000000000000000000000000000000006C
:10346000000000000000000000000000000000005C
:10347000000000000000000000000000000000004C
:10348000000000000000000000000000000000003C
:103490000000FFFF0800317979390181F9F9F9005D
:1034A000000000000000000000000000000000001C
:1034B000000000000000000000000000000000000C
:1034C00000000000000000000000000000000000FC
:1034D00000000000000000000000000000000000EC
:1034E000000000000000000000000000FFFF8381DA
:1034F000989C9C9C80819F9F1F0000000000000002
:1035000000000000000000000000000000000000BB
:1035100000000000000000000000000000000000AB
:10352000000000000000000000000000000000009B
:10353000000000000000000000000000000000008B
:10354000000000000000FFFF880033F3F3F38080E9
:10355000FFFFFF000000000000000000000000006E
:10356000000000000000000000000000000000005B
:10357000000000000000000000000000000000004B
:10358000000000000000000000000000000000003B
:10359000000000000000000000000000000000002B
:1035A000FFFF8180F8E1879D80C1FFFFFF000000E1
:1035B000000000000000000000000000000000000B
:1035C00000000000000000000000000000000000FB
:1035D00000000000000000000000000000000000EB
:1035E00000000000000000000000000000000000DB
:1035F00000000000000000000000F3F30000F3F3FF
:10360000F3730307FFFFFF0000000000000000004D
:1036100000000000000000000000000000000000AA
:10362000000000000000000000000000000000009A
:10363000000000000000000000000000000000008A
:10364000000000000000000000000000000000007A
:1036500000000000FFFF8C8C9C9C9C9C0031FFFFB5
:10366000FF0000000000000000000000000000005B
:10367000000000000000000000000000000000004A
:10368000000000000000000000000000000000003A
:10369000000000000000000000000000000000002A
:1036A0000000000000000000000000000000FFFF1C
:1036B0003C1C9999C1C3C3E7FFFFFF000000000055
:1036C00000000000000000000000000000000000FA
:1036D00000000000000000000000000000000000EA
:1036E00000000000000000000000000000000000DA
:1036F00000000000000000000000000000000000CA
:103700000000000000000000FFFF7E3E2424008037
:103710008899FFFFFF00000000000000000000008B
:103720000000000000000000000000000000000099
:103730000000000000000000000000000000000089
:103740000000000000000000000000000000000079
:103750000000000000000000000000000000000069
:103760000000FFFF1C99C1C3C3C9981CFFFFFF00E5
:103770000000000000000000000000000000000049
:103780000000000000000000000000000000000039
:103790000000000000000000000000000000000029
:1037A0000000000000000000000000000000000019
:1037B000000000000000000000000000FFFF3C3C93
:1037C0009C9999D3C3C3E7E1F10000000000000019
:1037D00000000000000000000000000000000000E9
:1037E00000000000000000000000000000000000D9
:1037F00000000000000000000000000000000000C9
:1038000000000000000000000000000000000000B8
:10381000000000000000FFFF00008FC7F3F9000068
:10382000FFFFFF000000000000000000000000009B
:103830000000000000000000000000000000000088
:103840000000000000000000000000000000000078
:103850000000000000000000000000000000000068
:103860000000000000000000000000000000000058
:1038700011241FBECFEFCDBFDFE3DEBF00E00CBFE2
:1038800018BE19BE1ABE1BBE10E2A0E0B0E2EAE507
:10389000F8E700E00BBF02C007900D92AC3DB10706
:1038A000D9F71BBE1FE2ACEDB0E201C01D92A533FB
:1038B000B107E1F70E94D83B0C942B3C0C9400001C
:1038C000CF93DF931F92CDB7DEB781E090E20E94E5
:1038D000A21C88EE93E00E9485290E947F1F84EF3E
:1038E00091E00E94852948EC50E068EC70E08AEE97
:1038F00092E00E949F2084EF91E00E9485298BE155
:1039000090E20E94A21C0E943F24898389818A3010
:10391000D1F389810E94E02420E040E050E060E0A3
:1039200070E08091312F9091322F0E949A2FEBCF2F
:1039300081E080930106089581E080930706089551
:103940000C948529CF93DF931F921F92CDB7DEB7DA
:1039500089839A8320E044E650E0BE016F5F7F4F89
:1039600080912F2F9091302F0E949A2F0F900F90BF
:10397000DF91CF910895E0EAF6E088E085838183C6
:10398000E0EAFBE083E0858383818F63838389E1C1
:103990008683178284818D60848308959091A10B22
:1039A00095FFFCCF8093A00B0895EF92FF921F9399
:1039B000CF93DF931F92CDB7DEB77C011982FC0154
:1039C00001900020E9F731971E2F181B1982898179
:1039D000811758F48981F701E80FF11D80810E9459
:1039E000CE1C89818F5F8983F2CF8AE00E94CE1C32
:1039F0008DE00E94CE1C0F90DF91CF911F91FF9020
:103A0000EF900895CF93DF931F921F92CDB7DEB74B
:103A100080912F2F9091302F0E94C0328823C1F3C4
:103A20004FEF5FEFBE016F5F7F4F80912F2F90911F
:103A3000302F0E949A30813059F789819A810097FE
:103A400039F30E94D51CE4CF0C9485298093C308D8
:103A50008091C20887FFFCCF80E008950F931F93E9
:103A6000CF93DF938C01EB018091040681FF03C0AB
:103A700082E0809306061092332F2091332F30E09E
:103A80002C173D0760F4F801E20FF31F80810E94BC
:103A9000261D9091332F9F5F9093332FEECFDF91B0
:103AA000CF911F910F9108950F931F93CF93DF93A1
:103AB0008C01EB018091040681FD03C082E08093BC
:103AC00005061092332F2091332F30E02C173D073D
:103AD00060F4F801E20FF31F80810E94261D90918F
:103AE000332F9F5F9093332FEECFDF91CF911F91B4
:103AF0000F9108958091080683FF05C084E690E049
:103B00000E948529F7CF08958091440684FF03C061
:103B100080E1809346068091040681FF03C082E025
:103B20008093060682E20E94261D8091040681FD94
:103B300003C082E08093050684EC0E94261D8091DC
:103B4000440684FD03C080E18093450680914406CD
:103B500084FF03C080E1809346068091040681FFC4
:103B600003C082E08093060680E20E94261D8091B9
:103B7000440684FD03C080E180934506809144069D
:103B800084FF03C080E1809346068091040681FF94
:103B900003C082E0809306068FEF0E94261D80916D
:103BA000440684FD03C080E1809345060C947A1D91
:103BB0000F931F93CF93DF93EC018B010E947A1D2B
:103BC0008091440684FF03C080E180934606809183
:103BD000040681FF03C082E0809306068EE40E9403
:103BE000261D83E0D595C7958A95E1F78091040657
:103BF00081FD03C082E0809305068C2F0E94261D64
:103C00008091440684FD03C080E180934506809145
:103C1000440684FF03C080E1809346068091040639
:103C200081FF03C082E0809306068FE40E94261D78
:103C30008091040681FD03C082E080930506802FF9
:103C40000E94261D8091040681FD03C082E08093BE
:103C50000506812F0E94261D8091440684FD03C025
:103C600080E180934506DF91CF911F910F910895D8
:103C7000EF92FF920F931F93CF93DF93182FE62EAF
:103C8000D42FC52FF22E032F8091440684FF03C04A
:103C900080E1809346068091040681FF03C082E0A4
:103CA0008093060684E40E94261D8091040681FD0F
:103CB00003C082E080930506812F0E94261D80911B
:103CC000040681FD03C082E0809305068E2D0E94CC
:103CD000261D8091440684FD03C080E18093450643
:103CE0008091440684FF03C080E180934606809162
:103CF000040681FF03C082E08093060685E40E94EB
:103D0000261D8091040681FD03C082E08093050694
:103D10008D2F0E94261D8091040681FD03C082E044
:103D2000809305068C2F0E94261D8091040681FD3C
:103D300003C082E0809305068F2D0E94261D80918E
:103D4000040681FD03C082E080930506802F0E9457
:103D5000261D8091440684FD03C080E180934506C2
:103D60008091440684FF03C080E1809346068091E1
:103D7000040681FF03C082E0809306068EE40E9461
:103D8000261D8091040681FD03C082E08093050614
:103D9000812F0E94261D8091440684FD03C080E18E
:103DA000809345068091440684FF03C080E18093A0
:103DB00046068091040681FF03C082E080930606D8
:103DC0008FE40E94261D8091040681FD03C082E0DD
:103DD000809305068D2F0E94261D8091040681FD8B
:103DE00003C082E0809305068C2F0E94261D8091DF
:103DF000440684FD03C080E180934506DF91CF91A6
:103E00001F910F91FF90EF9008950F931F93CF9301
:103E1000DF93182F27EC30E047EC50E060E080E0C3
:103E20000E94381E8091440684FF03C080E1809385
:103E300046068091040681FF03C082E08093060657
:103E400084E20E94261DC8E8D3E102E080910406C6
:103E500081FF00930506812F0E94261D2197B1F74F
:103E60008091440684FD03C080E180934506DF9184
:103E7000CF911F910F9108951F93CF93DF93EC0182
:103E80008091440684FF03C080E1809346068091C0
:103E9000040681FF03C082E08093060682E30E944D
:103EA000261D1092332F12E09091332F9E3190F403
:103EB000FE01E90FF11DE4918091040681FF10934A
:103EC00005068E2F0E94261D9091332F9F5F9093A1
:103ED000332FEACF8091440684FD03C080E18093B4
:103EE0004506DF91CF911F9108958FEF0E94051F26
:103EF0000E94841D80E00E94051F0C94841DCF93B6
:103F000080EB809341068091440684FD03C080E1EC
:103F10008093450698E09093020680E58093C00860
:103F200082E08093010680E180930106909302066F
:103F30009091440694FF80934506C0E1C093060625
:103F400084E690E00E948529C093050688EE93E000
:103F50000E9485298091440684FDC0934606809185
:103F6000040681FF03C082E08093060681E00E9480
:103F7000261D8091040681FD03C082E08093050622
:103F800087EC0E94261D8091040681FD03C082E01B
:103F90008093050680E00E94261D8091040681FD25
:103FA00003C082E08093050680E00E94261D809178
:103FB000440684FD03C080E1809345068091440659
:103FC00084FF03C080E1809346068091040681FF50
:103FD00003C082E0809306068CE00E94261D80913B
:103FE000040681FD03C082E08093050687ED0E94F0
:103FF000261D8091040681FD03C082E080930506A2
:1040000086ED0E94261D8091040681FD03C082E09A
:10401000809305068DE90E94261D8091440684FD4B
:1040200003C080E1809345068091440684FF03C06D
:1040300080E1809346068091040681FF03C082E000
:10404000809306068CE20E94261D8091040681FD65
:1040500003C082E08093050688EA0E94261D8091B5
:10406000440684FD03C080E18093450680914406A8
:1040700084FF03C080E1809346068091040681FF9F
:1040800003C082E0809306068AE30E94261D809189
:10409000040681FD03C082E0809305068AE10E9448
:1040A000261D8091440684FD03C080E1809345066F
:1040B0008091440684FF03C080E18093460680918E
:1040C000040681FF03C082E0809306068BE30E9412
:1040D000261D8091040681FD03C082E080930506C1
:1040E00088E00E94261D8091440684FD03C080E183
:1040F000809345068091440684FF03C080E180934D
:1041000046068091040681FF03C082E08093060684
:1041100081E10E94261D8091040681FD03C082E09A
:104120008093050681E00E94261D8091440684FD4F
:1041300003C080E180934506CF910C94751F6F9268
:104140007F928F929F92AF92BF92CF92DF92EF9227
:10415000FF920F931F93CF93DF937C01EB018A01B2
:104160006B0187E0C80ED11C23E0D694C7942A9532
:10417000E1F781E996E10E943C1F8091440684FFAB
:1041800003C080E1809346068091040681FF03C04E
:1041900082E08093060682E20E94261D809104063A
:1041A00081FD03C082E08093050680EC0E94261DFD
:1041B0008091440684FD03C080E180934506809190
:1041C000440684FF03C080E1809346068091040684
:1041D00081FF03C082E08093060680E20E94261DD4
:1041E0008091440684FD03C080E1809345060E94CF
:1041F0007A1D6FEF6C0D20E030E0A80141505109AD
:1042000080E00E94381EDD27279693E0D595C7955C
:104210009A95E1F77C2E8091440684FF03C080E1EB
:10422000809346068091040681FF03C082E080935C
:10423000060684E20E94261D812C912CA12CB12C13
:1042400082E0682EA016B106D9F0C12CD12CC7147B
:1042500088F4F601E80DF91DEE0DFF1D8491909193
:10426000040691FF609205060E94261D8FEFC81A72
:10427000D80AEDCF8C0E9D1E8FEFA81AB80AE2CF98
:104280008091440684FD03C080E1809345060E942E
:104290007A1D8091440684FF03C080E18093460626
:1042A0008091040681FF03C082E08093060682E2CB
:1042B0000E94261D8091040681FD03C082E0809348
:1042C000050687EC0E94261D8091440684FD03C0EC
:1042D00080E1809345068091440684FF03C080E11D
:1042E000809346068091040681FF03C082E080939C
:1042F000060680E20E94261D8091440684FD03C0CC
:1043000080E1809345068091440684FF03C080E1EC
:10431000809346068091040681FF03C082E080936B
:1043200006068FEF0E94261D8091440684FD03C07F
:1043300080E1809345060E947A1D8091440684FFA7
:1043400003C080E1809346068091040681FF03C08C
:1043500082E08093060682E20E94261D8091040678
:1043600081FD03C082E08093050680EC0E94261D3B
:104370008091440684FD03C080E1809345068091CE
:10438000440684FF03C080E18093460680910406C2
:1043900081FF03C082E08093060680E20E94261D12
:1043A0008091440684FD03C080E180934506DF913F
:1043B000CF911F910F91FF90EF90DF90CF90BF9022
:1043C000AF909F908F907F906F900C947A1D80910A
:1043D000440684FF03C080E1809346068091040672
:1043E00081FF03C082E08093060682E20E94261DC0
:1043F0008091040681FD03C082E08093050684E07D
:104400000E94261D8091440684FD03C080E18093B4
:1044100045068091440684FF03C080E180934606F0
:104420008091040681FF03C082E08093060680E24B
:104430000E94261D8091440684FD03C080E1809384
:1044400045068091440684FF03C080E180934606C0
:104450008091040681FF03C082E0809306068FEFFF
:104460000E94261D8091440684FD03C080E1809354
:10447000450608952F923F924F925F926F927F92DE
:104480008F929F92AF92BF92CF92DF92EF92FF9264
:104490000F931F93CF93DF9300D0CDB7DEB73C01CE
:1044A0005B016A010E947A1D82E796E10E943C1F2F
:1044B0008091440684FF03C080E18093460680918A
:1044C000040681FF03C082E08093060682E20E9418
:1044D000261D8091040681FD03C082E080930506BD
:1044E00080EC0E94261D8091440684FD03C080E17B
:1044F000809345068091440684FF03C080E1809349
:1045000046068091040681FF03C082E08093060680
:1045100080E20E94261D8091440684FD03C080E154
:10452000809345060E947A1D20E030E047EC50E081
:1045300068E180E00E94381E6114710439F50E9420
:104540007A1D8091440684FF03C080E18093460673
:104550008091040681FF03C082E08093060684E216
:104560000E94261D78ECE72EF12C02E019E18091E3
:10457000040681FF009305068FEF0E94261D11504F
:10458000B1F721E0E21AF10889F731C080914406C1
:1045900084FF03C080E1809346068091040681FF7A
:1045A00003C082E08093060684E20E94261DE12C6F
:1045B000F12C62E0962E00E010E0F801EE0DFF1DF8
:1045C000E60DF71D84919091040691FF90920506E7
:1045D0000E94261D0F5F1F4F0931110571F739E148
:1045E000E30EF11C88E8E81683E1F80621F78091D4
:1045F000440684FD03C080E1809345060E94E721C4
:1046000020E030E047EC50E068E180E00E94381E96
:104610006114710441F50E947A1D8091440684FF63
:1046200003C080E1809346068091040681FF03C0A9
:1046300082E08093060684E20E94261D08EC10E0CA
:1046400052E0E52E49E1F42E8091040681FFE092CC
:1046500005068FEF0E94261DFA94F110F5CF015048
:10466000110981F732C08091440684FF03C080E1C4
:10467000809346068091040681FF03C082E0809308
:10468000060684E20E94261DE12CF12C32E0932ED6
:1046900000E010E0F801EE0DFF1DE60DF71DE491BE
:1046A0008091040681FF909205068E2F0E94261DA0
:1046B0000F5F1F4F0931110569F799E1E90EF11CF0
:1046C000E8E8EE16E3E1FE0619F78091440684FD62
:1046D00003C080E1809345061092332F90E1392E7C
:1046E00022E0222E8091332F282F30E02C153D051B
:1046F00008F064C0F50126E0829FE00DF11D112451
:1047000080809180F28003818481458150E010E0B7
:104710009A01200F311F215031096F2D680F615010
:104720000E94381EFF0CFF0CFF0C8F2D90E09C01A7
:1047300083E0369527958A95E1F72A833B833A8172
:1047400039838091440684FD3092460680910406A8
:1047500081FD2092060684E20E94261D412C512CE8
:10476000612C712C60167106F0F4E12CF12C99810A
:10477000E91688F4F701E40DF51DE80DF91D8491A3
:104780009091040691FF209205060E94261D8FEF4E
:10479000E81AF80AECCF2A813B81420E531E3FEF04
:1047A000631A730ADFCF8091440684FF3092450676
:1047B0008091332F8F5F8093332F94CF0E94E72116
:1047C0008091440684FF03C080E180934606809177
:1047D000040681FF03C082E08093060682E20E9405
:1047E000261D8091040681FD03C082E080930506AA
:1047F00080EC0E94261D8091440684FD03C080E168
:10480000809345068091440684FF03C080E1809335
:1048100046068091040681FF03C082E0809306066D
:1048200080E20E94261D8091440684FD03C080E141
:10483000809345062396CDBFDEBFDF91CF911F91B8
:104840000F91FF90EF90DF90CF90BF90AF909F902F
:104850008F907F906F905F904F903F902F900C942F
:104860007A1DE0E6F6E080EE81838683E0E4F6E000
:1048700087E0828380E18787808B818B08950F9307
:104880001F93CF93DF93D0E2D093650688E290E048
:104890000E94A01C00914806C0914806C270109169
:1048A0004806D093660688E290E00E94A01C00FFB4
:1048B00006C082E690E20E94A21C80E067C0CC2382
:1048C00031F088E690E20E94A21C81E05FC012FFF6
:1048D00006C08EE690E20E94A21C82E057C0C0E4AF
:1048E000C093650688E290E00E94A01C00914806F3
:1048F00010914806D0914806C093660688E290E081
:104900000E94A01C00FF06C084E790E20E94A21C47
:1049100083E03CC011FF06C08AE790E20E94A21C1F
:1049200084E034C0D2FF06C080E890E20E94A21C5E
:1049300085E02CC0C0E8C093650688E290E00E9444
:10494000A01C0091480610914806D0914806C093DB
:10495000660688E290E00E94A01C00FF06C086E880
:1049600090E20E94A21C86E011C011FF06C08CE8F4
:1049700090E20E94A21C87E009C0D2FF06C082E933
:1049800090E20E94A21C88E001C08AE0DF91CF91F2
:104990001F910F910895CF93DF931F92CDB7DEB78C
:1049A0000E943F248983998180910020981719F0F3
:1049B0008981809300208AE00F90DF91CF91089544
:1049C0008093342F81E08093DC2008958091DC2057
:1049D000882319F01092DC2081E008958091342F13
:1049E0000895CF93DF9300D000D0CDB7DEB788E92C
:1049F00090E20E94A21C1AE01093342F0E947F1FA5
:104A000084EF91E00E94A01C48EC50E068EC70E05C
:104A10008AEE92E00E949F2084EF91E00E94A01C09
:104A200087EA90E20E94A21C8CEB92E089839A8331
:104A300081E08B838DE08C831D8384E68E836FEF12
:104A40007FEF8091312F9091322F0E942A31813057
:104A5000B1F78EEB90E20E94A21C8091342F0E944D
:104A6000412589839A8341E050E0BE016F5F7F4F0B
:104A700080E090E00E943A2284E690E00E94A01C30
:104A8000DECF8A3538F42AE5829FC0011124805593
:104A9000994E089580EB96E10895E0910B21F091F5
:104AA0000C218081811103C08FEF9FEF0CC0E0913A
:104AB0000B21F0910C210580F681E02D0680F78115
:104AC000E02D828193818093E2209093E3200895EA
:104AD000EF92FF920F931F93CF93DF931F92CDB767
:104AE000DEB77C010091EA201091EB208091DD205F
:104AF0009091DE20029669830E942D3469818FEFA8
:104B0000E816F80699F4662389F06091DD2070912B
:104B1000DE206E5F7F4F8DEE90E20F90DF91CF91A0
:104B20001F910F91FF90EF900C94D433E00EF11E83
:104B3000E091DD20F091DE20E282F3826091DD20C1
:104B40007091DE20E016F10678F4809109219091B1
:104B50000A216E5F7F4F0F90DF91CF911F910F91D0
:104B6000FF90EF900C94F53380910B2190910C21E4
:104B70006E5F7F4F0E94F5338091E2209091E32099
:104B8000E816F90620F4E092E220F092E3200F907C
:104B9000DF91CF911F910F91FF90EF900895809139
:104BA000F620882309F10FB6F8940F92E091FC20CB
:104BB000F091FD20C681D781CE0102960E942D344E
:104BC0008091EC2081508093EC208091F6208150E0
:104BD0008093F6200F900FBE8F89988D0E944936E2
:104BE000CE010E944936DBCF80911F218230B8F27E
:104BF0000E94233BD4CF2F923F925F926F927F927D
:104C00008F929F92AF92BF92CF92DF92EF92FF92DC
:104C10000F931F93CF93DF934C01562E172F5A01FA
:104C20003901CA010E9417361C01009709F4D4C04B
:104C300088E290E00E941736EC01009781F02F8AFD
:104C4000388E650121E0C21AD108C20CD31CBC0108
:104C5000675E7F4FE52DF12FCF01089607C0C10198
:104C60000E944936B9C0E817F90749F09F01419100
:104C7000DB014D93BD01D9012C912111F4CF18A274
:104C8000043008F003E00E8B09A31AA25E01B2E023
:104C9000AB0EB11CC5010E94D033CE010C960E9410
:104CA000D033C887D98784E090E0801B91098C8736
:104CB0009D87CA8BDB8B1BA21CA21DA21EA21FA25A
:104CC000A301B401C6010E94663A88839983E11466
:104CD000F10419F0F701C083D1830FB6F8940F9255
:104CE0008091EC208F5F8093EC208091DD2090916B
:104CF000DE20892BD1F5C093DD20D093DE2080917A
:104D0000EC20813009F041C08FE191E20E94C23372
:104D100088E291E20E94C23381E391E20E94C233B1
:104D20008AE391E20E94C23386E191E20E94C2339B
:104D30008DE091E20E94C23380E091E20E94C23392
:104D400087EF90E20E94C2338DEE90E20E94C23360
:104D500086E191E280930B2190930C218DE091E20A
:104D60008093092190930A2110C08091E82081113D
:104D70000CC0E091DD20F091DE2096898E898917A4
:104D800020F0C093DD20D093DE208091E4208F5F5F
:104D90008093E4208E899091E920981710F48093F5
:104DA000E920F9E08F9FC0011124B501815E9E4D7D
:104DB0000E94D4330F900FBE8091E820882351F0D9
:104DC000E091DD20F091DE2096898E89981710F40D
:104DD0000E94233B81E001C08FEFDF91CF911F91B3
:104DE0000F91FF90EF90DF90CF90BF90AF909F908A
:104DF0008F907F906F905F903F902F9008950F93CA
:104E00001F93CF93DF93EC010FB6F8940F920097A6
:104E100021F4C091DD20D091DE208E010E5F1F4F66
:104E2000C8010E942D348C899D89892B21F0CE01E7
:104E30000C960E942D349091E4209F5F9093E42083
:104E40008091DD209091DE20C817D90759F4B80170
:104E500087EF90E20E94D4338091F6208F5F809399
:104E6000F6200EC08091EC2081508093EC208F8939
:104E7000988D0E944936CE010E9449360E944D25E8
:104E80000F900FBE8091E820882349F08091DD20AB
:104E90009091DE20C817D90711F40E94233BDF91BF
:104EA000CF911F910F9108950F931F93CF93DF938D
:104EB0002091DD203091DE2082179307B9F1009711
:104EC000A9F10FB6F8940F92FC01228533852D5E6F
:104ED000304251F5FC0124893589F1E220303F0749
:104EE00019F1232B09F5EC018C010E5F1F4FC8014E
:104EF0000E942D349E898091E920891710F49093A7
:104F0000E92029E0929FC0011124B801815E9E4DE5
:104F10000E94D433E091DD20F091DE209E898689C5
:104F2000981710F00E94233B0F900FBEDF91CF9196
:104F30001F910F910895EF92FF921F93CF93DF93EC
:104F4000EC018A859B858D5E904299F48C899D89C0
:104F500021E28030920769F0892B59F48091DF209B
:104F6000882349F0BE01645F7F4F80E091E20E9498
:104F7000D43310E021C0E091DD20F091DE2011E07B
:104F80009E898689981708F410E07E0182E0E80E79
:104F9000F11CC7010E942D349E898091E920891758
:104FA00010F49093E92029E0929FC0011124B701E9
:104FB000815E9E4D0E94D433812FDF91CF911F914E
:104FC000FF90EF900895EF92FF920F9380EEE82EFE
:104FD00080E2F82E00E020E030E045E550E067EDAB
:104FE00070E28FEC95E20E94FB25813091F4F894F9
:104FF0002FEF3FEF2093E2203093E3208093E820CF
:105000001092EA201092EB200F91FF90EF900C94F9
:10501000DD3A0F91FF90EF900895F8941092E820F8
:105020000C94223B8091DF208F5F8093DF200895D6
:105030000FB6F8940F928091EA209091EB200F9098
:105040000FBE08958091EA209091EB200895809101
:10505000EC200895009721F48091DD209091DE20CE
:1050600049960895CF92DF92EF92FF920F931F938C
:10507000CF93DF938091DF2081118CC00091EA20D3
:105080001091EB200F5F1F4F0093EA201093EB204D
:1050900001151105B9F480910B2190910C212091FB
:1050A000092130910A2120930B2130930C21809308
:1050B000092190930A218091E5208F5F8093E5205C
:1050C0000E944D258091E2209091E320C0E00817D6
:1050D000190708F44FC0D9E0E0910B21F0910C21A1
:1050E0008081811103C08FEF9FEF11C0E0910B21F0
:1050F000F0910C210580F681E02DE680F780D70144
:1051000012968D919C9113970817190728F4809394
:10511000E2209093E3202EC06701B2E0CB0ED11CB9
:10512000C6010E942D34F70184899589892B21F0CD
:10513000C7010C960E942D34D70156969C91809100
:10514000E920891710F49093E920D99FC001112418
:10515000B601815E9E4D0E94D433E091DD20F09136
:10516000DE20D70156969C918689981708F4B4CF13
:10517000C1E0B2CFE091DD20F091DE20E689B9E018
:10518000EB9FF0011124E15EFE4D8081823040F002
:10519000C1E006C08091E7208F5F8093E720C0E0E8
:1051A0008091E6208111C1E08C2FDF91CF911F917A
:1051B0000F91FF90EF90DF90CF900895EF92FF92C4
:1051C0000F931F93CF93DF930FB6F8940F928091B4
:1051D000DF2081508093DF208091DF20882311F031
:1051E00080E052C08091EC208823D1F3C0E0D0E071
:1051F00089E0F82EEE24E39480910021882351F178
:10520000E0910521F0910621C681D781CE010C964F
:105210000E942D348E010E5F1F4FC8010E942D3455
:105220009E898091E920891710F49093E920F99ED6
:10523000C0011124B801815E9E4D0E94D433E091DB
:10524000DD20F091DE209E8986899817A8F2E092F1
:10525000E620D2CFCD2B11F00E944D25C091E72042
:10526000CC2351F0D1E00E9432288111D093E62066
:10527000C150C9F71092E7208091E620882309F4F5
:10528000AFCF0E94233B81E00F900FBEDF91CF9103
:105290001F910F91FF90EF9008950F931F93CF935D
:1052A000DF938C01EB010E9412284091EA2050917B
:1052B000EB20F801608171819B012C0F3D1F461787
:1052C000570728F42617370748F491E004C091E007
:1052D0002617370720F04217530708F090E0F8012F
:1052E00020833183992331F060E0C901841B950B41
:1052F0000E9468250E94DE28811102C00E94233B83
:10530000DF91CF911F910F910895CF93DF931F925B
:105310001F92CDB7DEB7009719F40E94233B0DC052
:1053200089839A830E94122860E089819A810E9471
:1053300068250E94DE28882381F30F900F90DF916B
:10534000CF9108958091DF20882321F081E0809320
:10535000E62008951092E6208091E92069E0482F28
:1053600050E0649F9001659F300D1124F901E15ECA
:10537000FE4D9081911102C08150F1CFA181B28187
:1053800012960D90BC91A02DA183B2832E5D3E4D4F
:10539000A217B30731F412962D913C9113972183F4
:1053A000328399E0949FF001959FF00D1124E15E06
:1053B000FE4D0180F281E02D268137812093DD2092
:1053C0003093DE208093E92008950F931F93CF93AD
:1053D000DF93EC010FB6F8940F92009721F4C0917F
:1053E000DD20D091DE208E010E5F1F4FC8010E948C
:1053F0002D348C899D89892B21F0CE010C960E9439
:105400002D34B8018DEE90E20E94D4338FA181300B
:1054100009F41FA20F900FBE8091E820882339F075
:105420000FB6F8940F920E944D250F900FBE8091F9
:10543000DD209091DE20C817D907C1F48091E820C3
:10544000882319F00E94233B11C09091ED20809198
:10545000EC20981305C01092DD201092DE2006C0CB
:10546000DF91CF911F910F910C94A229DF91CF91E1
:105470001F910F910895CF93DF93EB012091DD20D1
:105480003091DE20B901645F7F4F0E94F53361E007
:10549000CE01DF91CF910C946825CF93DF93EA0181
:1054A000E091DD20F091DE2070686487758760915F
:1054B000DD207091DE20645F7F4F0E94D43361E075
:1054C000CE01DF91CF910C9468250F931F93CF935A
:1054D000DF93DC011596ED91FC911697C681D7817B
:1054E0008E01045F1F4FC8010E942D348091DF2080
:1054F000811114C00A501109C8010E942D349E89DF
:105500008091E920891710F49093E920B9E09B9FDE
:10551000C0011124B801815E9E4D03C0B80180E036
:1055200091E20E94D433E091DD20F091DE209E894B
:105530008689891720F481E08093E62001C080E00D
:10554000DF91CF911F910F9108950F931F93CF93E8
:10555000DF937068FC0160837183C681D7810E94EC
:105560002D348E010E5F1F4FC8010E942D349E897D
:105570008091E920891710F49093E920F9E09F9F2A
:10558000C0011124B801815E9E4D0E94D433E09188
:10559000DD20F091DE209E898689891718F481E04C
:1055A0008093E620DF91CF911F910F9108950FB660
:1055B000F8940F922091E520FC0120832091EA20AD
:1055C0003091EB20218332830F900FBE08952091FC
:1055D000E520FC0120832091EA203091EB202183FB
:1055E00032830895CF93DF930FB6F8940F924091D2
:1055F000EA205091EB20DC011196ED91FC9112977D
:10560000EB01288139812F3FDFEF3D07C9F0B091D1
:10561000E520EC01A881BA1719F04E175F0790F446
:105620004E1B5F0BFB014217530738F4241B350B4D
:10563000208331830E94E72A03C01082118202C0B6
:1056400080E001C081E00F900FBEDF91CF910895FF
:1056500081E08093E62008958091DD209091DE2006
:1056600008950F931F93CF93DF93FC01009709F4E4
:1056700055C08689A091DD20B091DE2056969C9180
:10568000891708F041C02485358537FD0CC0A091ED
:10569000DD20B091DE2056969C9124E030E0291B5D
:1056A00031092487358729E0829FC0011124815E5A
:1056B0009E4D2285338528173907E9F48F01EF01C4
:1056C0002296CE010E942D34E091DD20F091DE2063
:1056D0009689F801968B8091E920891710F49093B0
:1056E000E920F9E09F9FC0011124BE01815E9E4D1B
:1056F0000E94D43307C0A091DD20B091DE205696E1
:105700008C91868B81E00BC0A091DD20B091DE20D2
:1057100081E021A156969C91291708F080E0DF9145
:10572000CF911F910F9108950F931F93CF93DF9304
:10573000FC01009711F480E02CC082A1815082A36B
:10574000268991A12917B9F38111F5CFEF018F01B6
:105750000E5F1F4FC8010E942D3499A19E8B492FC7
:1057600050E024E030E0241B350B2C873D878091EE
:10577000E920891710F49093E92029E0249FC001C3
:10578000259F900D1124B801815E9E4D0E94D43357
:1057900081E0DF91CF911F910F9108950F931F9397
:1057A000CF93DF93FC010097D9F181A1681708F42A
:1057B000682F86898617A1F192A1913089F5668BB1
:1057C0002485358537FD06C024E030E0261B3109ED
:1057D0002487358729E0829FC0011124815E9E4D78
:1057E0002285338528173907D9F4EF018F010E5F21
:1057F0001F4FC8010E942D349E898091E92089178E
:1058000010F49093E92029E0929FC0011124B8017F
:10581000815E9E4DDF91CF911F910F910C94D433F7
:10582000DF91CF911F910F910895E091DD20F091CC
:10583000DE2084859585E091DD20F091DE20A09129
:10584000DD20B091DE2056964C9124E030E0241B00
:1058500031092487358708958091DD209091DE20DD
:10586000892B39F0E091DD20F091DE2082A18F5F5D
:1058700082A38091DD209091DE2008950F931F93E5
:10588000182FCB010FB6F8940F92E091DD20F09124
:10589000DE2043A154A165A176A1452B462B472BC1
:1058A00069F4E091DD20F091DE2021E027A300974C
:1058B00029F061E00E9468250E94233B0F900FBEF3
:1058C0000FB6F8940F92E091DD20F091DE2063A1F5
:1058D00074A185A196A16115710581059105A9F0B5
:1058E000E091DD20F091DE20112329F013A214A213
:1058F00015A216A20AC08B019C01015011092109B1
:10590000310903A314A325A336A3E091DD20F09170
:10591000DE2017A20F900FBE1F910F9108954F9296
:105920005F926F927F928F929F92AF92BF92EF920F
:10593000FF920F931F93CF93DF9300D01F92CDB7A9
:10594000DEB70FB6F8940F92E091DD20F091DE20E3
:10595000E7A1E23079F1E091DD20F091DE2043A073
:1059600054A065A076A04B015C0180949094A09413
:10597000B094D501C40184219521A621B72183A328
:1059800094A3A5A3B6A3E091DD20F091DE2081E0F1
:1059900087A3E114F10471F061E0C70129833A8320
:1059A0004B835C830E9468250E94233B5C814B8172
:1059B0003A8129810F900FBE0FB6F8940F9201150E
:1059C000110569F0E091DD20F091DE2083A194A122
:1059D000A5A1B6A1F80180839183A283B383E0914E
:1059E000DD20F091DE2087A18230C1F4E091DD203E
:1059F000F091DE2083A194A1A5A1B6A1BA01A901CD
:105A0000409550956095709584239523A623B723E0
:105A100083A394A3A5A3B6A381E001C080E0E09195
:105A2000DD20F091DE2017A20F900FBE2496CDBF8F
:105A3000DEBFDF91CF911F910F91FF90EF90BF904C
:105A4000AF909F908F907F906F905F904F90089550
:105A50000F931F93CF93DF93FC010FB6F8940F922F
:105A60000115110549F083A194A1A5A1B6A1E801F2
:105A700088839983AA83BB8337A182E087A32230DE
:105A800089F058F4213001F583A194A1A5A1B6A114
:105A9000482B592B6A2B7B2B13C0233089F02430E1
:105AA00069F012C083A194A1A5A1B6A10196A11D80
:105AB000B11D83A394A3A5A3B6A306C0323049F1B8
:105AC00043A354A365A376A3313009F5EF018F01F9
:105AD0000E5F1F4FC8010E942D349E898091E920DE
