:100000000C94282F0C944E2F0C944E2F0C944E2FA2
:100010000C944E2F0C944E2F0C944E2F0C944E2F6C
:100020000C944E2F0C944E2F0C944E2F0C944E2F5C
:100030000C944E2F0C944E2F0C946F4E0C944E2F0C
:100040000C944E2F0C944E2F0C944E2F0C944E2F3C
:100050000C944E2F0C944E2F0C944E2F0C944E2F2C
:100060000C944E2F0C944E2F0C944E2F0C944E2F1C
:100070000C944E2F0C944E2F0C944E2F0C944E2F0C
:100080000C944E2F0C944E2F0C944E2F0C944E2FFC
:100090000C944E2F0C944E2F0C944E2F0C944E2FEC
:1000A0000C944E2F0C944E2F0C944E2F0C944E2FDC
:1000B0000C944E2F0C944E2F0C944E2F0C944E2FCC
:1000C0000C944E2F0C944E2F0C944E2F0C944E2FBC
:1000D0000C944E2F0C944E2F0C944E2F0C944E2FAC
:1000E0000C944E2F0C944E2F0C944E2F0C944E2F9C
:1000F0000C944E2F0C944E2F0C944E2F0C944E2F8C
:100100000C944E2F0C944E2F0C944E2F0C944E2F7B
:100110000C944E2F0C944E2F0C944E2F0C944E2F6B
:100120000C944E2F0C944E2F0C944E2F0C944E2F5B
:100130000C944E2F0C944E2F0C944E2F0C944E2F4B
:100140000C944E2F0C944E2F0C944E2F0C944E2F3B
:100150000C944E2F0C944E2F0C944E2F0C944E2F2B
:100160000C944E2F0C944E2F0C944E2F0C944E2F1B
:100170000C944E2F0C944E2F0C944E2F0C944E2F0B
:100180000C944E2F0C944E2F0C944E2F0C944E2FFB
:100190000C944E2F0C944E2F0C944E2F0C944E2FEB
:1001A0000C944E2F0C944E2F0C944E2F0C944E2FDB
:1001B0000C944E2F0C944E2F0C944E2F0C944E2FCB
:1001C0000C944E2F0C944E2F0C944E2F0C944E2FBB
:1001D0000C944E2F0C944E2F0C944E2F0C944E2FAB
:1001E0000C944E2F0C944E2F0C944E2F0C944E2F9B
:1001F0000C944E2F0C94502F0C9465370C94C238ED
:100200000C940930FFFFFFFFFFFFFFFFFFFFE773C5
:10021000E773E773E773E773E773E773E773E7730E
:10022000E773E773800380039FFF9FFF9FFFFFFF3C
:10023000FFFFFE3FFE3FFEFFFEFFFEFFE00FC00799
:100240008EE39EF39EF39EF39EF39EF39EF39EF346
:100250008EE3C007E00FFEFFFEFFFEFFFEFFFEFF86
:10026000F39FE38FF39FFFFFFFFFF83FE01FC7CF30
:10027000CFE7CFE7C007C007FFE7FFE7FFE7CF8F74
:10028000C00FF03FFFFFFFFFFFFFFFFFFFFFEFFF8C
:10029000C03FE01FFFCFFFE7F067E017C7C7CFE31E
:1002A000CFE38FE38FE3CFE7CFE7CFE7E78FE00F31
:1002B000F83FFFFFFFFFFFFFFFFFFFFFFFFFFFFF15
:1002C000FFFFFFFFFFFFFFFFFC1FFBEFF7FFF7FF45
:1002D000F01FF3E7F7F3F7FBF3FBF4F7C60FFFFFAD
:1002E000FFFFFFFFFFFFFFFFFFFFFFFFFFFFFFFF1E
:1002F000FFFFFFFFFFFFFFFFFFFFFFFFFFFFFFFF0E
:10030000FFFFFEFFFFFFFFFFFFFFFFFFFFFFFFFFFE
:10031000FFFFFFFFFFFFFFFFFFFFFFFEFFFFFFFFEE
:10032000FFFFFFFFFFFFFFFFFFFFFFFFFFFFFFFFDD
:10033000FFFFFFFFFEFFFFFFFFFFFFFFFFFFFFFFCE
:10034000FFFFFFFFFFFFFFFFFFFFFFFFFFFEFFFFBE
:10035000FFFFFFFFFFFFFFFFFFFFFFFFFFFFFFFFAD
:10036000FFFFFFFFFFFFFEFFFFFFFFFFFFFFFFFF9E
:10037000FCE7FCFFFFFFFFFFFFFFFFFFFFFFFFFEAC
:10038000FFFFFFFFFFFFFFFFFFFCE7FCFFFE3F1C3F
:1003900078FFFFFFFFFFFFFFFEFFFFFFFFFFFFFFF5
:1003A000FFFFFCFFFCFFFE1E1E79FFFFFFFFFFFFAC
:1003B000FFFEFFFFFFFFFFFFFFFFFFFCFFFCFFFE55
:1003C0001E1F31FFFFFFFFFFFFFFFEFFFFFFFFFFCD
:1003D000FFFFFFF07CE784F87E5C9F13FFFFFFFFC9
:1003E000FFFFFFFEFFFFFFFFFFFFFFFFE01CE70037
:1003F000E01E4C9F87FFFFFFFFFFFFFFFEFFFFFF99
:10040000FFFFFFFFFFC79CE638E79E4C9FC7FFFF3B
:10041000FFFFFFFFFFFEFFFFFFFFFFFFFFFFCFCC50
:10042000E67CCFCE619FC7FFFFFFFFFFFFFFFEFF10
:10043000FFFFFFFFFFFFFFC00CE67CCFCE619F8771
:10044000FFFFFFFFFFFFFFFEFFFFFFFFFFFFFFFFBD
:10045000C00CE67CCFCE739F93FFFFFFFFFFFFFF33
:10046000FEFFFFFFFFFFFFFFFFFFCCE67CCFCE7359
:100470009F31FFFFFFFFFFFFFFFEFFFFFFFFFFFFBB
:10048000FFFFDF9CE638E79E7F9E39FFFFFFFFFFFF
:10049000FFFFFEFFFFFFFFFFFFFFFFC01CE700E0C5
:1004A0001E7F9E7CFFFFFFFFFFFFFFFEFFFFFFFFA2
:1004B000FFFFFFFFE07CE784F87E7F9C7C7FFFFFEF
:1004C000FFFFFFFFFEFFFFFFFFFFFFFFFFFFFFFF3D
:1004D000FFFFFFFFFFFFFFFFFFFFFFFFFFFEFFFF2D
:1004E000FFFFFFFFFFFFFFFFFFFFFFFFFFFFFFFF1C
:1004F000FFFFFFFFFFFFFEFFFFFFFFFFFFFFFFFF0D
:10050000FFFFFFFFFFFFFFFFFFFFFFFFFFFFFFFEFC
:10051000FFFFFFFFFFFFFFFFFFFFFFFFFFFFFFFFEB
:10052000FFFFFFFFFFFFFFFFFEFFFFFFFFFFFFFFDC
:10053000FFFFFFFFFFFFFFFFFFFFFFFFFFFFFFFFCB
:10054000FFFEFFFFFFFFFFFFFFFFFFFFFFFFFFFFBC
:10055000FFFFFFFFFFFFFFFFFFFFFEFFFFFFFFFFAC
:10056000FFFFFFFFFFFFFFFFFFFFFFFFFFFFFFFF9B
:10057000FFFFFFFEFFFFFFFFFFFFFFFFFFFFFFFF8C
:10058000FFFFFFFFFFFFFFFFFFFFFFFFFEFFFFFF7C
:10059000FFFFFFFFFFFFFFFFFFFFFFFFFFFFFFFF6B
:1005A000FFFFFFFFFFFEFFFFFFFFFFFFFFFFFFFF5C
:1005B000FFFFFFFFFFFFFFFFFFFFFFFFFFFFFEFF4C
:1005C000FFFFFFFFFFFFFFFFFFFFFFFFFFFFFFFF3B
:1005D000FFFFFFFFFFFFFFFEFFFFFFFFFFFFFFFF2C
:1005E000FFFFFFFFFFFFFFFFFFFFFFFFFFFFFFFF1B
:1005F000FEFFFFFFFFFFFFFFFFFFFFFFFFFFFFFF0C
:10060000FFFFFFFFFFFFFFFFFFFEFFFFFFFFFFFFFB
:10061000FFFFFFFFFFFFFFFFFFFFFFFFFFFFFFFFEA
:10062000FFFFFEFFFFFFFFFFFFFFFFFFFFFFFFFFDB
:10063000FFFFFFFFFFFFFFFFFFFFFFFEFFFFFFFFCB
:10064000FFFFFFFFFFFFFFFFFFFFFFFFFFFFFFFFBA
:10065000FFFFFFFFFEFFFFFFFFFFFFFFFFFFFFFFAB
:10066000FFFFFFFFFFFFFFFFFFFFFFFFFFFEFFFF9B
:10067000FFFFFFFFFFFFFFFFFFFFFFFFFFFFFFFF8A
:10068000FFFFFFFFFFFFFEFFFFFFFFFFFFFFFFFF7B
:10069000FFFFFFFFFFFFFFFFFFFFFFFFFFFFFFFE6B
:1006A000FFFFFFFFFFFFFFFFFFFFFFFFFFFFFFFF5A
:1006B000FFFFFFFFFFFFFFFFFEFFFFFFFFFFFFFF4B
:1006C000FFFFFFFFFFFFFFFFFFFFFFFFFFFFFFFF3A
:1006D000FFFEFFFFFFFFFFFFFFFFFFFFFFFFFFFF2B
:1006E000FFFFFFFFFFFFFFFFFFFFFEFFFFFFFFFF1B
:1006F000FFFE07FFFFFFFFFFFFFBFEFFFFFFFFFF08
:10070000FFFFFFFEFFFFFFFFFFFFFC03FFFFFFFFF9
:10071000FFFFF9FE7FFFFFFFFFFFFFFFFEFFFFFF71
:10072000FFFFFFF8F3FFFFFFFFFFFFF8FC7FFFFF76
:10073000FFFFFFFFFFFEFFFFFFFFFFFFF9F3FFFFDC
:10074000FFFFFFFFF8787FFFFFFFFFFFFFFFFEFFC8
:10075000FFFFFFFFFFF9F3FFFFFFFFFFFFF8307F11
:10076000FFFFFFFFFFFFFFFEFFFFFF80F8F9F9F338
:10077000E03E3E7E00F80D837FFFFFFFFFFFFFFF9F
:10078000FEFFFFFF00FC79FCF3C01F1E7C00F00C95
:10079000C33FFFFFFFFFFFFFFFFEFFFFFE3FFE39EE
:1007A000F8038F8F8E78FCE3FCE73FFFFFFFFFFF2E
:1007B000FFFFFEFFFFFE7FFF19F0039FCFC679FC0E
:1007C000E7FCFF3FFFFFFFFFFFFFFFFEFFFFFE0015
:1007D000FF89E3F39FCFE279FCE00CFF3FFFFFFFCF
:1007E000FFFFFFFFFEFFFFFE007FC1E7F39FCFF09B
:1007F00079FCE006FFBFFFFFFFFFFFFFFFFEFFFFEB
:10080000FE7E3FE1E7F39FCFF879FCE7E27F9FFFB1
:10081000FFFFFFFFFFFFFEFFFFFE7F3FC1E7F39FEC
:10082000CFF079FCE7F27F9FFFFFFFFFFFFFFFFEA6
:10083000FFFFFE7F3F89E7F39FCFE279FCE7F27F7E
:100840009FFFFFFFFFFFFFFFFEFFFFFE7F3F19E758
:10085000F39FCFC679FCE7F27F9FFFFFFE3FFFFFCC
:10086000FFFEFFFFFE7E3E39E3F38F8F8E78FCE7BD
:10087000E27F9FFFFFF80FFFFFFFFEFFFFFE007C00
:1008800079F003C01F1E7C00E0073FCFFFFFF00799
:10089000FFFFFFFEFFFFFE00F8F9F803E03E3E7E9B
:1008A00000E00F3FCFFFFFF007FFFFFFFEFFFFFF5E
:1008B000FFFFFFFFFFFFFFFFFFFCFFFFFFFFFFFF4B
:1008C000F003FFFFFFFEFFFFFFFFFFFFFFFFFFFF44
:1008D000FFFFFCFFFFFFFFFFFFF003FFFFFFFEFF37
:1008E000FFFFFFFFFFFFFFFFFFFFFFFCFFFFFFFF1B
:1008F000FFFFF003FFFFFFFEFFFFFFFFFFFFFFFF14
:10090000FFFFFFFFFCFFFFFFFFFFFFF003FFFFFF05
:10091000FEFFFFFFFFFFFFFFFFFFFFFFFFFCFFFFEB
:10092000FFFFFFFFF803FFFFFFFEFFFFFFFFFFFFDB
:10093000FFFFFFFFFFFFFFFFFFFFFFFFFFF803FFCA
:10094000FFFFFEFFFFFFFFFFFFFFFFFFFFFFFFFFB8
:10095000FFFFFFFFFFFFF803FFFFFFFEFFFFFFFFAB
:10096000FFFFFFFFFFFFFFFFFFFFFFFFFFFFFFFC9A
:1009700003FFFFFFFEFFFFFFFFFFFFFFFFFFFFFF84
:10098000FFFFFFFFFFFFFFFFFC01FFFFFFFEFFFF79
:10099000FFFFFFFFFCF3FFFFFFFFFFFFFFFFFFFF76
:1009A000FFFC01FFFFFFFEFFFFFFFFFFFFFCF3FF68
:1009B000FFFFFFFFFFFFFFFFFFFFFC01FFFFFFFE49
:1009C000FFFFFFFFFFFFFCF3FFFFFFFFFFFFFFFF46
:1009D000FFFFFFFC01FFFFFFFEFFFFFFFFFFFFFC2C
:1009E000F3FFFFFFFFFFFFFFFFFFFFFFFE01FFFF22
:1009F000FFFEFFFFFFFFFFFFFC73FFFFFFFFFFFF97
:100A0000FFFFFFFFFFFE01FFFFFFFEFFFFFFFFFFF6
:100A1000FFFC33FFFFFFFFFFFFFFFFFFFFFFFE01B4
:100A2000FFFFFFFEFFFFFFFFFFFFFC93FFFFFFFF46
:100A3000FFFFFFFFFFFFFFFF01FFFFFFFEFFFFFFC5
:100A4000FFFFFFFCC3FFFFFFFFFFFFFFFFFFFFFFF5
:100A5000FF01FFFFFFFEFFFFFFFFFFFFFCE3FFFFC4
:100A6000FFFFFFFFFFFFFFFFFFFF01FFFFFFFEFF95
:100A7000FFFFFFFFFFFCF3FFFFFFFFFFFFFFFFFF95
:100A8000FFFFFF01FFFFFFFEFFFFFFFFFFFFFCF384
:100A9000FFFFFFFFFFFFFFFFFFFFFFFF01FFFFFF64
:100AA000FEFFFFFFFFFFFFFCF3FFFFFFFFFFFFFF66
:100AB000FFFFFFFFFF80FFFFFFFEFFFFFFFFFFFFC6
:100AC000FCF3FFFFFFFFFFFFFFFFFFFFFFFF80FFC4
:100AD000FFFFFEFFFFFFFFFFFFFFFFFFFFFFFFFF27
:100AE000FFFFFFFFFFFFFF80FFFFFFFEFFFFFFFF96
:100AF000FFFFFFFFFFFFFFFFFFFFFFFFFFFFFFFF06
:100B0000C1FFFFFFFEFFFFFFFFFFFFFFFFFFFFFF34
:100B1000FFFFFFFFFFFFFFFFFFC1FFFFFFFEFFFF24
:100B2000FFFFFFFFFFFFFFFFFFFFFFFFFFFFFFFFD5
:100B3000FFFFC0FFFFFFFEFFFFFFFFFFFFFFFFFF05
:100B4000FFFFFFFFFFFFFFFFFFFFFFE0FFFFFFFED5
:100B5000FFFFFFFFFFFFFFFFFFFFFFFFFFFFFFFFA5
:100B6000FFFFFFFFE0FFFFFFFEFFFFFFFFFFFFFFB5
:100B7000FFFFFFFFFFFFFFFFFFFFFFFFFFE0FFFFA4
:100B8000FFFEFFFFFFFFFFFFFFFFFFFFFFFFFFFF76
:100B9000FFFFFFFFFFFFE0FFFFFFFEFFFFFFFFFF85
:100BA000FFFFFFFFFFFFFFFFFFFFFFFFFFFFFFE074
:100BB000FFFFFFFEFFFFFFFFFFFFFFFFFFFFFFFF46
:100BC000FFFFFFFFFFFFFFFFF07FFFFFFEFFFFFFC5
:100BD000FFFFFFFFFFFFFFFFFFFFFFFFFFFFFFFF25
:100BE000FFF07FFFFFFEFFFFFFFFFFFFFFFFFFFFA5
:100BF000FFFFFFFFFFFFFFFFFFFFF07FFFFFFEFF95
:100C0000FFFFFFFFFFFFFFFFFFFFFFFFFFFFFFFFF4
:100C1000FFFFFFF07FFFFFFEFFFFFFFFFFFFFFFF74
:100C2000FFFFFFFFFFFFFFFFFFFFFFFFF07FFFFF63
:100C3000FEFFFFFFFFFFFFFFFFFFFFFFFFFFFFFFC5
:100C4000FFFFFFFFFFF07FFFFFFEFFFFFFFFFFFF44
:100C5000FFFFFFFFFFFFFFFFFFFFFFFFFFFFF07F33
:100C6000FFFFFEFFFFFFFFFFFFFFFFFFFFFFFFFF95
:100C7000FFFFFFFFFFFFFFF83FFFFFFEFFFFFFFF4C
:100C8000FFFFFFFFFFFFFFFFFFFFFFFFFFFFFFFF74
:100C9000FC7FFFFFFEFFFFFFFFFFFFFFFFFFFFFFE8
:100CA000FFFFFFFFFFFFFFFFFFFC7FFFFFFEFFFFD8
:100CB000FFFFFFFFFFFFFFFFFFFFFFFFFFFFFFFF44
:100CC000FFFFFC7FFFFFFEFFFFFFFFFFFFFFFFFFB8
:100CD000FFFFFFFFFFFFFFFFFFFFFFFC7FFFFFFEA8
:100CE000FFFFFFFFFFFFFFFFFFFFFFFFFFFFFFFF14
:100CF000FFFFFFFFFC7FFFFFFEFFFFFFFFFFE01F87
:100D0000FFFFFFFFFFFFFFFFFFFFFFFFFFF83FFFBA
:100D1000FFFEFFFFFFC000000007FFFFFFFFFFFF18
:100D2000FFFFFFFFFFFFFC1FFFFFFEFFFFFF800035
:100D3000000001FFFFFFFFFFFFFFFFFFFFFFFFFCC2
:100D40001FFFFFFEFFFFFF0000000000FFFFFFFF8F
:100D5000FFFFFFFFFFFFFFFFFC1FFFFFFEFFFFFF87
:100D600000000000001FFFFFFFFFFFFFFFFFFFFF6E
:100D7000FFFC1FFFFFFEFFFFFF00000000001FFF42
:100D8000FFFFFFFFFFFFFFFFFFFFFC1FFFFFFEFF57
:100D9000FFFE00000000000FFFFFFFFFFFFFE0FF6E
:100DA000FFFFFFFE3FFFFFFEFFFFFC000000000013
:100DB0000FFFFFFFFFFFFFC07FFFFFFFFE1FFFFFD3
:100DC000FEFFFFFC01FFE000000FFFFFFFFFFFFF42
:100DD000807FFFFFFFFE1FFFFFFEFFFFF803FFFF07
:100DE000E00007FFFFFFFFFFFF807FFFFFFFFF1F08
:100DF000FFFFFEFFFFF803FFFFFFF003FFFFFFFF12
:100E0000FFFF803FFFFFFFFF1FFFFFFEFFFFF0031D
:100E1000FFFFFFF803FFFFFFFFFFFF803FFFFFFF24
:100E2000FE0FFFFFFEFFFFF003FFFFFFF803FFFFD2
:100E3000FFFFC1FF803FFFFFFFFE0FFFFFFEFFFF31
:100E4000E007FFFFFFF803FFFFFFFF80FF803FFF8A
:100E5000FFFFFF07FFFFFEFFFFC007FFFFFFF803D5
:100E6000FFFFFFFF007F803FFFFFFFFF07FFFFFE49
:100E7000FFFFC00FFFFFFFF803FFFFFFFF003F80F2
:100E80003FFFFFFFFF07FFFFFEFFFF801FFFFFFF8A
:100E9000F803FFFFFFFF003F803FFFFFFFFF07FF5B
:100EA000FFFEFFFF801FFFFFFFF803FFFFFFFF00B4
:100EB0001FC01FFFFFFFFF83FFFFFEFFFF803FFFFD
:100EC000FFFFF803FFFFFFFF001FC01FFFFFFFFF33
:100ED00083FFFFFEFFFF807FFFFFFFF803FFFFFFA1
:100EE000FF001FC01FFFFFFFFF83FFFFFEFFFF008C
:100EF0007FFFFFFFF803FFFFFFFE001FC01FFFFF84
:100F0000FFFFC3FFFFFEFFFF00FFFFFFFFF803FF30
:100F1000FFFFFE001FC01FFFFFFFFFC1FFFFFEFF1F
:100F2000FE00FFFFFFFFF803FFFFFFFC001FC01FD5
:100F3000FFFFFFFFE0FFFFFEFFFE00FFFFFFFFF8E8
:100F400003FFFFFFFC001FC01FFFFFFFFFE0FFFFCD
:100F5000FEFFFE00FFFFFFFFF803FFFFFFFC001F87
:100F6000E00FFFFFFFFFE07FFFFEFFFE00FFFFFF40
:100F7000FFF803FFFFFFFC001FE00FFFFFFFFFF084
:100F80007FFFFEFFFE00FFFFFFFFF803FFFFFFFCF8
:100F9000001FE00FFFFFFFFFF07FFFFEFFFE00FFDF
:100FA000FFFFFFFC03FFFFFFFE001FE00FFFFFFF3F
:100FB000FFF83FFFFEFFFE00FFFFFFFFFC03FFFF08
:100FC000FFFE001FE00FFFFFFFFFF81FFFFEFFFE09
:100FD000007FFFFFFFFE03FFFFFFFE001FE00FFF8C
:100FE000FFFFFFFC1FFFFEFFFE007FFFFFFFFE0372
:100FF000FFFFFFFC001FF00FFFFFFFFFFC0FFFFED6
:10100000FFFE003FFFFFFFFE03FFFFFFFC001FF09E
:101010000FFFFFFFFFFC07FFFEFFFF000FFFFFFFBB
:10102000FE03FFFFFFFC001FF80FFFFFFFFFFE079F
:10103000FFFEFFFF0007FFFFFFFE03FFFFFFFC00B7
:101040001FF80FFFFFFFFFFF03FFFEFFFF8003FFFF
:10105000FFFFFF07FFFFFFF8001FF80FFFFFFFFF75
:10106000FF03FFFEFFFF80007FFFFFFF03FFFFFF87
:10107000F8001FF80FFFFFFFFFFF81FFFEFFFF805B
:101080000003FFFFFF03FFFFFFF0001FF80FFFFF4C
:10109000FFFFFF80FFFEFFFFC000003FFFFF03FFD9
:1010A000FFFFE0001FF80FFFFFFFFFFFC07FFEFF05
:1010B000FFE0000000FFFF03FFFFFFC0001FF80F6D
:1010C000FFFFFFFFFFC07FFEFFFFF800000000FFF3
:1010D00081FFFFFF80000FF80FFFFFFFFFFFE03FE2
:1010E000FEFFFFFC000000000001FFFFFF80000F7B
:1010F000F80FFFFFFFFFFFE03FFEFFFFFE000000D5
:10110000000001FFFFFF000007F80FFFFFFFFFFFD8
:10111000F01FFEFFFFFF800000000001FFFFFF0047
:101120000001F00FFFFFFFFFFFF01FFEFFFFFFC0FA
:101130000000000001FFFFFF000000E007FE0FFFBE
:10114000FFFFF81FFEFFFFFFF80000000001FFFF98
:10115000FF0020002007FC07FFFFFFF81FFEFFFF36
:10116000FFFFC000000000FFFFFF007000000FF84D
:1011700003FFFFFFFC0FFEFFFFFFFFFF000000006B
:10118000FFFFFF007800000FF803FFFFFFF80FFEDE
:10119000FFFFFFFFFFF8000000FFFFFF80FC0000E3
:1011A0001FF803FFFFFFFC07FEFFFFFFFFFFFFF03D
:1011B00000007FFFFFC1FE00001FF803FFFFFFFCE0
:1011C00007FEFFFFFFFFFFFFFE00003FFFFFFFFEE8
:1011D00000001FF003FFFFFFFC03FEFFFFFFFFFF08
:1011E000FFFFF0003FFFFFFFFF00003FF003FFFFA6
:1011F000FFFE01FEFFFFFFFFFFFFFFFF883FFFFF36
:10120000FFFFC0007FF007FFFFFFFE01FEFFFFFFB3
:10121000FFFFFFFFFFF81FFFFFFFFFC000FFF0070A
:10122000FFFFFFFE01FEFFFFFFFFFFFFFFFFF81FB5
:10123000FFFFFFFFE001FFF007FFFFFFFF01FEFFE1
:10124000FFFFFFFFFFFFFFFC1FFFFFFFFFF003FF9C
:10125000F007FFFFFFFF00FEFFFFFFFFFFFFFFFFA5
:10126000FC0FFFFFFFFFFC1FFFF007FFFFFFFF006A
:101270007EFFFFFFFFFFFFFFFFFE0FFFFFFFFFFFF0
:10128000FFFFF007F8000000007EFFFFFFFFFFFFF9
:10129000FFFFFF0FFFFFFFFFFFFFFFF00000000059
:1012A00000007EFFFFFFFFFFFFFFFFFF87FFFFFF45
:1012B000FFFFFFFFF00000000000003EFFFFFFFF08
:1012C000FFFFFFFFFF87FFFFFFFFFFFFFFF00000B3
:1012D000000000001EFFFFFFFFFFFFFFFFFFC3FF37
:1012E000FFFFFFFFFFFFF00000000000001EFFFFF8
:1012F000FFFFFFFFFFFFFFC3FFFFFFFFFFFFFFF841
:101300000000000000001EFFFFFFFFFFFFFFFFFFC8
:10131000E3FFFFFFFFFFFFFFF80000000000003EBB
:10132000FFFFFFFFFFFFFFFFFFC1FFFFFFFFFFFF0B
:10133000FFF80000000000007EFFFFFFFFFFFFFF3F
:10134000FFFFE0FFFFFFFFFFFFFFFC0000000000CA
:1013500000FEFFFFFFFFFFFFFFFFFFE0FFFFFFFFBC
:10136000FFFFFFFFF001FFFFFFFFFEFFFFFFFFFF9B
:10137000FFFFFFFFE0FFFFFFFFFFFFFFFFFFFFFF9C
:10138000FFFFFFFEFFFFFFFFFFFFFFFFFFF07FFFFD
:10139000FFFFFFFFFFFFFFFFFFFFFFFFFEFFFFFF5E
:1013A000FFFFFFFFFFFFF8FFFFFFFFFFFFFFFFFF54
:1013B000FFFFFFFFFFFEFFFFFFFFFFFFFFFFFFF845
:1013C0007FFFFFFFFFFFFFFFFFFFFFFFFFFFFEFFAE
:1013D000FFFFFFFFFFFFFFFFF87FFFFFFFFFFFFFA4
:1013E000FFFFFFFFFFFFFFFEFFFFFFFFFFFFFFFF0E
:1013F000FFFC3FFFFFFFFFFFFFFFFFFFFFFFFFFFC0
:10140000FEFFFFFFFFFFFFFFFFFFFC1FFFFFFFFFD0
:10141000FFFFFFFFFFFFFFFFFFFEFFFFFFFFFFFFDD
:10142000FFFFFFFC1FFFFFFFFFFFFFFFFFFFFFFFAF
:10143000FFFFFEFFFFFFFFFFFFFFFFFFFC1FFFFFA0
:10144000FFFFFFFFFFFFFFFFFFFFFFFEFFFFFFFFAD
:10145000FFFFFFFFFFFE0FFFFFFFFFFFFFFFFFFF8D
:10146000FFFFFFFFFEFFFFFFFFFFFFFFFFFFFE0F7E
:10147000FFFFFFFFFFFFFFFFFFFFFFFFFFFEFFFF7D
:10148000FFFFFFFFFFFFFFFE0FFFFFFFFFFFFFFF5D
:10149000FFFFFFFFFFFFFEFFFFFFFFFFFFFFFFFF5D
:1014A000FE07FFFFFFFFFFFFFFFFFFFFFFFFFFFE46
:1014B000FFFFFFFFFFFFFFFFFFFE07FFFFFFFFFF35
:1014C000FFFFFFFFFFFFFFFFFEFFFFFFFFFFFFFF2D
:1014D000FFFFFF03FFFFFFFFFFFFFFFFFFFFFFFF18
:1014E000FFFEFFFFFFFFFFFFFFFFFFFE03FFFFFF0A
:1014F000FFFFFFFFFFFFFFFFFFFFFEFFFFFFFFFFFD
:10150000FFFFFFFFFF03FFFFFFFFFFFFFFFFFFFFE7
:10151000FFFFFFFEFFFFFFFFFFFFFFFFFFFF03FFD8
:10152000FFFFFFFFFFFFFFFFFFFFFFFFFEFFFFFFCC
:10153000FFFFFFFFFFFFFF83FFFFFFFFFFFFFFFF37
:10154000FFFFFFFFFFFEFFFFFFFFFFFFFFFFFFFFAC
:1015500081FFFFFFFFFFFFFFFFFFFFFFFFFFFEFF1A
:10156000FFFFFFFFFFFFFFFFFF81FFFFFFFFFFFF09
:10157000FFFFFFFFFFFFFFFEFFFFFFFFFFFFFFFF7C
:10158000FFFF80FFFFFFFFFFFFFFFFFFFFFFFFFFEA
:10159000FEFFFFFFFFFFFFFFFFFFFF80FFFFFFFFDB
:1015A000FFFFFFFFFFFFFFFFFFFEFFFFFFFFFFFF4C
:1015B000FFFFFFFF80FFFFFFFFFFFFFFFFFFFFFFBA
:1015C000FFFFFEFFFFFFFFFFFFFFFFFFFF80FFFFAB
:1015D000FFFFFFFFFFFFFFFFFFFFFFFEFFFFFFFF1C
:1015E000FFFFFFFFFFFF007FFFFFFFFFFFFFFFFF8A
:1015F000FFFFFFFFFEFFFFFFFFFFFFFFFFFFFF00FB
:101600007FFFFFFFFFFFFFFFFFFFFFFFFFFEFFFF6B
:10161000FFFFFFFFFFFFFFFF007FFFFFFFFFFFFF59
:10162000FFFFFFFFFFFFFEFFFFFFFFFFFFFFFFFFCB
:10163000FF80FFFFFFFFFFFFFFFFFFFFFFFFFFFE3A
:10164000FFFFFFFFFFFFFFFFFFFFC1FFFFFFFFFFE8
:10165000FFFFFFFFFFFFFFFFFEFFFFFFFFFFFFFF9B
:10166000FFFFFFE3FFFFFFFFFFFFFFFFFFFFFFFFA6
:10167000FFFE1018180818180800000000000000ED
:1016800000000000000013144412000000000000DD
:1016900000020201111212222266696959589999B1
:1016A0008800000000F8B4135135515119010000B1
:1016B000000000000000000000000000000000002A
:1016C000000000000000000000000000000000001A
:1016D000000000000000000000000000000000000A
:1016E00000000000000000000000000000000000FA
:10225000FFFFFFFFFFFFFFFFFFFFFFFFFF0000008B
:10226000000000000000000000000000000000006E
:10227000000000000000000000000000000000005E
:10228000000000000000000000000000000000004E
:10229000000000000000000000000000000000003E
:1022A000000000000000000000000000000000002E
:1022B000F3F3F3F3F3F3F7FFF3F3FFFFFF00000093
:1022C000000000000000000000000000000000000E
:1022D00000000000000000000000000000000000FE
:1022E00000000000000000000000000000000000EE
:1022F00000000000000000000000000000000000DE
:1023000000000000000000000000000000000000CD
:10231000C9E9E9E9FFFFFFFFFFFFFFFFFF00000042
:1023200000000000000000000000000000000000AD
:10233000000000000000000000000000000000009D
:10234000000000000000000000000000000000008D
:10235000000000000000000000000000000000007D
:10236000000000000000000000000000000000006D
:10237000FFB7970101D38181C9E9FFFFFF0000008A
:10238000000000000000000000000000000000004D
:10239000000000000000000000000000000000003D
:1023A000000000000000000000000000000000002D
:1023B000000000000000000000000000000000001D
:1023C000000000000000000000000000000000000D
:1023D000E783C1E9E9C387979781C1E7FF00000060
:1023E00000000000000000000000000000000000ED
:1023F00000000000000000000000000000000000DD
:1024000000000000000000000000000000000000CC
:1024100000000000000000000000000000000000BC
:1024200000000000000000000000000000000000AC
:10243000713494C4E187436B4D9FFFFFFF000000A0
:10244000000000000000000000000000000000008C
:10245000000000000000000000000000000000007C
:10246000000000000000000000000000000000006C
:10247000000000000000000000000000000000005C
:10248000000000000000000000000000000000004C
:10249000E3C1C9E3F3610C1C0061FFFFFF00000012
:1024A000000000000000000000000000000000002C
:1024B000000000000000000000000000000000001C
:1024C000000000000000000000000000000000000C
:1024D00000000000000000000000000000000000FC
:1024E00000000000000000000000000000000000EC
:1024F000E7E7E7E7FFFFFFFFFFFFFFFFFF00000049
:1025000000000000000000000000000000000000CB
:1025100000000000000000000000000000000000BB
:1025200000000000000000000000000000000000AB
:10253000000000000000000000000000000000009B
:10254000000000000000000000000000000000008B
:10255000DFC7E3F3FBF9F9F9FBF3E3C7DF000000A2
:10256000000000000000000000000000000000006B
:10257000000000000000000000000000000000005B
:10258000000000000000000000000000000000004B
:10259000000000000000000000000000000000003B
:1025A000000000000000000000000000000000002B
:1025B000E7C79F9F3F3F3F3F3F1F9FC7E700000088
:1025C000000000000000000000000000000000000B
:1025D00000000000000000000000000000000000FB
:1025E00000000000000000000000000000000000EB
:1025F00000000000000000000000000000000000DB
:1026000000000000000000000000000000000000CA
:10261000DBD3C70101C7D3DBFFFFFFFFFF000000D3
:1026200000000000000000000000000000000000AA
:10263000000000000000000000000000000000009A
:10264000000000000000000000000000000000008A
:10265000000000000000000000000000000000007A
:10266000000000000000000000000000000000006A
:10267000FFE7E7E70101E7E7E7FFFFFFFF000000F3
:10268000000000000000000000000000000000004A
:10269000000000000000000000000000000000003A
:1026A000000000000000000000000000000000002A
:1026B000000000000000000000000000000000001A
:1026C000000000000000000000000000000000000A
:1026D000FFFFFFFFFFFFFFFFF3E3E7F7FB00000053
:1026E00000000000000000000000000000000000EA
:1026F00000000000000000000000000000000000DA
:1027000000000000000000000000000000000000C9
:1027100000000000000000000000000000000000B9
:1027200000000000000000000000000000000000A9
:10273000FFFFFFFFFFC3C3FFFFFFFFFFFF0000001E
:102740000000000000000000000000000000000089
:102750000000000000000000000000000000000079
:102760000000000000000000000000000000000069
:102770000000000000000000000000000000000059
:102780000000000000000000000000000000000049
:10279000FFFFFFFFFFFFFFFFE7E7FFFFFF00000076
:1027A0000000000000000000000000000000000029
:1027B0000000000000000000000000000000000019
:1027C0000000000000000000000000000000000009
:1027D00000000000000000000000000000000000F9
:1027E00000000000000000000000000000000000E9
:1027F000BF9F9FCFCFEFE7F7F3FBF9F9FF00000092
:1028000000000000000000000000000000000000C8
:1028100000000000000000000000000000000000B8
:1028200000000000000000000000000000000000A8
:102830000000000000000000000000000000000098
:102840000000000000000000000000000000000088
:10285000C38119190D31399981C3FFFFFF000000B1
:102860000000000000000000000000000000000068
:102870000000000000000000000000000000000058
:102880000000000000000000000000000000000048
:102890000000000000000000000000000000000038
:1028A0000000000000000000000000000000000028
:1028B000EFE3E1EDEFEFEFEF8181FFFFFF000000BD
:1028C0000000000000000000000000000000000008
:1028D00000000000000000000000000000000000F8
:1028E00000000000000000000000000000000000E8
:1028F00000000000000000000000000000000000D8
:1029000000000000000000000000000000000000C7
:10291000C3819F9F9FCFE7F38181FFFFFF000000EE
:1029200000000000000000000000000000000000A7
:102930000000000000000000000000000000000097
:102940000000000000000000000000000000000087
:102950000000000000000000000000000000000077
:102960000000000000000000000000000000000067
:102970008181CFE7C7839F9F81C1FFFFFF000000D8
:102980000000000000000000000000000000000047
:102990000000000000000000000000000000000037
:1029A0000000000000000000000000000000000027
:1029B0000000000000000000000000000000000017
:1029C0000000000000000000000000000000000007
:1029D000CFCFC7D3D90000DFDFDFFFFFFF0000004C
:1029E00000000000000000000000000000000000E7
:1029F00000000000000000000000000000000000D7
:102A000000000000000000000000000000000000C6
:102A100000000000000000000000000000000000B6
:102A200000000000000000000000000000000000A6
:102A30008383FBFBC3839F9F81E3FFFFFF000000B5
:102A40000000000000000000000000000000000086
:102A50000000000000000000000000000000000076
:102A60000000000000000000000000000000000066
:102A70000000000000000000000000000000000056
:102A80000000000000000000000000000000000046
:102A9000CFC7F3F9C181391981C3FFFFFF000000DF
:102AA0000000000000000000000000000000000026
:102AB0000000000000000000000000000000000016
:102AC0000000000000000000000000000000000006
:102AD00000000000000000000000000000000000F6
:102AE00000000000000000000000000000000000E6
:102AF00081819FDFCFEFE7F7F3FBFFFFFF000000CF
:102B000000000000000000000000000000000000C5
:102B100000000000000000000000000000000000B5
:102B200000000000000000000000000000000000A5
:102B30000000000000000000000000000000000095
:102B40000000000000000000000000000000000085
:102B5000C3819999C383993981C3FFFFFF000000A6
:102B60000000000000000000000000000000000065
:102B70000000000000000000000000000000000055
:102B80000000000000000000000000000000000045
:102B90000000000000000000000000000000000035
:102BA0000000000000000000000000000000000025
:102BB000C381193901839F9FC3F3FFFFFF0000000A
:102BC0000000000000000000000000000000000005
:102BD00000000000000000000000000000000000F5
:102BE00000000000000000000000000000000000E5
:102BF00000000000000000000000000000000000D5
:102C000000000000000000000000000000000000C4
:102C1000FFFFFFE7E7FFFFFFFFE7E7FFFF00000021
:102C200000000000000000000000000000000000A4
:102C30000000000000000000000000000000000094
:102C40000000000000000000000000000000000084
:102C50000000000000000000000000000000000074
:102C60000000000000000000000000000000000064
:102C70000000000000000000000000000000000054
:102C80000000000000000000000000000000000044
:102C90000000000000000000000000000000000034
:102CA0000000000000000000000000000000000024
:102CB0000000000000000000000000000000000014
:102CC0000000000000000000000000000000000004
:102CD000FFBF9FC7F1F8F1C79FBFFFFFFF000000D4
:102CE00000000000000000000000000000000000E4
:102CF00000000000000000000000000000000000D4
:102D000000000000000000000000000000000000C3
:102D100000000000000000000000000000000000B3
:102D200000000000000000000000000000000000A3
:102D30000000000000000000000000000000000093
:102D40000000000000000000000000000000000083
:102D50000000000000000000000000000000000073
:102D60000000000000000000000000000000000063
:102D70000000000000000000000000000000000053
:102D80000000000000000000000000000000000043
:102D90000000000000000000000000000000000033
:102DA0000000000000000000000000000000000023
:102DB0000000000000000000000000000000000013
:102DC0000000000000000000000000000000000003
:102DD00000000000000000000000000000000000F3
:102DE00000000000000000000000000000000000E3
:102DF000C3819D9FCFE7E7FFE7E7FFFFFF000000EC
:102E000000000000000000000000000000000000C2
:102E100000000000000000000000000000000000B2
:102E200000000000000000000000000000000000A2
:102E30000000000000000000000000000000000092
:103870008181F9F9F9F9F9F9F9F9F9818100000083
:103880000000000000000000000000000000000038
:103890000000000000000000000000000000000028
:1038A0000000000000000000000000000000000018
:1038B0000000000000000000000000000000000008
:1038C00000000000000000000000000000000000F8
:1038D000F9F9F3F3F7E7EFCFCF9F9FBFFF000000A9
:1038E00000000000000000000000000000000000D8
:1038F00000000000000000000000000000000000C8
:1039000000000000000000000000000000000000B7
:1039100000000000000000000000000000000000A7
:103920000000000000000000000000000000000097
:1039300083839F9F9F9F9F9F9F9F9F8383000000E4
:103940000000000000000000000000000000000077
:103950000000000000000000000000000000000067
:103960000000000000000000000000000000000057
:103970000000000000000000000000000000000047
:103980000000000000000000000000000000000037
:103990000000000000000000000000000000000027
:1039A0000000000000000000000000000000000017
:1039B0000000000000000000000000000000000007
:1039C00000000000000000000000000000000000F7
:1039D00000000000000000000000000000000000E7
:1039E00000000000000000000000000000000000D7
:1039F00000000000000000000000000000000000C7
:103A000000000000000000000000000000000000B6
:103A100000000000000000000000000000000000A6
:103A20000000000000000000000000000000000096
:103A30000000000000000000000000000000000086
:103A40000000000000000000000000000000000076
:103A50000000000000000000000000000000000066
:103A60000000000000000000000000000000000056
:103A70000000000000000000000000000000000046
:103A80000000000000000000000000000000000036
:103A90000000000000000000000000000000000026
:103AA0000000000000000000000000000000000016
:103AB000FFFFFFC1819F81809C0011FFFF0000007C
:103AC00000000000000000000000000000000000F6
:103AD00000000000000000000000000000000000E6
:103AE00000000000000000000000000000000000D6
:103AF00000000000000000000000000000000000C6
:103B000000000000000000000000000000000000B5
:103B1000F8F8F98101317979390183FFFF0000005C
:103B20000000000000000000000000000000000095
:103B30000000000000000000000000000000000085
:103B40000000000000000000000000000000000075
:103B50000000000000000000000000000000000065
:103B60000000000000000000000000000000000055
:103B7000FFFFFF8381B8FCFCF80183FFFF0000001A
:103B80000000000000000000000000000000000035
:103B90000000000000000000000000000000000025
:103BA0000000000000000000000000000000000015
:103BB0000000000000000000000000000000000005
:103BC00000000000000000000000000000000000F5
:103BD0008F8F9F81809C9C9C9C0021FFFF00000098
:103BE00000000000000000000000000000000000D5
:103BF00000000000000000000000000000000000C5
:103C000000000000000000000000000000000000B4
:103C100000000000000000000000000000000000A4
:103C20000000000000000000000000000000000094
:103C3000FFFFFFC3813C0000FC8183FFFF00000009
:103C40000000000000000000000000000000000074
:103C50000000000000000000000000000000000064
:103C60000000000000000000000000000000000054
:103C70000000000000000000000000000000000044
:103C80000000000000000000000000000000000034
:103C90000703F38080F3F3F3F38000FFFF000000DD
:103CA0000000000000000000000000000000000014
:103CB0000000000000000000000000000000000004
:103CC00000000000000000000000000000000000F4
:103CD00000000000000000000000000000000000E4
:103CE00000000000000000000000000000000000D4
:103CF000FFFFFF8301989C9C1880019F81000000BA
:103D000000000000000000000000000000000000B3
:103D100000000000000000000000000000000000A3
:103D20000000000000000000000000000000000093
:103D30000000000000000000000000000000000083
:103D40000000000000000000000000000000000073
:103D5000F8F8F98901317939793979FFFF000000E4
:103D60000000000000000000000000000000000053
:103D70000000000000000000000000000000000043
:103D80000000000000000000000000000000000033
:103D90000000000000000000000000000000000023
:103DA0000000000000000000000000000000000013
:103DB000E7E7FFE0E0E7E7E7E70000FFFF000000DC
:103DC00000000000000000000000000000000000F3
:103DD00000000000000000000000000000000000E3
:103DE00000000000000000000000000000000000D3
:103DF00000000000000000000000000000000000C3
:103E000000000000000000000000000000000000B2
:103E10009F9FFF81839F9F9F9F9F9F9F8100000087
:103E20000000000000000000000000000000000092
:103E30000000000000000000000000000000000082
:103E40000000000000000000000000000000000072
:103E50000000000000000000000000000000000062
:103E60000000000000000000000000000000000052
:103E7000F8F8F9391989C1C1991939FFFF00000013
:103E80000000000000000000000000000000000032
:103E90000000000000000000000000000000000022
:103EA0000000000000000000000000000000000012
:103EB0000000000000000000000000000000000002
:103EC00000000000000000000000000000000000F2
:103ED000E1E1E7E7E7E7E7E7E7070FFFFF000000BB
:103EE00000000000000000000000000000000000D2
:103EF00000000000000000000000000000000000C2
:103F000000000000000000000000000000000000B1
:103F100000000000000000000000000000000000A1
:103F20000000000000000000000000000000000091
:103F3000FFFFFF1200262626262626FFFF00000090
:103F40000000000000000000000000000000000071
:103F50000000000000000000000000000000000061
:103F60000000000000000000000000000000000051
:103F70000000000000000000000000000000000041
:103F80000000000000000000000000000000000031
:103F9000FFFFFF0800317979797979FFFF00000090
:103FA0000000000000000000000000000000000011
:103FB0000000000000000000000000000000000001
:103FC00000000000000000000000000000000000F1
:103FD00000000000000000000000000000000000E1
:103FE00000000000000000000000000000000000D1
:103FF000FFFFFFC1801C3C3C1C80C3FFFF00000092
:1040000000000000000000000000000000000000B0
:1040100000000000000000000000000000000000A0
:104020000000000000000000000000000000000090
:104030000000000000000000000000000000000080
:104040000000000000000000000000000000000070
:10405000FFFF0800317979390181F9F9F900000091
:104060000000000000000000000000000000000050
:104070000000000000000000000000000000000040
:104080000000000000000000000000000000000030
:104090000000000000000000000000000000000020
:1040A0000000000000000000000000000000000010
:1040B000FFFF8381989C9C9C80819F9F1F00000034
:1040C00000000000000000000000000000000000F0
:1040D00000000000000000000000000000000000E0
:1040E00000000000000000000000000000000000D0
:1040F00000000000000000000000000000000000C0
:1041000000000000000000000000000000000000AF
:10411000FFFF880033F3F3F38080FFFFFF00000010
:10412000000000000000000000000000000000008F
:10413000000000000000000000000000000000007F
:10414000000000000000000000000000000000006F
:10415000000000000000000000000000000000005F
:10416000000000000000000000000000000000004F
:10417000FFFF8180F8E1879D80C1FFFFFF00000005
:10418000000000000000000000000000000000002F
:10419000000000000000000000000000000000001F
:1041A000000000000000000000000000000000000F
:1041B00000000000000000000000000000000000FF
:1041C00000000000000000000000000000000000EF
:1041D000F3F30000F3F3F3730307FFFFFF000000A6
:1041E00000000000000000000000000000000000CF
:1041F00000000000000000000000000000000000BF
:1042000000000000000000000000000000000000AE
:10421000000000000000000000000000000000009E
:10422000000000000000000000000000000000008E
:10423000FFFF8C8C9C9C9C9C0031FFFFFF000000CA
:10424000000000000000000000000000000000006E
:10425000000000000000000000000000000000005E
:10426000000000000000000000000000000000004E
:10427000000000000000000000000000000000003E
:10428000000000000000000000000000000000002E
:10429000FFFF3C1C9999C1C3C3E7FFFFFF0000006B
:1042A000000000000000000000000000000000000E
:1042B00000000000000000000000000000000000FE
:1042C00000000000000000000000000000000000EE
:1042D00000000000000000000000000000000000DE
:1042E00000000000000000000000000000000000CE
:1042F000FFFF7E3E242400808899FFFFFF0000001E
:1043000000000000000000000000000000000000AD
:10431000000000000000000000000000000000009D
:10432000000000000000000000000000000000008D
:10433000000000000000000000000000000000007D
:10434000000000000000000000000000000000006D
:10435000FFFF1C99C1C3C3C9981CFFFFFF000000E9
:10436000000000000000000000000000000000004D
:10437000000000000000000000000000000000003D
:10438000000000000000000000000000000000002D
:10439000000000000000000000000000000000001D
:1043A000000000000000000000000000000000000D
:1043B000FFFF3C3C9C9999D3C3C3E7E1F1000000A7
:1043C00000000000000000000000000000000000ED
:1043D00000000000000000000000000000000000DD
:1043E00000000000000000000000000000000000CD
:1043F00000000000000000000000000000000000BD
:1044000000000000000000000000000000000000AC
:10441000FFFF00008FC7F3F90000FFFFFF0000005F
:10442000000000000000000000000000000000008C
:10443000000000000000000000000000000000007C
:10444000000000000000000000000000000000006C
:10445000000000000000000000000000000000005C
:10446000000000000000000000000000000000004C
:104470008F87E7E7E7F1F1E7E7E7E7878F000000DD
:10448000000000000000000000000000000000002C
:10449000000000000000000000000000000000001C
:1044A000000000000000000000000000000000000C
:1044B00000000000000000000000000000000000FC
:1044C00000000000000000000000000000000000EC
:1044D000E1E1CFCFCF8F8FCFCFCFE7E1E100000079
:1044E00000000000000000000000000000000000CC
:1044F00000000000000000000000000000000000BC
:1045000000000000000000000000000000000000AB
:10451000000000000000000000000000000000009B
:10452000000000000000000000000000000000008B
:10453000FFFFFFFFF3818FFFFFFFFFFFFF00000082
:10454000000000000000000000000000000000006B
:10455000000000000000000000000000000000005B
:10456000000000000000000000000000000000004B
:10457000000000000000000000000000000000003B
:1051F000FFFFFFC3839F83990103FFFFFF000000B0
:10520000000000000000000000000000000000009E
:10521000000000000000000000000000000000008E
:10522000000000000000000000000000000000007E
:10523000000000000000000000000000000000006E
:10524000000000000000000000000000000000005E
:105250009F83F1C181383D1981C3FFFFFF0000002A
:10526000000000000000000000000000000000003E
:10527000000000000000000000000000000000002E
:10528000000000000000000000000000000000001E
:10529000000000000000000000000000000000000E
:1052A00000000000000000000000000000000000FE
:1052B000FFFFFFC0C0CCC09C80C0FFFFFF0000000C
:1052C00000000000000000000000000000000000DE
:1052D00000000000000000000000000000000000CE
:1052E00000000000000000000000000000000000BE
:1052F00000000000000000000000000000000000AE
:10530000000000000000000000000000000000009D
:10531000FFFFFF010133F3F3C1C1FFFFFF000000F6
:10532000000000000000000000000000000000007D
:10533000000000000000000000000000000000006D
:10534000000000000000000000000000000000005D
:10535000000000000000000000000000000000004D
:10536000000000000000000000000000000000003D
:10537000FFFFFF8383939B9900003C3CFF000000EC
:10538000000000000000000000000000000000001D
:10539000000000000000000000000000000000000D
:1053A00000000000000000000000000000000000FD
:1053B00000000000000000000000000000000000ED
:1053C00000000000000000000000000000000000DD
:1053D000FFFFFFC3813901F98183FFFFFF00000058
:1053E00000000000000000000000000000000000BD
:1053F00000000000000000000000000000000000AD
:10540000000000000000000000000000000000009C
:10541000000000000000000000000000000000008C
:10542000000000000000000000000000000000007C
:10543000FFFFFF24A18181A12524FFFFFF000000C1
:10544000000000000000000000000000000000005C
:10545000000000000000000000000000000000004C
:10546000000000000000000000000000000000003C
:10547000000000000000000000000000000000002C
:10548000000000000000000000000000000000001C
:10549000FFFFFF8381998F3F8183FFFFFF000000A3
:1054A00000000000000000000000000000000000FC
:1054B00000000000000000000000000000000000EC
:1054C00000000000000000000000000000000000DC
:1054D00000000000000000000000000000000000CC
:1054E00000000000000000000000000000000000BC
:1054F000FFFFFFB99989A1B1B1B9FFFFFF0000001B
:10550000000000000000000000000000000000009B
:10551000000000000000000000000000000000008B
:10552000000000000000000000000000000000007B
:10553000000000000000000000000000000000006B
:10554000000000000000000000000000000000005B
:10555000D3C7FFB99909A1B1B1B9FFFFFF0000009E
:10556000000000000000000000000000000000003B
:10557000000000000000000000000000000000002B
:10558000000000000000000000000000000000001B
:10559000000000000000000000000000000000000B
:1055A00000000000000000000000000000000000FB
:1055B000FFFFFF3999C9C1C91939FFFFFF0000007A
:1055C00000000000000000000000000000000000DB
:1055D00000000000000000000000000000000000CB
:1055E00000000000000000000000000000000000BB
:1055F00000000000000000000000000000000000AB
:10560000000000000000000000000000000000009A
:10561000FFFFFF8383939B99989CFFFFFF0000008F
:10562000000000000000000000000000000000007A
:10563000000000000000000000000000000000006A
:10564000000000000000000000000000000000005A
:10565000000000000000000000000000000000004A
:10566000000000000000000000000000000000003A
:10567000FFFFFF381800242C3C3CFFFFFF00000018
:10568000000000000000000000000000000000001A
:10569000000000000000000000000000000000000A
:1056A00000000000000000000000000000000000FA
:1056B00000000000000000000000000000000000EA
:1056C00000000000000000000000000000000000DA
:1056D000FFFFFF39390101393939FFFFFF000000B1
:1056E00000000000000000000000000000000000BA
:1056F00000000000000000000000000000000000AA
:105700000000000000000000000000000000000099
:105710000000000000000000000000000000000089
:105720000000000000000000000000000000000079
:10573000FFFFFFC381393C3981C3FFFFFF00000039
:105740000000000000000000000000000000000059
:105750000000000000000000000000000000000049
:105760000000000000000000000000000000000039
:105770000000000000000000000000000000000029
:105780000000000000000000000000000000000019
:10579000FFFFFF01013939393939FFFFFF000000F0
:1057A00000000000000000000000000000000000F9
:1057B00000000000000000000000000000000000E9
:1057C00000000000000000000000000000000000D9
:1057D00000000000000000000000000000000000C9
:1057E00000000000000000000000000000000000B9
:1057F000FFFFFF808039391981C1F9F9F9000000F4
:105800000000000000000000000000000000000098
:105810000000000000000000000000000000000088
:105820000000000000000000000000000000000078
:105830000000000000000000000000000000000068
:105840000000000000000000000000000000000058
:10585000FFFFFF8783B9F9F98387FFFFFF0000008F
:105860000000000000000000000000000000000038
:105870000000000000000000000000000000000028
:105880000000000000000000000000000000000018
:105890000000000000000000000000000000000008
:1058A00000000000000000000000000000000000F8
:1058B000FFFFFF010125E7E78181FFFFFF000000F7
:1058C00000000000000000000000000000000000D8
:1058D00000000000000000000000000000000000C8
:1058E00000000000000000000000000000000000B8
:1058F00000000000000000000000000000000000A8
:105900000000000000000000000000000000000097
:10591000FFFFFF3C39999393C7C7CFE1F300000025
:105920000000000000000000000000000000000077
:105930000000000000000000000000000000000067
:105940000000000000000000000000000000000057
:105950000000000000000000000000000000000047
:105960000000000000000000000000000000000037
:10597000E3E3E781012424240181E7E7E700000055
:105980000000000000000000000000000000000017
:105990000000000000000000000000000000000007
:1059A00000000000000000000000000000000000F7
:1059B00000000000000000000000000000000000E7
:1059C00000000000000000000000000000000000D7
:1059D000FFFFFF3993C3C7C39939FFFFFF000000E2
:1059E00000000000000000000000000000000000B7
:1059F00000000000000000000000000000000000A7
:105A00000000000000000000000000000000000096
:105A10000000000000000000000000000000000086
:105A20000000000000000000000000000000000076
:105A3000FEFEFE989898989800007E7EFE0000007A
:105A40000000000000000000000000000000000056
:105A50000000000000000000000000000000000046
:105A60000000000000000000000000000000000036
:105A70000000000000000000000000000000000026
:105A80000000000000000000000000000000000016
:105A9000FFFFFFB9B9998183BFBFFFFFFF0000007F
:105AA00000000000000000000000000000000000F6
:105AB00000000000000000000000000000000000E6
:105AC00000000000000000000000000000000000D6
:105AD00000000000000000000000000000000000C6
:105AE00000000000000000000000000000000000B6
:105AF000FFFFFF24242424240000FFFFFF000000F8
:105B00000000000000000000000000000000000095
:105B10000000000000000000000000000000000085
:105B20000000000000000000000000000000000075
:105B30000000000000000000000000000000000065
:105B40000000000000000000000000000000000055
:105B5000FFFFFFA4A4A4A4A400007F7FFF00000017
:105B60000000000000000000000000000000000035
:105B70000000000000000000000000000000000025
:105B80000000000000000000000000000000000015
:105B90000000000000000000000000000000000005
:105BA00000000000000000000000000000000000F5
:105BB000FFFFFFF0F08303338383FFFFFF0000004C
:105BC00000000000000000000000000000000000D5
:105BD00000000000000000000000000000000000C5
:105BE00000000000000000000000000000000000B5
:105BF00000000000000000000000000000000000A5
:105C00000000000000000000000000000000000094
:105C1000FFFFFF3C3C20000C2020FFFFFF000000A6
:105C20000000000000000000000000000000000074
:105C30000000000000000000000000000000000064
:105C40000000000000000000000000000000000054
:105C50000000000000000000000000000000000044
:105C60000000000000000000000000000000000034
:105C7000FFFFFFF9F981811981C1FFFFFF000000DB
:105C80000000000000000000000000000000000014
:105C90000000000000000000000000000000000004
:105CA00000000000000000000000000000000000F4
:105CB00000000000000000000000000000000000E4
:105CC00000000000000000000000000000000000D4
:105CD000FFFFFFC1811D071F81C1FFFFFF00000003
:105CE00000000000000000000000000000000000B4
:105CF00000000000000000000000000000000000A4
:105D00000000000000000000000000000000000093
:105D10000000000000000000000000000000000083
:105D20000000000000000000000000000000000073
:105D3000FFFFFF8D05212125058DFFFFFF000000DE
:105D40000000000000000000000000000000000053
:105D50000000000000000000000000000000000043
:105D60000000000000000000000000000000000033
:105D70000000000000000000000000000000000023
:105D80000000000000000000000000000000000013
:105D9000FFFFFF8381B98183B1B9FFFFFF000000DE
:105DA00000000000000000000000000000000000F3
:105DB00000000000000000000000000000000000E3
:105DC00000000000000000000000000000000000D3
:105DD00000000000000000000000000000000000C3
:105DE00000000000000000000000000000000000B3
:105DF0009B9BFFC3813901F98183FFFFFF000000F6
:105E00000000000000000000000000000000000092
:105E10000000000000000000000000000000000082
:105E20000000000000000000000000000000000072
:105E30000000000000000000000000000000000062
:105E40000000000000000000000000000000000052
:105E500011241FBECFEFCDBFDFE3DEBF00E00CBFDC
:105E600018BE19BE1ABE1BBE10E2A0E0B0E2E0E808
:105E7000FEE900E00BBF02C007900D92AA3BB107FC
:105E8000D9F71BBE12E3AAEBB0E201C01D92AE3FF0
:105E9000B107E1F70E94CB4E0C943E4F0C940000EA
:105EA000CF93DF931F92CDB7DEB788EE93E00E94C9
:105EB000783C89E390E20E948B2F0E9426378983E9
:105EC00089818031D1F389810E945537F6CF81E0F5
:105ED00080930106089581E08093070608950C944D
:105EE000783CCF93DF9300D0CDB7DEB789839A8318
:105EF0006B8320E044E650E0BE016F5F7F4F8091EE
:105F0000F4329091F5320E948D422396CDBFDEBFD0
:105F1000DF91CF910895CF93DF9300D0CDB7DEB757
:105F200089839A831B8220E044E650E0BE016F5FC4
:105F30007F4F8091F4329091F5320E948D422396EA
:105F4000CDBFDEBFDF91CF910895E0EAF6E088E0B3
:105F500085838183E0EAFBE083E0858383818F632F
:105F6000838389E18683178284818D608483089589
:105F70009091A10B95FFFCCF8093A00B0895EF9219
:105F8000FF921F93CF93DF931F92CDB7DEB77C01B3
:105F90001982FC0101900020E9F731971E2F181B90
:105FA00019828981811758F48981F701E80FF11D61
:105FB00080810E94B82F89818F5F8983F2CF0F90F3
:105FC000DF91CF911F91FF90EF900895FF920F9373
:105FD0001F93CF93DF931F92CDB7DEB78C01198249
:105FE0000E943538F82E198289818F1558F48981DD
:105FF000F801E80FF11D80810E94B82F99819F5F01
:106000009983F2CF0F90DF91CF911F910F91FF9065
:106010000895CF93DF93CDB7DEB72897CDBFDEBF0E
:1060200015E08091F4329091F5320E94B3458823B7
:10603000C1F34FEF5FEFBE016A5F7F4F8091F43293
:106040009091F5320E948D43813059F78E819F8166
:106050000E94BF2FE0E8F0E2DE011196812F01904F
:106060000D928A95E1F72AE043E0BE016E5F7F4F13
:1060700088850E94D237CE0101960E94E62F8AE0E1
:106080000E94B82F8DE00E94B82FCBCF0C94783CA3
:106090008093C3088091C20887FFFCCF80E00895F9
:1060A0000F931F93CF93DF938C01EB018091040634
:1060B00081FF03C082E0809306061092FA3220919D
:1060C000FA3230E02C173D0760F4F801E20FF31FBD
:1060D00080810E9448309091FA329F5F9093FA320B
:1060E000EECFDF91CF911F910F9108950F931F93E2
:1060F000CF93DF938C01EB018091040681FD03C0F7
:1061000082E0809305061092FA322091FA3230E054
:106110002C173D0760F4F801E20FF31F80810E9405
:1061200048309091FA329F5F9093FA32EECFDF9130
:10613000CF911F910F9108958091080683FF05C0AC
:1061400084E690E00E94783CF7CF08958091440661
:1061500084FF03C080E1809346068091040681FF9E
:1061600003C082E08093060682E20E94483080915C
:10617000040681FD03C082E08093050684EC0E9442
:1061800048308091440684FD03C080E18093450639
:106190008091440684FF03C080E18093460680918D
:1061A000040681FF03C082E08093060680E20E941D
:1061B00048308091440684FD03C080E18093450609
:1061C0008091440684FF03C080E18093460680915D
:1061D000040681FF03C082E0809306068FEF0E94D1
:1061E00048308091440684FD03C080E180934506D9
:1061F0000C949C300F931F93CF93DF93EC018B0192
:106200000E949C308091440684FF03C080E180930B
:1062100046068091040681FF03C082E08093060653
:106220008EE40E94483083E0D595C7958A95E1F7C2
:106230008091040681FD03C082E0809305068C2FC7
:106240000E9448308091440684FD03C080E1809321
:1062500045068091440684FF03C080E18093460692
:106260008091040681FF03C082E0809306068FE4DC
:106270000E9448308091040681FD03C082E0809333
:106280000506802F0E9448308091040681FD03C0DE
:1062900082E080930506812F0E9448308091440659
:1062A00084FD03C080E180934506DF91CF911F916B
:1062B0000F910895EF92FF920F931F93CF93DF9367
:1062C000182FE62ED42FC52FF22E032F80914406CF
:1062D00084FF03C080E1809346068091040681FF1D
:1062E00003C082E08093060684E40E9448308091D7
:1062F000040681FD03C082E080930506812F0E9481
:1063000048308091040681FD03C082E08093050639
:106310008E2D0E9448308091440684FD03C080E1A8
:10632000809345068091440684FF03C080E18093FA
:1063300046068091040681FF03C082E08093060632
:1063400085E40E9448308091040681FD03C082E00C
:10635000809305068D2F0E9448308091040681FDB0
:1063600003C082E0809305068C2F0E944830809104
:10637000040681FD03C082E0809305068F2D0E94F4
:1063800048308091040681FD03C082E080930506B9
:10639000802F0E9448308091440684FD03C080E134
:1063A000809345068091440684FF03C080E180937A
:1063B00046068091040681FF03C082E080930606B2
:1063C0008EE40E9448308091040681FD03C082E083
:1063D00080930506812F0E9448308091440684FDF9
:1063E00003C080E1809345068091440684FF03C08A
:1063F00080E1809346068091040681FF03C082E01D
:10640000809306068FE40E9448308091040681FD47
:1064100003C082E0809305068D2F0E944830809152
:10642000040681FD03C082E0809305068C2F0E9444
:1064300048308091440684FD03C080E18093450686
:10644000DF91CF911F910F91FF90EF9008950F93DF
:106450001F93CF93DF93182F27EC30E047EC50E0E9
:1064600060E080E00E945A318091440684FF03C0BE
:1064700080E1809346068091040681FF03C082E09C
:106480008093060684E20E944830C8E8D3E102E027
:106490008091040681FF00930506812F0E944830F9
:1064A0002197B1F78091440684FD03C080E1809379
:1064B0004506DF91CF911F910F9108951F93CF93C0
:1064C000DF93EC018091440684FF03C080E1809358
:1064D00046068091040681FF03C082E08093060691
:1064E00082E30E9448301092FA3212E09091FA3220
:1064F0009E3190F4FE01E90FF11DE49180910406B4
:1065000081FF109305068E2F0E9448309091FA3239
:106510009F5F9093FA32EACF8091440684FD03C0D6
:1065200080E180934506DF91CF911F9108958FEF11
:106530000E9427320E94A63080E00E9427320C94ED
:10654000A630CF9380EB809341068091440684FD72
:1065500003C080E18093450698E09093020680E5B1
:106560008093C0081092F8321092F93282E0809342
:10657000010680E180930106909302069091440603
:1065800094FF80934506C0E1C093060684E690E040
:106590000E94783CC093050688EE93E00E94783C08
:1065A0008091440684FDC09346068091040681FFD5
:1065B00003C082E08093060681E00E94483080910B
:1065C000040681FD03C082E08093050687EC0E94EB
:1065D00048308091040681FD03C082E08093050667
:1065E00080E00E9448308091040681FD03C082E073
:1065F0008093050680E00E9448308091440684FD27
:1066000003C080E1809345068091440684FF03C067
:1066100080E1809346068091040681FF03C082E0FA
:10662000809306068CE00E9448308091040681FD2C
:1066300003C082E08093050687ED0E944830809178
:10664000040681FD03C082E08093050686ED0E946A
:1066500048308091040681FD03C082E080930506E6
:106660008DE90E9448308091440684FD03C080E19A
:10667000809345068091440684FF03C080E18093A7
:1066800046068091040681FF03C082E080930606DF
:106690008CE20E9448308091040681FD03C082E0B4
:1066A0008093050688EA0E9448308091440684FD64
:1066B00003C080E1809345068091440684FF03C0B7
:1066C00080E1809346068091040681FF03C082E04A
:1066D000809306068AE30E9448308091040681FD7B
:1066E00003C082E0809305068AE10E9448308091D1
:1066F000440684FD03C080E18093450680914406F2
:1067000084FF03C080E1809346068091040681FFE8
:1067100003C082E0809306068BE30E94483080919C
:10672000040681FD03C082E08093050688E00E9494
:1067300048308091440684FD03C080E18093450683
:106740008091440684FF03C080E1809346068091D7
:10675000040681FF03C082E08093060681E10E9467
:1067600048308091040681FD03C082E080930506D5
:1067700081E00E9448308091440684FD03C080E19E
:1067800080934506CF910C9497327F928F929F927F
:10679000AF92BF92CF92DF92EF92FF920F931F932F
:1067A000CF93DF938C01EB017A016B0187E0C80E78
:1067B000D11C23E0D694C7942A95E1F781E996E1AC
:1067C0000E945E328091440684FF03C080E1809382
:1067D00046068091040681FF03C082E0809306068E
:1067E00082E20E9448308091040681FD03C082E06D
:1067F0008093050680EC0E9448308091440684FD19
:1068000003C080E1809345068091440684FF03C065
:1068100080E1809346068091040681FF03C082E0F8
:106820008093060680E20E9448308091440684FDF1
:1068300003C080E1809345060E949C306FEF6C0D91
:1068400020E030E0A7014150510980E00E945A3118
:10685000DD27279693E0D595C7959A95E1F7809126
:10686000440684FF03C080E18093460680910406BD
:1068700081FF03C082E08093060684E20E944830D4
:10688000C12CD12CA12CB12C82E0782EAE14BF04E7
:1068900029F1D0E0DC17F0F40115110549F48091DD
:1068A000040681FF709205068FEF0E94483010C0E9
:1068B00046018FEF881A980AF801EC0DFD1D8491AE
:1068C0009091040691FF709205060E944830640181
:1068D000DF5FE0CF8FEFA81AB80AD8CF80914406C7
:1068E00084FD03C080E1809345060E949C30809126
:1068F000440684FF03C080E180934606809104062D
:1069000081FF03C082E08093060682E20E94483045
:106910008091040681FD03C082E08093050687EC28
:106920000E9448308091440684FD03C080E180933A
:1069300045068091440684FF03C080E180934606AB
:106940008091040681FF03C082E08093060680E206
:106950000E9448308091440684FD03C080E180930A
:1069600045068091440684FF03C080E1809346067B
:106970008091040681FF03C082E0809306068FEFBA
:106980000E9448308091440684FD03C080E18093DA
:1069900045060E949C308091440684FF03C080E13C
:1069A000809346068091040681FF03C082E08093B5
:1069B000060682E20E9448308091040681FD03C0F1
:1069C00082E08093050680EC0E9448308091440666
:1069D00084FD03C080E1809345068091440684FFD6
:1069E00003C080E1809346068091040681FF03C0C6
:1069F00082E08093060680E20E944830809144063F
:106A000084FD03C080E180934506DF91CF911F9103
:106A10000F91FF90EF90DF90CF90BF90AF909F903D
:106A20008F907F900C949C308091440684FF03C02B
:106A300080E1809346068091040681FF03C082E0D6
:106A40008093060682E20E9448308091040681FD10
:106A500003C082E08093050684E00E944830809164
:106A6000440684FD03C080E180934506809144067E
:106A700084FF03C080E1809346068091040681FF75
:106A800003C082E08093060680E20E944830809135
:106A9000440684FD03C080E180934506809144064E
:106AA00084FF03C080E1809346068091040681FF45
:106AB00003C082E0809306068FEF0E9448308091E9
:106AC000440684FD03C080E18093450608952F921B
:106AD0003F924F925F926F927F928F929F92AF926E
:106AE000BF92CF92DF92EF92FF920F931F93CF93BB
:106AF000DF935C01D62F542E622E0E949C300FB67D
:106B0000F8940F9282E796E10E945E3280914406EB
:106B100084FF03C080E1809346068091040681FFD4
:106B200003C082E08093060682E20E944830809192
:106B3000040681FD03C082E08093050680EC0E947C
:106B400048308091440684FD03C080E1809345066F
:106B50008091440684FF03C080E1809346068091C3
:106B6000040681FF03C082E08093060680E20E9453
:106B700048308091440684FD03C080E1809345063F
:106B80000E949C3020E030E047EC50E068E180E07B
:106B90000E945A31C090F832D090F9328091440668
:106BA00084FF03C080E1809346068091040681FF44
:106BB00003C082E08093060684E20E94483008EC1D
:106BC00010E0E12CF12C32E0732EC9E1C114D104A4
:106BD00049F48091040681FF709205068FEF0E94B0
:106BE000483010C047018FEF881A980AF601EE0D61
:106BF000FF1D84919091040691FF709205060E94FA
:106C000048307401C15011F701501109F1F680911B
:106C1000440684FD03C080E180934506C8E1C519A0
:106C20001092FA32062D10E048018CE0880E911C7B
:106C300090E1292E22E0322E8091FA328D1708F051
:106C400046C0F501E80FF11D80810E94A9376C0153
:106C50009401A8016C2F8C2F0E945A318091440618
:106C600084FD209246068091040681FD309206063E
:106C700084E20E9448308DE0E82EF12C412C512C0A
:106C8000C114D10449F48091040681FF30920506B5
:106C90008FEF0E94483010C032018FEF681A780AD7
:106CA000F601E40DF51D84919091040691FF309258
:106CB00005060E944830230181E0E81AF10801F737
:106CC0008091440684FF20924506C1110AC00E94AB
:106CD00014358091440684FF0BC080E18093460602
:106CE00007C0C1508091FA328F5F8093FA32A4CFEF
:106CF0008091040681FF03C082E08093060682E251
:106D00000E9448308091040681FD03C082E0809398
:106D1000050680EC0E9448308091440684FD03C043
:106D200080E1809345068091440684FF03C080E1A2
:106D3000809346068091040681FF03C082E0809321
:106D4000060680E20E9448308091440684FD03C01C
:106D500080E1809345060E949C300F900FBEDF912A
:106D6000CF911F910F91FF90EF90DF90CF90BF9048
:106D7000AF909F908F907F906F905F904F903F90DB
:106D80002F90089580EE80936106E0E4F6E087E0BE
:106D9000828387858061878780898061808B8189F4
:106DA0008061818B0895CF93DF9380EE809362069C
:106DB00080E2809361068093650688E290E00E94FD
:106DC0006F2F90914806892F8170C82FD0E091FFD6
:106DD00003C08260C82FD0E092FDC46080E280933F
:106DE000660680EE8093620680E48093610680935D
:106DF000650688E290E00E946F2F8091480680FD32
:106E0000C86081FDC06182FDC06280E48093660637
:106E100080EE8093620680E8809361068093650629
:106E200088E290E00E946F2F8091480680FDC06448
:106E300081FDC06882FDD16080E88093660680EEA7
:106E400080936206CE01DF91CF9108950E94D336E0
:106E5000009729F58091FB329091FC32892B19F132
:106E600020E030E061E070E0822F4091FB325091F1
:106E7000FC32FB01022E02C0EE0FFF1F0A94E2F764
:106E80004E235F23452B31F42F5F3F4F20313105D7
:106E900059F780E11092FB321092FC3208958093F2
:106EA000FB329093FC3280E108958093FD3220E024
:106EB00040E050E060E070E08091F6329091F7326F
:106EC0000C948D428091FD320895CF93DF93CDB71E
:106ED000DEB76A97CDBFDEBF80E18093FD320E94AE
:106EE000A13284E690E00E946F2F48EC50E068ECFD
:106EF00070E08AEE92E00E94C53384E690E00E9442
:106F00006F2F85E890E20E948B2F1AE16FEF7FEFE1
:106F10008091F6329091F7320E941D448130B1F792
:106F20008CE990E20E948B2FE0E0F0E2DE01119606
:106F3000812F01900D928A95E1F724E640E06AE105
:106F4000CE0101960E94673588EE93E00E946F2F74
:106F5000DDCF90EE980F9B3138F420E6829FC00180
:106F600011248055994E08958C3399F08F33A1F0F8
:106F700095EA980F933088F39FE9980F9B3168F357
:106F800093E8980F923048F3813F49F480E191E70C
:106F9000089580E39DE2089580E59EE2089580E1F2
:106FA00093E20895CF93DF93C82FDB01EEEFE20F5A
:106FB000EF3028F4F0E0E65DFF4D308101C038E0AD
:106FC000431708F4342FD32FD1508C2F622F0E94F7
:106FD000154F4D2F50E04A0F5B1F9A3010F0995C0F
:106FE00001C0905DFA0190838C2F622F0E94154F93
:106FF000C82FD111E9CF832FDF91CF910895FF9250
:107000000F931F93CF93DF93FC01EB01AEEFA20F21
:10701000AF3028F4B0E0A55EBF4D3C9101C030E137
:10702000431708F4342FF32E022F10E0FA94CF0107
:10703000B8010E94214F4F2D50E0DE01A40FB51F73
:107040008A3010F097E301C090E3980F9C93CF0132
:10705000B8010E94214FFB01F110E8CF832FDF918F
:10706000CF911F910F91FF900895FC0190E08191C5
:10707000882319F09F5F9F3FD1F781E0890F089522
:10708000E091E820F091E9208081811103C08FEF29
:107090009FEF0CC0E091E820F091E9200580F68197
:1070A000E02D0680F781E02D828193818093BF20BF
:1070B0009093C0200895EF92FF920F931F93CF9368
:1070C000DF931F92CDB7DEB77C010091C7201091EE
:1070D000C8208091BA209091BB20029669830E94BB
:1070E000204769818FEFE816F80699F4662389F046
:1070F0006091BA207091BB206E5F7F4F8AEC90E266
:107100000F90DF91CF911F910F91FF90EF900C9412
:10711000C746E00EF11EE091BA20F091BB20E2825A
:10712000F3826091BA207091BB20E016F10678F4EA
:107130008091E6209091E7206E5F7F4F0F90DF9166
:10714000CF911F910F91FF90EF900C94E8468091A2
:10715000E8209091E9206E5F7F4F0E94E846809181
:10716000BF209091C020E816F90620F4E092BF20DD
:10717000F092C0200F90DF91CF911F910F91FF905F
:10718000EF9008958091D320882309F10FB6F894E9
:107190000F92E091D920F091DA20C681D781CE01FB
:1071A00002960E9420478091C92081508093C92077
:1071B0008091D32081508093D3200F900FBE8F8970
:1071C000988D0E943C49CE010E943C49DBCF8091C2
:1071D000FC208230B8F20E94164ED4CF2F923F92FC
:1071E0005F926F927F928F929F92AF92BF92CF9257
:1071F000DF92EF92FF920F931F93CF93DF934C0197
:10720000562E172F5A013901CA010E940A491C0142
:10721000009709F4D4C088E290E00E940A49EC018A
:10722000009781F02F8A388E650121E0C21AD108BB
:10723000C20CD31CBC01675E7F4FE52DF12FCF013F
:10724000089607C0C1010E943C49B9C0E817F90778
:1072500049F09F014191DB014D93BD01D9012C9172
:107260002111F4CF18A2043008F003E00E8B09A31B
:107270001AA25E01B2E0AB0EB11CC5010E94C3466A
:10728000CE010C960E94C346C887D98784E090E05F
:10729000801B91098C879D87CA8BDB8B1BA21CA24C
:1072A0001DA21EA21FA2A301B401C6010E94594D36
:1072B00088839983E114F10419F0F701C083D18325
:1072C0000FB6F8940F928091C9208F5F8093C920E8
:1072D0008091BA209091BB20892BD1F5C093BA2020
:1072E000D093BB208091C920813009F041C08CEF40
:1072F00090E20E94B54685E091E20E94B5468EE09C
:1073000091E20E94B54687E191E20E94B54683EF83
:1073100090E20E94B5468AEE90E20E94B5468DED5D
:1073200090E20E94B54684ED90E20E94B5468AEC58
:1073300090E20E94B54683EF90E28093E82090931C
:10734000E9208AEE90E28093E6209093E72010C037
:107350008091C52081110CC0E091BA20F091BB2032
:1073600096898E89891720F0C093BA20D093BB20CC
:107370008091C1208F5F8093C1208E899091C6201B
:10738000981710F48093C620F9E08F9FC001112454
:10739000B50184509F4D0E94C7460F900FBE80914B
:1073A000C520882351F0E091BA20F091BB20968946
:1073B0008E89981710F40E94164E81E001C08FEF5D
:1073C000DF91CF911F910F91FF90EF90DF90CF90C1
:1073D000BF90AF909F908F907F906F905F903F9005
:1073E0002F9008950F931F93CF93DF93EC010FB667
:1073F000F8940F92009721F4C091BA20D091BB204D
:107400008E010E5F1F4FC8010E9420478C899D8905
:10741000892B21F0CE010C960E9420479091C1202B
:107420009F5F9093C1208091BA209091BB20C81794
:10743000D90759F4B80184ED90E20E94C7468091C3
:10744000D3208F5F8093D3200EC08091C9208150BC
:107450008093C9208F89988D0E943C49CE010E945B
:107460003C490E9440380F900FBE8091C520882370
:1074700049F08091BA209091BB20C817D90711F428
:107480000E94164EDF91CF911F910F9108950F9397
:107490001F93CF93DF932091BA203091BB208217A6
:1074A0009307B9F10097A9F10FB6F8940F92FC0178
:1074B000228533852A5C304251F5FC0124893589C7
:1074C000F0E22D3D3F0719F1232B09F5EC018C016A
:1074D0000E5F1F4FC8010E9420479E898091C620E1
:1074E000891710F49093C62029E0929FC0011124BF
:1074F000B80184509F4D0E94C746E091BA20F09198
:10750000BB209E898689981710F00E94164E0F9016
:107510000FBEDF91CF911F910F910895EF92FF92CF
:107520001F93CF93DF93EC018A859B858A5C904201
:1075300099F48C899D8920E28D3D920769F0892B11
:1075400059F48091BC20882349F0BE01645F7F4FCD
:107550008DED90E20E94C74610E021C0E091BA2074
:10756000F091BB2011E09E898689981708F410E0FD
:107570007E0182E0E80EF11CC7010E9420479E892F
:107580008091C620891710F49093C62029E0929F1D
:10759000C0011124B70184509F4D0E94C746812F1E
:1075A000DF91CF911F91FF90EF900895EF92FF929E
:1075B0000F938DEBE82E80E2F82E00E020E030E023
:1075C00045E550E065EB70E282EC98E30E94EE380E
:1075D000813091F4F8942FEF3FEF2093BF20309348
:1075E000C0208093C5201092C7201092C8200F9110
:1075F000FF90EF900C94D04D0F91FF90EF90089575
:10760000F8941092C5200C94154E8091BC208F5F89
:107610008093BC2008950FB6F8940F928091C720F4
:107620009091C8200F900FBE08958091C72090912F
:10763000C82008958091C9200895009721F4809171
:10764000BA209091BB2049960895CF92DF92EF9295
:10765000FF920F931F93CF93DF938091BC208111F2
:107660008CC00091C7201091C8200F5F1F4F00935E
:10767000C7201093C82001151105B9F48091E820A6
:107680009091E9202091E6203091E7202093E82096
:107690003093E9208093E6209093E7208091C220E8
:1076A0008F5F8093C2200E9440388091BF209091CC
:1076B000C020C0E00817190708F44FC0D9E0E091D6
:1076C000E820F091E9208081811103C08FEF9FEFC6
:1076D00011C0E091E820F091E9200580F681E02DCD
:1076E000E680F780D70112968D919C911397081729
:1076F000190728F48093BF209093C0202EC0670103
:10770000B2E0CB0ED11CC6010E942047F70184894C
:107710009589892B21F0C7010C960E942047D7013B
:1077200056969C918091C620891710F49093C6209C
:10773000D99FC0011124B60184509F4D0E94C746B5
:10774000E091BA20F091BB20D70156969C91868992
:10775000981708F4B4CFC1E0B2CFE091BA20F0910D
:10776000BB20E689B9E0EB9FF0011124E450FF4D06
:107770008081823040F0C1E006C08091C4208F5FDC
:107780008093C420C0E08091C3208111C1E08C2F80
:10779000DF91CF911F910F91FF90EF90DF90CF90ED
:1077A0000895EF92FF920F931F93CF93DF930FB63D
:1077B000F8940F928091BC2081508093BC208091DE
:1077C000BC20882311F080E052C08091C92088231A
:1077D000D1F3C0E0D0E089E0F82EEE24E39480916C
:1077E000DD20882351F1E091E220F091E320C68171
:1077F000D781CE010C960E9420478E010E5F1F4F4D
:10780000C8010E9420479E898091C620891710F4E4
:107810009093C620F99EC0011124B80184509F4D59
:107820000E94C746E091BA20F091BB209E898689CC
:107830009817A8F2E092C320D2CFCD2B11F00E946E
:107840004038C091C420CC2351F0D1E00E94253BA8
:107850008111D093C320C150C9F71092C4208091E8
:10786000C320882309F4AFCF0E94164E81E00F9009
:107870000FBEDF91CF911F910F91FF90EF90089570
:107880000F931F93CF93DF938C01EB010E94053B75
:107890004091C7205091C820F801608171819B01FF
:1078A0002C0F3D1F4617570728F42617370748F4B3
:1078B00091E004C091E02617370720F042175307E4
:1078C00008F090E0F80120833183992331F060E0E3
:1078D000C901841B950B0E945B380E94D13B81112A
:1078E00002C00E94164EDF91CF911F910F91089513
:1078F000CF93DF931F921F92CDB7DEB7009719F495
:107900000E94164E0DC089839A830E94053B60E059
:1079100089819A810E945B380E94D13B882381F340
:107920000F900F90DF91CF9108958091BC20882314
:1079300021F081E08093C32008951092C3208091AC
:10794000C62069E0482F50E0649F9001659F300D8C
:107950001124F901E450FF4D9081911102C0815032
:10796000F1CFA181B28112960D90BC91A02DA1837F
:10797000B28321503F4DA217B30731F412962D91D7
:107980003C9113972183328399E0949FF001959F56
:10799000F00D1124E450FF4D0180F281E02D26818D
:1079A00037812093BA203093BB208093C62008955E
:1079B0000F931F93CF93DF93EC010FB6F8940F92C0
:1079C000009721F4C091BA20D091BB208E010E5FA8
:1079D0001F4FC8010E9420478C899D89892B21F067
:1079E000CE010C960E942047B8018AEC90E20E94DA
:1079F000C7468FA1813009F41FA20F900FBE80915E
:107A0000C520882339F00FB6F8940F920E944038B1
:107A10000F900FBE8091BA209091BB20C817D90754
:107A2000C1F48091C520882319F00E94164E11C020
:107A30009091CA208091C920981305C01092BA2055
:107A40001092BB2006C0DF91CF911F910F910C9433
:107A5000953CDF91CF911F910F910895CF93DF93C4
:107A6000EB012091BA203091BB20B901645F7F4FB8
:107A70000E94E84661E0CE01DF91CF910C945B3823
:107A8000CF93DF93EA01E091BA20F091BB207068B8
:107A9000648775876091BA207091BB20645F7F4FC7
:107AA0000E94C74661E0CE01DF91CF910C945B3814
:107AB0000F931F93CF93DF93DC011596ED91FC910B
:107AC0001697C681D7818E01045F1F4FC8010E949F
:107AD00020478091BC20811114C00A501109C801AF
:107AE0000E9420479E898091C620891710F49093A8
:107AF000C620B9E09B9FC0011124B80184509F4D5E
:107B000003C0B8018DED90E20E94C746E091BA2013
:107B1000F091BB209E898689891720F481E08093AB
:107B2000C32001C080E0DF91CF911F910F91089594
:107B30000F931F93CF93DF937068FC016083718371
:107B4000C681D7810E9420478E010E5F1F4FC8015A
:107B50000E9420479E898091C620891710F4909337
:107B6000C620F9E09F9FC0011124B80184509F4DA9
:107B70000E94C746E091BA20F091BB209E89868979
:107B8000891718F481E08093C320DF91CF911F9172
:107B90000F9108950FB6F8940F922091C220FC0126
:107BA00020832091C7203091C820218332830F90F9
:107BB0000FBE08952091C220FC0120832091C72090
:107BC0003091C820218332830895CF93DF930FB67D
:107BD000F8940F924091C7205091C820DC01119673
:107BE000ED91FC911297EB01288139812F3FDFEF56
:107BF0003D07C9F0B091C220EC01A881BA1719F075
:107C00004E175F0790F44E1B5F0BFB0142175307A3
:107C100038F4241B350B208331830E94DA3D03C0E6
:107C20001082118202C080E001C081E00F900FBE7F
:107C3000DF91CF91089581E08093C32008958091D2
:107C4000BA209091BB2008950F931F93CF93DF9399
:107C5000FC01009709F455C08689A091BA20B09123
:107C6000BB2056969C91891708F041C02485358524
:107C700037FD0CC0A091BA20B091BB2056969C91C4
:107C800024E030E0291B31092487358729E0829FD1
:107C9000C001112484509F4D228533852817390750
:107CA000E9F48F01EF012296CE010E942047E09176
:107CB000BA20F091BB209689F801968B8091C6205E
:107CC000891710F49093C620F9E09F9FC0011124FA
:107CD000BE0184509F4D0E94C74607C0A091BA20A4
