:100000000C9461410C94643C0C94F8440C94B63A02
:100010000C945A47FFFFFFFFFFFFFFFFFFFFE7734F
:10002000E773E773E773E773E773E773E773E77300
:10003000E773E773800380039FFF9FFF9FFFFFFF2E
:10004000FFFFFE3FFE3FFEFFFEFFFEFFE00FC0078B
:100050008EE39EF39EF39EF39EF39EF39EF39EF338
:100060008EE3C007E00FFEFFFEFFFEFFFEFFFEFF78
:10007000F39FE38FF39FFFFFFFFFF83FE01FC7CF22
:10008000CFE7CFE7C007C007FFE7FFE7FFE7CF8F66
:10009000C00FF03FFFFFFFFFFFFFFFFFFFFFEFFF7E
:1000A000C03FE01FFFCFFFE7F067E017C7C7CFE310
:1000B000CFE38FE38FE3CFE7CFE7CFE7E78FE00F23
:1000C000F83FFFFFFFFFFFFFFFFFFFFFFFFFFFFF07
:1000D000FFFFFFFFFFFFFFFFFC1FFBEFF7FFF7FF37
:1000E000F01FF3E7F7F3F7FBF3FBF4F7C60FFFFF9F
:1000F000FFFFFFFFFFFFFFFFFFFFFFFFFFFFFFFF10
:10010000FFFFFFFFFFFFFFFFFFFFFFFFFFFFFFFFFF
:10011000FFFFFEFFFFFFFFFFFFFFFFFFFFFFFFFFF0
:10012000FFFFFFFFFFFFFFFFFFFFFFFEFFFFFFFFE0
:10013000FFFFFFFFFFFFFFFFFFFFFFFFFFFFFFFFCF
:10014000FFFFFFFFFEFFFFFFFFFFFFFFFFFFFFFFC0
:10015000FFFFFFFFFFFFFFFFFFFFFFFFFFFEFFFFB0
:10016000FFFFFFFFFFFFFFFFFFFFFFFFFFFFFFFF9F
:10017000FFFFFFFFFFFFFEFFFFFFFFFFFFFFFFFF90
:10018000FCE7FCFFFFFFFFFFFFFFFFFFFFFFFFFE9E
:10019000FFFFFFFFFFFFFFFFFFFCE7FCFFFE3F1C31
:1001A00078FFFFFFFFFFFFFFFEFFFFFFFFFFFFFFE7
:1001B000FFFFFCFFFCFFFE1E1E79FFFFFFFFFFFF9E
:1001C000FFFEFFFFFFFFFFFFFFFFFFFCFFFCFFFE47
:1001D0001E1F31FFFFFFFFFFFFFFFEFFFFFFFFFFBF
:1001E000FFFFFFF07CE784F87E5C9F13FFFFFFFFBB
:1001F000FFFFFFFEFFFFFFFFFFFFFFFFE01CE70029
:10020000E01E4C9F87FFFFFFFFFFFFFFFEFFFFFF8A
:10021000FFFFFFFFFFC79CE638E79E4C9FC7FFFF2D
:10022000FFFFFFFFFFFEFFFFFFFFFFFFFFFFCFCC42
:10023000E67CCFCE619FC7FFFFFFFFFFFFFFFEFF02
:10024000FFFFFFFFFFFFFFC00CE67CCFCE619F8763
:10025000FFFFFFFFFFFFFFFEFFFFFFFFFFFFFFFFAF
:10026000C00CE67CCFCE739F93FFFFFFFFFFFFFF25
:10027000FEFFFFFFFFFFFFFFFFFFCCE67CCFCE734B
:100280009F31FFFFFFFFFFFFFFFEFFFFFFFFFFFFAD
:10029000FFFFDF9CE638E79E7F9E39FFFFFFFFFFF1
:1002A000FFFFFEFFFFFFFFFFFFFFFFC01CE700E0B7
:1002B0001E7F9E7CFFFFFFFFFFFFFFFEFFFFFFFF94
:1002C000FFFFFFFFE07CE784F87E7F9C7C7FFFFFE1
:1002D000FFFFFFFFFEFFFFFFFFFFFFFFFFFFFFFF2F
:1002E000FFFFFFFFFFFFFFFFFFFFFFFFFFFEFFFF1F
:1002F000FFFFFFFFFFFFFFFFFFFFFFFFFFFFFFFF0E
:10030000FFFFFFFFFFFFFEFFFFFFFFFFFFFFFFFFFE
:10031000FFFFFFFFFFFFFFFFFFFFFFFFFFFFFFFEEE
:10032000FFFFFFFFFFFFFFFFFFFFFFFFFFFFFFFFDD
:10033000FFFFFFFFFFFFFFFFFEFFFFFFFFFFFFFFCE
:10034000FFFFFFFFFFFFFFFFFFFFFFFFFFFFFFFFBD
:10035000FFFEFFFFFFFFFFFFFFFFFFFFFFFFFFFFAE
:10036000FFFFFFFFFFFFFFFFFFFFFEFFFFFFFFFF9E
:10037000FFFFFFFFFFFFFFFFFFFFFFFFFFFFFFFF8D
:10038000FFFFFFFEFFFFFFFFFFFFFFFFFFFFFFFF7E
:10039000FFFFFFFFFFFFFFFFFFFFFFFFFEFFFFFF6E
:1003A000FFFFFFFFFFFFFFFFFFFFFFFFFFFFFFFF5D
:1003B000FFFFFFFFFFFEFFFFFFFFFFFFFFFFFFFF4E
:1003C000FFFFFFFFFFFFFFFFFFFFFFFFFFFFFEFF3E
:1003D000FFFFFFFFFFFFFFFFFFFFFFFFFFFFFFFF2D
:1003E000FFFFFFFFFFFFFFFEFFFFFFFFFFFFFFFF1E
:1003F000FFFFFFFFFFFFFFFFFFFFFFFFFFFFFFFF0D
:10040000FEFFFFFFFFFFFFFFFFFFFFFFFFFFFFFFFD
:10041000FFFFFFFFFFFFFFFFFFFEFFFFFFFFFFFFED
:10042000FFFFFFFFFFFFFFFFFFFFFFFFFFFFFFFFDC
:10043000FFFFFEFFFFFFFFFFFFFFFFFFFFFFFFFFCD
:10044000FFFFFFFFFFFFFFFFFFFFFFFEFFFFFFFFBD
:10045000FFFFFFFFFFFFFFFFFFFFFFFFFFFFFFFFAC
:10046000FFFFFFFFFEFFFFFFFFFFFFFFFFFFFFFF9D
:10047000FFFFFFFFFFFFFFFFFFFFFFFFFFFEFFFF8D
:10048000FFFFFFFFFFFFFFFFFFFFFFFFFFFFFFFF7C
:10049000FFFFFFFFFFFFFEFFFFFFFFFFFFFFFFFF6D
:1004A000FFFFFFFFFFFFFFFFFFFFFFFFFFFFFFFE5D
:1004B000FFFFFFFFFFFFFFFFFFFFFFFFFFFFFFFF4C
:1004C000FFFFFFFFFFFFFFFFFEFFFFFFFFFFFFFF3D
:1004D000FFFFFFFFFFFFFFFFFFFFFFFFFFFFFFFF2C
:1004E000FFFEFFFFFFFFFFFFFFFFFFFFFFFFFFFF1D
:1004F000FFFFFFFFFFFFFFFFFFFFFEFFFFFFFFFF0D
:10050000FFFE07FFFFFFFFFFFFFBFEFFFFFFFFFFF9
:10051000FFFFFFFEFFFFFFFFFFFFFC03FFFFFFFFEB
:10052000FFFFF9FE7FFFFFFFFFFFFFFFFEFFFFFF63
:10053000FFFFFFF8F3FFFFFFFFFFFFF8FC7FFFFF68
:10054000FFFFFFFFFFFEFFFFFFFFFFFFF9F3FFFFCE
:10055000FFFFFFFFF8787FFFFFFFFFFFFFFFFEFFBA
:10056000FFFFFFFFFFF9F3FFFFFFFFFFFFF8307F03
:10057000FFFFFFFFFFFFFFFEFFFFFF80F8F9F9F32A
:10058000E03E3E7E00F80D837FFFFFFFFFFFFFFF91
:10059000FEFFFFFF00FC79FCF3C01F1E7C00F00C87
:1005A000C33FFFFFFFFFFFFFFFFEFFFFFE3FFE39E0
:1005B000F8038F8F8E78FCE3FCE73FFFFFFFFFFF20
:1005C000FFFFFEFFFFFE7FFF19F0039FCFC679FC00
:1005D000E7FCFF3FFFFFFFFFFFFFFFFEFFFFFE0007
:1005E000FF89E3F39FCFE279FCE00CFF3FFFFFFFC1
:1005F000FFFFFFFFFEFFFFFE007FC1E7F39FCFF08D
:1006000079FCE006FFBFFFFFFFFFFFFFFFFEFFFFDC
:10061000FE7E3FE1E7F39FCFF879FCE7E27F9FFFA3
:10062000FFFFFFFFFFFFFEFFFFFE7F3FC1E7F39FDE
:10063000CFF079FCE7F27F9FFFFFFFFFFFFFFFFE98
:10064000FFFFFE7F3F89E7F39FCFE279FCE7F27F70
:100650009FFFFFFFFFFFFFFFFEFFFFFE7F3F19E74A
:10066000F39FCFC679FCE7F27F9FFFFFFE3FFFFFBE
:10067000FFFEFFFFFE7E3E39E3F38F8F8E78FCE7AF
:10068000E27F9FFFFFF80FFFFFFFFEFFFFFE007CF2
:1006900079F003C01F1E7C00E0073FCFFFFFF0078B
:1006A000FFFFFFFEFFFFFE00F8F9F803E03E3E7E8D
:1006B00000E00F3FCFFFFFF007FFFFFFFEFFFFFF50
:1006C000FFFFFFFFFFFFFFFFFFFCFFFFFFFFFFFF3D
:1006D000F003FFFFFFFEFFFFFFFFFFFFFFFFFFFF36
:1006E000FFFFFCFFFFFFFFFFFFF003FFFFFFFEFF29
:1006F000FFFFFFFFFFFFFFFFFFFFFFFCFFFFFFFF0D
:10070000FFFFF003FFFFFFFEFFFFFFFFFFFFFFFF05
:10071000FFFFFFFFFCFFFFFFFFFFFFF003FFFFFFF7
:10072000FEFFFFFFFFFFFFFFFFFFFFFFFFFCFFFFDD
:10073000FFFFFFFFF803FFFFFFFEFFFFFFFFFFFFCD
:10074000FFFFFFFFFFFFFFFFFFFFFFFFFFF803FFBC
:10075000FFFFFEFFFFFFFFFFFFFFFFFFFFFFFFFFAA
:10076000FFFFFFFFFFFFF803FFFFFFFEFFFFFFFF9D
:10077000FFFFFFFFFFFFFFFFFFFFFFFFFFFFFFFC8C
:1007800003FFFFFFFEFFFFFFFFFFFFFFFFFFFFFF76
:10079000FFFFFFFFFFFFFFFFFC01FFFFFFFEFFFF6B
:1007A000FFFFFFFFFCF3FFFFFFFFFFFFFFFFFFFF68
:1007B000FFFC01FFFFFFFEFFFFFFFFFFFFFCF3FF5A
:1007C000FFFFFFFFFFFFFFFFFFFFFC01FFFFFFFE3B
:1007D000FFFFFFFFFFFFFCF3FFFFFFFFFFFFFFFF38
:1007E000FFFFFFFC01FFFFFFFEFFFFFFFFFFFFFC1E
:1007F000F3FFFFFFFFFFFFFFFFFFFFFFFE01FFFF14
:10080000FFFEFFFFFFFFFFFFFC73FFFFFFFFFFFF88
:10081000FFFFFFFFFFFE01FFFFFFFEFFFFFFFFFFE8
:10082000FFFC33FFFFFFFFFFFFFFFFFFFFFFFE01A6
:10083000FFFFFFFEFFFFFFFFFFFFFC93FFFFFFFF38
:10084000FFFFFFFFFFFFFFFF01FFFFFFFEFFFFFFB7
:10085000FFFFFFFCC3FFFFFFFFFFFFFFFFFFFFFFE7
:10086000FF01FFFFFFFEFFFFFFFFFFFFFCE3FFFFB6
:10087000FFFFFFFFFFFFFFFFFFFF01FFFFFFFEFF87
:10088000FFFFFFFFFFFCF3FFFFFFFFFFFFFFFFFF87
:10089000FFFFFF01FFFFFFFEFFFFFFFFFFFFFCF376
:1008A000FFFFFFFFFFFFFFFFFFFFFFFF01FFFFFF56
:1008B000FEFFFFFFFFFFFFFCF3FFFFFFFFFFFFFF58
:1008C000FFFFFFFFFF80FFFFFFFEFFFFFFFFFFFFB8
:1008D000FCF3FFFFFFFFFFFFFFFFFFFFFFFF80FFB6
:1008E000FFFFFEFFFFFFFFFFFFFFFFFFFFFFFFFF19
:1008F000FFFFFFFFFFFFFF80FFFFFFFEFFFFFFFF88
:10090000FFFFFFFFFFFFFFFFFFFFFFFFFFFFFFFFF7
:10091000C1FFFFFFFEFFFFFFFFFFFFFFFFFFFFFF26
:10092000FFFFFFFFFFFFFFFFFFC1FFFFFFFEFFFF16
:10093000FFFFFFFFFFFFFFFFFFFFFFFFFFFFFFFFC7
:10094000FFFFC0FFFFFFFEFFFFFFFFFFFFFFFFFFF7
:10095000FFFFFFFFFFFFFFFFFFFFFFE0FFFFFFFEC7
:10096000FFFFFFFFFFFFFFFFFFFFFFFFFFFFFFFF97
:10097000FFFFFFFFE0FFFFFFFEFFFFFFFFFFFFFFA7
:10098000FFFFFFFFFFFFFFFFFFFFFFFFFFE0FFFF96
:10099000FFFEFFFFFFFFFFFFFFFFFFFFFFFFFFFF68
:1009A000FFFFFFFFFFFFE0FFFFFFFEFFFFFFFFFF77
:1009B000FFFFFFFFFFFFFFFFFFFFFFFFFFFFFFE066
:1009C000FFFFFFFEFFFFFFFFFFFFFFFFFFFFFFFF38
:1009D000FFFFFFFFFFFFFFFFF07FFFFFFEFFFFFFB7
:1009E000FFFFFFFFFFFFFFFFFFFFFFFFFFFFFFFF17
:1009F000FFF07FFFFFFEFFFFFFFFFFFFFFFFFFFF97
:100A0000FFFFFFFFFFFFFFFFFFFFF07FFFFFFEFF86
:100A1000FFFFFFFFFFFFFFFFFFFFFFFFFFFFFFFFE6
:100A2000FFFFFFF07FFFFFFEFFFFFFFFFFFFFFFF66
:100A3000FFFFFFFFFFFFFFFFFFFFFFFFF07FFFFF55
:100A4000FEFFFFFFFFFFFFFFFFFFFFFFFFFFFFFFB7
:100A5000FFFFFFFFFFF07FFFFFFEFFFFFFFFFFFF36
:100A6000FFFFFFFFFFFFFFFFFFFFFFFFFFFFF07F25
:100A7000FFFFFEFFFFFFFFFFFFFFFFFFFFFFFFFF87
:100A8000FFFFFFFFFFFFFFF83FFFFFFEFFFFFFFF3E
:100A9000FFFFFFFFFFFFFFFFFFFFFFFFFFFFFFFF66
:100AA000FC7FFFFFFEFFFFFFFFFFFFFFFFFFFFFFDA
:100AB000FFFFFFFFFFFFFFFFFFFC7FFFFFFEFFFFCA
:100AC000FFFFFFFFFFFFFFFFFFFFFFFFFFFFFFFF36
:100AD000FFFFFC7FFFFFFEFFFFFFFFFFFFFFFFFFAA
:100AE000FFFFFFFFFFFFFFFFFFFFFFFC7FFFFFFE9A
:100AF000FFFFFFFFFFFFFFFFFFFFFFFFFFFFFFFF06
:100B0000FFFFFFFFFC7FFFFFFEFFFFFFFFFFE01F78
:100B1000FFFFFFFFFFFFFFFFFFFFFFFFFFF83FFFAC
:100B2000FFFEFFFFFFC000000007FFFFFFFFFFFF0A
:100B3000FFFFFFFFFFFFFC1FFFFFFEFFFFFF800027
:100B4000000001FFFFFFFFFFFFFFFFFFFFFFFFFCB4
:100B50001FFFFFFEFFFFFF0000000000FFFFFFFF81
:100B6000FFFFFFFFFFFFFFFFFC1FFFFFFEFFFFFF79
:100B700000000000001FFFFFFFFFFFFFFFFFFFFF60
:100B8000FFFC1FFFFFFEFFFFFF00000000001FFF34
:100B9000FFFFFFFFFFFFFFFFFFFFFC1FFFFFFEFF49
:100BA000FFFE00000000000FFFFFFFFFFFFFE0FF60
:100BB000FFFFFFFE3FFFFFFEFFFFFC000000000005
:100BC0000FFFFFFFFFFFFFC07FFFFFFFFE1FFFFFC5
:100BD000FEFFFFFC01FFE000000FFFFFFFFFFFFF34
:100BE000807FFFFFFFFE1FFFFFFEFFFFF803FFFFF9
:100BF000E00007FFFFFFFFFFFF807FFFFFFFFF1FFA
:100C0000FFFFFEFFFFF803FFFFFFF003FFFFFFFF03
:100C1000FFFF803FFFFFFFFF1FFFFFFEFFFFF0030F
:100C2000FFFFFFF803FFFFFFFFFFFF803FFFFFFF16
:100C3000FE0FFFFFFEFFFFF003FFFFFFF803FFFFC4
:100C4000FFFFC1FF803FFFFFFFFE0FFFFFFEFFFF23
:100C5000E007FFFFFFF803FFFFFFFF80FF803FFF7C
:100C6000FFFFFF07FFFFFEFFFFC007FFFFFFF803C7
:100C7000FFFFFFFF007F803FFFFFFFFF07FFFFFE3B
:100C8000FFFFC00FFFFFFFF803FFFFFFFF003F80E4
:100C90003FFFFFFFFF07FFFFFEFFFF801FFFFFFF7C
:100CA000F803FFFFFFFF003F803FFFFFFFFF07FF4D
:100CB000FFFEFFFF801FFFFFFFF803FFFFFFFF00A6
:100CC0001FC01FFFFFFFFF83FFFFFEFFFF803FFFEF
:100CD000FFFFF803FFFFFFFF001FC01FFFFFFFFF25
:100CE00083FFFFFEFFFF807FFFFFFFF803FFFFFF93
:100CF000FF001FC01FFFFFFFFF83FFFFFEFFFF007E
:100D00007FFFFFFFF803FFFFFFFE001FC01FFFFF75
:100D1000FFFFC3FFFFFEFFFF00FFFFFFFFF803FF22
:100D2000FFFFFE001FC01FFFFFFFFFC1FFFFFEFF11
:100D3000FE00FFFFFFFFF803FFFFFFFC001FC01FC7
:100D4000FFFFFFFFE0FFFFFEFFFE00FFFFFFFFF8DA
:100D500003FFFFFFFC001FC01FFFFFFFFFE0FFFFBF
:100D6000FEFFFE00FFFFFFFFF803FFFFFFFC001F79
:100D7000E00FFFFFFFFFE07FFFFEFFFE00FFFFFF32
:100D8000FFF803FFFFFFFC001FE00FFFFFFFFFF076
:100D90007FFFFEFFFE00FFFFFFFFF803FFFFFFFCEA
:100DA000001FE00FFFFFFFFFF07FFFFEFFFE00FFD1
:100DB000FFFFFFFC03FFFFFFFE001FE00FFFFFFF31
:100DC000FFF83FFFFEFFFE00FFFFFFFFFC03FFFFFA
:100DD000FFFE001FE00FFFFFFFFFF81FFFFEFFFEFB
:100DE000007FFFFFFFFE03FFFFFFFE001FE00FFF7E
:100DF000FFFFFFFC1FFFFEFFFE007FFFFFFFFE0364
:100E0000FFFFFFFC001FF00FFFFFFFFFFC0FFFFEC7
:100E1000FFFE003FFFFFFFFE03FFFFFFFC001FF090
:100E20000FFFFFFFFFFC07FFFEFFFF000FFFFFFFAD
:100E3000FE03FFFFFFFC001FF80FFFFFFFFFFE0791
:100E4000FFFEFFFF0007FFFFFFFE03FFFFFFFC00A9
:100E50001FF80FFFFFFFFFFF03FFFEFFFF8003FFF1
:100E6000FFFFFF07FFFFFFF8001FF80FFFFFFFFF67
:100E7000FF03FFFEFFFF80007FFFFFFF03FFFFFF79
:100E8000F8001FF80FFFFFFFFFFF81FFFEFFFF804D
:100E90000003FFFFFF03FFFFFFF0001FF80FFFFF3E
:100EA000FFFFFF80FFFEFFFFC000003FFFFF03FFCB
:100EB000FFFFE0001FF80FFFFFFFFFFFC07FFEFFF7
:100EC000FFE0000000FFFF03FFFFFFC0001FF80F5F
:100ED000FFFFFFFFFFC07FFEFFFFF800000000FFE5
:100EE00081FFFFFF80000FF80FFFFFFFFFFFE03FD4
:100EF000FEFFFFFC000000000001FFFFFF80000F6D
:100F0000F80FFFFFFFFFFFE03FFEFFFFFE000000C6
:100F1000000001FFFFFF000007F80FFFFFFFFFFFCA
:100F2000F01FFEFFFFFF800000000001FFFFFF0039
:100F30000001F00FFFFFFFFFFFF01FFEFFFFFFC0EC
:100F40000000000001FFFFFF000000E007FE0FFFB0
:100F5000FFFFF81FFEFFFFFFF80000000001FFFF8A
:100F6000FF0020002007FC07FFFFFFF81FFEFFFF28
:100F7000FFFFC000000000FFFFFF007000000FF83F
:100F800003FFFFFFFC0FFEFFFFFFFFFF000000005D
:100F9000FFFFFF007800000FF803FFFFFFF80FFED0
:100FA000FFFFFFFFFFF8000000FFFFFF80FC0000D5
:100FB0001FF803FFFFFFFC07FEFFFFFFFFFFFFF02F
:100FC00000007FFFFFC1FE00001FF803FFFFFFFCD2
:100FD00007FEFFFFFFFFFFFFFE00003FFFFFFFFEDA
:100FE00000001FF003FFFFFFFC03FEFFFFFFFFFFFA
:100FF000FFFFF0003FFFFFFFFF00003FF003FFFF98
:10100000FFFE01FEFFFFFFFFFFFFFFFF883FFFFF27
:10101000FFFFC0007FF007FFFFFFFE01FEFFFFFFA5
:10102000FFFFFFFFFFF81FFFFFFFFFC000FFF007FC
:10103000FFFFFFFE01FEFFFFFFFFFFFFFFFFF81FA7
:10104000FFFFFFFFE001FFF007FFFFFFFF01FEFFD3
:10105000FFFFFFFFFFFFFFFC1FFFFFFFFFF003FF8E
:10106000F007FFFFFFFF00FEFFFFFFFFFFFFFFFF97
:10107000FC0FFFFFFFFFFC1FFFF007FFFFFFFF005C
:101080007EFFFFFFFFFFFFFFFFFE0FFFFFFFFFFFE2
:10109000FFFFF007F8000000007EFFFFFFFFFFFFEB
:1010A000FFFFFF0FFFFFFFFFFFFFFFF0000000004B
:1010B00000007EFFFFFFFFFFFFFFFFFF87FFFFFF37
:1010C000FFFFFFFFF00000000000003EFFFFFFFFFA
:1010D000FFFFFFFFFF87FFFFFFFFFFFFFFF00000A5
:1010E000000000001EFFFFFFFFFFFFFFFFFFC3FF29
:1010F000FFFFFFFFFFFFF00000000000001EFFFFEA
:10110000FFFFFFFFFFFFFFC3FFFFFFFFFFFFFFF832
:101110000000000000001EFFFFFFFFFFFFFFFFFFBA
:10112000E3FFFFFFFFFFFFFFF80000000000003EAD
:10113000FFFFFFFFFFFFFFFFFFC1FFFFFFFFFFFFFD
:10114000FFF80000000000007EFFFFFFFFFFFFFF31
:10115000FFFFE0FFFFFFFFFFFFFFFC0000000000BC
:1011600000FEFFFFFFFFFFFFFFFFFFE0FFFFFFFFAE
:10117000FFFFFFFFF001FFFFFFFFFEFFFFFFFFFF8D
:10118000FFFFFFFFE0FFFFFFFFFFFFFFFFFFFFFF8E
:10119000FFFFFFFEFFFFFFFFFFFFFFFFFFF07FFFEF
:1011A000FFFFFFFFFFFFFFFFFFFFFFFFFEFFFFFF50
:1011B000FFFFFFFFFFFFF8FFFFFFFFFFFFFFFFFF46
:1011C000FFFFFFFFFFFEFFFFFFFFFFFFFFFFFFF837
:1011D0007FFFFFFFFFFFFFFFFFFFFFFFFFFFFEFFA0
:1011E000FFFFFFFFFFFFFFFFF87FFFFFFFFFFFFF96
:1011F000FFFFFFFFFFFFFFFEFFFFFFFFFFFFFFFF00
:10120000FFFC3FFFFFFFFFFFFFFFFFFFFFFFFFFFB1
:10121000FEFFFFFFFFFFFFFFFFFFFC1FFFFFFFFFC2
:10122000FFFFFFFFFFFFFFFFFFFEFFFFFFFFFFFFCF
:10123000FFFFFFFC1FFFFFFFFFFFFFFFFFFFFFFFA1
:10124000FFFFFEFFFFFFFFFFFFFFFFFFFC1FFFFF92
:10125000FFFFFFFFFFFFFFFFFFFFFFFEFFFFFFFF9F
:10126000FFFFFFFFFFFE0FFFFFFFFFFFFFFFFFFF7F
:10127000FFFFFFFFFEFFFFFFFFFFFFFFFFFFFE0F70
:10128000FFFFFFFFFFFFFFFFFFFFFFFFFFFEFFFF6F
:10129000FFFFFFFFFFFFFFFE0FFFFFFFFFFFFFFF4F
:1012A000FFFFFFFFFFFFFEFFFFFFFFFFFFFFFFFF4F
:1012B000FE07FFFFFFFFFFFFFFFFFFFFFFFFFFFE38
:1012C000FFFFFFFFFFFFFFFFFFFE07FFFFFFFFFF27
:1012D000FFFFFFFFFFFFFFFFFEFFFFFFFFFFFFFF1F
:1012E000FFFFFF03FFFFFFFFFFFFFFFFFFFFFFFF0A
:1012F000FFFEFFFFFFFFFFFFFFFFFFFE03FFFFFFFC
:10130000FFFFFFFFFFFFFFFFFFFFFEFFFFFFFFFFEE
:10131000FFFFFFFFFF03FFFFFFFFFFFFFFFFFFFFD9
:10132000FFFFFFFEFFFFFFFFFFFFFFFFFFFF03FFCA
:10133000FFFFFFFFFFFFFFFFFFFFFFFFFEFFFFFFBE
:10134000FFFFFFFFFFFFFF83FFFFFFFFFFFFFFFF29
:10135000FFFFFFFFFFFEFFFFFFFFFFFFFFFFFFFF9E
:1013600081FFFFFFFFFFFFFFFFFFFFFFFFFFFEFF0C
:10137000FFFFFFFFFFFFFFFFFF81FFFFFFFFFFFFFB
:10138000FFFFFFFFFFFFFFFEFFFFFFFFFFFFFFFF6E
:10139000FFFF80FFFFFFFFFFFFFFFFFFFFFFFFFFDC
:1013A000FEFFFFFFFFFFFFFFFFFFFF80FFFFFFFFCD
:1013B000FFFFFFFFFFFFFFFFFFFEFFFFFFFFFFFF3E
:1013C000FFFFFFFF80FFFFFFFFFFFFFFFFFFFFFFAC
:1013D000FFFFFEFFFFFFFFFFFFFFFFFFFF80FFFF9D
:1013E000FFFFFFFFFFFFFFFFFFFFFFFEFFFFFFFF0E
:1013F000FFFFFFFFFFFF007FFFFFFFFFFFFFFFFF7C
:10140000FFFFFFFFFEFFFFFFFFFFFFFFFFFFFF00EC
:101410007FFFFFFFFFFFFFFFFFFFFFFFFFFEFFFF5D
:10142000FFFFFFFFFFFFFFFF007FFFFFFFFFFFFF4B
:10143000FFFFFFFFFFFFFEFFFFFFFFFFFFFFFFFFBD
:10144000FF80FFFFFFFFFFFFFFFFFFFFFFFFFFFE2C
:10145000FFFFFFFFFFFFFFFFFFFFC1FFFFFFFFFFDA
:10146000FFFFFFFFFFFFFFFFFEFFFFFFFFFFFFFF8D
:10147000FFFFFFE3FFFFFFFFFFFFFFFFFFFFFFFF98
:10148000FFFE1018180818180800000000000000DF
:1014900000000000000013144412000000000000CF
:1014A00000020201111212222266696959589999A3
:1014B0008800000000F8B4135135515119010000A3
:1014C000000000000000000000000000000000001C
:1014D000000000000000000000000000000000000C
:1014E00000000000000000000000000000000000FC
:1014F00000000000000000000000000000000000EC
:10244000FFFFFFC3839F83990103FFFFFF0000008D
:10245000000000000000000000000000000000007C
:10246000000000000000000000000000000000006C
:10247000000000000000000000000000000000005C
:10248000000000000000000000000000000000004C
:10249000000000000000000000000000000000003C
:1024A000000000000000000000000000000000002C
:1024B000000000000000000000000000000000001C
:1024C0009F83F1C181383D1981C3FFFFFF000000E8
:1024D00000000000000000000000000000000000FC
:1024E00000000000000000000000000000000000EC
:1024F00000000000000000000000000000000000DC
:1025000000000000000000000000000000000000CB
:1025100000000000000000000000000000000000BB
:1025200000000000000000000000000000000000AB
:10253000000000000000000000000000000000009B
:10254000FFFFFFC0C0CCC09C80C0FFFFFF000000A9
:10255000000000000000000000000000000000007B
:10256000000000000000000000000000000000006B
:10257000000000000000000000000000000000005B
:10258000000000000000000000000000000000004B
:10259000000000000000000000000000000000003B
:1025A000000000000000000000000000000000002B
:1025B000000000000000000000000000000000001B
:1025C000FFFFFF010133F3F3C1C1FFFFFF00000074
:1025D00000000000000000000000000000000000FB
:1025E00000000000000000000000000000000000EB
:1025F00000000000000000000000000000000000DB
:1026000000000000000000000000000000000000CA
:1026100000000000000000000000000000000000BA
:1026200000000000000000000000000000000000AA
:10263000000000000000000000000000000000009A
:10264000FFFFFF8383939B9900003C3CFF00000049
:10265000000000000000000000000000000000007A
:10266000000000000000000000000000000000006A
:10267000000000000000000000000000000000005A
:10268000000000000000000000000000000000004A
:10269000000000000000000000000000000000003A
:1026A000000000000000000000000000000000002A
:1026B000000000000000000000000000000000001A
:1026C000FFFFFFC3813901F98183FFFFFF00000095
:1026D00000000000000000000000000000000000FA
:1026E00000000000000000000000000000000000EA
:1026F00000000000000000000000000000000000DA
:1027000000000000000000000000000000000000C9
:1027100000000000000000000000000000000000B9
:1027200000000000000000000000000000000000A9
:102730000000000000000000000000000000000099
:10274000FFFFFF24A18181A12524FFFFFF000000DE
:102750000000000000000000000000000000000079
:102760000000000000000000000000000000000069
:102770000000000000000000000000000000000059
:102780000000000000000000000000000000000049
:102790000000000000000000000000000000000039
:1027A0000000000000000000000000000000000029
:1027B0000000000000000000000000000000000019
:1027C000FFFFFF8381998F3F8183FFFFFF000000A0
:1027D00000000000000000000000000000000000F9
:1027E00000000000000000000000000000000000E9
:1027F00000000000000000000000000000000000D9
:1028000000000000000000000000000000000000C8
:1028100000000000000000000000000000000000B8
:1028200000000000000000000000000000000000A8
:102830000000000000000000000000000000000098
:10284000FFFFFFB99989A1B1B1B9FFFFFF000000F7
:102850000000000000000000000000000000000078
:102860000000000000000000000000000000000068
:102870000000000000000000000000000000000058
:102880000000000000000000000000000000000048
:102890000000000000000000000000000000000038
:1028A0000000000000000000000000000000000028
:1028B0000000000000000000000000000000000018
:1028C000D3C7FFB99909A1B1B1B9FFFFFF0000005B
:1028D00000000000000000000000000000000000F8
:1028E00000000000000000000000000000000000E8
:1028F00000000000000000000000000000000000D8
:1029000000000000000000000000000000000000C7
:1029100000000000000000000000000000000000B7
:1029200000000000000000000000000000000000A7
:102930000000000000000000000000000000000097
:10294000FFFFFF3999C9C1C91939FFFFFF00000016
:102950000000000000000000000000000000000077
:102960000000000000000000000000000000000067
:102970000000000000000000000000000000000057
:102980000000000000000000000000000000000047
:102990000000000000000000000000000000000037
:1029A0000000000000000000000000000000000027
:1029B0000000000000000000000000000000000017
:1029C000FFFFFF8383939B99989CFFFFFF0000000C
:1029D00000000000000000000000000000000000F7
:1029E00000000000000000000000000000000000E7
:1029F00000000000000000000000000000000000D7
:102A000000000000000000000000000000000000C6
:102A100000000000000000000000000000000000B6
:102A200000000000000000000000000000000000A6
:102A30000000000000000000000000000000000096
:102A4000FFFFFF381800242C3C3CFFFFFF00000074
:102A50000000000000000000000000000000000076
:102A60000000000000000000000000000000000066
:102A70000000000000000000000000000000000056
:102A80000000000000000000000000000000000046
:102A90000000000000000000000000000000000036
:102AA0000000000000000000000000000000000026
:102AB0000000000000000000000000000000000016
:102AC000FFFFFF39390101393939FFFFFF000000ED
:102AD00000000000000000000000000000000000F6
:102AE00000000000000000000000000000000000E6
:102AF00000000000000000000000000000000000D6
:102B000000000000000000000000000000000000C5
:102B100000000000000000000000000000000000B5
:102B200000000000000000000000000000000000A5
:102B30000000000000000000000000000000000095
:102B4000FFFFFFC381393C3981C3FFFFFF00000055
:102B50000000000000000000000000000000000075
:102B60000000000000000000000000000000000065
:102B70000000000000000000000000000000000055
:102B80000000000000000000000000000000000045
:102B90000000000000000000000000000000000035
:102BA0000000000000000000000000000000000025
:102BB0000000000000000000000000000000000015
:102BC000FFFFFF01013939393939FFFFFF000000EC
:102BD00000000000000000000000000000000000F5
:102BE00000000000000000000000000000000000E5
:102BF00000000000000000000000000000000000D5
:102C000000000000000000000000000000000000C4
:102C100000000000000000000000000000000000B4
:102C200000000000000000000000000000000000A4
:102C30000000000000000000000000000000000094
:102C4000FFFFFF808039391981C1F9F9F9000000CF
:102C50000000000000000000000000000000000074
:102C60000000000000000000000000000000000064
:102C70000000000000000000000000000000000054
:102C80000000000000000000000000000000000044
:102C90000000000000000000000000000000000034
:102CA0000000000000000000000000000000000024
:102CB0000000000000000000000000000000000014
:102CC000FFFFFF8783B9F9F98387FFFFFF0000004B
:102CD00000000000000000000000000000000000F4
:102CE00000000000000000000000000000000000E4
:102CF00000000000000000000000000000000000D4
:102D000000000000000000000000000000000000C3
:102D100000000000000000000000000000000000B3
:102D200000000000000000000000000000000000A3
:102D30000000000000000000000000000000000093
:102D4000FFFFFF010125E7E78181FFFFFF00000092
:102D50000000000000000000000000000000000073
:102D60000000000000000000000000000000000063
:102D70000000000000000000000000000000000053
:102D80000000000000000000000000000000000043
:102D90000000000000000000000000000000000033
:102DA0000000000000000000000000000000000023
:102DB0000000000000000000000000000000000013
:102DC000FFFFFF3C39999393C7C7CFE1F3000000A1
:102DD00000000000000000000000000000000000F3
:102DE00000000000000000000000000000000000E3
:102DF00000000000000000000000000000000000D3
:102E000000000000000000000000000000000000C2
:102E100000000000000000000000000000000000B2
:102E200000000000000000000000000000000000A2
:102E30000000000000000000000000000000000092
:102E4000E3E3E781012424240181E7E7E7000000B0
:102E50000000000000000000000000000000000072
:102E60000000000000000000000000000000000062
:102E70000000000000000000000000000000000052
:102E80000000000000000000000000000000000042
:102E90000000000000000000000000000000000032
:102EA0000000000000000000000000000000000022
:102EB0000000000000000000000000000000000012
:102EC000FFFFFF3993C3C7C39939FFFFFF0000001D
:102ED00000000000000000000000000000000000F2
:102EE00000000000000000000000000000000000E2
:102EF00000000000000000000000000000000000D2
:102F000000000000000000000000000000000000C1
:102F100000000000000000000000000000000000B1
:102F200000000000000000000000000000000000A1
:102F30000000000000000000000000000000000091
:102F4000FEFEFE989898989800007E7EFE00000095
:102F50000000000000000000000000000000000071
:102F60000000000000000000000000000000000061
:102F70000000000000000000000000000000000051
:102F80000000000000000000000000000000000041
:102F90000000000000000000000000000000000031
:102FA0000000000000000000000000000000000021
:102FB0000000000000000000000000000000000011
:102FC000FFFFFFB9B9998183BFBFFFFFFF0000007A
:102FD00000000000000000000000000000000000F1
:102FE00000000000000000000000000000000000E1
:102FF00000000000000000000000000000000000D1
:1030000000000000000000000000000000000000C0
:1030100000000000000000000000000000000000B0
:1030200000000000000000000000000000000000A0
:103030000000000000000000000000000000000090
:10304000FFFFFF24242424240000FFFFFF000000D2
:103050000000000000000000000000000000000070
:103060000000000000000000000000000000000060
:103070000000000000000000000000000000000050
:103080000000000000000000000000000000000040
:103090000000000000000000000000000000000030
:1030A0000000000000000000000000000000000020
:1030B0000000000000000000000000000000000010
:1030C000FFFFFFA4A4A4A4A400007F7FFF000000D2
:1030D00000000000000000000000000000000000F0
:1030E00000000000000000000000000000000000E0
:1030F00000000000000000000000000000000000D0
:1031000000000000000000000000000000000000BF
:1031100000000000000000000000000000000000AF
:10312000000000000000000000000000000000009F
:10313000000000000000000000000000000000008F
:10314000FFFFFFF0F08303338383FFFFFF000000E6
:10315000000000000000000000000000000000006F
:10316000000000000000000000000000000000005F
:10317000000000000000000000000000000000004F
:10318000000000000000000000000000000000003F
:10319000000000000000000000000000000000002F
:1031A000000000000000000000000000000000001F
:1031B000000000000000000000000000000000000F
:1031C000FFFFFF3C3C20000C2020FFFFFF00000021
:1031D00000000000000000000000000000000000EF
:1031E00000000000000000000000000000000000DF
:1031F00000000000000000000000000000000000CF
:1032000000000000000000000000000000000000BE
:1032100000000000000000000000000000000000AE
:10322000000000000000000000000000000000009E
:10323000000000000000000000000000000000008E
:10324000FFFFFFF9F981811981C1FFFFFF00000035
:10325000000000000000000000000000000000006E
:10326000000000000000000000000000000000005E
:10327000000000000000000000000000000000004E
:10328000000000000000000000000000000000003E
:10329000000000000000000000000000000000002E
:1032A000000000000000000000000000000000001E
:1032B000000000000000000000000000000000000E
:1032C000FFFFFFC1811D071F81C1FFFFFF0000003D
:1032D00000000000000000000000000000000000EE
:1032E00000000000000000000000000000000000DE
:1032F00000000000000000000000000000000000CE
:1033000000000000000000000000000000000000BD
:1033100000000000000000000000000000000000AD
:10332000000000000000000000000000000000009D
:10333000000000000000000000000000000000008D
:10334000FFFFFF8D05212125058DFFFFFF000000F8
:10335000000000000000000000000000000000006D
:10336000000000000000000000000000000000005D
:10337000000000000000000000000000000000004D
:10338000000000000000000000000000000000003D
:10339000000000000000000000000000000000002D
:1033A000000000000000000000000000000000001D
:1033B000000000000000000000000000000000000D
:1033C000FFFFFF8381B98183B1B9FFFFFF000000D8
:1033D00000000000000000000000000000000000ED
:1033E00000000000000000000000000000000000DD
:1033F00000000000000000000000000000000000CD
:1034000000000000000000000000000000000000BC
:1034100000000000000000000000000000000000AC
:10342000000000000000000000000000000000009C
:10343000000000000000000000000000000000008C
:10344000000000000000000000000000000000007C
:10345000000000000000000000000000000000006C
:10346000000000000000000000000000000000005C
:10347000000000000000000000000000000000004C
:10348000000000000000000000000000000000003C
:10349000000000000000000000000000000000002C
:1034A000000000000000000000000000000000001C
:1034B000000000000000000000000000000000000C
:1034C0009B9BFFC3813901F98183FFFFFF0000004F
:1034D00000000000000000000000000000000000EC
:1034E00000000000000000000000000000000000DC
:1034F00000000000000000000000000000000000CC
:1035000000000000000000000000000000000000BB
:10454000FFFFFFFFFFFFFFFFFFFFFFFFFF00000078
:10455000000000000000000000000000000000005B
:10456000000000000000000000000000000000004B
:10457000000000000000000000000000000000003B
:10458000000000000000000000000000000000002B
:10459000000000000000000000000000000000001B
:1045A000000000000000000000000000000000000B
:1045B00000000000000000000000000000000000FB
:1045C000F3F3F3F3F3F3F7FFF3F3FFFFFF00000060
:1045D00000000000000000000000000000000000DB
:1045E00000000000000000000000000000000000CB
:1045F00000000000000000000000000000000000BB
:1046000000000000000000000000000000000000AA
:10461000000000000000000000000000000000009A
:10462000000000000000000000000000000000008A
:10463000000000000000000000000000000000007A
:10464000C9E9E9E9FFFFFFFFFFFFFFFFFF000000EF
:10465000000000000000000000000000000000005A
:10466000000000000000000000000000000000004A
:10467000000000000000000000000000000000003A
:10468000000000000000000000000000000000002A
:10469000000000000000000000000000000000001A
:1046A000000000000000000000000000000000000A
:1046B00000000000000000000000000000000000FA
:1046C000FFB7970101D38181C9E9FFFFFF00000017
:1046D00000000000000000000000000000000000DA
:1046E00000000000000000000000000000000000CA
:1046F00000000000000000000000000000000000BA
:1047000000000000000000000000000000000000A9
:104710000000000000000000000000000000000099
:104720000000000000000000000000000000000089
:104730000000000000000000000000000000000079
:10474000E783C1E9E9C387979781C1E7FF000000CC
:104750000000000000000000000000000000000059
:104760000000000000000000000000000000000049
:104770000000000000000000000000000000000039
:104780000000000000000000000000000000000029
:104790000000000000000000000000000000000019
:1047A0000000000000000000000000000000000009
:1047B00000000000000000000000000000000000F9
:1047C000713494C4E187436B4D9FFFFFFF000000ED
:1047D00000000000000000000000000000000000D9
:1047E00000000000000000000000000000000000C9
:1047F00000000000000000000000000000000000B9
:1048000000000000000000000000000000000000A8
:104810000000000000000000000000000000000098
:104820000000000000000000000000000000000088
:104830000000000000000000000000000000000078
:10484000E3C1C9E3F3610C1C0061FFFFFF0000003E
:104850000000000000000000000000000000000058
:104860000000000000000000000000000000000048
:104870000000000000000000000000000000000038
:104880000000000000000000000000000000000028
:104890000000000000000000000000000000000018
:1048A0000000000000000000000000000000000008
:1048B00000000000000000000000000000000000F8
:1048C000E7E7E7E7FFFFFFFFFFFFFFFFFF00000055
:1048D00000000000000000000000000000000000D8
:1048E00000000000000000000000000000000000C8
:1048F00000000000000000000000000000000000B8
:1049000000000000000000000000000000000000A7
:104910000000000000000000000000000000000097
:104920000000000000000000000000000000000087
:104930000000000000000000000000000000000077
:10494000DFC7E3F3FBF9F9F9FBF3E3C7DF0000008E
:104950000000000000000000000000000000000057
:104960000000000000000000000000000000000047
:104970000000000000000000000000000000000037
:104980000000000000000000000000000000000027
:104990000000000000000000000000000000000017
:1049A0000000000000000000000000000000000007
:1049B00000000000000000000000000000000000F7
:1049C000E7C79F9F3F3F3F3F3F1F9FC7E700000054
:1049D00000000000000000000000000000000000D7
:1049E00000000000000000000000000000000000C7
:1049F00000000000000000000000000000000000B7
:104A000000000000000000000000000000000000A6
:104A10000000000000000000000000000000000096
:104A20000000000000000000000000000000000086
:104A30000000000000000000000000000000000076
:104A4000DBD3C70101C7D3DBFFFFFFFFFF0000007F
:104A50000000000000000000000000000000000056
:104A60000000000000000000000000000000000046
:104A70000000000000000000000000000000000036
:104A80000000000000000000000000000000000026
:104A90000000000000000000000000000000000016
:104AA0000000000000000000000000000000000006
:104AB00000000000000000000000000000000000F6
:104AC000FFE7E7E70101E7E7E7FFFFFFFF0000007F
:104AD00000000000000000000000000000000000D6
:104AE00000000000000000000000000000000000C6
:104AF00000000000000000000000000000000000B6
:104B000000000000000000000000000000000000A5
:104B10000000000000000000000000000000000095
:104B20000000000000000000000000000000000085
:104B30000000000000000000000000000000000075
:104B4000FFFFFFFFFFFFFFFFF3E3E7F7FB000000BE
:104B50000000000000000000000000000000000055
:104B60000000000000000000000000000000000045
:104B70000000000000000000000000000000000035
:104B80000000000000000000000000000000000025
:104B90000000000000000000000000000000000015
:104BA0000000000000000000000000000000000005
:104BB00000000000000000000000000000000000F5
:104BC000FFFFFFFFFFC3C3FFFFFFFFFFFF0000006A
:104BD00000000000000000000000000000000000D5
:104BE00000000000000000000000000000000000C5
:104BF00000000000000000000000000000000000B5
:104C000000000000000000000000000000000000A4
:104C10000000000000000000000000000000000094
:104C20000000000000000000000000000000000084
:104C30000000000000000000000000000000000074
:104C4000FFFFFFFFFFFFFFFFE7E7FFFFFF000000A1
:104C50000000000000000000000000000000000054
:104C60000000000000000000000000000000000044
:104C70000000000000000000000000000000000034
:104C80000000000000000000000000000000000024
:104C90000000000000000000000000000000000014
:104CA0000000000000000000000000000000000004
:104CB00000000000000000000000000000000000F4
:104CC000BF9F9FCFCFEFE7F7F3FBF9F9FF0000009D
:104CD00000000000000000000000000000000000D4
:104CE00000000000000000000000000000000000C4
:104CF00000000000000000000000000000000000B4
:104D000000000000000000000000000000000000A3
:104D10000000000000000000000000000000000093
:104D20000000000000000000000000000000000083
:104D30000000000000000000000000000000000073
:104D4000C38119190D31399981C3FFFFFF0000009C
:104D50000000000000000000000000000000000053
:104D60000000000000000000000000000000000043
:104D70000000000000000000000000000000000033
:104D80000000000000000000000000000000000023
:104D90000000000000000000000000000000000013
:104DA0000000000000000000000000000000000003
:104DB00000000000000000000000000000000000F3
:104DC000EFE3E1EDEFEFEFEF8181FFFFFF00000088
:104DD00000000000000000000000000000000000D3
:104DE00000000000000000000000000000000000C3
:104DF00000000000000000000000000000000000B3
:104E000000000000000000000000000000000000A2
:104E10000000000000000000000000000000000092
:104E20000000000000000000000000000000000082
:104E30000000000000000000000000000000000072
:104E4000C3819F9F9FCFE7F38181FFFFFF00000099
:104E50000000000000000000000000000000000052
:104E60000000000000000000000000000000000042
:104E70000000000000000000000000000000000032
:104E80000000000000000000000000000000000022
:104E90000000000000000000000000000000000012
:104EA0000000000000000000000000000000000002
:104EB00000000000000000000000000000000000F2
:104EC0008181CFE7C7839F9F81C1FFFFFF00000063
:104ED00000000000000000000000000000000000D2
:104EE00000000000000000000000000000000000C2
:104EF00000000000000000000000000000000000B2
:104F000000000000000000000000000000000000A1
:104F10000000000000000000000000000000000091
:104F20000000000000000000000000000000000081
:104F30000000000000000000000000000000000071
:104F4000CFCFC7D3D90000DFDFDFFFFFFF000000B6
:104F50000000000000000000000000000000000051
:104F60000000000000000000000000000000000041
:104F70000000000000000000000000000000000031
:104F80000000000000000000000000000000000021
:104F90000000000000000000000000000000000011
:104FA0000000000000000000000000000000000001
:104FB00000000000000000000000000000000000F1
:104FC0008383FBFBC3839F9F81E3FFFFFF00000000
:104FD00000000000000000000000000000000000D1
:104FE00000000000000000000000000000000000C1
:104FF00000000000000000000000000000000000B1
:1050000000000000000000000000000000000000A0
:105010000000000000000000000000000000000090
:105020000000000000000000000000000000000080
:105030000000000000000000000000000000000070
:10504000CFC7F3F9C181391981C3FFFFFF00000009
:105050000000000000000000000000000000000050
:105060000000000000000000000000000000000040
:105070000000000000000000000000000000000030
:105080000000000000000000000000000000000020
:105090000000000000000000000000000000000010
:1050A0000000000000000000000000000000000000
:1050B00000000000000000000000000000000000F0
:1050C00081819FDFCFEFE7F7F3FBFFFFFF000000D9
:1050D00000000000000000000000000000000000D0
:1050E00000000000000000000000000000000000C0
:1050F00000000000000000000000000000000000B0
:10510000000000000000000000000000000000009F
:10511000000000000000000000000000000000008F
:10512000000000000000000000000000000000007F
:10513000000000000000000000000000000000006F
:10514000C3819999C383993981C3FFFFFF00000090
:10515000000000000000000000000000000000004F
:10516000000000000000000000000000000000003F
:10517000000000000000000000000000000000002F
:10518000000000000000000000000000000000001F
:10519000000000000000000000000000000000000F
:1051A00000000000000000000000000000000000FF
:1051B00000000000000000000000000000000000EF
:1051C000C381193901839F9FC3F3FFFFFF000000D4
:1051D00000000000000000000000000000000000CF
:1051E00000000000000000000000000000000000BF
:1051F00000000000000000000000000000000000AF
:10520000000000000000000000000000000000009E
:10521000000000000000000000000000000000008E
:10522000000000000000000000000000000000007E
:10523000000000000000000000000000000000006E
:10524000FFFFFFE7E7FFFFFFFFE7E7FFFF000000CB
:10525000000000000000000000000000000000004E
:10526000000000000000000000000000000000003E
:10527000000000000000000000000000000000002E
:10528000000000000000000000000000000000001E
:10529000000000000000000000000000000000000E
:1052A00000000000000000000000000000000000FE
:1052B00000000000000000000000000000000000EE
:1052C00000000000000000000000000000000000DE
:1052D00000000000000000000000000000000000CE
:1052E00000000000000000000000000000000000BE
:1052F00000000000000000000000000000000000AE
:10530000000000000000000000000000000000009D
:10531000000000000000000000000000000000008D
:10532000000000000000000000000000000000007D
:10533000000000000000000000000000000000006D
:10534000FFBF9FC7F1F8F1C79FBFFFFFFF0000003D
:10535000000000000000000000000000000000004D
:10536000000000000000000000000000000000003D
:10537000000000000000000000000000000000002D
:10538000000000000000000000000000000000001D
:10539000000000000000000000000000000000000D
:1053A00000000000000000000000000000000000FD
:1053B00000000000000000000000000000000000ED
:1053C00000000000000000000000000000000000DD
:1053D00000000000000000000000000000000000CD
:1053E00000000000000000000000000000000000BD
:1053F00000000000000000000000000000000000AD
:10540000000000000000000000000000000000009C
:10541000000000000000000000000000000000008C
:10542000000000000000000000000000000000007C
:10543000000000000000000000000000000000006C
:10544000000000000000000000000000000000005C
:10545000000000000000000000000000000000004C
:10546000000000000000000000000000000000003C
:10547000000000000000000000000000000000002C
:10548000000000000000000000000000000000001C
:10549000000000000000000000000000000000000C
:1054A00000000000000000000000000000000000FC
:1054B00000000000000000000000000000000000EC
:1054C000C3819D9FCFE7E7FFE7E7FFFFFF000000F5
:1054D00000000000000000000000000000000000CC
:1054E00000000000000000000000000000000000BC
:1054F00000000000000000000000000000000000AC
:10550000000000000000000000000000000000009B
:1062C0008181F9F9F9F9F9F9F9F9F9818100000009
:1062D00000000000000000000000000000000000BE
:1062E00000000000000000000000000000000000AE
:1062F000000000000000000000000000000000009E
:10630000000000000000000000000000000000008D
:10631000000000000000000000000000000000007D
:10632000000000000000000000000000000000006D
:10633000000000000000000000000000000000005D
:10634000F9F9F3F3F7E7EFCFCF9F9FBFFF0000000E
:10635000000000000000000000000000000000003D
:10636000000000000000000000000000000000002D
:10637000000000000000000000000000000000001D
:10638000000000000000000000000000000000000D
:1063900000000000000000000000000000000000FD
:1063A00000000000000000000000000000000000ED
:1063B00000000000000000000000000000000000DD
:1063C00083839F9F9F9F9F9F9F9F9F83830000002A
:1063D00000000000000000000000000000000000BD
:1063E00000000000000000000000000000000000AD
:1063F000000000000000000000000000000000009D
:10640000000000000000000000000000000000008C
:10641000000000000000000000000000000000007C
:10642000000000000000000000000000000000006C
:10643000000000000000000000000000000000005C
:10644000000000000000000000000000000000004C
:10645000000000000000000000000000000000003C
:10646000000000000000000000000000000000002C
:10647000000000000000000000000000000000001C
:10648000000000000000000000000000000000000C
:1064900000000000000000000000000000000000FC
:1064A00000000000000000000000000000000000EC
:1064B00000000000000000000000000000000000DC
:1064C00000000000000000000000000000000000CC
:1064D00000000000000000000000000000000000BC
:1064E00000000000000000000000000000000000AC
:1064F000000000000000000000000000000000009C
:10650000000000000000000000000000000000008B
:10651000000000000000000000000000000000007B
:10652000000000000000000000000000000000006B
:10653000000000000000000000000000000000005B
:10654000000000000000000000000000000000004B
:10655000000000000000000000000000000000003B
:10656000000000000000000000000000000000002B
:10657000000000000000000000000000000000001B
:10658000000000000000000000000000000000000B
:1065900000000000000000000000000000000000FB
:1065A00000000000000000000000000000000000EB
:1065B00000000000000000000000000000000000DB
:1065C000FFFFFFC1819F81809C0011FFFF00000041
:1065D00000000000000000000000000000000000BB
:1065E00000000000000000000000000000000000AB
:1065F000000000000000000000000000000000009B
:10660000000000000000000000000000000000008A
:10661000000000000000000000000000000000007A
:10662000000000000000000000000000000000006A
:10663000000000000000000000000000000000005A
:10664000F8F8F98101317979390183FFFF00000001
:10665000000000000000000000000000000000003A
:10666000000000000000000000000000000000002A
:10667000000000000000000000000000000000001A
:10668000000000000000000000000000000000000A
:1066900000000000000000000000000000000000FA
:1066A00000000000000000000000000000000000EA
:1066B00000000000000000000000000000000000DA
:1066C000FFFFFF8381B8FCFCF80183FFFF0000009F
:1066D00000000000000000000000000000000000BA
:1066E00000000000000000000000000000000000AA
:1066F000000000000000000000000000000000009A
:106700000000000000000000000000000000000089
:106710000000000000000000000000000000000079
:106720000000000000000000000000000000000069
:106730000000000000000000000000000000000059
:106740008F8F9F81809C9C9C9C0021FFFF000000FC
:106750000000000000000000000000000000000039
:106760000000000000000000000000000000000029
:106770000000000000000000000000000000000019
:106780000000000000000000000000000000000009
:1067900000000000000000000000000000000000F9
:1067A00000000000000000000000000000000000E9
:1067B00000000000000000000000000000000000D9
:1067C000FFFFFFC3813C0000FC8183FFFF0000004E
:1067D00000000000000000000000000000000000B9
:1067E00000000000000000000000000000000000A9
:1067F0000000000000000000000000000000000099
:106800000000000000000000000000000000000088
:106810000000000000000000000000000000000078
:106820000000000000000000000000000000000068
:106830000000000000000000000000000000000058
:106840000703F38080F3F3F3F38000FFFF00000001
:106850000000000000000000000000000000000038
:106860000000000000000000000000000000000028
:106870000000000000000000000000000000000018
:106880000000000000000000000000000000000008
:1068900000000000000000000000000000000000F8
:1068A00000000000000000000000000000000000E8
:1068B00000000000000000000000000000000000D8
:1068C000FFFFFF8301989C9C1880019F81000000BE
:1068D00000000000000000000000000000000000B8
:1068E00000000000000000000000000000000000A8
:1068F0000000000000000000000000000000000098
:106900000000000000000000000000000000000087
:106910000000000000000000000000000000000077
:106920000000000000000000000000000000000067
:106930000000000000000000000000000000000057
:10694000F8F8F98901317939793979FFFF000000C8
:106950000000000000000000000000000000000037
:106960000000000000000000000000000000000027
:106970000000000000000000000000000000000017
:106980000000000000000000000000000000000007
:1069900000000000000000000000000000000000F7
:1069A00000000000000000000000000000000000E7
:1069B00000000000000000000000000000000000D7
:1069C000E7E7FFE0E0E7E7E7E70000FFFF000000A0
:1069D00000000000000000000000000000000000B7
:1069E00000000000000000000000000000000000A7
:1069F0000000000000000000000000000000000097
:106A00000000000000000000000000000000000086
:106A10000000000000000000000000000000000076
:106A20000000000000000000000000000000000066
:106A30000000000000000000000000000000000056
:106A40009F9FFF81839F9F9F9F9F9F9F810000002B
:106A50000000000000000000000000000000000036
:106A60000000000000000000000000000000000026
:106A70000000000000000000000000000000000016
:106A80000000000000000000000000000000000006
:106A900000000000000000000000000000000000F6
:106AA00000000000000000000000000000000000E6
:106AB00000000000000000000000000000000000D6
:106AC000F8F8F9391989C1C1991939FFFF00000097
:106AD00000000000000000000000000000000000B6
:106AE00000000000000000000000000000000000A6
:106AF0000000000000000000000000000000000096
:106B00000000000000000000000000000000000085
:106B10000000000000000000000000000000000075
:106B20000000000000000000000000000000000065
:106B30000000000000000000000000000000000055
:106B4000E1E1E7E7E7E7E7E7E7070FFFFF0000001E
:106B50000000000000000000000000000000000035
:106B60000000000000000000000000000000000025
:106B70000000000000000000000000000000000015
:106B80000000000000000000000000000000000005
:106B900000000000000000000000000000000000F5
:106BA00000000000000000000000000000000000E5
:106BB00000000000000000000000000000000000D5
:106BC000FFFFFF1200262626262626FFFF000000D4
:106BD00000000000000000000000000000000000B5
:106BE00000000000000000000000000000000000A5
:106BF0000000000000000000000000000000000095
:106C00000000000000000000000000000000000084
:106C10000000000000000000000000000000000074
:106C20000000000000000000000000000000000064
:106C30000000000000000000000000000000000054
:106C4000FFFFFF0800317979797979FFFF000000B3
:106C50000000000000000000000000000000000034
:106C60000000000000000000000000000000000024
:106C70000000000000000000000000000000000014
:106C80000000000000000000000000000000000004
:106C900000000000000000000000000000000000F4
:106CA00000000000000000000000000000000000E4
:106CB00000000000000000000000000000000000D4
:106CC000FFFFFFC1801C3C3C1C80C3FFFF00000095
:106CD00000000000000000000000000000000000B4
:106CE00000000000000000000000000000000000A4
:106CF0000000000000000000000000000000000094
:106D00000000000000000000000000000000000083
:106D10000000000000000000000000000000000073
:106D20000000000000000000000000000000000063
:106D30000000000000000000000000000000000053
:106D4000FFFF0800317979390181F9F9F900000074
:106D50000000000000000000000000000000000033
:106D60000000000000000000000000000000000023
:106D70000000000000000000000000000000000013
:106D80000000000000000000000000000000000003
:106D900000000000000000000000000000000000F3
:106DA00000000000000000000000000000000000E3
:106DB00000000000000000000000000000000000D3
:106DC000FFFF8381989C9C9C80819F9F1F000000F7
:106DD00000000000000000000000000000000000B3
:106DE00000000000000000000000000000000000A3
:106DF0000000000000000000000000000000000093
:106E00000000000000000000000000000000000082
:106E10000000000000000000000000000000000072
:106E20000000000000000000000000000000000062
:106E30000000000000000000000000000000000052
:106E4000FFFF880033F3F3F38080FFFFFF000000B3
:106E50000000000000000000000000000000000032
:106E60000000000000000000000000000000000022
:106E70000000000000000000000000000000000012
:106E80000000000000000000000000000000000002
:106E900000000000000000000000000000000000F2
:106EA00000000000000000000000000000000000E2
:106EB00000000000000000000000000000000000D2
:106EC000FFFF8180F8E1879D80C1FFFFFF00000088
:106ED00000000000000000000000000000000000B2
:106EE00000000000000000000000000000000000A2
:106EF0000000000000000000000000000000000092
:106F00000000000000000000000000000000000081
:106F10000000000000000000000000000000000071
:106F20000000000000000000000000000000000061
:106F30000000000000000000000000000000000051
:106F4000F3F30000F3F3F3730307FFFFFF00000008
:106F50000000000000000000000000000000000031
:106F60000000000000000000000000000000000021
:106F70000000000000000000000000000000000011
:106F80000000000000000000000000000000000001
:106F900000000000000000000000000000000000F1
:106FA00000000000000000000000000000000000E1
:106FB00000000000000000000000000000000000D1
:106FC000FFFF8C8C9C9C9C9C0031FFFFFF0000000D
:106FD00000000000000000000000000000000000B1
:106FE00000000000000000000000000000000000A1
:106FF0000000000000000000000000000000000091
:107000000000000000000000000000000000000080
:107010000000000000000000000000000000000070
:107020000000000000000000000000000000000060
:107030000000000000000000000000000000000050
:10704000FFFF3C1C9999C1C3C3E7FFFFFF0000008D
:107050000000000000000000000000000000000030
:107060000000000000000000000000000000000020
:107070000000000000000000000000000000000010
:107080000000000000000000000000000000000000
:1070900000000000000000000000000000000000F0
:1070A00000000000000000000000000000000000E0
:1070B00000000000000000000000000000000000D0
:1070C000FFFF7E3E242400808899FFFFFF00000020
:1070D00000000000000000000000000000000000B0
:1070E00000000000000000000000000000000000A0
:1070F0000000000000000000000000000000000090
:10710000000000000000000000000000000000007F
:10711000000000000000000000000000000000006F
:10712000000000000000000000000000000000005F
:10713000000000000000000000000000000000004F
:10714000FFFF1C99C1C3C3C9981CFFFFFF000000CB
:10715000000000000000000000000000000000002F
:10716000000000000000000000000000000000001F
:10717000000000000000000000000000000000000F
:1071800000000000000000000000000000000000FF
:1071900000000000000000000000000000000000EF
:1071A00000000000000000000000000000000000DF
:1071B00000000000000000000000000000000000CF
:1071C000FFFF3C3C9C9999D3C3C3E7E1F100000069
:1071D00000000000000000000000000000000000AF
:1071E000000000000000000000000000000000009F
:1071F000000000000000000000000000000000008F
:10720000000000000000000000000000000000007E
:10721000000000000000000000000000000000006E
:10722000000000000000000000000000000000005E
:10723000000000000000000000000000000000004E
:10724000FFFF00008FC7F3F90000FFFFFF00000001
:10725000000000000000000000000000000000002E
:10726000000000000000000000000000000000001E
:10727000000000000000000000000000000000000E
:1072800000000000000000000000000000000000FE
:1072900000000000000000000000000000000000EE
:1072A00000000000000000000000000000000000DE
:1072B00000000000000000000000000000000000CE
:1072C0008F87E7E7E7F1F1E7E7E7E7878F0000005F
:1072D00000000000000000000000000000000000AE
:1072E000000000000000000000000000000000009E
:1072F000000000000000000000000000000000008E
:10730000000000000000000000000000000000007D
:10731000000000000000000000000000000000006D
:10732000000000000000000000000000000000005D
:10733000000000000000000000000000000000004D
:10734000E1E1CFCFCF8F8FCFCFCFE7E1E1000000DA
:10735000000000000000000000000000000000002D
:10736000000000000000000000000000000000001D
:10737000000000000000000000000000000000000D
:1073800000000000000000000000000000000000FD
:1073900000000000000000000000000000000000ED
:1073A00000000000000000000000000000000000DD
:1073B00000000000000000000000000000000000CD
:1073C000FFFFFFFFF3818FFFFFFFFFFFFF000000C4
:1073D00000000000000000000000000000000000AD
:1073E000000000000000000000000000000000009D
:1073F000000000000000000000000000000000008D
:10740000000000000000000000000000000000007C
:10741000000000000000000000000000000000006C
:10742000000000000000000000000000000000005C
:10743000000000000000000000000000000000004C
:10744000000000000000000000000000000000003C
:10745000000000000000000000000000000000002C
:10746000000000000000000000000000000000001C
:10747000000000000000000000000000000000000C
:1074800000000000000000000000000000000000FC
:1074900000000000000000000000000000000000EC
:1074A00000000000000000000000000000000000DC
:1074B00000000000000000000000000000000000CC
:1074C00000000000000000000000000000000000BC
:1074D00000000000000000000000000000000000AC
:1074E000000000000000000000000000000000009C
:1074F000000000000000000000000000000000008C
:10750000000000000000000000000000000000007B
:10751000000000000000000000000000000000006B
:10752000000000000000000000000000000000005B
:10753000000000000000000000000000000000004B
:1075400013E2A0E0B0E2E0E9FDEB00E00BBF02C017
:1075500007900D92AA3EB107D9F71BBE2BE3AAEE06
:10756000B3E201C01D92AF32B207E1F70E940545B8
:1075700084E690E00E94104B48EC50E068EC70E02C
:1075800080E090E00E94A44688EB9BE00E94104BB4
:107590000E9472418FEA90E20E94583B0E94414053
:1075A00088EE93E00E94104BFBCF81E080930106B0
:1075B000089581E08093070608950F931F93CF935A
:1075C000DF93CDB7DEB72A97CDBFDEBF382F4C3063
:1075D00018F08DEC90E230C0E22FF0E0EE0FFF1FCC
:1075E000EB5EF54C83859485009719F489EE90E263
:1075F00023C03983DE011296FB01042F10E09F01A6
:10760000261B370B201731071CF421912D93F7CF40
:107610000FB6F8940F920F5F1F4F20E030E0A801E3
:10762000BE016F5F7F4F0E94465A0F900FBE8017BA
:10763000910721F08CE091E20E94583B2A96CDBF41
:10764000DEBFDF91CF911F910F9108950C94104BE5
:107650000E9475452AE041E06DE087E591E20E94D5
:10766000B1452BE041E063E185E691E20E94B1453E
:107670000E9405460E94F4450C945C3FCF93DF9333
:1076800000D0CDB7DEB789839A836B8320E044E6D0
:1076900050E0BE016F5F7F4F80911B3A90911C3A82
:1076A0000E9425512396CDBFDEBFDF91CF91089573
:1076B000CF93DF9300D0CDB7DEB789839A831B8247
:1076C00020E044E650E0BE016F5F7F4F80911B3A9F
:1076D00090911C3A0E9425512396CDBFDEBFDF91C9
:1076E000CF910895E0EAF6E088E085838183E0EABF
:1076F000FBE083E0858383818061838389E18683E6
:10770000178284818D61848308951F920F920FB632
:107710000F92112408B60F9218BE09B60F9219BE27
:107720000AB60F921ABE0BB60F921BBE2F933F9351
:107730004F935F936F937F938F939F93AF93BF9379
:10774000EF93FF93CF93DF9300D01F92CDB7DEB7B7
:1077500019822091A00B2A838091243A90E01C8208
:107760001B8230ED320F3A3080F43A83880F991F34
:10777000FC01EB5EF54C83859485009779F19E01C1
:107780002C5F3F4F42E050E024C0283739F522E01B
:107790002983880F991FFC01EB5EF54C8385948546
:1077A000009751F09E012C5F3F4F41E050E0BE0139
:1077B0006F5F7F4F0E94E65A81E089838091203A73
:1077C0009091213A009751F09E012D5F3F4F41E08B
:1077D00050E0BE016F5F7F4F0E94E65A8C8181119D
:1077E00002C08B8181110E94A45D2496CDBFDEBFB3
:1077F000DF91CF91FF91EF91BF91AF919F918F91C9
:107800007F916F915F914F913F912F910F900BBEA0
:107810000F900ABE0F9009BE0F9008BE0F900FBECA
:107820000F901F9018959091A10B95FFFCCF80931E
:10783000A00B0895EF92FF921F93CF93DF931F92B7
:10784000CDB7DEB77C011982FC0101900020E9F779
:1078500031971E2F181B19828981811758F489814D
:10786000F701E80FF11D80810E94133C89818F5F31
:107870008983F2CF0F90DF91CF911F91FF90EF900E
:107880000895FF920F931F93CF93DF931F92CDB76D
:10789000DEB78C0119820E943640F82E1982898148
:1078A0008F1558F48981F801E80FF11D80810E943D
:1078B000133C99819F5F9983F2CF0F90DF91CF9115
:1078C0001F910F91FF900895CF93DF93CDB7DEB74F
:1078D0002897CDBFDEBF15E080911B3A90911C3AEE
:1078E0000E944B548823C1F34FEF5FEFBE016A5FE4
:1078F0007F4F80911B3A90911C3A0E942552813013
:1079000059F78E819F810E941A3CE9E7F1E2DE017E
:107910001196812F01900D928A95E1F72AE043E0BC
:10792000BE016E5F7F4F88850E94D33FCE010196D6
:107930000E94413C8AE00E94133C8DE00E94133C6F
:10794000CBCF8091440684FF03C080E1809346063C
:1079500008958091440684FD03C080E1809345062C
:1079600008958091080683FB882780F9089580E1B7
:1079700080930506089580E180930606089580911E
:10798000040681FD03C082E080930506089580917E
:10799000040681FF03C082E08093060608950C94DC
:1079A000104B80EB809341060E94A93C88E08093B5
:1079B000020680E58093C00808951F93CF93DF935C
:1079C000C0E0D6E010E11E8384E690E00E94104BF8
:1079D0001D8384E690E0DF91CF911F910C94104BB2
:1079E0008093C3088091C20887FFFCCF80E0089590
:1079F000CF93DF931F92CDB7DEB789830E94C73C38
:107A000089810F90DF91CF910C94F03C0F931F93DD
:107A1000CF93DF938C01EB010E94C73C1092EA23C5
:107A20002091EA2330E02C173D0770F48091EA237F
:107A3000F801E80FF11D80810E94F03C9091EA234B
:107A40009F5F9093EA23ECCFDF91CF911F910F912D
:107A50000895CF93DF931F92CDB7DEB789830E943D
:107A6000BF3C89810F90DF91CF910C94F03C0F9334
:107A70001F93CF93DF938C01EB010E94BF3C1092C8
:107A8000EA232091EA2330E02C173D0770F480911F
:107A9000EA23F801E80FF11D80810E94F03C9091EB
:107AA000EA239F5F9093EA23ECCFDF91CF911F9160
:107AB0000F9108950E94B13C813029F484E690E052
:107AC0000E94104BF7CF08950E94A13C82E20E94D1
:107AD000F83C84EC0E94293D0E94A93C0E94A13CF4
:107AE00080E20E94F83C0E94A93C0E94A13C8FEFDA
:107AF0000E94F83C0E94A93C0C945A3D0F931F939E
:107B0000CF93DF931F921F92CDB7DEB78C016983AD
:107B10007A830E945A3D0E94A13C8EE40E94F83C68
:107B2000C80123E0959587952A95E1F70E94293DA4
:107B30000E94A93C0E94A13C8FE40E94F83C69810C
:107B4000862F0E94293D7A81872F0E94293D0F9020
:107B50000F90DF91CF911F910F910C94A93CFF9250
:107B60000F931F93CF93DF9300D0CDB7DEB7182FBD
:107B7000042FF52E2A833B8369830E94A13C84E471
:107B80000E94F83C812F0E94293D6981862F0E9426
:107B9000293D0E94A93C0E94A13C85E40E94F83C3A
:107BA000802F0E94293D8F2D0E94293D2A81822FFE
:107BB0000E94293D3B81832F0E94293D0E94A93CC0
:107BC0000E94A13C8EE40E94F83C812F0E94293D36
:107BD0000E94A93C0E94A13C8FE40E94F83C802FA7
:107BE0000E94293D8F2D0E94293D2396CDBFDEBFE7
:107BF000DF91CF911F910F91FF900C94A93C1F939F
:107C0000CF93DF93182F27EC30E047EC50E060E093
:107C100080E00E94AF3D0E94A13C84E20E94F83CBB
:107C2000C8E8D3E1812F0E94293D2197D9F7DF9140
:107C3000CF911F910C94A93CCF93DF93EC010E944C
:107C4000A13C82E30E94F83C1092EA239091EA233F
:107C50009E3170F48091EA23FE01E80FF11D8491BA
:107C60000E94293D9091EA239F5F9093EA23EECFF3
:107C7000DF91CF910C94A93C8FEF0E94FF3D0E94B1
:107C8000643D80E00E94FF3D0C94643D0E94A13C55
:107C900082E20E94F83C80EC0E94293D0E94A93CAF
:107CA0000E94A13C80E20E94F83C0E94A93C0C94F6
:107CB0005A3D0E94A13C82E20E94F83C80EC0E9466
:107CC000293D0E94A93C0E94A13C80E20E94F83C10
:107CD0000E94A93C0C945A3D0E945A3D0E94A13C2E
:107CE00082E20E94F83C87EC0E94293D0E94A93C58
:107CF0000E94A13C80E20E94F83C0E94A93C0E94A4
:107D0000A13C8FEF0E94F83C0E94A93C0C945A3D84
:107D10008F929F92AF92BF92CF92DF92EF92FF929B
:107D20000F931F93CF93DF937B018A0190E0079617
:107D300023E0959587952A95E1F7C82F0E94A13CED
:107D400084E20E94F83CC12CD12CA12CB12CAE14A1
:107D5000BF04D9F0D0E0DC17A0F40115110521F41F
:107D60008FEF0E94293D0BC046018FEF881A980AB9
:107D7000F801EC0DFD1D84910E94293D6401DF5F37
:107D8000EACF8FEFA81AB80AE2CFDF91CF911F9107
:107D90000F91FF90EF90DF90CF90BF90AF909F90AA
:107DA0008F900C94A93C80EE8093610687E08093CD
:107DB00042060895CF93DF9380EE8093620680E2BF
:107DC000809361068093650688E290E00E94263BDE
:107DD0008091480680FF03C0C0E0D1E002C0C0E04F
:107DE000D0E081FDC06282FDC46080E280936606BF
:107DF00080EE8093620680E480936106809365063E
:107E000088E290E00E94263B8091480680FDC06891
:107E100081FDC06182FDC26080E48093660680EED1
:107E20008093620680E8809361068093650688E20D
:107E300090E00E94263B8091480680FDC06481FD51
:107E4000C86082FDC16080E88093660680EE809302
:107E50006206CE01DF91CF9108950E94DA3E00972D
:107E600029F58091253A9091263A892B19F120E045
:107E700030E061E070E0822F4091253A5091263A3F
:107E8000FB01022E02C0EE0FFF1F0A94E2F74E2301
:107E90005F23452B31F42F5F3F4F2031310559F7D8
:107EA00080E11092253A1092263A08958093253A5F
:107EB0009093263A80E10895CF938EE791E20E9455
:107EC000583B0E942D3FC82F8031D9F3682F8EE890
:107ED00091E20E943E3B8C2FCF9108958093273AE8
:107EE00020E040E050E060E070E080911D3A909129
:107EF0001E3A0C9425518091273A089580E1809391
:107F0000273A0E94054584E690E00E94263B48EC13
:107F100050E068EC70E08AEF90E00E94A44684E6AE
:107F200090E00E94263B8AE991E20E94583B6FEF65
:107F30007FEF80911D3A90911E3A0E94B552813098
:107F4000B1F781EB91E20E94583B88EE93E00E94EA
:107F5000263BEDCF90EE980F9B3138F420E8829FBE
:107F6000C0011124805C9A4C08958C3399F08F33B2
:107F7000A1F095EA980F933088F39FE9980F9B3111
:107F800068F393E8980F923048F3813F49F480E416
:107F90009DEC089580E493E5089580EC94E50895C0
:107FA00080EC95E40895CF93DF93C82FDB01EEEFCB
:107FB000E20FEF3028F4F0E0E056FF4D308101C0D1
:107FC00038E0431708F4342FD32FD1508C2F622F71
:107FD0000E949F5E4D2F50E04A0F5B1F9A3010F0B9
:107FE000995C01C0905DFA0190838C2F622F0E94F2
:107FF0009F5EC82FD111E9CF832FDF91CF910895D4
:10800000FF920F931F93CF93DF93FC01EB01AEEF31
:10801000A20FAF3028F4B0E0AF56BF4D3C9101C085
:1080200030E1431708F4342FF32E022F10E0FA94B6
:10803000CF01B8010E94AB5E4F2D50E0DE01A40FCE
:10804000B51F8A3010F097E301C090E3980F9C931E
:10805000CF01B8010E94AB5EFB01F110E8CF832F86
:10806000DF91CF911F910F91FF900895FC0190E057
:108070008191882319F09F5F9F3FD1F781E0890F9D
:108080000895EF92FF920F93E12CF12C01E020E094
:1080900030E045E550E06AEC71E281E691E40E944F
:1080A000864781E08093243A84E690E00E94263B54
:1080B00021E040E060E070E081E00F91FF90EF9000
:1080C0000C94DD3A0895853051F0883091F082307B
:1080D000B9F48091283A863098F48F5F0FC0809170
:1080E000283A28E1829FC00111248050904E0E94BE
:1080F00021438091283A882319F081508093283AAF
:1081000008950F931F93CF93DF93CDB7DEB7699791
:10811000CDBFDEBF162F042F9EE7998F98E1989F61
:10812000F0011124E050F04EDE01119601900D9205
:108130009A95E1F79091283A891308C0242F4FEFC0
:10814000460F61E0CE0149960E94B145202F412F94
:108150006CE0CE0101960E94B1454CE0410F202F0A
:108160006CE0CE010D960E94B1456996CDBFDEBF91
:10817000DF91CF911F910F9108950E94754529EBD2
:1081800041E064E188ED91E20E94B14540EA61E09E
:1081900080E00E9481404CE861E081E00E948140E3
:1081A00048E761E082E00E94814044E661E083E0CC
:1081B0000E94814040E561E084E00E9481404CE300
:1081C00061E085E00E9481400E9405460C94F445E0
:1081D0000F931F93CF93DF93CDB7DEB7C456D1096A
:1081E000CDBFDEBF1092283A8DEE91E20E94583B3F
:1081F0002FEF3FEF44E650E0BE016F5F7F4F80916D
:10820000223A9091233A0E94385B8C01892B81F3AA
:108210006981613001F15CF461114EC06A8183E0D3
:1082200092E20E943E3B8A810E94634025C06230F8
:1082300031F1633009F040C089E292E20E94583B7C
:108240004091283ADE01119688E1489FA00111244F
:1082500020E030E005C086E192E20E94583B0CC06D
:108260008D91F901E40FF51FE050F04E84872F5FE8
:108270003F4F20173107A1F70E94BD40B9CF81E4DD
:1082800092E20E94583B1092243A8091223A9091B7
:10829000233A0E94F1591092223A1092233A80E038
:1082A00090E00E948A48CC59DF4FCDBFDEBFDF91FE
:1082B000CF911F910F91089580E692E20E943E3B7C
:1082C00097CF41E060E070E084E690E00E94C459FE
:1082D0008093223A9093233A0E94E84088E792E202
:1082E0000C94583B8DE892E20E94583BA0E6B6E021
:1082F00081E011968C93119715968C931597E0E871
:10830000F6E088E081838583E0EAFAE083E0858314
:108310008FE3838389E1868317828DE1848380E103
:1083200011968C93119715968C9380EA92E20C9497
:10833000583B1F920F920FB60F92112408B60F925E
:1083400018BE09B60F9219BE0AB60F921ABE0BB626
:108350000F921BBE2F933F934F935F936F937F9327
:108360008F939F93AF93BF93EF93FF93CF93DF933D
:108370001F92CDB7DEB780E1809366061982E09147
:1083800090208091A00AF0E0E65DF54C808380911A
:1083900090208F3F19F481E080939020809190206D
:1083A000853028F1E0919020F0E0E75DF54C808188
:1083B0008D30E9F4E0919020F0E0E65DF54C8081AD
:1083C0008A30A9F4109290208091223A9091233A19
:1083D000009769F023E020932A3A4091902050E0E2
:1083E0009E012F5F3F4F6AE27AE30E94E65A809136
:1083F00090208F5F8093902080E180936506898133
:1084000081110E94A45D0F90DF91CF91FF91EF91B8
:10841000BF91AF919F918F917F916F915F914F919C
:108420003F912F910F900BBE0F900ABE0F9009BE87
:108430000F9008BE0F900FBE0F901F901895EF92EF
:10844000FF920F931F93CF93DF931F921F92CDB78D
:10845000DEB7082F7B010E94A34989839A8368EEC7
:1084600073E0E69EC001E79E900DF69E900D1124EC
:108470000E94AB5E7B019091A10A192F107295FFAB
:1084800004C00093A00A11E010C00E94A3492981F2
:108490003A81821B930BE816F90618F00E94A45D3E
:1084A000EACF86EB92E20E94583B812F0F900F900B
:1084B000DF91CF911F910F91FF90EF900895EF9270
:1084C000FF921F93CF93DF931F92CDB7DEB77C014E
:1084D0001982FC0101900020E9F731971E2F181B2B
:1084E00019828981811768F48981F701E80FF11DEC
:1084F00068EE73E080810E941F4289818F5F8983CB
:10850000F0CF68EE73E08AE00E941F420F90DF9187
:10851000CF911F91FF90EF900895EF92FF921F93DC
:10852000CF93DF931F92CDB7DEB77C01162F198250
:1085300019829981911768F48981F701E80FF11D7B
:1085400068EE73E080810E941F4299819F5F99834A
:10855000F0CF0F90DF91CF911F91FF90EF90089592
:10856000EF92FF920F931F93CF93DF931F921F926F
:10857000CDB7DEB78C017B010E94A34989839A8322
:1085800068EE73E0E69EC001E79E900DF69E900DAA
:1085900011240E94AB5E7B018091A10A87FF0AC073
:1085A0006091A00AF80160838BEC92E20E943E3B4E
:1085B00081E00DC00E94A34929813A81821B930B5F
:1085C000E816F90618F00E94A45DE6CF80E00F904F
:1085D0000F90DF91CF911F910F91FF90EF90089531
:1085E000CF92DF92EF92FF920F931F93CF936C0184
:1085F0007B010AE21AE3C0E0B601C8010E94B04262
:10860000813021F4F80180818D3031F0CF5F0F5F30
:108610001F4FCF3F89F70CC0C13051F480912B3AE6
:108620008D3031F480912A3AF701808381E001C0D6
:1086300080E0CF911F910F91FF90EF90DF90CF904E
:1086400008950F931F93CF93DF931F92CDB7DEB79B
:108650008C010E945F42BE016F5F7F4F88EE93E006
:108660000E94F042682FC8010E943E3B0F90DF91AC
:10867000CF911F910F910895EF92FF920F938093E6
:10868000293B90932A3BE12CF12C01E020E030E0E3
:1086900045E550E067ED72E288EF94E40E9486477A
:1086A0001092243A84E690E00E94263B20E040E0CD
:1086B00060E070E081E00F91FF90EF900C94DD3A64
:1086C000853079F0883039F0823009F04EC08091E1
:1086D000EB23815003C08091EB238F5F8093EB23CA
:1086E00008958091EB2387FD40C08091EB2387FFA5
:1086F0003CC08091293B90912A3B2091EB23FC01C7
:1087000035E02302E00DF11D1124E281F0E0EE0FCF
:10871000FF1FEB5EF54C23853485232B61F42091FC
:10872000EB23FC0135E02302E00DF11D1124019043
:10873000F081E02D19942091EB23FC0135E0230218
:10874000E00DF11D112422812093243A2091EB2386
:10875000FC0135E02302E00DF11D1124228140E0EF
:1087600060E070E081E00C94DD3A089565E080EE11
:1087700092E20E943E3B0E94754524EB41E06DE091
:1087800087E591E20E94B1458091EB238330B4F0FC
:108790008091EB23883094F48091EB23E091293B86
:1087A000F0912A3B95E08902E00DF11D11243F97DD
:1087B00024EB40E06FE08381948105C024EB40E02E
:1087C0006FE08BEE92E20E94B1458091EB23823004
:1087D000B4F08091EB23873094F48091EB23E09107
:1087E000293BF0912A3B95E08902E00DF11D11240F
:1087F0003A9720EA41E06FE08381948105C020EA46
