:100000000C94DE260C94161C0C94A0250C94541B06
:10001000FFFFFFFFFFFFFFFFFFFFE773E773E773DC
:10002000E773E773E773E773E773E773E773E77300
:10003000800380039FFF9FFF9FFFFFFFFFFFFE3FA7
:10004000FE3FFEFFFEFFFEFFE00FC0078EE39EF3C4
:100050009EF39EF39EF39EF39EF39EF38EE3C00702
:10006000E00FFEFFFEFFFEFFFEFFFEFFF39FE38FAC
:10007000F39FFFFFFFFFF83FE01FC7CFCFE7CFE7BA
:10008000C007C007FFE7FFE7FFE7CF8FC00FF03FD4
:10009000FFFFFFFFFFFFFFFFFFFFEFFFC03FE01F7E
:1000A000FFCFFFE7F067E017C7C7CFE3CFE38FE3EA
:1000B0008FE3CFE7CFE7CFE7E78FE00FF83FFFFF12
:1000C000FFFFFFFFFFFFFFFFFFFFFFFFFFFFFFFF40
:1000D000FFFFFFFFFC1FFBEFF7FFF7FFF01FF3E74A
:1000E000F7F3F7FBF3FBF4F7C60FFFFFFFFFFFFF8C
:1000F000FFFFFFFFFFFFFFFFFFFFFFFFFFFFFFFF10
:10010000FFFFFFFFFFFFFFFFFFFFFFFFFFFFFEFF00
:10011000FFFFFFFFFFFFFFFFFFFFFFFFFFFFFFFFEF
:10012000FFFFFFFFFFFFFFFEFFFFFFFFFFFFFFFFE0
:10013000FFFFFFFFFFFFFFFFFFFFFFFFFFFFFFFFCF
:10014000FEFFFFFFFFFFFFFFFFFFFFFFFFFFFFFFC0
:10015000FFFFFFFFFFFFFFFFFFFEFFFFFFFFFFFFB0
:10016000FFFFFFFFFFFFFFFFFFFFFFFFFFFFFFFF9F
:10017000FFFFFEFFFFFFFFFFFFFFFFFFFCE7FCFFAE
:10018000FFFFFFFFFFFFFFFFFFFFFFFEFFFFFFFF80
:10019000FFFFFFFFFFFCE7FCFFFE3F1C78FFFFFFB8
:1001A000FFFFFFFFFEFFFFFFFFFFFFFFFFFFFCFF63
:1001B000FCFFFE1E1E79FFFFFFFFFFFFFFFEFFFF9C
:1001C000FFFFFFFFFFFFFFFCFFFCFFFE1E1F31FFD5
:1001D000FFFFFFFFFFFFFEFFFFFFFFFFFFFFFFF03F
:1001E0007CE784F87E5C9F13FFFFFFFFFFFFFFFEAD
:1001F000FFFFFFFFFFFFFFFFE01CE700E01E4C9F3B
:1002000087FFFFFFFFFFFFFFFEFFFFFFFFFFFFFF77
:10021000FFC79CE638E79E4C9FC7FFFFFFFFFFFF2D
:10022000FFFEFFFFFFFFFFFFFFFFCFCCE67CCFCE3F
:10023000619FC7FFFFFFFFFFFFFFFEFFFFFFFFFF05
:10024000FFFFFFC00CE67CCFCE619F87FFFFFFFF63
:10025000FFFFFFFEFFFFFFFFFFFFFFFFC00CE67C7D
:10026000CFCE739F93FFFFFFFFFFFFFFFEFFFFFF58
:10027000FFFFFFFFFFFFCCE67CCFCE739F31FFFF78
:10028000FFFFFFFFFFFEFFFFFFFFFFFFFFFFDF9C02
:10029000E638E79E7F9E39FFFFFFFFFFFFFFFEFF6F
:1002A000FFFFFFFFFFFFFFC01CE700E01E7F9E7CFB
:1002B000FFFFFFFFFFFFFFFEFFFFFFFFFFFFFFFF4F
:1002C000E07CE784F87E7F9C7C7FFFFFFFFFFFFFE1
:1002D000FEFFFFFFFFFFFFFFFFFFFFFFFFFFFFFF2F
:1002E000FFFFFFFFFFFFFFFFFFFEFFFFFFFFFFFF1F
:1002F000FFFFFFFFFFFFFFFFFFFFFFFFFFFFFFFF0E
:10030000FFFFFEFFFFFFFFFFFFFFFFFFFFFFFFFFFE
:10031000FFFFFFFFFFFFFFFFFFFFFFFEFFFFFFFFEE
:10032000FFFFFFFFFFFFFFFFFFFFFFFFFFFFFFFFDD
:10033000FFFFFFFFFEFFFFFFFFFFFFFFFFFFFFFFCE
:10034000FFFFFFFFFFFFFFFFFFFFFFFFFFFEFFFFBE
:10035000FFFFFFFFFFFFFFFFFFFFFFFFFFFFFFFFAD
:10036000FFFFFFFFFFFFFEFFFFFFFFFFFFFFFFFF9E
:10037000FFFFFFFFFFFFFFFFFFFFFFFFFFFFFFFE8E
:10038000FFFFFFFFFFFFFFFFFFFFFFFFFFFFFFFF7D
:10039000FFFFFFFFFFFFFFFFFEFFFFFFFFFFFFFF6E
:1003A000FFFFFFFFFFFFFFFFFFFFFFFFFFFFFFFF5D
:1003B000FFFEFFFFFFFFFFFFFFFFFFFFFFFFFFFF4E
:1003C000FFFFFFFFFFFFFFFFFFFFFEFFFFFFFFFF3E
:1003D000FFFFFFFFFFFFFFFFFFFFFFFFFFFFFFFF2D
:1003E000FFFFFFFEFFFFFFFFFFFFFFFFFFFFFFFF1E
:1003F000FFFFFFFFFFFFFFFFFFFFFFFFFEFFFFFF0E
:10040000FFFFFFFFFFFFFFFFFFFFFFFFFFFFFFFFFC
:10041000FFFFFFFFFFFEFFFFFFFFFFFFFFFFFFFFED
:10042000FFFFFFFFFFFFFFFFFFFFFFFFFFFFFEFFDD
:10043000FFFFFFFFFFFFFFFFFFFFFFFFFFFFFFFFCC
:10044000FFFFFFFFFFFFFFFEFFFFFFFFFFFFFFFFBD
:10045000FFFFFFFFFFFFFFFFFFFFFFFFFFFFFFFFAC
:10046000FEFFFFFFFFFFFFFFFFFFFFFFFFFFFFFF9D
:10047000FFFFFFFFFFFFFFFFFFFEFFFFFFFFFFFF8D
:10048000FFFFFFFFFFFFFFFFFFFFFFFFFFFFFFFF7C
:10049000FFFFFEFFFFFFFFFFFFFFFFFFFFFFFFFF6D
:1004A000FFFFFFFFFFFFFFFFFFFFFFFEFFFFFFFF5D
:1004B000FFFFFFFFFFFFFFFFFFFFFFFFFFFFFFFF4C
:1004C000FFFFFFFFFEFFFFFFFFFFFFFFFFFFFFFF3D
:1004D000FFFFFFFFFFFFFFFFFFFFFFFFFFFEFFFF2D
:1004E000FFFFFFFFFFFFFFFFFFFFFFFFFFFFFFFF1C
:1004F000FFFFFFFFFFFFFEFFFFFFFFFFFFFE07FF06
:10050000FFFFFFFFFFFBFEFFFFFFFFFFFFFFFFFE01
:10051000FFFFFFFFFFFFFC03FFFFFFFFFFFFF9FEF1
:100520007FFFFFFFFFFFFFFFFEFFFFFFFFFFFFF863
:10053000F3FFFFFFFFFFFFF8FC7FFFFFFFFFFFFF61
:10054000FFFEFFFFFFFFFFFFF9F3FFFFFFFFFFFFCE
:10055000F8787FFFFFFFFFFFFFFFFEFFFFFFFFFFBA
:10056000FFF9F3FFFFFFFFFFFFF8307FFFFFFFFF03
:10057000FFFFFFFEFFFFFF80F8F9F9F3E03E3E7E4C
:1005800000F80D837FFFFFFFFFFFFFFFFEFFFFFF70
:1005900000FC79FCF3C01F1E7C00F00CC33FFFFF82
:1005A000FFFFFFFFFFFEFFFFFE3FFE39F8038F8FC7
:1005B0008E78FCE3FCE73FFFFFFFFFFFFFFFFEFF3E
:1005C000FFFE7FFF19F0039FCFC679FCE7FCFF3FDA
:1005D000FFFFFFFFFFFFFFFEFFFFFE00FF89E3F3CA
:1005E0009FCFE279FCE00CFF3FFFFFFFFFFFFFFF23
:1005F000FEFFFFFE007FC1E7F39FCFF079FCE0062E
:10060000FFBFFFFFFFFFFFFFFFFEFFFFFE7E3FE19B
:10061000E7F39FCFF879FCE7E27F9FFFFFFFFFFF43
:10062000FFFFFEFFFFFE7F3FC1E7F39FCFF079FCA6
:10063000E7F27F9FFFFFFFFFFFFFFFFEFFFFFE7F51
:100640003F89E7F39FCFE279FCE7F27F9FFFFFFF4F
:10065000FFFFFFFFFEFFFFFE7F3F19E7F39FCFC6BF
:1006600079FCE7F27F9FFFFFFE3FFFFFFFFEFFFFEA
:10067000FE7E3E39E3F38F8F8E78FCE7E27F9FFFAB
:10068000FFF80FFFFFFFFEFFFFFE007C79F003C0C5
:100690001F1E7C00E0073FCFFFFFF007FFFFFFFEBC
:1006A000FFFFFE00F8F9F803E03E3E7E00E00F3F5A
:1006B000CFFFFFF007FFFFFFFEFFFFFFFFFFFFFF82
:1006C000FFFFFFFFFFFCFFFFFFFFFFFFF003FFFF48
:1006D000FFFEFFFFFFFFFFFFFFFFFFFFFFFFFCFF2E
:1006E000FFFFFFFFFFF003FFFFFFFEFFFFFFFFFF26
:1006F000FFFFFFFFFFFFFFFCFFFFFFFFFFFFF00318
:10070000FFFFFFFEFFFFFFFFFFFFFFFFFFFFFFFFFA
:10071000FCFFFFFFFFFFFFF003FFFFFFFEFFFFFFF8
:10072000FFFFFFFFFFFFFFFFFFFCFFFFFFFFFFFFDC
:10073000F803FFFFFFFEFFFFFFFFFFFFFFFFFFFFCD
:10074000FFFFFFFFFFFFFFFFFFF803FFFFFFFEFFBD
:10075000FFFFFFFFFFFFFFFFFFFFFFFFFFFFFFFFA9
:10076000FFFFF803FFFFFFFEFFFFFFFFFFFFFFFF9D
:10077000FFFFFFFFFFFFFFFFFFFFFFFC03FFFFFF88
:10078000FEFFFFFFFFFFFFFFFFFFFFFFFFFFFFFF7A
:10079000FFFFFFFFFC01FFFFFFFEFFFFFFFFFFFF6B
:1007A000FCF3FFFFFFFFFFFFFFFFFFFFFFFC01FF69
:1007B000FFFFFEFFFFFFFFFFFFFCF3FFFFFFFFFF59
:1007C000FFFFFFFFFFFFFC01FFFFFFFEFFFFFFFF3B
:1007D000FFFFFCF3FFFFFFFFFFFFFFFFFFFFFFFC3B
:1007E00001FFFFFFFEFFFFFFFFFFFFFCF3FFFFFF27
:1007F000FFFFFFFFFFFFFFFFFE01FFFFFFFEFFFF09
:10080000FFFFFFFFFC73FFFFFFFFFFFFFFFFFFFF87
:10081000FFFE01FFFFFFFEFFFFFFFFFFFFFC33FFB7
:10082000FFFFFFFFFFFFFFFFFFFFFE01FFFFFFFED8
:10083000FFFFFFFFFFFFFC93FFFFFFFFFFFFFFFF37
:10084000FFFFFFFF01FFFFFFFEFFFFFFFFFFFFFCBA
:10085000C3FFFFFFFFFFFFFFFFFFFFFFFF01FFFFE2
:10086000FFFEFFFFFFFFFFFFFCE3FFFFFFFFFFFFB8
:10087000FFFFFFFFFFFF01FFFFFFFEFFFFFFFFFF87
:10088000FFFCF3FFFFFFFFFFFFFFFFFFFFFFFF0185
:10089000FFFFFFFEFFFFFFFFFFFFFCF3FFFFFFFF78
:1008A000FFFFFFFFFFFFFFFF01FFFFFFFEFFFFFF57
:1008B000FFFFFFFCF3FFFFFFFFFFFFFFFFFFFFFF57
:1008C000FF80FFFFFFFEFFFFFFFFFFFFFCF3FFFFC7
:1008D000FFFFFFFFFFFFFFFFFFFF80FFFFFFFEFFA8
:1008E000FFFFFFFFFFFFFFFFFFFFFFFFFFFFFFFF18
:1008F000FFFFFF80FFFFFFFEFFFFFFFFFFFFFFFF88
:10090000FFFFFFFFFFFFFFFFFFFFFFFFC1FFFFFF35
:10091000FEFFFFFFFFFFFFFFFFFFFFFFFFFFFFFFE8
:10092000FFFFFFFFFFC1FFFFFFFEFFFFFFFFFFFF16
:10093000FFFFFFFFFFFFFFFFFFFFFFFFFFFFC0FF06
:10094000FFFFFEFFFFFFFFFFFFFFFFFFFFFFFFFFB8
:10095000FFFFFFFFFFFFFFE0FFFFFFFEFFFFFFFFC7
:10096000FFFFFFFFFFFFFFFFFFFFFFFFFFFFFFFF97
:10097000E0FFFFFFFEFFFFFFFFFFFFFFFFFFFFFFA7
:10098000FFFFFFFFFFFFFFFFFFE0FFFFFFFEFFFF97
:10099000FFFFFFFFFFFFFFFFFFFFFFFFFFFFFFFF67
:1009A000FFFFE0FFFFFFFEFFFFFFFFFFFFFFFFFF77
:1009B000FFFFFFFFFFFFFFFFFFFFFFE0FFFFFFFE67
:1009C000FFFFFFFFFFFFFFFFFFFFFFFFFFFFFFFF37
:1009D000FFFFFFFFF07FFFFFFEFFFFFFFFFFFFFFB7
:1009E000FFFFFFFFFFFFFFFFFFFFFFFFFFF07FFFA6
:1009F000FFFEFFFFFFFFFFFFFFFFFFFFFFFFFFFF08
:100A0000FFFFFFFFFFFFF07FFFFFFEFFFFFFFFFF86
:100A1000FFFFFFFFFFFFFFFFFFFFFFFFFFFFFFF0F5
:100A20007FFFFFFEFFFFFFFFFFFFFFFFFFFFFFFF57
:100A3000FFFFFFFFFFFFFFFFF07FFFFFFEFFFFFF56
:100A4000FFFFFFFFFFFFFFFFFFFFFFFFFFFFFFFFB6
:100A5000FFF07FFFFFFEFFFFFFFFFFFFFFFFFFFF36
:100A6000FFFFFFFFFFFFFFFFFFFFF07FFFFFFEFF26
:100A7000FFFFFFFFFFFFFFFFFFFFFFFFFFFFFFFF86
:100A8000FFFFFFF83FFFFFFEFFFFFFFFFFFFFFFF3E
:100A9000FFFFFFFFFFFFFFFFFFFFFFFFFC7FFFFFE9
:100AA000FEFFFFFFFFFFFFFFFFFFFFFFFFFFFFFF57
:100AB000FFFFFFFFFFFC7FFFFFFEFFFFFFFFFFFFCA
:100AC000FFFFFFFFFFFFFFFFFFFFFFFFFFFFFC7FB9
:100AD000FFFFFEFFFFFFFFFFFFFFFFFFFFFFFFFF27
:100AE000FFFFFFFFFFFFFFFC7FFFFFFEFFFFFFFF9A
:100AF000FFFFFFFFFFFFFFFFFFFFFFFFFFFFFFFF06
:100B0000FC7FFFFFFEFFFFFFFFFFE01FFFFFFFFF78
:100B1000FFFFFFFFFFFFFFFFFFF83FFFFFFEFFFFAD
:100B2000FFC000000007FFFFFFFFFFFFFFFFFFFF09
:100B3000FFFFFC1FFFFFFEFFFFFF8000000001FF23
:100B4000FFFFFFFFFFFFFFFFFFFFFFFC1FFFFFFE99
:100B5000FFFFFF0000000000FFFFFFFFFFFFFFFFA0
:100B6000FFFFFFFFFC1FFFFFFEFFFFFF0000000075
:100B7000001FFFFFFFFFFFFFFFFFFFFFFFFC1FFF47
:100B8000FFFEFFFFFF00000000001FFFFFFFFFFF51
:100B9000FFFFFFFFFFFFFC1FFFFFFEFFFFFE000048
:100BA0000000000FFFFFFFFFFFFFE0FFFFFFFFFE62
:100BB0003FFFFFFEFFFFFC00000000000FFFFFFFF4
:100BC000FFFFFFC07FFFFFFFFE1FFFFFFEFFFFFCD9
:100BD00001FFE000000FFFFFFFFFFFFF807FFFFF2F
:100BE000FFFE1FFFFFFEFFFFF803FFFFE00007FF10
:100BF000FFFFFFFFFF807FFFFFFFFF1FFFFFFEFFE5
:100C0000FFF803FFFFFFF003FFFFFFFFFFFF803F41
:100C1000FFFFFFFF1FFFFFFEFFFFF003FFFFFFF8D7
:100C200003FFFFFFFFFFFF803FFFFFFFFE0FFFFF00
:100C3000FEFFFFF003FFFFFFF803FFFFFFFFC1FF11
:100C4000803FFFFFFFFE0FFFFFFEFFFFE007FFFFFC
:100C5000FFF803FFFFFFFF80FF803FFFFFFFFF075D
:100C6000FFFFFEFFFFC007FFFFFFF803FFFFFFFFCF
:100C7000007F803FFFFFFFFF07FFFFFEFFFFC00F6A
:100C8000FFFFFFF803FFFFFFFF003F803FFFFFFF75
:100C9000FF07FFFFFEFFFF801FFFFFFFF803FFFFBF
:100CA000FFFF003F803FFFFFFFFF07FFFFFEFFFF4B
:100CB000801FFFFFFFF803FFFFFFFF001FC01FFFA4
:100CC000FFFFFF83FFFFFEFFFF803FFFFFFFF803F3
:100CD000FFFFFFFF001FC01FFFFFFFFF83FFFFFE9F
:100CE000FFFF807FFFFFFFF803FFFFFFFF001FC034
:100CF0001FFFFFFFFF83FFFFFEFFFF007FFFFFFFE0
:100D0000F803FFFFFFFE001FC01FFFFFFFFFC3FF31
:100D1000FFFEFFFF00FFFFFFFFF803FFFFFFFE00E6
:100D20001FC01FFFFFFFFFC1FFFFFEFFFE00FFFF11
:100D3000FFFFF803FFFFFFFC001FC01FFFFFFFFFC7
:100D4000E0FFFFFEFFFE00FFFFFFFFF803FFFFFFD6
:100D5000FC001FC01FFFFFFFFFE0FFFFFEFFFE00C4
:100D6000FFFFFFFFF803FFFFFFFC001FE00FFFFF87
:100D7000FFFFE07FFFFEFFFE00FFFFFFFFF803FF26
:100D8000FFFFFC001FE00FFFFFFFFFF07FFFFEFFF4
:100D9000FE00FFFFFFFFF803FFFFFFFC001FE00F57
:100DA000FFFFFFFFF07FFFFEFFFE00FFFFFFFFFCE6
:100DB00003FFFFFFFE001FE00FFFFFFFFFF83FFFF5
:100DC000FEFFFE00FFFFFFFFFC03FFFFFFFE001F13
:100DD000E00FFFFFFFFFF81FFFFEFFFE007FFFFF9A
:100DE000FFFE03FFFFFFFE001FE00FFFFFFFFFFC02
:100DF0001FFFFEFFFE007FFFFFFFFE03FFFFFFFC64
:100E0000001FF00FFFFFFFFFFC0FFFFEFFFE003F84
:100E1000FFFFFFFE03FFFFFFFC001FF00FFFFFFFC0
:100E2000FFFC07FFFEFFFF000FFFFFFFFE03FFFFBA
:100E3000FFFC001FF80FFFFFFFFFFE07FFFEFFFF95
:100E40000007FFFFFFFE03FFFFFFFC001FF80FFF7F
:100E5000FFFFFFFF03FFFEFFFF8003FFFFFFFF0712
:100E6000FFFFFFF8001FF80FFFFFFFFFFF03FFFE6C
:100E7000FFFF80007FFFFFFF03FFFFFFF8001FF869
:100E80000FFFFFFFFFFF81FFFEFFFF800003FFFF5B
:100E9000FF03FFFFFFF0001FF80FFFFFFFFFFF80C2
:100EA000FFFEFFFFC000003FFFFF03FFFFFFE0006A
:100EB0001FF80FFFFFFFFFFFC07FFEFFFFE00000F6
:100EC00000FFFF03FFFFFFC0001FF80FFFFFFFFF42
:100ED000FFC07FFEFFFFF800000000FF81FFFFFF63
:100EE00080000FF80FFFFFFFFFFFE03FFEFFFFFC5A
:100EF000000000000001FFFFFF80000FF80FFFFF60
:100F0000FFFFFFE03FFEFFFFFE000000000001FFCB
:100F1000FFFF000007F80FFFFFFFFFFFF01FFEFFBE
:100F2000FFFF800000000001FFFFFF000001F00F45
:100F3000FFFFFFFFFFF01FFEFFFFFFC000000000EC
:100F400001FFFFFF000000E007FE0FFFFFFFF81F9B
:100F5000FEFFFFFFF80000000001FFFFFF00200080
:100F60002007FC07FFFFFFF81FFEFFFFFFFFC00089
:100F7000000000FFFFFF007000000FF803FFFFFFFD
:100F8000FC0FFEFFFFFFFFFF00000000FFFFFF0060
:100F90007800000FF803FFFFFFF80FFEFFFFFFFFD1
:100FA000FFF8000000FFFFFF80FC00001FF803FFB8
:100FB000FFFFFC07FEFFFFFFFFFFFFF000007FFFCA
:100FC000FFC1FE00001FF803FFFFFFFC07FEFFFF4D
:100FD000FFFFFFFFFE00003FFFFFFFFE00001FF0CE
:100FE00003FFFFFFFC03FEFFFFFFFFFFFFFFF0001B
:100FF0003FFFFFFFFF00003FF003FFFFFFFE01FE8A
:10100000FFFFFFFFFFFFFFFF883FFFFFFFFFC00065
:101010007FF007FFFFFFFE01FEFFFFFFFFFFFFFF67
:10102000FFF81FFFFFFFFFC000FFF007FFFFFFFEFD
:1010300001FEFFFFFFFFFFFFFFFFF81FFFFFFFFFA6
:10104000E001FFF007FFFFFFFF01FEFFFFFFFFFFD3
:10105000FFFFFFFC1FFFFFFFFFF003FFF007FFFF95
:10106000FFFF00FEFFFFFFFFFFFFFFFFFC0FFFFF83
:10107000FFFFFC1FFFF007FFFFFFFF007EFFFFFFEA
:10108000FFFFFFFFFFFE0FFFFFFFFFFFFFFFF00768
:10109000F8000000007EFFFFFFFFFFFFFFFFFF0FD4
:1010A000FFFFFFFFFFFFFFF00000000000007EFFDA
:1010B000FFFFFFFFFFFFFFFF87FFFFFFFFFFFFFFB8
:1010C000F00000000000003EFFFFFFFFFFFFFFFFFA
:1010D000FF87FFFFFFFFFFFFFFF0000000000000A1
:1010E0001EFFFFFFFFFFFFFFFFFFC3FFFFFFFFFF2D
:1010F000FFFFF00000000000001EFFFFFFFFFFFFEA
:10110000FFFFFFC3FFFFFFFFFFFFFFF8000000002E
:1011100000001EFFFFFFFFFFFFFFFFFFE3FFFFFFDA
:10112000FFFFFFFFF80000000000003EFFFFFFFF91
:10113000FFFFFFFFFFC1FFFFFFFFFFFFFFF8000002
:10114000000000007EFFFFFFFFFFFFFFFFFFE0FF4B
:10115000FFFFFFFFFFFFFC000000000000FEFFFF9D
:10116000FFFFFFFFFFFFFFE0FFFFFFFFFFFFFFFFAE
:10117000F001FFFFFFFFFEFFFFFFFFFFFFFFFFFF8D
:10118000E0FFFFFFFFFFFFFFFFFFFFFFFFFFFFFE8F
:10119000FFFFFFFFFFFFFFFFFFF07FFFFFFFFFFFEE
:1011A000FFFFFFFFFFFFFFFFFEFFFFFFFFFFFFFF50
:1011B000FFFFF8FFFFFFFFFFFFFFFFFFFFFFFFFF46
:1011C000FFFEFFFFFFFFFFFFFFFFFFF87FFFFFFFB7
:1011D000FFFFFFFFFFFFFFFFFFFFFEFFFFFFFFFF20
:1011E000FFFFFFFFF87FFFFFFFFFFFFFFFFFFFFF96
:1011F000FFFFFFFEFFFFFFFFFFFFFFFFFFFC3FFFC3
:10120000FFFFFFFFFFFFFFFFFFFFFFFFFEFFFFFFEF
:10121000FFFFFFFFFFFFFC1FFFFFFFFFFFFFFFFFC1
:10122000FFFFFFFFFFFEFFFFFFFFFFFFFFFFFFFCD2
:101230001FFFFFFFFFFFFFFFFFFFFFFFFFFFFEFF9F
:10124000FFFFFFFFFFFFFFFFFC1FFFFFFFFFFFFF91
:10125000FFFFFFFFFFFFFFFEFFFFFFFFFFFFFFFF9F
:10126000FFFE0FFFFFFFFFFFFFFFFFFFFFFFFFFF7F
:10127000FEFFFFFFFFFFFFFFFFFFFE0FFFFFFFFF70
:10128000FFFFFFFFFFFFFFFFFFFEFFFFFFFFFFFF6F
:10129000FFFFFFFE0FFFFFFFFFFFFFFFFFFFFFFF4F
:1012A000FFFFFEFFFFFFFFFFFFFFFFFFFE07FFFF48
:1012B000FFFFFFFFFFFFFFFFFFFFFFFEFFFFFFFF3F
:1012C000FFFFFFFFFFFE07FFFFFFFFFFFFFFFFFF27
:1012D000FFFFFFFFFEFFFFFFFFFFFFFFFFFFFF031B
:1012E000FFFFFFFFFFFFFFFFFFFFFFFFFFFEFFFF0F
:1012F000FFFFFFFFFFFFFFFE03FFFFFFFFFFFFFFFB
:10130000FFFFFFFFFFFFFEFFFFFFFFFFFFFFFFFFEE
:10131000FF03FFFFFFFFFFFFFFFFFFFFFFFFFFFEDA
:10132000FFFFFFFFFFFFFFFFFFFF03FFFFFFFFFFC9
:10133000FFFFFFFFFFFFFFFFFEFFFFFFFFFFFFFFBE
:10134000FFFFFF83FFFFFFFFFFFFFFFFFFFFFFFF29
:10135000FFFEFFFFFFFFFFFFFFFFFFFF81FFFFFF1C
:10136000FFFFFFFFFFFFFFFFFFFFFEFFFFFFFFFF8E
:10137000FFFFFFFFFF81FFFFFFFFFFFFFFFFFFFFFB
:10138000FFFFFFFEFFFFFFFFFFFFFFFFFFFF80FFED
:10139000FFFFFFFFFFFFFFFFFFFFFFFFFEFFFFFF5E
:1013A000FFFFFFFFFFFFFF80FFFFFFFFFFFFFFFFCC
:1013B000FFFFFFFFFFFEFFFFFFFFFFFFFFFFFFFF3E
:1013C00080FFFFFFFFFFFFFFFFFFFFFFFFFFFEFFAD
:1013D000FFFFFFFFFFFFFFFFFF80FFFFFFFFFFFF9C
:1013E000FFFFFFFFFFFFFFFEFFFFFFFFFFFFFFFF0E
:1013F000FFFF007FFFFFFFFFFFFFFFFFFFFFFFFF7C
:10140000FEFFFFFFFFFFFFFFFFFFFF007FFFFFFF6C
:10141000FFFFFFFFFFFFFFFFFFFEFFFFFFFFFFFFDD
:10142000FFFFFFFF007FFFFFFFFFFFFFFFFFFFFF4B
:10143000FFFFFEFFFFFFFFFFFFFFFFFFFF80FFFF3C
:10144000FFFFFFFFFFFFFFFFFFFFFFFEFFFFFFFFAD
:10145000FFFFFFFFFFFFC1FFFFFFFFFFFFFFFFFFDA
:10146000FFFFFFFFFEFFFFFFFFFFFFFFFFFFFFE3A9
:10147000FFFFFFFFFFFFFFFFFFFFFFFFFFFE101853
:101480001808181808000000000000000000000004
:1014900000001314441200000000000000020201CA
:1014A0001112122222666969595899998800000020
:1014B00000F8B4135135515119010000F3F3F3F35F
:1014C000F3F3F7FFF3F3FFFFFF000000000000005D
:1014D000000000000000000000000000000000000C
:1014E00000000000000000000000000000000000FC
:1014F00000000000000000000000000000000000EC
:1015000000000000000000000000000000000000DB
:10151000000000000000E783C1E9E9C387979781D5
:10152000C1E7FF0000000000000000000000000014
:1015300000000000000000000000000000000000AB
:10154000000000000000000000000000000000009B
:10155000000000000000000000000000000000008B
:10156000000000000000000000000000000000007B
:10157000DFC7E3F3FBF9F9F9FBF3E3C7DF00000092
:10158000000000000000000000000000000000005B
:10159000000000000000000000000000000000004B
:1015A000000000000000000000000000000000003B
:1015B000000000000000000000000000000000002B
:1015C00000000000000000000000E7C79F9F3F3FB1
:1015D0003F3F3F1F9FC7E7000000000000000000E2
:1015E00000000000000000000000000000000000FB
:1015F00000000000000000000000000000000000EB
:1016000000000000000000000000000000000000DA
:1016100000000000000000000000000000000000CA
:1016200000000000EFE3E1EDEFEFEFEF8181FFFF5E
:10163000FF000000000000000000000000000000AB
:10164000000000000000000000000000000000009A
:10165000000000000000000000000000000000008A
:10166000000000000000000000000000000000007A
:101670000000000000000000000000000000C38126
:101680009F9F9FCFE7F38181FFFFFF0000000000D5
:10169000000000000000000000000000000000004A
:1016A000000000000000000000000000000000003A
:1016B000000000000000000000000000000000002A
:1016C000000000000000000000000000000000001A
:1016D0000000000000000000FFBF9FC7F1F8F1C745
:1016E0009FBFFFFFFF00000000000000000000009F
:1016F00000000000000000000000000000000000EA
:1017000000000000000000000000000000000000D9
:1017100000000000000000000000000000000000C9
:1017200000000000000000000000000000000000B9
:1017300000008181CFE7C7839F9F81C1FFFFFF002A
:101740000000000000000000000000000000000099
:101750000000000000000000000000000000000089
:101760000000000000000000000000000000000079
:101770000000000000000000000000000000000069
:10178000000000000000000000000000CFCFC7D321
:10179000D90000DFDFDFFFFFFF00000000000000D6
:1017A0000000000000000000000000000000000039
:1017B0000000000000000000000000000000000029
:1017C0000000000000000000000000000000000019
:1017D0000000000000000000000000000000000009
:1017E000000000000000FFFFFFB9B9998183BFBF6F
:1017F000FFFFFF00000000000000000000000000EC
:1018000000000000000000000000000000000000D8
:1018100000000000000000000000000000000000C8
:1018200000000000000000000000000000000000B8
:1018300000000000000000000000000000000000A8
:10184000F9F9F3F3F7E7EFCFCF9F9FBFFF00000059
:101850000000000000000000000000000000000088
:101860000000000000000000000000000000000078
:101870000000000000000000000000000000000068
:101880000000000000000000000000000000000058
:10189000000000000000000000008383FBFBC38306
:1018A0009F9F81E3FFFFFF00000000000000000099
:1018B0000000000000000000000000000000000028
:1018C0000000000000000000000000000000000018
:1018D0000000000000000000000000000000000008
:1018E00000000000000000000000000000000000F8
:1018F00000000000C9E9E9E9FFFFFFFFFFFFFFFF6C
:10190000FF000000000000000000000000000000D8
:1019100000000000000000000000000000000000C7
:1019200000000000000000000000000000000000B7
:1019300000000000000000000000000000000000A7
:101940000000000000000000000000000000CFC701
:10195000F3F9C181391981C3FFFFFF0000000000C6
:101960000000000000000000000000000000000077
:101970000000000000000000000000000000000067
:101980000000000000000000000000000000000057
:101990000000000000000000000000000000000047
:1019A000000000000000000081819FDFCFEFE7F71B
:1019B000F3FBFFFFFF00000000000000000000003C
:1019C0000000000000000000000000000000000017
:1019D0000000000000000000000000000000000007
:1019E00000000000000000000000000000000000F7
:1019F00000000000000000000000000000000000E7
:101A00000000E7E7E7E7FFFFFFFFFFFFFFFFFF0043
:101A100000000000000000000000000000000000C6
:101A200000000000000000000000000000000000B6
:101A300000000000000000000000000000000000A6
:101A40000000000000000000000000000000000096
:101A5000000000000000000000000000C381999910
:101A6000C383993981C3FFFFFF000000000000001D
:101A70000000000000000000000000000000000066
:101A80000000000000000000000000000000000056
:101A90000000000000000000000000000000000046
:101AA0000000000000000000000000000000000036
:101AB000000000000000C381193901839F9FC3F318
:101AC000FFFFFF0000000000000000000000000019
:101AD0000000000000000000000000000000000006
:101AE00000000000000000000000000000000000F6
:101AF00000000000000000000000000000000000E6
:101B000000000000000000000000000000000000D5
:101B10008181F9F9F9F9F9F9F9F9F9818100000000
:101B200000000000000000000000000000000000B5
:101B300000000000000000000000000000000000A5
:101B40000000000000000000000000000000000095
:101B50000000000000000000000000000000000085
:101B60000000000000000000000083839F9F9F9FF3
:101B70009F9F9F9F9F838300000000000000000044
:101B80000000000000000000000000000000000055
:101B90000000000000000000000000000000000045
:101BA0000000000000000000000000000000000035
:101BB0000000000000000000000000000000000025
:101BC00000000000FFFFFFB99989A1B1B1B9FFFF83
:101BD000FF00000000000000000000000000000006
:101BE00000000000000000000000000000000000F5
:101BF00000000000000000000000000000000000E5
:101C000000000000000000000000000000000000D4
:101C10000000000000000000000000000000FFFFC6
:101C2000FFC3839F83990103FFFFFF0000000000B3
:101C300000000000000000000000000000000000A4
:101C40000000000000000000000000000000000094
:101C50000000000000000000000000000000000084
:101C60000000000000000000000000000000000074
:101C70000000000000000000E3C1C9E3F3610C1C98
:101C80000061FFFFFF0000000000000000000000F6
:101C90000000000000000000000000000000000044
:101CA0000000000000000000000000000000000034
:101CB0000000000000000000000000000000000024
:101CC0000000000000000000000000000000000014
:101CD00000009F83F1C181383D1981C3FFFFFF00E0
:101CE00000000000000000000000000000000000F4
:101CF00000000000000000000000000000000000E4
:101D000000000000000000000000000000000000D3
:101D100000000000000000000000000000000000C3
:101D2000000000000000000000000000FFFFFF3C7A
:101D30003C20000C2020FFFFFF00000000000000FE
:101D40000000000000000000000000000000000093
:101D50000000000000000000000000000000000083
:101D60000000000000000000000000000000000073
:101D70000000000000000000000000000000000063
:101D8000000000000000FFFFFF8783B9F9F9838797
:101D9000FFFFFF0000000000000000000000000046
:101DA0000000000000000000000000000000000033
:101DB0000000000000000000000000000000000023
:101DC0000000000000000000000000000000000013
:101DD0000000000000000000000000000000000003
:101DE000FFFFFF8383939B9900003C3CFF000000B2
:101DF00000000000000000000000000000000000E3
:101E000000000000000000000000000000000000D2
:101E100000000000000000000000000000000000C2
:101E200000000000000000000000000000000000B2
:101E300000000000000000000000FFFFFFC3813928
:101E400001F98183FFFFFF00000000000000000097
:101E50000000000000000000000000000000000082
:101E60000000000000000000000000000000000072
:101E70000000000000000000000000000000000062
:101E80000000000000000000000000000000000052
:101E9000000000009B9BFFC3813901F98183FFFF94
:101EA000FF00000000000000000000000000000033
:101EB0000000000000000000000000000000000022
:101EC0000000000000000000000000000000000012
:101ED0000000000000000000000000000000000002
:101EE0000000000000000000000000000000E3E32C
:101EF000E781012424240181E7E7E70000000000D6
:101F000000000000000000000000000000000000D1
:101F100000000000000000000000000000000000C1
:101F200000000000000000000000000000000000B1
:101F300000000000000000000000000000000000A1
:101F40000000000000000000FFFFFF010133F3F379
:101F5000C1C1FFFFFF000000000000000000000002
:101F60000000000000000000000000000000000071
:101F70000000000000000000000000000000000061
:101F80000000000000000000000000000000000051
:101F90000000000000000000000000000000000041
:101FA0000000FFFFFF24A18181A12524FFFFFF0086
:101FB0000000000000000000000000000000000021
:101FC0000000000000000000000000000000000011
:101FD0000000000000000000000000000000000001
:101FE00000000000000000000000000000000000F1
:101FF000000000000000000000000000FFB7970193
:1020000001D38181C9E9FFFFFF000000000000004B
:1020100000000000000000000000000000000000C0
:1020200000000000000000000000000000000000B0
:1020300000000000000000000000000000000000A0
:102040000000000000000000000000000000000090
:10205000000000000000FFFFFFB99989A1B1B1B9EC
:10206000FFFFFF0000000000000000000000000073
:102070000000000000000000000000000000000060
:102080000000000000000000000000000000000050
:102090000000000000000000000000000000000040
:1020A0000000000000000000000000000000000030
:1020B000FFFFFF8381B98183B1B9FFFFFF000000FB
:1020C0000000000000000000000000000000000010
:1020D0000000000000000000000000000000000000
:1020E00000000000000000000000000000000000F0
:1020F00000000000000000000000000000000000E0
:1021000000000000000000000000FFFFFF8D05211F
:102110002125058DFFFFFF000000000000000000EA
:1021200000000000000000000000000000000000AF
:10213000000000000000000000000000000000009F
:10214000000000000000000000000000000000008F
:10215000000000000000000000000000000000007F
:1021600000000000FFFFFF3999C9C1C91939FFFFFD
:10217000FF00000000000000000000000000000060
:10218000000000000000000000000000000000004F
:10219000000000000000000000000000000000003F
:1021A000000000000000000000000000000000002F
:1021B0000000000000000000000000000000FFFF21
:1021C000FF8383939B99989CFFFFFF000000000012
:1021D00000000000000000000000000000000000FF
:1021E00000000000000000000000000000000000EF
:1021F00000000000000000000000000000000000DF
:1022000000000000000000000000000000000000CE
:102210000000000000000000FFFFFF381800242C21
:102220003C3CFFFFFF000000000000000000000039
:10223000000000000000000000000000000000009E
:10224000000000000000000000000000000000008E
:10225000000000000000000000000000000000007E
:10226000000000000000000000000000000000006E
:102270000000FFFFFFF9F981811981C1FFFFFF0015
:10228000000000000000000000000000000000004E
:10229000000000000000000000000000000000003E
:1022A000000000000000000000000000000000002E
:1022B000000000000000000000000000000000001E
:1022C000000000000000000000000000FFFFFFFF12
:1022D000FFC3C3FFFFFFFFFFFF000000000000007F
:1022E00000000000000000000000000000000000EE
:1022F00000000000000000000000000000000000DE
:1023000000000000000000000000000000000000CD
:1023100000000000000000000000000000000000BD
:10232000000000000000FFFFFF3939010139393991
:10233000FFFFFF00000000000000000000000000A0
:10234000000000000000000000000000000000008D
:10235000000000000000000000000000000000007D
:10236000000000000000000000000000000000006D
:10237000000000000000000000000000000000005D
:10238000FFFFFFC381393C3981C3FFFFFF0000001D
:10239000000000000000000000000000000000003D
:1023A000000000000000000000000000000000002D
:1023B000000000000000000000000000000000001D
:1023C000000000000000000000000000000000000D
:1023D00000000000000000000000FFFFFF010139C5
:1023E00039393939FFFFFF0000000000000000000C
:1023F00000000000000000000000000000000000DD
:1024000000000000000000000000000000000000CC
:1024100000000000000000000000000000000000BC
:1024200000000000000000000000000000000000AC
:1024300000000000713494C4E187436B4D9FFFFF9F
:10244000FF0000000000000000000000000000008D
:10245000000000000000000000000000000000007C
:10246000000000000000000000000000000000006C
:10247000000000000000000000000000000000005C
:102480000000000000000000000000000000FFE766
:10249000E7E70101E7E7E7FFFFFFFF0000000000BB
:1024A000000000000000000000000000000000002C
:1024B000000000000000000000000000000000001C
:1024C000000000000000000000000000000000000C
:1024D00000000000000000000000000000000000FC
:1024E0000000000000000000FFFFFF808039391964
:1024F00081C1F9F9F90000000000000000000000AF
:1025000000000000000000000000000000000000CB
:1025100000000000000000000000000000000000BB
:1025200000000000000000000000000000000000AB
:10253000000000000000000000000000000000009B
:102540000000FFFFFF24242424240000FFFFFF00DD
:10255000000000000000000000000000000000007B
:10256000000000000000000000000000000000006B
:10257000000000000000000000000000000000005B
:10258000000000000000000000000000000000004B
:10259000000000000000000000000000FFFFFFA49A
:1025A000A4A4A4A400007F7FFF000000000000009E
:1025B000000000000000000000000000000000001B
:1025C000000000000000000000000000000000000B
:1025D00000000000000000000000000000000000FB
:1025E00000000000000000000000000000000000EB
:1025F000000000000000BF9F9FCFCFEFE7F7F3FB85
:10260000F9F9FF00000000000000000000000000D9
:1026100000000000000000000000000000000000BA
:1026200000000000000000000000000000000000AA
:10263000000000000000000000000000000000009A
:10264000000000000000000000000000000000008A
:10265000DBD3C70101C7D3DBFFFFFFFFFF00000093
:10266000000000000000000000000000000000006A
:10267000000000000000000000000000000000005A
:10268000000000000000000000000000000000004A
:10269000000000000000000000000000000000003A
:1026A00000000000000000000000FFFFFF01012506
:1026B000E7E78181FFFFFF0000000000000000004D
:1026C000000000000000000000000000000000000A
:1026D00000000000000000000000000000000000FA
:1026E00000000000000000000000000000000000EA
:1026F00000000000000000000000000000000000DA
:1027000000000000FFFFFFFFF3818FFFFFFFFFFFCF
:10271000FF000000000000000000000000000000BA
:1027200000000000000000000000000000000000A9
:102730000000000000000000000000000000000099
:102740000000000000000000000000000000000089
:102750000000000000000000000000000000FEFE7D
:10276000FE989898989800007E7EFE000000000079
:102770000000000000000000000000000000000059
:102780000000000000000000000000000000000049
:102790000000000000000000000000000000000039
:1027A0000000000000000000000000000000000029
:1027B0000000000000000000FFFFFFF0F083033383
:1027C0008383FFFFFF000000000000000000000006
:1027D00000000000000000000000000000000000F9
:1027E00000000000000000000000000000000000E9
:1027F00000000000000000000000000000000000D9
:1028000000000000000000000000000000000000C8
:102810000000FFFFFFC0C0CCC09C80C0FFFFFF00D6
:1028200000000000000000000000000000000000A8
:102830000000000000000000000000000000000098
:102840000000000000000000000000000000000088
:102850000000000000000000000000000000000078
:10286000000000000000000000000000C3819D9FE8
:10287000CFE7E7FFE7E7FFFFFF00000000000000F1
:102880000000000000000000000000000000000048
:102890000000000000000000000000000000000038
:1028A0000000000000000000000000000000000028
:1028B0000000000000000000000000000000000018
:1028C000000000000000FFFFFF3993C3C7C3993920
:1028D000FFFFFF00000000000000000000000000FB
:1028E00000000000000000000000000000000000E8
:1028F00000000000000000000000000000000000D8
:1029000000000000000000000000000000000000C7
:1029100000000000000000000000000000000000B7
:10292000FFFFFF3C39999393C7C7CFE1F300000045
:102930000000000000000000000000000000000097
:102940000000000000000000000000000000000087
:102950000000000000000000000000000000000077
:102960000000000000000000000000000000000067
:1029700000000000000000000000FFFFFF838199BD
:102980008F3F8183FFFFFF00000000000000000078
:102990000000000000000000000000000000000037
:1029A0000000000000000000000000000000000027
:1029B0000000000000000000000000000000000017
:1029C0000000000000000000000000000000000007
:1029D00000000000FFFFFFFFFFFFFFFFF3E3E7F74B
:1029E000FB000000000000000000000000000000EC
:1029F00000000000000000000000000000000000D7
:102A000000000000000000000000000000000000C6
:102A100000000000000000000000000000000000B6
:102A200000000000000000000000000000008F8790
:102A3000E7E7E7F1F1E7E7E7E7878F00000000004D
:102A40000000000000000000000000000000000086
:102A50000000000000000000000000000000000076
:102A60000000000000000000000000000000000066
:102A70000000000000000000000000000000000056
:102A80000000000000000000E1E1CFCFCF8F8FCF2A
:102A9000CFCFE7E1E10000000000000000000000EF
:102AA0000000000000000000000000000000000026
:102AB0000000000000000000000000000000000016
:102AC0000000000000000000000000000000000006
:102AD00000000000000000000000000000000000F6
:102AE0000000FFFFFF8381B98183B1B9FFFFFF00C1
:102AF00000000000000000000000000000000000D6
:102B000000000000000000000000000000000000C5
:102B100000000000000000000000000000000000B5
:102B200000000000000000000000000000000000A5
:102B3000000000000000000000000000FFFFFFC1D7
:102B4000811D071F81C1FFFFFF0000000000000082
:102B50000000000000000000000000000000000075
:102B60000000000000000000000000000000000065
:102B70000000000000000000000000000000000055
:102B80000000000000000000000000000000000045
:102B9000000000000000D3C7FFB99909A1B1B1B985
:102BA000FFFFFF0000000000000000000000000028
:102BB0000000000000000000000000000000000015
:102BC0000000000000000000000000000000000005
:102BD00000000000000000000000000000000000F5
:102BE00000000000000000000000000000000000E5
:102BF000FFFFFFFFFFFFFFFFFFFFFFFFFF000000E2
:102C000000000000000000000000000000000000C4
:102C100000000000000000000000000000000000B4
:102C200000000000000000000000000000000000A4
:102C30000000000000000000000000000000000094
:102C400000000000000000000000FFFFFFFFFFFF8A
:102C5000FFFFE7E7FFFFFF000000000000000000AB
:102C60000000000000000000000000000000000064
:102C70000000000000000000000000000000000054
:102C80000000000000000000000000000000000044
:102C90000000000000000000000000000000000034
:102CA00000000000C38119190D31399981C3FFFF5C
:102CB000FF00000000000000000000000000000015
:102CC0000000000000000000000000000000000004
:102CD00000000000000000000000000000000000F4
:102CE00000000000000000000000000000000000E4
:102CF0000000000000000000000000000000FFFFD6
:102D0000FFE7E7FFFFFFFFE7E7FFFF00000000002E
:102D100000000000000000000000000000000000B3
:102D200000000000000000000000000000000000A3
:102D30000000000000000000000000000000000093
:102D40000000000000000000000000000000000083
:102D50000000000000000000FFFFFFC1819F818094
:102D60009C0011FFFF0000000000000000000000B8
:102D70000000000000000000000000000000000053
:102D80000000000000000000000000000000000043
:102D90000000000000000000000000000000000033
:102DA0000000000000000000000000000000000023
:102DB0000000F8F8F98101317979390183FFFF00CA
:102DC0000000000000000000000000000000000003
:102DD00000000000000000000000000000000000F3
:102DE00000000000000000000000000000000000E3
:102DF00000000000000000000000000000000000D3
:102E0000000000000000000000000000FFFFFF8342
:102E100081B8FCFCF80183FFFF0000000000000007
:102E200000000000000000000000000000000000A2
:102E30000000000000000000000000000000000092
:102E40000000000000000000000000000000000082
:102E50000000000000000000000000000000000072
:102E60000000000000008F8F9F81809C9C9C9C0034
:102E700021FFFF0000000000000000000000000033
:102E80000000000000000000000000000000000042
:102E90000000000000000000000000000000000032
:102EA0000000000000000000000000000000000022
:102EB0000000000000000000000000000000000012
:102EC000FFFFFFC3813C0000FC8183FFFF00000087
:102ED00000000000000000000000000000000000F2
:102EE00000000000000000000000000000000000E2
:102EF00000000000000000000000000000000000D2
:102F000000000000000000000000000000000000C1
:102F1000000000000000000000000703F38080F3C1
:102F2000F3F3F38000FFFF0000000000000000004A
:102F30000000000000000000000000000000000091
:102F40000000000000000000000000000000000081
:102F50000000000000000000000000000000000071
:102F60000000000000000000000000000000000061
:102F700000000000FFFFFF8301989C9C1880019FC8
:102F800081000000000000000000000000000000C0
:102F90000000000000000000000000000000000031
:102FA0000000000000000000000000000000000021
:102FB0000000000000000000000000000000000011
:102FC0000000000000000000000000000000F8F811
:102FD000F98901317939793979FFFF000000000062
:102FE00000000000000000000000000000000000E1
:102FF00000000000000000000000000000000000D1
:1030000000000000000000000000000000000000C0
:1030100000000000000000000000000000000000B0
:103020000000000000000000E7E7FFE0E0E7E7E75E
:10303000E70000FFFF0000000000000000000000AB
:103040000000000000000000000000000000000080
:103050000000000000000000000000000000000070
:103060000000000000000000000000000000000060
:103070000000000000000000000000000000000050
:1030800000009F9FFF81839F9F9F9F9F9F9F810025
:103090000000000000000000000000000000000030
:1030A0000000000000000000000000000000000020
:1030B0000000000000000000000000000000000010
:1030C0000000000000000000000000000000000000
:1030D000000000000000000000000000F8F8F939CE
:1030E0001989C1C1991939FFFF00000000000000D3
:1030F00000000000000000000000000000000000D0
:1031000000000000000000000000000000000000BF
:1031100000000000000000000000000000000000AF
:10312000000000000000000000000000000000009F
:10313000000000000000E1E1E7E7E7E7E7E7E70775
:103140000FFFFF0000000000000000000000000072
:10315000000000000000000000000000000000006F
:10316000000000000000000000000000000000005F
:10317000000000000000000000000000000000004F
:10318000000000000000000000000000000000003F
:10319000FFFFFF1200262626262626FFFF0000003E
:1031A000000000000000000000000000000000001F
:1031B000000000000000000000000000000000000F
:1031C00000000000000000000000000000000000FF
:1031D00000000000000000000000000000000000EF
:1031E00000000000000000000000FFFFFF080031A9
:1031F0007979797979FFFF00000000000000000074
:1032000000000000000000000000000000000000BE
:1032100000000000000000000000000000000000AE
:10322000000000000000000000000000000000009E
:10323000000000000000000000000000000000008E
:1032400000000000FFFFFFC1801C3C3C1C80C3FF4E
:10325000FF0000000000000000000000000000006F
:10326000000000000000000000000000000000005E
:10327000000000000000000000000000000000004E
:10328000000000000000000000000000000000003E
:103290000000000000000000000000000000FFFF30
:1032A0000800317979390181F9F9F900000000004D
:1032B000000000000000000000000000000000000E
:1032C00000000000000000000000000000000000FE
:1032D00000000000000000000000000000000000EE
:1032E00000000000000000000000000000000000DE
:1032F0000000000000000000FFFF8381989C9C9C60
:1033000080819F9F1F00000000000000000000005F
:1033100000000000000000000000000000000000AD
:10332000000000000000000000000000000000009D
:10333000000000000000000000000000000000008D
:10334000000000000000000000000000000000007D
:103350000000FFFF880033F3F3F38080FFFFFF00DE
:10336000000000000000000000000000000000005D
:10337000000000000000000000000000000000004D
:10338000000000000000000000000000000000003D
:10339000000000000000000000000000000000002D
:1033A000000000000000000000000000FFFF81801E
:1033B000F8E1879D80C1FFFFFF00000000000000D2
:1033C00000000000000000000000000000000000FD
:1033D00000000000000000000000000000000000ED
:1033E00000000000000000000000000000000000DD
:1033F00000000000000000000000000000000000CD
:10340000000000000000F3F30000F3F3F373030780
:10341000FFFFFF00000000000000000000000000AF
:10342000000000000000000000000000000000009C
:10343000000000000000000000000000000000008C
:10344000000000000000000000000000000000007C
:10345000000000000000000000000000000000006C
:10346000FFFF8C8C9C9C9C9C0031FFFFFF000000A8
:10347000000000000000000000000000000000004C
:10348000000000000000000000000000000000003C
:10349000000000000000000000000000000000002C
:1034A000000000000000000000000000000000001C
:1034B00000000000000000000000FFFF3C1C999984
:1034C000C1C3C3E7FFFFFF000000000000000000D1
:1034D00000000000000000000000000000000000EC
:1034E00000000000000000000000000000000000DC
:1034F00000000000000000000000000000000000CC
:1035000000000000000000000000000000000000BB
:1035100000000000FFFF7E3E242400808899FFFF0A
:10352000FF0000000000000000000000000000009C
:10353000000000000000000000000000000000008B
:10354000000000000000000000000000000000007B
:10355000000000000000000000000000000000006B
:103560000000000000000000000000000000FFFF5D
:103570001C99C1C3C3C9981CFFFFFF0000000000D5
:10358000000000000000000000000000000000003B
:10359000000000000000000000000000000000002B
:1035A000000000000000000000000000000000001B
:1035B000000000000000000000000000000000000B
:1035C0000000000000000000FFFF3C3C9C9999D3E4
:1035D000C3C3E7E1F10000000000000000000000AC
:1035E00000000000000000000000000000000000DB
:1035F00000000000000000000000000000000000CB
:1036000000000000000000000000000000000000BA
:1036100000000000000000000000000000000000AA
:103620000000FFFF00008FC7F3F90000FFFFFF005D
:10363000000000000000000000000000000000008A
:10364000000000000000000000000000000000007A
:10365000000000000000000000000000000000006A
:10366000000000000000000000000000000000005A
:1036700000000000000000000000000011E2A0E0D7
:10368000B0E2E4EBFAE700E00BBF02C007900D9256
:10369000A834B107D9F71BBE23E3A8E4B1E201C007
:1036A0001D92AC38B207E1F7CF93DF931F92CDB7ED
:1036B000DEB78EE190E20E94A71B88EE93E00E94A5
:1036C000942A87E390E20E94A71B0E943F258983EA
:1036D00089818031D1F389810E949025F6CF81E0E4
:1036E00080930106089581E08093070608950C9465
:1036F000942ACF93DF93CDB7DEB7A497CDBFDEBFBB
:1037000022E2EEE7F0E2DE01119601900D922A9599
:10371000E1F790688BA39CA3BE016D5D7F4F809104
:1037200082339091833377FF06C020E044E650E077
:103730006252710904C0706820E044E650E00E94C3
:10374000A930A496CDBFDEBFDF91CF910895CF936E
:10375000DF93CDB7DEB7A597CDBFDEBF8CA39DA30A
:1037600083E2E0EAF0E2DE01119601900D928A9583
:10377000E1F7BE016C5D7F4F80918233909183337E
:1037800020E044E650E077FF02C0635271090E94D6
:10379000A930A596CDBFDEBFDF91CF910895E0EAB5
:1037A000F6E088E085838183E0EAFBE083E08583BF
:1037B00083818F63838389E18683178284818D600F
:1037C000848308959091A10B95FFFCCF8093A00B6B
:1037D0000895EF92FF921F93CF93DF931F92CDB77F
:1037E000DEB77C011982FC0101900020E9F73197D6
:1037F0001E2F181B19828981811758F48981F701BE
:10380000E80FF11D80810E94E21B89818F5F89830F
:10381000F2CF8AE00E94E21B8DE00E94E21B0F9033
:10382000DF91CF911F91FF90EF900895CF93DF9399
:103830001F921F92CDB7DEB7809182339091833370
:103840000E94CF338823C1F34FEF5FEFBE016F5F5C
:103850007F4F80918233909183330E94A9318130D0
:1038600059F789819A81009739F397FF03C09F77B1
:1038700089839A8389819A810E94E91BDDCF0C9408
:10388000942A8093C3088091C20887FFFCCF80E010
:1038900008950F931F93CF93DF938C01EB018091D9
:1038A000040681FF03C082E08093060610928833ED
:1038B0002091883330E02C173D0760F4F801E20FC7
:1038C000F31F80810E94411C909188339F5F9093E9
:1038D0008833EECFDF91CF911F910F9108950F9311
:1038E0001F93CF93DF938C01EB018091040681FD40
:1038F00003C082E0809305061092883320918833BC
:1039000030E02C173D0760F4F801E20FF31F8081CF
:103910000E94411C909188339F5F90938833EECF33
:10392000DF91CF911F910F9108958091080683FF39
:1039300005C084E690E00E94942AF7CF0895809114
:10394000440684FF03C080E180934606809104060C
:1039500081FF03C082E08093060682E20E94411C40
:103960008091040681FD03C082E08093050684EC0B
:103970000E94411C8091440684FD03C080E1809335
:1039800045068091440684FF03C080E1809346068B
:103990008091040681FF03C082E08093060680E2E6
:1039A0000E94411C8091440684FD03C080E1809305
:1039B00045068091440684FF03C080E1809346065B
:1039C0008091040681FF03C082E0809306068FEF9A
:1039D0000E94411C8091440684FD03C080E18093D5
:1039E00045060C94951C0F931F93CF93DF93EC0126
:1039F0008B010E94951C8091440684FF03C080E1E6
:103A0000809346068091040681FF03C082E0809384
:103A100006068EE40E94411C83E0D595C7958A95E1
:103A2000E1F78091040681FD03C082E080930506E2
:103A30008C2F0E94411C8091440684FD03C080E1CC
:103A4000809345068091440684FF03C080E1809303
:103A500046068091040681FF03C082E0809306063B
:103A60008FE40E94411C8091040681FD03C082E026
:103A700080930506802F0E94411C8091040681FDE1
:103A800003C082E080930506812F0E94411C809133
:103A9000440684FD03C080E180934506DF91CF9109
:103AA0001F910F910895EF92FF920F931F93CF9361
:103AB000DF93182FE62ED42FC52FF22E032F8091DF
:103AC000440684FF03C080E180934606809104068B
:103AD00081FF03C082E08093060684E40E94411CBB
:103AE0008091040681FD03C082E080930506812F4A
:103AF0000E94411C8091040681FD03C082E08093F6
:103B000005068E2D0E94411C8091440684FD03C051
:103B100080E1809345068091440684FF03C080E1E4
:103B2000809346068091040681FF03C082E0809363
:103B3000060685E40E94411C8091040681FD03C0B5
:103B400082E0809305068D2F0E94411C809104061F
:103B500081FD03C082E0809305068C2F0E94411CEA
:103B60008091040681FD03C082E0809305068F2DBD
:103B70000E94411C8091040681FD03C082E0809375
:103B80000506802F0E94411C8091440684FD03C0DD
:103B900080E1809345068091440684FF03C080E164
:103BA000809346068091040681FF03C082E08093E3
:103BB00006068EE40E94411C8091040681FD03C02C
:103BC00082E080930506812F0E94411C809144066B
:103BD00084FD03C080E1809345068091440684FF04
:103BE00003C080E1809346068091040681FF03C0F4
:103BF00082E0809306068FE40E94411C80910406B7
:103C000081FD03C082E0809305068D2F0E94411C38
:103C10008091040681FD03C082E0809305068C2F0D
:103C20000E94411C8091440684FD03C080E1809382
:103C30004506DF91CF911F910F91FF90EF9008956E
:103C40000F931F93CF93DF93182F27EC30E047ECAF
:103C500050E060E080E00E94531D8091440684FFA4
:103C600003C080E1809346068091040681FF03C073
:103C700082E08093060684E20E94411CC8E8D3E1FA
:103C800002E08091040681FF00930506812F0E94C7
:103C9000411C2197B1F78091440684FD03C080E167
:103CA00080934506DF91CF911F910F9108951F9347
:103CB000CF93DF93EC018091440684FF03C080E141
:103CC000809346068091040681FF03C082E08093C2
:103CD000060682E30E94411C1092883312E0909104
:103CE00088339E3190F4FE01E90FF11DE49180913B
:103CF000040681FF109305068E2F0E94411C9091AF
:103D000088339F5F90938833EACF8091440684FD87
:103D100003C080E180934506DF91CF911F91089504
:103D20008FEF0E94201E0E949F1C80E00E94201E98
:103D30000C949F1CCF9380EB8093410680914406A6
:103D400084FD03C080E18093450698E090930206CD
:103D500080E58093C008109286331092873382E00A
:103D60008093010680E18093010690930206909172
:103D7000440694FF80934506C0E1C093060684E69E
:103D800090E00E94942AC093050688EE93E00E947A
:103D9000942A8091440684FDC093460680910406CF
:103DA00081FF03C082E08093060681E00E94411CEF
:103DB0008091040681FD03C082E08093050687ECB4
:103DC0000E94411C8091040681FD03C082E0809323
:103DD000050680E00E94411C8091040681FD03C01D
:103DE00082E08093050680E00E94411C8091440699
:103DF00084FD03C080E1809345068091440684FFE2
:103E000003C080E1809346068091040681FF03C0D1
:103E100082E0809306068CE00E94411C809104069B
:103E200081FD03C082E08093050687ED0E94411C5E
:103E30008091040681FD03C082E08093050686ED33
:103E40000E94411C8091040681FD03C082E08093A2
:103E500005068DE90E94411C8091440684FD03C043
:103E600080E1809345068091440684FF03C080E191
:103E7000809346068091040681FF03C082E0809310
:103E800006068CE20E94411C8091040681FD03C05D
:103E900082E08093050688EA0E94411C80914406D6
:103EA00084FD03C080E1809345068091440684FF31
:103EB00003C080E1809346068091040681FF03C021
:103EC00082E0809306068AE30E94411C80910406EA
:103ED00081FD03C082E0809305068AE10E94411CB7
:103EE0008091440684FD03C080E180934506809163
:103EF000440684FF03C080E1809346068091040657
:103F000081FF03C082E0809306068BE30E94411C80
:103F10008091040681FD03C082E08093050688E05D
:103F20000E94411C8091440684FD03C080E180937F
:103F300045068091440684FF03C080E180934606D5
:103F40008091040681FF03C082E08093060681E130
:103F50000E94411C8091040681FD03C082E0809391
:103F6000050681E00E94411C8091440684FD03C047
:103F700080E180934506CF910C94901E7F928F92A2
:103F80009F92AF92BF92CF92DF92EF92FF920F93E8
:103F90001F93CF93DF938C01EB017A016B0187E0D4
:103FA000C80ED11C23E0D694C7942A95E1F78DE979
:103FB00094E10E94571E8091440684FF03C080E173
:103FC000809346068091040681FF03C082E08093BF
:103FD000060682E20E94411C8091040681FD03C016
:103FE00082E08093050680EC0E94411C809144068B
:103FF00084FD03C080E1809345068091440684FFE0
:1040000003C080E1809346068091040681FF03C0CF
:1040100082E08093060680E20E94411C8091440663
:1040200084FD03C080E1809345060E94951C6FEFDC
:104030006C0D20E030E0A7014150510980E00E9462
:10404000531DDD27279693E0D595C7959A95E1F7FF
:104050008091440684FF03C080E1809346068091EE
:10406000040681FF03C082E08093060684E20E947A
:10407000411CC12CD12CA12CB12C82E0782EAE1485
:10408000BF0429F1D0E0DC17F0F40115110549F463
:104090008091040681FF709205068FEF0E94411CFB
:1040A00010C046018FEF881A980AF801EC0DFD1D2B
:1040B00084919091040691FF709205060E94411C24
:1040C0006401DF5FE0CF8FEFA81AB80AD8CF8091E4
:1040D000440684FD03C080E1809345060E94951C40
:1040E0008091440684FF03C080E18093460680915E
:1040F000040681FF03C082E08093060682E20E94EC
:10410000411C8091040681FD03C082E08093050676
:1041100087EC0E94411C8091440684FD03C080E12D
:10412000809345068091440684FF03C080E180931C
:1041300046068091040681FF03C082E08093060654
:1041400080E20E94411C8091440684FD03C080E10E
:10415000809345068091440684FF03C080E18093EC
:1041600046068091040681FF03C082E08093060624
:104170008FEF0E94411C8091440684FD03C080E1C2
:10418000809345060E94951C8091440684FF03C0DD
:1041900080E1809346068091040681FF03C082E09F
:1041A0008093060682E20E94411C8091040681FDF4
:1041B00003C082E08093050680EC0E94411C809140
:1041C000440684FD03C080E1809345068091440647
:1041D00084FF03C080E1809346068091040681FF3E
:1041E00003C082E08093060680E20E94411C809119
:1041F000440684FD03C080E180934506DF91CF91A2
:104200001F910F91FF90EF90DF90CF90BF90AF90F4
:104210009F908F907F900C94951C8091440684FF12
:1042200003C080E1809346068091040681FF03C0AD
:1042300082E08093060682E20E94411C809104067F
:1042400081FD03C082E08093050684E00E94411C4A
:104250008091440684FD03C080E1809345068091EF
:10426000440684FF03C080E18093460680910406E3
:1042700081FF03C082E08093060680E20E94411C19
:104280008091440684FD03C080E1809345068091BF
:10429000440684FF03C080E18093460680910406B3
:1042A00081FF03C082E0809306068FEF0E94411CCD
:1042B0008091440684FD03C080E180934506089503
:1042C0002F923F924F925F926F927F928F929F9226
:1042D000AF92BF92CF92DF92EF92FF920F931F9314
:1042E000CF93DF935C01462E542E022F0E94951C23
:1042F0008EE794E10E94571E8091440684FF03C01C
:1043000080E1809346068091040681FF03C082E02D
:104310008093060682E20E94411C8091040681FD82
:1043200003C082E08093050680EC0E94411C8091CE
:10433000440684FD03C080E18093450680914406D5
:1043400084FF03C080E1809346068091040681FFCC
:1043500003C082E08093060680E20E94411C8091A7
:10436000440684FD03C080E1809345060E94951CAD
:1043700020E030E047EC50E068E180E00E94531D0F
:10438000C0908633D09087338091440684FF03C069
:1043900080E1809346068091040681FF03C082E09D
:1043A0008093060684E20E94411C58ECE52EF12C15
:1043B000C0E0D0E062E0762E19E1C114D10449F4E6
:1043C0008091040681FF709205068FEF0E94411CC8
:1043D00010C04E018FEF881A980AF601EC0FFD1FEE
:1043E00084919091040691FF709205060E94411CF1
:1043F000E401115011F781E0E81AF108E9F6809123
:10440000440684FD03C080E1809345060E940D218F
:1044100020E030E047EC50E068E180E00E94531D6E
:10442000C0908633D09087338091440684FF03C0C8
:1044300080E1809346068091040681FF03C082E0FC
:104440008093060684E20E94411C38ECE32EF12C96
:10445000C0E0D0E042E0742E19E1C114D10449F467
:104460008091040681FF709205068FEF0E94411C27
:1044700010C04E018FEF881A980AF601EC0FFD1F4D
:1044800084919091040691FF709205060E94411C50
:10449000E401115011F781E0E81AF108E9F6809182
:1044A000440684FD03C080E1809345061092883362
:1044B00010E048018CE0880E911C90E1292E22E04A
:1044C000322E80918833841508F04AC0F501E80F38
:1044D000F11D80810E94E2256C019401A801652DE7
:1044E000852D0E94531D8091440684FD209246062E
:1044F0008091040681FD3092060684E20E94411CF0
:104500008DE0E82EF12CC0E0D0E0C114D10449F4D4
:104510008091040681FF309205068FEF0E94411CB6
:1045200010C03E018FEF681A780AF601EC0FFD1FEC
:1045300084919091040691FF309205060E94411CDF
:10454000E30181E0E81AF10801F78091440684FF55
:1045500020924506809188338F5F80938833B1CF56
:104560000E940D218091440684FF03C080E1809366
:1045700046068091040681FF03C082E08093060610
:1045800082E20E94411C8091040681FD03C082E00A
:104590008093050680EC0E94411C8091440684FDB6
:1045A00003C080E1809345068091440684FF03C0E8
:1045B00080E1809346068091040681FF03C082E07B
:1045C0008093060680E20E94411C8091440684FD8F
:1045D00003C080E180934506DF91CF911F910F9139
:1045E000FF90EF90DF90CF90BF90AF909F908F9013
:1045F0007F906F905F904F903F902F900C94951C00
:104600002F923F924F925F926F927F928F929F92E2
:10461000AF92BF92CF92DF92EF92FF920F931F93D0
:10462000CF93DF938C016B017A010E94951C8EE77A
:1046300094E10E94571E8091440684FF03C080E1EC
:10464000809346068091040681FF03C082E0809338
:10465000060682E20E94411C8091040681FD03C08F
:1046600082E08093050680EC0E94411C8091440604
:1046700084FD03C080E1809345068091440684FF59
:1046800003C080E1809346068091040681FF03C049
:1046900082E08093060680E20E94411C80914406DD
:1046A00084FD03C080E1809345060E94951C20E0B4
:1046B00030E047EC50E068E180E00E94531D8091BB
:1046C000440684FF03C080E180934606809104067F
:1046D00081FF03C082E08093060684E20E94411CB1
:1046E00068ECA62EB12CC0E0D0E072E0672E59E154
:1046F000752E0115110549F48091040681FF609221
:1047000005068FEF0E94411C10C04E018FEF881AE2
:10471000980AF801EC0FFD1F84919091040691FF17
:10472000609205060E94411CE4017A947110E1CF69
:1047300091E0A91AB108D9F68091440684FD03C01E
:1047400080E1809345060E940D2120E030E047EC97
:1047500050E068E180E00E94531D8091440684FF90
:1047600003C080E1809346068091040681FF03C068
:1047700082E08093060684E20E94411C38ECA32E5E
:10478000B12CC0E0D0E042E0642E29E1722E011588
:10479000110549F48091040681FF609205068FEFB0
:1047A0000E94411C10C04E018FEF881A980AF80130
:1047B000EC0FFD1F84919091040691FF6092050615
:1047C0000E94411CE4017A947110E1CF91E0A91A92
:1047D000B108D9F68091440684FD03C080E180933E
:1047E00045061092883380E1482E92E0592E809140
:1047F0008833282F30E02E153F0508F05EC0F60103
:1048000096E0899FE00DF11D1124A080B180C28146
:1048100003818481458150E010E09A01200F311F0F
:10482000215031096C2F680F61500E94531DCF71C8
:104830003C2E8091440684FD4092460680910406F9
:1048400081FD5092060684E20E94411CC0E0D0E047
:10485000812C912C8016910628F5212C2314F0F43C
:10486000A114B10449F48091040681FF5092050619
:104870008FEF0E94411C10C03E018FEF681A780A2A
:10488000F501EC0FFD1F84919091040691FF509269
:1048900005060E94411CE3012394E0CF9FEF891A93
:1048A000990AD8CF8091440684FF409245068091B2
:1048B00088338F5F809388339ACF0E940D21809137
:1048C000440684FF03C080E180934606809104067D
:1048D00081FF03C082E08093060682E20E94411CB1
:1048E0008091040681FD03C082E08093050680EC80
:1048F0000E94411C8091440684FD03C080E18093A6
:1049000045068091440684FF03C080E180934606FB
:104910008091040681FF03C082E08093060680E256
:104920000E94411C8091440684FD03C080E1809375
:104930004506DF91CF911F910F91FF90EF90DF908F
:10494000CF90BF90AF909F908F907F906F905F902F
:104950004F903F902F900C94951C80EE80936106B1
:10496000E0E4F6E087E0828380898061808B818942
:104970008061818B82898061828B08951F93CF93A0
:10498000DF9380EE8093620680E2809361068093DD
:10499000650688E290E00E94771B1091480610FFA0
:1049A00007C083EC90E20E94A71BC1E0D0E002C0E8
:1049B000C0E0D0E011FF05C0C26089EC90E20E9427
:1049C000A71B12FF05C0C4608FEC90E20E94A71BDA
:1049D00080E28093660680EE8093620680E4809396
:1049E00061068093650688E290E00E94771B109133
:1049F000480610FF05C0C86085ED90E20E94A71B25
:104A000011FF05C0C0618BED90E20E94A71B12FF51
:104A100005C0C06281EE90E20E94A71B80E48093F3
:104A2000660680EE8093620680E88093610680933C
:104A3000650688E290E00E94771B1091480610FFFF
:104A400005C0C06487EE90E20E94A71B11FF05C05D
:104A5000C0688DEE90E20E94A71B12FF05C0D160D6
:104A600083EF90E20E94A71B80E88093660680EEA9
:104A700080936206CE01DF91CF911F9108951F931D
:104A8000CF93DF9300D000D0CDB7DEB70E94BE2415
:104A9000009721F58091893390918A33892B11F108
:104AA00080E090E041E050E0182F20918933309170
:104AB0008A33BA01082E02C0660F771F0A94E2F704
:104AC00026233723232B29F401968031910561F7A2
:104AD00010E11092893310928A3305C08093893394
:104AE00090938A3310E186E0E9EFF0E2DE0111965F
:104AF00001900D928A95E1F72AE043E0BE016D5FD7
:104B00007F4F812F0E94EE25CE0101960E94791BD6
:104B1000812F2696CDBFDEBFDF91CF911F910895E3
:104B200080938B3320E040E050E060E070E08091C3
:104B30008433909185330C94A93080918B33089500
:104B4000CF93DF931F921F92CDB7DEB78FEF90E226
:104B50000E94A71B80E180938B330E949A1E84E6FB
:104B600090E00E94771B48EC50E068EC70E086EF24
:104B700090E00E94BE1F84E690E00E94771B83E1D4
:104B800091E20E94A71B1AE06FEF7FEF80918433C0
:104B9000909185330E9439328130B1F78AE291E2F7
:104BA0000E94A71B80918B3389831A8324E64AE0F5
:104BB00062E0CE0101960E94602188EE93E00E949F
:104BC000771BE2CF8A3538F42AE5829FC001112491
:104BD00084549B4E08958CEB94E10895CF93DF931A
:104BE000C82FDB01EEEFE20FEF3028F4F0E0E15FD9
:104BF000FF4D308101C038E0431708F4342FD32F24
:104C0000D1508C2F622F0E94313D4D2F50E04A0F22
:104C10005B1F9A3010F0995C01C0905DFA0190839F
:104C20008C2F622F0E94313DC82FD111E9CF832FE5
:104C3000DF91CF910895FF920F931F93CF93DF934E
:104C4000FC01EB01AEEFA20FAF3028F4B0E0A050B2
:104C5000B04E3C9101C030E1431708F4342FF32EDD
:104C6000022F10E0FA94CF01B8010E943D3D4F2D74
:104C700050E0DE01A40FB51F8A3010F097E301C0A9
:104C800090E3980F9C93CF01B8010E943D3DFB013A
:104C9000F110E8CF832FDF91CF911F910F91FF90FB
:104CA0000895FC0190E08191882319F09F5F9F3F58
:104CB000D1F781E0890F0895E0917621F091772175
:104CC0008081811103C08FEF9FEF0CC0E0917621AE
:104CD000F09177210580F681E02D0680F781E02DA7
:104CE0008281938180934D2190934E210895EF927C
:104CF000FF920F931F93CF93DF931F92CDB7DEB731
:104D00007C0100915521109156218091482190916C
:104D10004921029669830E943C3569818FEFE8162C
:104D2000F80699F4662389F0609148217091492131
:104D30006E5F7F4F88E591E20F90DF91CF911F91D9
:104D40000F91FF90EF900C94E334E00EF11EE09190
:104D50004821F0914921E282F382609148217091CB
:104D60004921E016F10678F4809174219091752123
:104D70006E5F7F4F0F90DF91CF911F910F91FF904A
:104D8000EF900C94043580917621909177216E5F9D
:104D90007F4F0E94043580914D2190914E21E8165D
:104DA000F90620F4E0924D21F0924E210F90DF9110
:104DB000CF911F910F91FF90EF9008958091612105
:104DC000882309F10FB6F8940F92E0916721F091D2
:104DD0006821C681D781CE0102960E943C35809120
:104DE0005721815080935721809161218150809378
:104DF00061210F900FBE8F89988D0E945837CE0188
:104E00000E945837DBCF80918A218230B8F20E940D
:104E1000323CD4CF2F923F925F926F927F928F92CB
:104E20009F92AF92BF92CF92DF92EF92FF920F9339
:104E30001F93CF93DF934C01562E172F5A01390140
:104E4000CA010E9426371C01892B09F4D4C088E2CC
:104E500090E00E942637EC01009781F02F8A388E6F
:104E6000650121E0C21AD108C20CD31CBC01675EE7
:104E70007F4FE52DF12FCF01089607C0C1010E9499
:104E80005837B9C0E817F90749F09F014191DB0194
:104E90004D93BD01D9012C912111F4CF18A20430FA
:104EA00008F003E00E8B09A31AA25E01B2E0AB0E7C
:104EB000B11CC5010E94DF34CE010C960E94DF3484
:104EC000C887D98784E090E0801B91098C879D87F3
:104ED000CA8BDB8B1BA21CA21DA21EA21FA2A301B8
:104EE000B401C6010E94753B88839983E114F104E3
:104EF00019F0F701C083D1830FB6F8940F92809117
:104F000057218F5F809357218091482190914921AB
:104F1000892BD1F5C0934821D09349218091572105
:104F2000813009F041C08AE891E20E94D13483E9DE
:104F300091E20E94D1348CE991E20E94D13485EA59
:104F400091E20E94D13481E891E20E94D13488E755
:104F500091E20E94D1348BE691E20E94D13482E644
:104F600091E20E94D13488E591E20E94D13481E837
:104F700091E2809376219093772188E791E2809364
:104F800074219093752110C08091532181110CC020
:104F9000E0914821F091492196898E89891720F066
:104FA000C0934821D093492180914F218F5F8093F6
:104FB0004F218E8990915421981710F48093542199
:104FC000F9E08F9FC0011124B50186579E4D0E94C4
:104FD000E3340F900FBE80915321882351F0E0916C
:104FE0004821F091492196898E89981710F40E94E2
:104FF000323C81E001C08FEFDF91CF911F910F9183
:10500000FF90EF90DF90CF90BF90AF909F908F90E8
:105010007F906F905F903F902F9008950F931F9314
:10502000CF93DF93EC010FB6F8940F92892B21F404
:10503000C0914821D09149218E010E5F1F4FC801B8
:105040000E943C358C899D89892B21F0CE010C96DC
:105050000E943C3590914F219F5F90934F2180910A
:10506000482190914921C817D90759F4B80182E61F
:1050700091E20E94E334809161218F5F80936121EE
:105080000EC0809157218150809357218F89988D30
:105090000E945837CE010E9458370E945C260F901C
:1050A0000FBE80915321882349F08091482190912F
:1050B0004921C817D90711F40E94323CDF91CF91E2
:1050C0001F910F9108950F931F93CF93DF9320911A
:1050D00048213091492182179307B9F10097A9F12E
:1050E0000FB6F8940F92FC01228533852855314282
:1050F00051F5FC0124893589F1E22B363F0719F17E
:10510000232B09F5EC018C010E5F1F4FC8010E9493
:105110003C359E8980915421891710F49093542135
:1051200029E0929FC0011124B80186579E4D0E942C
:10513000E334E0914821F09149219E8986899817AE
:1051400010F00E94323C0F900FBEDF91CF911F9163
:105150000F910895EF92FF921F93CF93DF93EC018D
:105160008A859B858855914299F48C899D8921E295
:105170008B36920769F0892B59F480914A21882354
:1051800049F0BE01645F7F4F8BE691E20E94E334F9
:1051900010E021C0E0914821F091492111E09E8961
:1051A0008689981708F410E07E0182E0E80EF11C71
:1051B000C7010E943C359E8980915421891710F4C3
:1051C0009093542129E0929FC0011124B701865782
:1051D0009E4D0E94E334812FDF91CF911F91FF906C
:1051E000EF900895EF92FF920F938BE4E82E81E207
:1051F000F82E00E020E030E045E550E063E471E2A5
:105200008EED96E20E940A27813091F4F8942FEFF8
:105210003FEF20934D2130934E21809353211092E4
:105220005521109256210F91FF90EF900C94EC3B7A
:105230000F91FF90EF900895F894109253210C94E1
:10524000313C80914A218F5F80934A2108950FB6A7
:10525000F8940F9280915521909156210F900FBE96
:10526000089580915521909156210895809157215C
:105270000895009721F48091482190914921499601
:105280000895CF92DF92EF92FF920F931F93CF93E7
:10529000DF9380914A2181118CC00091552110919A
:1052A00056210F5F1F4F0093552110935621011572
:1052B0001105B9F480917621909177212091742184
:1052C000309175212093762130937721809374213A
:1052D00090937521809150218F5F809350210E947F
:1052E0005C2680914D2190914E21C0E0081719074E
:1052F00008F44FC0D9E0E0917621F09177218081C8
:10530000811103C08FEF9FEF11C0E0917621F091E2
:1053100077210580F681E02DE680F780D70112968F
:105320008D919C9113970817190728F480934D21AC
:1053300090934E212EC06701B2E0CB0ED11CC60166
:105340000E943C35F70184899589892B21F0C7019A
:105350000C960E943C35D70156969C918091542121
:10536000891710F490935421D99FC0011124B601DC
:1053700086579E4D0E94E334E0914821F0914921E7
:10538000D70156969C918689981708F4B4CFC1E04E
:10539000B2CFE0914821F0914921E689B9E0EB9F35
:1053A000F0011124E657FE4D8081823040F0C1E0CB
:1053B00006C0809152218F5F80935221C0E080917E
:1053C00051218111C1E08C2FDF91CF911F910F915D
:1053D000FF90EF90DF90CF900895EF92FF920F93A0
:1053E0001F93CF93DF930FB6F8940F9280914A21C9
:1053F000815080934A2180914A21882311F080E0D6
:1054000052C0809157218823D1F3C0E0D0E089E0D9
:10541000F82EEE24E39480916B21882351F1E091E2
:105420007021F0917121C681D781CE010C960E9426
:105430003C358E010E5F1F4FC8010E943C359E898E
:1054400080915421891710F490935421F99EC00142
:105450001124B80186579E4D0E94E334E091482103
:10546000F09149219E8986899817A8F2E0925121EE
:10547000D2CFCD2B11F00E945C26C0915221CC23BB
:1054800051F0D1E00E9441298111D0935121C150A6
:10549000C9F71092522180915121882309F4AFCF8E
:1054A0000E94323C81E00F900FBEDF91CF911F919F
:1054B0000F91FF90EF9008950F931F93CF93DF9379
:1054C0008C01EB010E9421294091552150915621D8
:1054D000F801608171819B012C0F3D1F4617570712
:1054E00028F42617370748F491E004C091E0261706
:1054F000370720F04217530708F090E0F8012083A7
:105500003183992331F060E0C901841B950B0E941F
:1055100077260E94ED29811102C00E94323CDF9162
:10552000CF911F910F910895CF93DF931F921F92F8
:10553000CDB7DEB7009719F40E94323C0DC08983C5
:105540009A830E94212960E089819A810E947726AE
:105550000E94ED29882381F30F900F90DF91CF9166
:10556000089580914A21882321F081E08093512180
:105570000895109251218091542169E0482F50E004
:10558000649F9001659F300D1124F901E657FE4D8F
:105590009081911102C08150F1CFA181B281129608
:1055A0000D90BC91A02DA183B28323573E4DA2172D
:1055B000B30731F412962D913C91139721833283D6
:1055C00099E0949FF001959FF00D1124E657FE4D50
:1055D0000180F281E02D268137812093482130938C
:1055E00049218093542108950F931F93CF93DF9304
:1055F000EC010FB6F8940F92892B21F4C091482149
:10560000D09149218E010E5F1F4FC8010E943C3589
:105610008C899D89892B21F0CE010C960E943C3506
:10562000B80188E591E20E94E3348FA1813009F44A
:105630001FA20F900FBE80915321882339F00FB61F
:10564000F8940F920E945C260F900FBE8091482123
:1056500090914921C817D907C1F48091532188231B
:1056600019F00E94323C11C090915821809157212D
:10567000981305C0109248211092492106C0DF916D
:10568000CF911F910F910C94B12ADF91CF911F916F
:105690000F910895CF93DF93EB0120914821309132
:1056A0004921B901645F7F4F0E94043561E0CE015A
:1056B000DF91CF910C947726CF93DF93EA01E091AD
:1056C0004821F0914921706864877587609148216D
:1056D00070914921645F7F4F0E94E33461E0CE0105
:1056E000DF91CF910C9477260F931F93CF93DF9385
:1056F000DC011596ED91FC911697C681D7818E013C
:10570000045F1F4FC8010E943C3580914A218111DE
:1057100014C00A501109C8010E943C359E8980912D
:105720005421891710F490935421B9E09B9FC00134
:105730001124B80186579E4D03C0B8018BE691E253
:105740000E94E334E0914821F09149219E898689A5
:10575000891720F481E08093512101C080E0DF911E
:10576000CF911F910F9108950F931F93CF93DF93C4
:105770007068FC0160837183C681D7810E943C35CB
:105780008E010E5F1F4FC8010E943C359E8980919B
:105790005421891710F490935421F9E09F9FC00180
:1057A0001124B80186579E4D0E94E334E0914821B0
:1057B000F09149219E898689891718F481E08093A8
:1057C0005121DF91CF911F910F9108950FB6F89459
:1057D0000F9220915021FC0120832091552130917E
:1057E0005621218332830F900FBE089520915021BE
:1057F000FC01208320915521309156212183328351
:105800000895CF93DF930FB6F8940F9240915521EE
:1058100050915621DC011196ED91FC911297EB010C
:10582000288139812F3FDFEF3D07C9F0B09150212A
:10583000EC01A881BA1719F04E175F0790F44E1BC0
:105840005F0BFB014217530738F4241B350B2083F1
:1058500031830E94F62B03C01082118202C080E0C7
:1058600001C081E00F900FBEDF91CF91089581E0DC
:105870008093512108958091482190914921089564
:105880000F931F93CF93DF93FC01892B09F455C02D
:105890008689A0914821B091492156969C918917FB
:1058A00008F041C02485358537FD0CC0A091482102
:1058B000B091492156969C9124E030E0291B310992
:1058C0002487358729E0829FC001112486579E4D89
:1058D0002285338528173907E9F48F01EF012296D5
:1058E000CE010E943C35E0914821F09149219689F2
:1058F000F801968B80915421891710F490935421CC
:10590000F9E09F9FC0011124BE0186579E4D0E9461
:10591000E33407C0A0914821B091492156968C915B
:10592000868B81E00BC0A0914821B091492181E094
:1059300021A156969C91291708F080E0DF91CF9124
:105940001F910F9108950F931F93CF93DF93FC0145
:10595000892B11F480E02CC082A1815082A326897A
:1059600091A12917B9F38111F5CFEF018F010E5FD6
:105970001F4FC8010E943C3599A19E8B492F50E0D2
:1059800024E030E0241B350B2C873D878091542187
:10599000891710F49093542129E0249FC001259F7A
:1059A000900D1124B80186579E4D0E94E33481E08A
:1059B000DF91CF911F910F9108950F931F93CF9374
:1059C000DF93FC01892BD9F181A1681708F4682FB6
:1059D00086898617A1F192A1913089F5668B24857D
:1059E000358537FD06C024E030E0261B31092487C9
:1059F000358729E0829FC001112486579E4D22855C
:105A0000338528173907D9F4EF018F010E5F1F4F37
:105A1000C8010E943C359E8980915421891710F459
:105A20009093542129E0929FC0011124B801865718
:105A30009E4DDF91CF911F910F910C94E334DF9134
:105A4000CF911F910F910895E0914821F091492144
:105A500084859585E0914821F0914921A0914821C4
:105A6000B091492156964C9124E030E0241B310935
:105A70002487358708958091482190914921892B69
:105A800039F0E0914821F091492182A18F5F82A3F2
:105A9000809148219091492108950F931F93182FC9
:105AA000CB010FB6F8940F92E0914821F091492173
:105AB00043A154A165A176A1452B462B472B69F440
:105AC000E0914821F091492121E027A3009729F096
:105AD00061E00E9477260E94323C0F900FBE0FB605
