:100000000C949A3B0C94C03B0C94C03B0C94C03BAA
:100010000C94C03B0C94C03B0C94C03B0C94C03B74
:100020000C94C03B0C94C03B0C94C03B0C94C03B64
:100030000C94C03B0C94C03B0C94CE600C94C03B21
:100040000C94C03B0C94C03B0C94C03B0C94C03B44
:100050000C94C03B0C94C03B0C94C03B0C94C03B34
:100060000C94C03B0C94C03B0C94C03B0C94C03B24
:100070000C94C03B0C94C03B0C94C03B0C94C03B14
:100080000C94C03B0C94C03B0C94C03B0C94C03B04
:100090000C94C03B0C94C03B0C94C03B0C94C03BF4
:1000A0000C94C03B0C94C03B0C94C03B0C94C03BE4
:1000B0000C94C03B0C94C03B0C94C03B0C94C03BD4
:1000C0000C94C03B0C94C03B0C94C03B0C94C03BC4
:1000D0000C94C03B0C94C03B0C94C03B0C94C03BB4
:1000E0000C94C03B0C94C03B0C94C03B0C94C03BA4
:1000F0000C94C03B0C94C03B0C94C03B0C94C03B94
:100100000C94C03B0C94C03B0C94C03B0C94C03B83
:100110000C94C03B0C94C03B0C94C03B0C94C03B73
:100120000C94C03B0C94C03B0C94C03B0C94C03B63
:100130000C94C03B0C94C03B0C94C03B0C94C03B53
:100140000C94C03B0C94C03B0C94C03B0C94C03B43
:100150000C94C03B0C94C03B0C94C03B0C94C03B33
:100160000C94C03B0C94C03B0C94C03B0C94C03B23
:100170000C94C03B0C94C03B0C94C03B0C94C03B13
:100180000C94C03B0C94C03B0C94C03B0C94C03B03
:100190000C94C03B0C94C03B0C94C03B0C94C03BF3
:1001A0000C94C03B0C94C03B0C94C03B0C94C03BE3
:1001B0000C94C03B0C94C03B0C94C03B0C94C03BD3
:1001C0000C94C03B0C94C03B0C94C03B0C94C03BC3
:1001D0000C94C03B0C94C03B0C94C03B0C94C03BB3
:1001E0000C94C03B0C94C03B0C94C03B0C94C03BA3
:1001F0000C94C03B0C94C23B0C942B4A0C94E43BF3
:100200000C949A3C0C94B546FFFFFFFFFFFFFFFFE5
:10021000FFFFE773E773E773E773E773E773E7736A
:10022000E773E773E773E773800380039FFF9FFF24
:100230009FFFFFFFFFFFFE3FFE3FFEFFFEFFFEFFB3
:10024000E00FC0078EE39EF39EF39EF39EF39EF3B2
:100250009EF39EF38EE3C007E00FFEFFFEFFFEFF5E
:10026000FEFFFEFFF39FE38FF39FFFFFFFFFF83FCB
:10027000E01FC7CFCFE7CFE7C007C007FFE7FFE723
:10028000FFE7CF8FC00FF03FFFFFFFFFFFFFFFFF34
:10029000FFFFEFFFC03FE01FFFCFFFE7F067E01772
:1002A000C7C7CFE3CFE38FE38FE3CFE7CFE7CFE756
:1002B000E78FE00FF83FFFFFFFFFFFFFFFFFFFFFAC
:1002C000FFFFFFFFFFFFFFFFFFFFFFFFFC1FFBEF35
:1002D000F7FFF7FFF01FF3E7F7F3F7FBF3FBF4F794
:1002E000C60FFFFFFFFFFFFFFFFFFFFFFFFFFFFF47
:1002F000FFFFFFFFFFFFFFFFFFFFFFFFFFFFFFFF0E
:10030000FFFFFFFFFFFFFEFFFFFFFFFFFFFFFFFFFE
:10031000FFFFFFFFFFFFFFFFFFFFFFFFFFFFFFFEEE
:10032000FFFFFFFFFFFFFFFFFFFFFFFFFFFFFFFFDD
:10033000FFFFFFFFFFFFFFFFFEFFFFFFFFFFFFFFCE
:10034000FFFFFFFFFFFFFFFFFFFFFFFFFFFFFFFFBD
:10035000FFFEFFFFFFFFFFFFFFFFFFFFFFFFFFFFAE
:10036000FFFFFFFFFFFFFFFFFFFFFEFFFFFFFFFF9E
:10037000FFFFFFFFFCE7FCFFFFFFFFFFFFFFFFFFAB
:10038000FFFFFFFEFFFFFFFFFFFFFFFFFFFCE7FC9C
:10039000FFFE3F1C78FFFFFFFFFFFFFFFEFFFFFF99
:1003A000FFFFFFFFFFFFFCFFFCFFFE1E1E79FFFFAC
:1003B000FFFFFFFFFFFEFFFFFFFFFFFFFFFFFFFC51
:1003C000FFFCFFFE1E1F31FFFFFFFFFFFFFFFEFFD1
:1003D000FFFFFFFFFFFFFFF07CE784F87E5C9F13C9
:1003E000FFFFFFFFFFFFFFFEFFFFFFFFFFFFFFFF1E
:1003F000E01CE700E01E4C9F87FFFFFFFFFFFFFFB1
:10040000FEFFFFFFFFFFFFFFFFC79CE638E79E4CA4
:100410009FC7FFFFFFFFFFFFFFFEFFFFFFFFFFFF85
:10042000FFFFCFCCE67CCFCE619FC7FFFFFFFFFF72
:10043000FFFFFEFFFFFFFFFFFFFFFFC00CE67CCFCB
:10044000CE619F87FFFFFFFFFFFFFFFEFFFFFFFF64
:10045000FFFFFFFFC00CE67CCFCE739F93FFFFFF33
:10046000FFFFFFFFFEFFFFFFFFFFFFFFFFFFCCE6E9
:100470007CCFCE739F31FFFFFFFFFFFFFFFEFFFF2B
:10048000FFFFFFFFFFFFDF9CE638E79E7F9E39FFFF
:10049000FFFFFFFFFFFFFEFFFFFFFFFFFFFFFFC0AC
:1004A0001CE700E01E7F9E7CFFFFFFFFFFFFFFFEBB
:1004B000FFFFFFFFFFFFFFFFE07CE784F87E7F9CEC
:1004C0007C7FFFFFFFFFFFFFFEFFFFFFFFFFFFFF40
:1004D000FFFFFFFFFFFFFFFFFFFFFFFFFFFFFFFF2C
:1004E000FFFEFFFFFFFFFFFFFFFFFFFFFFFFFFFF1D
:1004F000FFFFFFFFFFFFFFFFFFFFFEFFFFFFFFFF0D
:10050000FFFFFFFFFFFFFFFFFFFFFFFFFFFFFFFFFB
:10051000FFFFFFFEFFFFFFFFFFFFFFFFFFFFFFFFEC
:10052000FFFFFFFFFFFFFFFFFFFFFFFFFEFFFFFFDC
:10053000FFFFFFFFFFFFFFFFFFFFFFFFFFFFFFFFCB
:10054000FFFFFFFFFFFEFFFFFFFFFFFFFFFFFFFFBC
:10055000FFFFFFFFFFFFFFFFFFFFFFFFFFFFFEFFAC
:10056000FFFFFFFFFFFFFFFFFFFFFFFFFFFFFFFF9B
:10057000FFFFFFFFFFFFFFFEFFFFFFFFFFFFFFFF8C
:10058000FFFFFFFFFFFFFFFFFFFFFFFFFFFFFFFF7B
:10059000FEFFFFFFFFFFFFFFFFFFFFFFFFFFFFFF6C
:1005A000FFFFFFFFFFFFFFFFFFFEFFFFFFFFFFFF5C
:1005B000FFFFFFFFFFFFFFFFFFFFFFFFFFFFFFFF4B
:1005C000FFFFFEFFFFFFFFFFFFFFFFFFFFFFFFFF3C
:1005D000FFFFFFFFFFFFFFFFFFFFFFFEFFFFFFFF2C
:1005E000FFFFFFFFFFFFFFFFFFFFFFFFFFFFFFFF1B
:1005F000FFFFFFFFFEFFFFFFFFFFFFFFFFFFFFFF0C
:10060000FFFFFFFFFFFFFFFFFFFFFFFFFFFEFFFFFB
:10061000FFFFFFFFFFFFFFFFFFFFFFFFFFFFFFFFEA
:10062000FFFFFFFFFFFFFEFFFFFFFFFFFFFFFFFFDB
:10063000FFFFFFFFFFFFFFFFFFFFFFFFFFFFFFFECB
:10064000FFFFFFFFFFFFFFFFFFFFFFFFFFFFFFFFBA
:10065000FFFFFFFFFFFFFFFFFEFFFFFFFFFFFFFFAB
:10066000FFFFFFFFFFFFFFFFFFFFFFFFFFFFFFFF9A
:10067000FFFEFFFFFFFFFFFFFFFFFFFFFFFFFFFF8B
:10068000FFFFFFFFFFFFFFFFFFFFFEFFFFFFFFFF7B
:10069000FFFFFFFFFFFFFFFFFFFFFFFFFFFFFFFF6A
:1006A000FFFFFFFEFFFFFFFFFFFFFFFFFFFFFFFF5B
:1006B000FFFFFFFFFFFFFFFFFFFFFFFFFEFFFFFF4B
:1006C000FFFFFFFFFFFFFFFFFFFFFFFFFFFFFFFF3A
:1006D000FFFFFFFFFFFEFFFFFFFFFFFFFFFFFFFF2B
:1006E000FFFFFFFFFFFFFFFFFFFFFFFFFFFFFEFF1B
:1006F000FFFFFFFFFFFE07FFFFFFFFFFFFFBFEFF08
:10070000FFFFFFFFFFFFFFFEFFFFFFFFFFFFFC03F9
:10071000FFFFFFFFFFFFF9FE7FFFFFFFFFFFFFFF70
:10072000FEFFFFFFFFFFFFF8F3FFFFFFFFFFFFF8F4
:10073000FC7FFFFFFFFFFFFFFFFEFFFFFFFFFFFF4D
:10074000F9F3FFFFFFFFFFFFF8787FFFFFFFFFFFD9
:10075000FFFFFEFFFFFFFFFFFFF9F3FFFFFFFFFFBC
:10076000FFF8307FFFFFFFFFFFFFFFFEFFFFFF806F
:10077000F8F9F9F3E03E3E7E00F80D837FFFFFFFBE
:10078000FFFFFFFFFEFFFFFF00FC79FCF3C01F1E11
:100790007C00F00CC33FFFFFFFFFFFFFFFFEFFFFEA
:1007A000FE3FFE39F8038F8F8E78FCE3FCE73FFFB6
:1007B000FFFFFFFFFFFFFEFFFFFE7FFF19F0039F1C
:1007C000CFC679FCE7FCFF3FFFFFFFFFFFFFFFFE07
:1007D000FFFFFE00FF89E3F39FCFE279FCE00CFF0F
:1007E0003FFFFFFFFFFFFFFFFEFFFFFE007FC1E7B0
:1007F000F39FCFF079FCE006FFBFFFFFFFFFFFFF95
:10080000FFFEFFFFFE7E3FE1E7F39FCFF879FCE7B5
:10081000E27F9FFFFFFFFFFFFFFFFEFFFFFE7F3F27
:10082000C1E7F39FCFF079FCE7F27F9FFFFFFFFF67
:10083000FFFFFFFEFFFFFE7F3F89E7F39FCFE279D7
:10084000FCE7F27F9FFFFFFFFFFFFFFFFEFFFFFEC2
:100850007F3F19E7F39FCFC679FCE7F27F9FFFFF49
:10086000FE3FFFFFFFFEFFFFFE7E3E39E3F38F8F6B
:100870008E78FCE7E27F9FFFFFF80FFFFFFFFEFF90
:10088000FFFE007C79F003C01F1E7C00E0073FCF15
:10089000FFFFF007FFFFFFFEFFFFFE00F8F9F80380
:1008A000E03E3E7E00E00F3FCFFFFFF007FFFFFF7F
:1008B000FEFFFFFFFFFFFFFFFFFFFFFFFFFCFFFF4C
:1008C000FFFFFFFFF003FFFFFFFEFFFFFFFFFFFF44
:1008D000FFFFFFFFFFFFFCFFFFFFFFFFFFF003FF36
:1008E000FFFFFEFFFFFFFFFFFFFFFFFFFFFFFFFC1C
:1008F000FFFFFFFFFFFFF003FFFFFFFEFFFFFFFF14
:10090000FFFFFFFFFFFFFFFFFCFFFFFFFFFFFFF009
:1009100003FFFFFFFEFFFFFFFFFFFFFFFFFFFFFFE4
:10092000FFFCFFFFFFFFFFFFF803FFFFFFFEFFFFDE
:10093000FFFFFFFFFFFFFFFFFFFFFFFFFFFFFFFFC7
:10094000FFF803FFFFFFFEFFFFFFFFFFFFFFFFFFBB
:10095000FFFFFFFFFFFFFFFFFFFFF803FFFFFFFEAB
:10096000FFFFFFFFFFFFFFFFFFFFFFFFFFFFFFFF97
:10097000FFFFFFFC03FFFFFFFEFFFFFFFFFFFFFF87
:10098000FFFFFFFFFFFFFFFFFFFFFFFFFC01FFFF78
:10099000FFFEFFFFFFFFFFFFFCF3FFFFFFFFFFFF77
:1009A000FFFFFFFFFFFC01FFFFFFFEFFFFFFFFFF59
:1009B000FFFCF3FFFFFFFFFFFFFFFFFFFFFFFC0157
:1009C000FFFFFFFEFFFFFFFFFFFFFCF3FFFFFFFF47
:1009D000FFFFFFFFFFFFFFFC01FFFFFFFEFFFFFF29
:1009E000FFFFFFFCF3FFFFFFFFFFFFFFFFFFFFFF26
:1009F000FE01FFFFFFFEFFFFFFFFFFFFFC73FFFF96
:100A0000FFFFFFFFFFFFFFFFFFFE01FFFFFFFEFFF6
:100A1000FFFFFFFFFFFC33FFFFFFFFFFFFFFFFFFB5
:100A2000FFFFFE01FFFFFFFEFFFFFFFFFFFFFC9345
:100A3000FFFFFFFFFFFFFFFFFFFFFFFF01FFFFFFC4
:100A4000FEFFFFFFFFFFFFFCC3FFFFFFFFFFFFFFF6
:100A5000FFFFFFFFFF01FFFFFFFEFFFFFFFFFFFFA5
:100A6000FCE3FFFFFFFFFFFFFFFFFFFFFFFF01FFB3
:100A7000FFFFFEFFFFFFFFFFFFFCF3FFFFFFFFFF96
:100A8000FFFFFFFFFFFFFF01FFFFFFFEFFFFFFFF75
:100A9000FFFFFCF3FFFFFFFFFFFFFFFFFFFFFFFF75
:100AA00001FFFFFFFEFFFFFFFFFFFFFCF3FFFFFF64
:100AB000FFFFFFFFFFFFFFFFFF80FFFFFFFEFFFFC6
:100AC000FFFFFFFFFCF3FFFFFFFFFFFFFFFFFFFF45
:100AD000FFFF80FFFFFFFEFFFFFFFFFFFFFFFFFFA6
:100AE000FFFFFFFFFFFFFFFFFFFFFF80FFFFFFFE96
:100AF000FFFFFFFFFFFFFFFFFFFFFFFFFFFFFFFF06
:100B0000FFFFFFFFC1FFFFFFFEFFFFFFFFFFFFFF34
:100B1000FFFFFFFFFFFFFFFFFFFFFFFFFFC1FFFF23
:100B2000FFFEFFFFFFFFFFFFFFFFFFFFFFFFFFFFD6
:100B3000FFFFFFFFFFFFC0FFFFFFFEFFFFFFFFFF05
:100B4000FFFFFFFFFFFFFFFFFFFFFFFFFFFFFFE0D4
:100B5000FFFFFFFEFFFFFFFFFFFFFFFFFFFFFFFFA6
:100B6000FFFFFFFFFFFFFFFFE0FFFFFFFEFFFFFFB5
:100B7000FFFFFFFFFFFFFFFFFFFFFFFFFFFFFFFF85
:100B8000FFE0FFFFFFFEFFFFFFFFFFFFFFFFFFFF95
:100B9000FFFFFFFFFFFFFFFFFFFFE0FFFFFFFEFF85
:100BA000FFFFFFFFFFFFFFFFFFFFFFFFFFFFFFFF55
:100BB000FFFFFFE0FFFFFFFEFFFFFFFFFFFFFFFF65
:100BC000FFFFFFFFFFFFFFFFFFFFFFFFF07FFFFFC4
:100BD000FEFFFFFFFFFFFFFFFFFFFFFFFFFFFFFF26
:100BE000FFFFFFFFFFF07FFFFFFEFFFFFFFFFFFFA5
:100BF000FFFFFFFFFFFFFFFFFFFFFFFFFFFFF07F94
:100C0000FFFFFEFFFFFFFFFFFFFFFFFFFFFFFFFFF5
:100C1000FFFFFFFFFFFFFFF07FFFFFFEFFFFFFFF74
:100C2000FFFFFFFFFFFFFFFFFFFFFFFFFFFFFFFFD4
:100C3000F07FFFFFFEFFFFFFFFFFFFFFFFFFFFFF54
:100C4000FFFFFFFFFFFFFFFFFFF07FFFFFFEFFFF44
:100C5000FFFFFFFFFFFFFFFFFFFFFFFFFFFFFFFFA4
:100C6000FFFFF07FFFFFFEFFFFFFFFFFFFFFFFFF24
:100C7000FFFFFFFFFFFFFFFFFFFFFFF83FFFFFFE4C
:100C8000FFFFFFFFFFFFFFFFFFFFFFFFFFFFFFFF74
:100C9000FFFFFFFFFC7FFFFFFEFFFFFFFFFFFFFFE8
:100CA000FFFFFFFFFFFFFFFFFFFFFFFFFFFC7FFFD7
:100CB000FFFEFFFFFFFFFFFFFFFFFFFFFFFFFFFF45
:100CC000FFFFFFFFFFFFFC7FFFFFFEFFFFFFFFFFB8
:100CD000FFFFFFFFFFFFFFFFFFFFFFFFFFFFFFFC27
:100CE0007FFFFFFEFFFFFFFFFFFFFFFFFFFFFFFF95
:100CF000FFFFFFFFFFFFFFFFFC7FFFFFFEFFFFFF88
:100D0000FFFFE01FFFFFFFFFFFFFFFFFFFFFFFFFF2
:100D1000FFF83FFFFFFEFFFFFFC000000007FFFFDF
:100D2000FFFFFFFFFFFFFFFFFFFFFC1FFFFFFEFFB7
:100D3000FFFF8000000001FFFFFFFFFFFFFFFFFF3D
:100D4000FFFFFFFC1FFFFFFEFFFFFF000000000092
:100D5000FFFFFFFFFFFFFFFFFFFFFFFFFC1FFFFF86
:100D6000FEFFFFFF00000000001FFFFFFFFFFFFF6F
:100D7000FFFFFFFFFFFC1FFFFFFEFFFFFF00000064
:100D800000001FFFFFFFFFFFFFFFFFFFFFFFFC1F34
:100D9000FFFFFEFFFFFE00000000000FFFFFFFFF50
:100DA000FFFFE0FFFFFFFFFE3FFFFFFEFFFFFC0036
:100DB000000000000FFFFFFFFFFFFFC07FFFFFFFEE
:100DC000FE1FFFFFFEFFFFFC01FFE000000FFFFF23
:100DD000FFFFFFFF807FFFFFFFFE1FFFFFFEFFFF04
:100DE000F803FFFFE00007FFFFFFFFFFFF807FFF2B
:100DF000FFFFFF1FFFFFFEFFFFF803FFFFFFF003F2
:100E0000FFFFFFFFFFFF803FFFFFFFFF1FFFFFFE12
:100E1000FFFFF003FFFFFFF803FFFFFFFFFFFF806F
:100E20003FFFFFFFFE0FFFFFFEFFFFF003FFFFFF8F
:100E3000F803FFFFFFFFC1FF803FFFFFFFFE0FFF33
:100E4000FFFEFFFFE007FFFFFFF803FFFFFFFF804C
:100E5000FF803FFFFFFFFF07FFFFFEFFFFC007FF11
:100E6000FFFFF803FFFFFFFF007F803FFFFFFFFF53
:100E700007FFFFFEFFFFC00FFFFFFFF803FFFFFFAD
:100E8000FF003F803FFFFFFFFF07FFFFFEFFFF80E8
:100E90001FFFFFFFF803FFFFFFFF003F803FFFFF43
:100EA000FFFF07FFFFFEFFFF801FFFFFFFF803FFAD
:100EB000FFFFFF001FC01FFFFFFFFF83FFFFFEFFBD
:100EC000FF803FFFFFFFF803FFFFFFFF001FC01F72
:100ED000FFFFFFFF83FFFFFEFFFF807FFFFFFFF8A5
:100EE00003FFFFFFFF001FC01FFFFFFFFF83FFFF88
:100EF000FEFFFF007FFFFFFFF803FFFFFFFE001F65
:100F0000C01FFFFFFFFFC3FFFFFEFFFF00FFFFFF4C
:100F1000FFF803FFFFFFFE001FC01FFFFFFFFFC121
:100F2000FFFFFEFFFE00FFFFFFFFF803FFFFFFFCD8
:100F3000001FC01FFFFFFFFFE0FFFFFEFFFE00FFDF
:100F4000FFFFFFF803FFFFFFFC001FC01FFFFFFFB5
:100F5000FFE0FFFFFEFFFE00FFFFFFFFF803FFFFC4
:100F6000FFFC001FE00FFFFFFFFFE07FFFFEFFFE23
:100F700000FFFFFFFFF803FFFFFFFC001FE00FFF74
:100F8000FFFFFFF07FFFFEFFFE00FFFFFFFFF80304
:100F9000FFFFFFFC001FE00FFFFFFFFFF07FFFFEE2
:100FA000FFFE00FFFFFFFFFC03FFFFFFFE001FE04F
:100FB0000FFFFFFFFFF83FFFFEFFFE00FFFFFFFFF9
:100FC000FC03FFFFFFFE001FE00FFFFFFFFFF81F06
:100FD000FFFEFFFE007FFFFFFFFE03FFFFFFFE009F
:100FE0001FE00FFFFFFFFFFC1FFFFEFFFE007FFF64
:100FF000FFFFFE03FFFFFFFC001FF00FFFFFFFFFDF
:10100000FC0FFFFEFFFE003FFFFFFFFE03FFFFFFA1
:10101000FC001FF00FFFFFFFFFFC07FFFEFFFF00BC
:101020000FFFFFFFFE03FFFFFFFC001FF80FFFFF96
:10103000FFFFFE07FFFEFFFF0007FFFFFFFE03FFAE
:10104000FFFFFC001FF80FFFFFFFFFFF03FFFEFF86
:10105000FF8003FFFFFFFF07FFFFFFF8001FF80FF0
:10106000FFFFFFFFFF03FFFEFFFF80007FFFFFFF8B
:1010700003FFFFFFF8001FF80FFFFFFFFFFF81FFD7
:10108000FEFFFF800003FFFFFF03FFFFFFF0001FD5
:10109000F80FFFFFFFFFFF80FFFEFFFFC000003FD4
:1010A000FFFF03FFFFFFE0001FF80FFFFFFFFFFF41
:1010B000C07FFEFFFFE0000000FFFF03FFFFFFC057
:1010C000001FF80FFFFFFFFFFFC07FFEFFFFF800CC
:1010D000000000FF81FFFFFF80000FF80FFFFFFF00
:1010E000FFFFE03FFEFFFFFC000000000001FFFFEC
:1010F000FF80000FF80FFFFFFFFFFFE03FFEFFFF45
:10110000FE000000000001FFFFFF000007F80FFFD6
:10111000FFFFFFFFF01FFEFFFFFF80000000000148
:10112000FFFFFF000001F00FFFFFFFFFFFF01FFEBA
:10113000FFFFFFC00000000001FFFFFF000000E014
:1011400007FE0FFFFFFFF81FFEFFFFFFF800000084
:101150000001FFFFFF0020002007FC07FFFFFFF852
:101160001FFEFFFFFFFFC000000000FFFFFF007039
:1011700000000FF803FFFFFFFC0FFEFFFFFFFFFF64
:1011800000000000FFFFFF007800000FF803FFFFE2
:10119000FFF80FFEFFFFFFFFFFF8000000FFFFFF5B
:1011A00080FC00001FF803FFFFFFFC07FEFFFFFFAE
:1011B000FFFFFFF000007FFFFFC1FE00001FF803EC
:1011C000FFFFFFFC07FEFFFFFFFFFFFFFE00003FEA
:1011D000FFFFFFFE00001FF003FFFFFFFC03FEFF09
:1011E000FFFFFFFFFFFFF0003FFFFFFFFF00003F9B
:1011F000F003FFFFFFFE01FEFFFFFFFFFFFFFFFF0A
:10120000883FFFFFFFFFC0007FF007FFFFFFFE01E9
:10121000FEFFFFFFFFFFFFFFFFF81FFFFFFFFFC005
:1012200000FFF007FFFFFFFE01FEFFFFFFFFFFFFD4
:10123000FFFFF81FFFFFFFFFE001FFF007FFFFFFC9
:10124000FF01FEFFFFFFFFFFFFFFFFFC1FFFFFFF90
:10125000FFF003FFF007FFFFFFFF00FEFFFFFFFFB0
:10126000FFFFFFFFFC0FFFFFFFFFFC1FFFF007FF6B
:10127000FFFFFF007EFFFFFFFFFFFFFFFFFE0FFFEF
:10128000FFFFFFFFFFFFF007F8000000007EFFFFF9
:10129000FFFFFFFFFFFFFF0FFFFFFFFFFFFFFFF05D
:1012A0000000000000007EFFFFFFFFFFFFFFFFFFC9
:1012B00087FFFFFFFFFFFFFFF00000000000003E80
:1012C000FFFFFFFFFFFFFFFFFF87FFFFFFFFFFFFA6
:1012D000FFF00000000000001EFFFFFFFFFFFFFF08
:1012E000FFFFC3FFFFFFFFFFFFFFF0000000000054
:1012F000001EFFFFFFFFFFFFFFFFFFC3FFFFFFFF1A
:10130000FFFFFFF80000000000001EFFFFFFFFFFCF
:10131000FFFFFFFFE3FFFFFFFFFFFFFFF8000000FD
:101320000000003EFFFFFFFFFFFFFFFFFFC1FFFFC9
:10133000FFFFFFFFFFF80000000000007EFFFFFF3F
:10134000FFFFFFFFFFFFE0FFFFFFFFFFFFFFFC00CE
:101350000000000000FEFFFFFFFFFFFFFFFFFFE0B8
:10136000FFFFFFFFFFFFFFFFF001FFFFFFFFFEFF9B
:10137000FFFFFFFFFFFFFFFFE0FFFFFFFFFFFFFF9C
:10138000FFFFFFFFFFFFFFFEFFFFFFFFFFFFFFFF6E
:10139000FFF07FFFFFFFFFFFFFFFFFFFFFFFFFFFEC
:1013A000FEFFFFFFFFFFFFFFFFFFF8FFFFFFFFFF55
:1013B000FFFFFFFFFFFFFFFFFFFEFFFFFFFFFFFF3E
:1013C000FFFFFFF87FFFFFFFFFFFFFFFFFFFFFFFB4
:1013D000FFFFFEFFFFFFFFFFFFFFFFFFF87FFFFFA5
:1013E000FFFFFFFFFFFFFFFFFFFFFFFEFFFFFFFF0E
:1013F000FFFFFFFFFFFC3FFFFFFFFFFFFFFFFFFFC0
:10140000FFFFFFFFFEFFFFFFFFFFFFFFFFFFFC1FD0
:10141000FFFFFFFFFFFFFFFFFFFFFFFFFFFEFFFFDD
:10142000FFFFFFFFFFFFFFFC1FFFFFFFFFFFFFFFAF
:10143000FFFFFFFFFFFFFEFFFFFFFFFFFFFFFFFFBD
:10144000FC1FFFFFFFFFFFFFFFFFFFFFFFFFFFFE90
:10145000FFFFFFFFFFFFFFFFFFFE0FFFFFFFFFFF8D
:10146000FFFFFFFFFFFFFFFFFEFFFFFFFFFFFFFF8D
:10147000FFFFFE0FFFFFFFFFFFFFFFFFFFFFFFFF6D
:10148000FFFEFFFFFFFFFFFFFFFFFFFE0FFFFFFF5E
:10149000FFFFFFFFFFFFFFFFFFFFFEFFFFFFFFFF5D
:1014A000FFFFFFFFFE07FFFFFFFFFFFFFFFFFFFF45
:1014B000FFFFFFFEFFFFFFFFFFFFFFFFFFFE07FF36
:1014C000FFFFFFFFFFFFFFFFFFFFFFFFFEFFFFFF2D
:1014D000FFFFFFFFFFFFFF03FFFFFFFFFFFFFFFF18
:1014E000FFFFFFFFFFFEFFFFFFFFFFFFFFFFFFFE0E
:1014F00003FFFFFFFFFFFFFFFFFFFFFFFFFFFEFFF9
:10150000FFFFFFFFFFFFFFFFFF03FFFFFFFFFFFFE7
:10151000FFFFFFFFFFFFFFFEFFFFFFFFFFFFFFFFDC
:10152000FFFF03FFFFFFFFFFFFFFFFFFFFFFFFFFC7
:10153000FEFFFFFFFFFFFFFFFFFFFF83FFFFFFFF38
:10154000FFFFFFFFFFFFFFFFFFFEFFFFFFFFFFFFAC
:10155000FFFFFFFF81FFFFFFFFFFFFFFFFFFFFFF19
:10156000FFFFFEFFFFFFFFFFFFFFFFFFFF81FFFF0A
:10157000FFFFFFFFFFFFFFFFFFFFFFFEFFFFFFFF7C
:10158000FFFFFFFFFFFF80FFFFFFFFFFFFFFFFFFEA
:10159000FFFFFFFFFEFFFFFFFFFFFFFFFFFFFF80DB
:1015A000FFFFFFFFFFFFFFFFFFFFFFFFFFFEFFFF4C
:1015B000FFFFFFFFFFFFFFFF80FFFFFFFFFFFFFFBA
:1015C000FFFFFFFFFFFFFEFFFFFFFFFFFFFFFFFF2C
:1015D000FF80FFFFFFFFFFFFFFFFFFFFFFFFFFFE9B
:1015E000FFFFFFFFFFFFFFFFFFFF007FFFFFFFFF8A
:1015F000FFFFFFFFFFFFFFFFFEFFFFFFFFFFFFFFFC
:10160000FFFFFF007FFFFFFFFFFFFFFFFFFFFFFF69
:10161000FFFEFFFFFFFFFFFFFFFFFFFF007FFFFF5A
:10162000FFFFFFFFFFFFFFFFFFFFFEFFFFFFFFFFCB
:10163000FFFFFFFFFF80FFFFFFFFFFFFFFFFFFFF39
:10164000FFFFFFFEFFFFFFFFFFFFFFFFFFFFC1FFE9
:10165000FFFFFFFFFFFFFFFFFFFFFFFFFEFFFFFF9B
:10166000FFFFFFFFFFFFFFE3FFFFFFFFFFFFFFFFA6
:10167000FFFFFFFFFFFE10181808181808000000F1
:1016800000000000000000000000131444120000DD
:101690000000000000020201111212222266696994
:1016A000595899998800000000F8B41351355151E8
:1016B0001901000000000000000000000000000010
:1016C000000000000000000000000000000000001A
:1016D000000000000000000000000000000000000A
:1016E00000000000000000000000000000000000FA
:1016F00000000000000000000000000000000000EA
:1026300000000000FFFFFFC3839F83990103FFFF9A
:10264000FF0000000000000000000000000000008B
:10265000000000000000000000000000000000007A
:10266000000000000000000000000000000000006A
:10267000000000000000000000000000000000005A
:10268000000000000000000000000000000000004A
:10269000000000000000000000000000000000003A
:1026A000000000000000000000000000000000002A
:1026B000000000009F83F1C181383D1981C3FFFFF5
:1026C000FF0000000000000000000000000000000B
:1026D00000000000000000000000000000000000FA
:1026E00000000000000000000000000000000000EA
:1026F00000000000000000000000000000000000DA
:1027000000000000000000000000000000000000C9
:1027100000000000000000000000000000000000B9
:1027200000000000000000000000000000000000A9
:1027300000000000FFFFFFC0C0CCC09C80C0FFFFB6
:10274000FF0000000000000000000000000000008A
:102750000000000000000000000000000000000079
:102760000000000000000000000000000000000069
:102770000000000000000000000000000000000059
:102780000000000000000000000000000000000049
:102790000000000000000000000000000000000039
:1027A0000000000000000000000000000000000029
:1027B00000000000FFFFFF010133F3F3C1C1FFFF81
:1027C000FF0000000000000000000000000000000A
:1027D00000000000000000000000000000000000F9
:1027E00000000000000000000000000000000000E9
:1027F00000000000000000000000000000000000D9
:1028000000000000000000000000000000000000C8
:1028100000000000000000000000000000000000B8
:1028200000000000000000000000000000000000A8
:1028300000000000FFFFFF8383939B9900003C3C56
:10284000FF00000000000000000000000000000089
:102850000000000000000000000000000000000078
:102860000000000000000000000000000000000068
:102870000000000000000000000000000000000058
:102880000000000000000000000000000000000048
:102890000000000000000000000000000000000038
:1028A0000000000000000000000000000000000028
:1028B00000000000FFFFFFC3813901F98183FFFFA2
:1028C000FF00000000000000000000000000000009
:1028D00000000000000000000000000000000000F8
:1028E00000000000000000000000000000000000E8
:1028F00000000000000000000000000000000000D8
:1029000000000000000000000000000000000000C7
:1029100000000000000000000000000000000000B7
:1029200000000000000000000000000000000000A7
:1029300000000000FFFFFF24A18181A12524FFFFEB
:10294000FF00000000000000000000000000000088
:102950000000000000000000000000000000000077
:102960000000000000000000000000000000000067
:102970000000000000000000000000000000000057
:102980000000000000000000000000000000000047
:102990000000000000000000000000000000000037
:1029A0000000000000000000000000000000000027
:1029B00000000000FFFFFF8381998F3F8183FFFFAD
:1029C000FF00000000000000000000000000000008
:1029D00000000000000000000000000000000000F7
:1029E00000000000000000000000000000000000E7
:1029F00000000000000000000000000000000000D7
:102A000000000000000000000000000000000000C6
:102A100000000000000000000000000000000000B6
:102A200000000000000000000000000000000000A6
:102A300000000000FFFFFFB99989A1B1B1B9FFFF04
:102A4000FF00000000000000000000000000000087
:102A50000000000000000000000000000000000076
:102A60000000000000000000000000000000000066
:102A70000000000000000000000000000000000056
:102A80000000000000000000000000000000000046
:102A90000000000000000000000000000000000036
:102AA0000000000000000000000000000000000026
:102AB00000000000D3C7FFB99909A1B1B1B9FFFF68
:102AC000FF00000000000000000000000000000007
:102AD00000000000000000000000000000000000F6
:102AE00000000000000000000000000000000000E6
:102AF00000000000000000000000000000000000D6
:102B000000000000000000000000000000000000C5
:102B100000000000000000000000000000000000B5
:102B200000000000000000000000000000000000A5
:102B300000000000FFFFFF3999C9C1C91939FFFF23
:102B4000FF00000000000000000000000000000086
:102B50000000000000000000000000000000000075
:102B60000000000000000000000000000000000065
:102B70000000000000000000000000000000000055
:102B80000000000000000000000000000000000045
:102B90000000000000000000000000000000000035
:102BA0000000000000000000000000000000000025
:102BB00000000000FFFFFF8383939B99989CFFFF19
:102BC000FF00000000000000000000000000000006
:102BD00000000000000000000000000000000000F5
:102BE00000000000000000000000000000000000E5
:102BF00000000000000000000000000000000000D5
:102C000000000000000000000000000000000000C4
:102C100000000000000000000000000000000000B4
:102C200000000000000000000000000000000000A4
:102C300000000000FFFFFF381800242C3C3CFFFF81
:102C4000FF00000000000000000000000000000085
:102C50000000000000000000000000000000000074
:102C60000000000000000000000000000000000064
:102C70000000000000000000000000000000000054
:102C80000000000000000000000000000000000044
:102C90000000000000000000000000000000000034
:102CA0000000000000000000000000000000000024
:102CB00000000000FFFFFF39390101393939FFFFFA
:102CC000FF00000000000000000000000000000005
:102CD00000000000000000000000000000000000F4
:102CE00000000000000000000000000000000000E4
:102CF00000000000000000000000000000000000D4
:102D000000000000000000000000000000000000C3
:102D100000000000000000000000000000000000B3
:102D200000000000000000000000000000000000A3
:102D300000000000FFFFFFC381393C3981C3FFFF62
:102D4000FF00000000000000000000000000000084
:102D50000000000000000000000000000000000073
:102D60000000000000000000000000000000000063
:102D70000000000000000000000000000000000053
:102D80000000000000000000000000000000000043
:102D90000000000000000000000000000000000033
:102DA0000000000000000000000000000000000023
:102DB00000000000FFFFFF01013939393939FFFFF9
:102DC000FF00000000000000000000000000000004
:102DD00000000000000000000000000000000000F3
:102DE00000000000000000000000000000000000E3
:102DF00000000000000000000000000000000000D3
:102E000000000000000000000000000000000000C2
:102E100000000000000000000000000000000000B2
:102E200000000000000000000000000000000000A2
:102E300000000000FFFFFF808039391981C1F9F9D6
:102E4000F900000000000000000000000000000089
:102E50000000000000000000000000000000000072
:102E60000000000000000000000000000000000062
:102E70000000000000000000000000000000000052
:102E80000000000000000000000000000000000042
:102E90000000000000000000000000000000000032
:102EA0000000000000000000000000000000000022
:102EB00000000000FFFFFF8783B9F9F98387FFFF58
:102EC000FF00000000000000000000000000000003
:102ED00000000000000000000000000000000000F2
:102EE00000000000000000000000000000000000E2
:102EF00000000000000000000000000000000000D2
:102F000000000000000000000000000000000000C1
:102F100000000000000000000000000000000000B1
:102F200000000000000000000000000000000000A1
:102F300000000000FFFFFF010125E7E78181FFFF9F
:102F4000FF00000000000000000000000000000082
:102F50000000000000000000000000000000000071
:102F60000000000000000000000000000000000061
:102F70000000000000000000000000000000000051
:102F80000000000000000000000000000000000041
:102F90000000000000000000000000000000000031
:102FA0000000000000000000000000000000000021
:102FB00000000000FFFFFF3C39999393C7C7CFE1A2
:102FC000F30000000000000000000000000000000E
:102FD00000000000000000000000000000000000F1
:102FE00000000000000000000000000000000000E1
:102FF00000000000000000000000000000000000D1
:1030000000000000000000000000000000000000C0
:1030100000000000000000000000000000000000B0
:1030200000000000000000000000000000000000A0
:1030300000000000E3E3E781012424240181E7E7A5
:10304000E700000000000000000000000000000099
:103050000000000000000000000000000000000070
:103060000000000000000000000000000000000060
:103070000000000000000000000000000000000050
:103080000000000000000000000000000000000040
:103090000000000000000000000000000000000030
:1030A0000000000000000000000000000000000020
:1030B00000000000FFFFFF3993C3C7C39939FFFF2A
:1030C000FF00000000000000000000000000000001
:1030D00000000000000000000000000000000000F0
:1030E00000000000000000000000000000000000E0
:1030F00000000000000000000000000000000000D0
:1031000000000000000000000000000000000000BF
:1031100000000000000000000000000000000000AF
:10312000000000000000000000000000000000009F
:1031300000000000FEFEFE989898989800007E7EA1
:10314000FE00000000000000000000000000000081
:10315000000000000000000000000000000000006F
:10316000000000000000000000000000000000005F
:10317000000000000000000000000000000000004F
:10318000000000000000000000000000000000003F
:10319000000000000000000000000000000000002F
:1031A000000000000000000000000000000000001F
:1031B00000000000FFFFFFB9B9998183BFBFFFFF87
:1031C000FF00000000000000000000000000000000
:1031D00000000000000000000000000000000000EF
:1031E00000000000000000000000000000000000DF
:1031F00000000000000000000000000000000000CF
:1032000000000000000000000000000000000000BE
:1032100000000000000000000000000000000000AE
:10322000000000000000000000000000000000009E
:1032300000000000FFFFFF24242424240000FFFFDF
:10324000FF0000000000000000000000000000007F
:10325000000000000000000000000000000000006E
:10326000000000000000000000000000000000005E
:10327000000000000000000000000000000000004E
:10328000000000000000000000000000000000003E
:10329000000000000000000000000000000000002E
:1032A000000000000000000000000000000000001E
:1032B00000000000FFFFFFA4A4A4A4A400007F7FDF
:1032C000FF000000000000000000000000000000FF
:1032D00000000000000000000000000000000000EE
:1032E00000000000000000000000000000000000DE
:1032F00000000000000000000000000000000000CE
:1033000000000000000000000000000000000000BD
:1033100000000000000000000000000000000000AD
:10332000000000000000000000000000000000009D
:1033300000000000FFFFFFF0F08303338383FFFFF3
:10334000FF0000000000000000000000000000007E
:10335000000000000000000000000000000000006D
:10336000000000000000000000000000000000005D
:10337000000000000000000000000000000000004D
:10338000000000000000000000000000000000003D
:10339000000000000000000000000000000000002D
:1033A000000000000000000000000000000000001D
:1033B00000000000FFFFFF3C3C20000C2020FFFF2E
:1033C000FF000000000000000000000000000000FE
:1033D00000000000000000000000000000000000ED
:1033E00000000000000000000000000000000000DD
:1033F00000000000000000000000000000000000CD
:1034000000000000000000000000000000000000BC
:1034100000000000000000000000000000000000AC
:10342000000000000000000000000000000000009C
:1034300000000000FFFFFFF9F981811981C1FFFF42
:10344000FF0000000000000000000000000000007D
:10345000000000000000000000000000000000006C
:10346000000000000000000000000000000000005C
:10347000000000000000000000000000000000004C
:10348000000000000000000000000000000000003C
:10349000000000000000000000000000000000002C
:1034A000000000000000000000000000000000001C
:1034B00000000000FFFFFFC1811D071F81C1FFFF4A
:1034C000FF000000000000000000000000000000FD
:1034D00000000000000000000000000000000000EC
:1034E00000000000000000000000000000000000DC
:1034F00000000000000000000000000000000000CC
:1035000000000000000000000000000000000000BB
:1035100000000000000000000000000000000000AB
:10352000000000000000000000000000000000009B
:1035300000000000FFFFFF8D05212125058DFFFF05
:10354000FF0000000000000000000000000000007C
:10355000000000000000000000000000000000006B
:10356000000000000000000000000000000000005B
:10357000000000000000000000000000000000004B
:10358000000000000000000000000000000000003B
:10359000000000000000000000000000000000002B
:1035A000000000000000000000000000000000001B
:1035B00000000000FFFFFF8381B98183B1B9FFFFE5
:1035C000FF000000000000000000000000000000FC
:1035D00000000000000000000000000000000000EB
:1035E00000000000000000000000000000000000DB
:1035F00000000000000000000000000000000000CB
:1036000000000000000000000000000000000000BA
:1036100000000000000000000000000000000000AA
:10362000000000000000000000000000000000009A
:10363000000000000000000000000000000000008A
:10364000000000000000000000000000000000007A
:10365000000000000000000000000000000000006A
:10366000000000000000000000000000000000005A
:10367000000000000000000000000000000000004A
:10368000000000000000000000000000000000003A
:10369000000000000000000000000000000000002A
:1036A000000000000000000000000000000000001A
:1036B000000000009B9BFFC3813901F98183FFFF5C
:1036C000FF000000000000000000000000000000FB
:1036D00000000000000000000000000000000000EA
:1036E00000000000000000000000000000000000DA
:1036F00000000000000000000000000000000000CA
:1037000000000000000000000000000000000000B9
:1047300000000000FFFFFFFFFFFFFFFFFFFFFFFF85
:10474000FF0000000000000000000000000000006A
:104750000000000000000000000000000000000059
:104760000000000000000000000000000000000049
:104770000000000000000000000000000000000039
:104780000000000000000000000000000000000029
:104790000000000000000000000000000000000019
:1047A0000000000000000000000000000000000009
:1047B00000000000F3F3F3F3F3F3F7FFF3F3FFFF6D
:1047C000FF000000000000000000000000000000EA
:1047D00000000000000000000000000000000000D9
:1047E00000000000000000000000000000000000C9
:1047F00000000000000000000000000000000000B9
:1048000000000000000000000000000000000000A8
:104810000000000000000000000000000000000098
:104820000000000000000000000000000000000088
:1048300000000000C9E9E9E9FFFFFFFFFFFFFFFFFC
:10484000FF00000000000000000000000000000069
:104850000000000000000000000000000000000058
:104860000000000000000000000000000000000048
:104870000000000000000000000000000000000038
:104880000000000000000000000000000000000028
:104890000000000000000000000000000000000018
:1048A0000000000000000000000000000000000008
:1048B00000000000FFB7970101D38181C9E9FFFF24
:1048C000FF000000000000000000000000000000E9
:1048D00000000000000000000000000000000000D8
:1048E00000000000000000000000000000000000C8
:1048F00000000000000000000000000000000000B8
:1049000000000000000000000000000000000000A7
:104910000000000000000000000000000000000097
:104920000000000000000000000000000000000087
:1049300000000000E783C1E9E9C387979781C1E7D9
:10494000FF00000000000000000000000000000068
:104950000000000000000000000000000000000057
:104960000000000000000000000000000000000047
:104970000000000000000000000000000000000037
:104980000000000000000000000000000000000027
:104990000000000000000000000000000000000017
:1049A0000000000000000000000000000000000007
:1049B00000000000713494C4E187436B4D9FFFFFFA
:1049C000FF000000000000000000000000000000E8
:1049D00000000000000000000000000000000000D7
:1049E00000000000000000000000000000000000C7
:1049F00000000000000000000000000000000000B7
:104A000000000000000000000000000000000000A6
:104A10000000000000000000000000000000000096
:104A20000000000000000000000000000000000086
:104A300000000000E3C1C9E3F3610C1C0061FFFF4B
:104A4000FF00000000000000000000000000000067
:104A50000000000000000000000000000000000056
:104A60000000000000000000000000000000000046
:104A70000000000000000000000000000000000036
:104A80000000000000000000000000000000000026
:104A90000000000000000000000000000000000016
:104AA0000000000000000000000000000000000006
:104AB00000000000E7E7E7E7FFFFFFFFFFFFFFFF62
:104AC000FF000000000000000000000000000000E7
:104AD00000000000000000000000000000000000D6
:104AE00000000000000000000000000000000000C6
:104AF00000000000000000000000000000000000B6
:104B000000000000000000000000000000000000A5
:104B10000000000000000000000000000000000095
:104B20000000000000000000000000000000000085
:104B300000000000DFC7E3F3FBF9F9F9FBF3E3C77B
:104B4000DF00000000000000000000000000000086
:104B50000000000000000000000000000000000055
:104B60000000000000000000000000000000000045
:104B70000000000000000000000000000000000035
:104B80000000000000000000000000000000000025
:104B90000000000000000000000000000000000015
:104BA0000000000000000000000000000000000005
:104BB00000000000E7C79F9F3F3F3F3F3F1F9FC749
:104BC000E7000000000000000000000000000000FE
:104BD00000000000000000000000000000000000D5
:104BE00000000000000000000000000000000000C5
:104BF00000000000000000000000000000000000B5
:104C000000000000000000000000000000000000A4
:104C10000000000000000000000000000000000094
:104C20000000000000000000000000000000000084
:104C300000000000DBD3C70101C7D3DBFFFFFFFF8C
:104C4000FF00000000000000000000000000000065
:104C50000000000000000000000000000000000054
:104C60000000000000000000000000000000000044
:104C70000000000000000000000000000000000034
:104C80000000000000000000000000000000000024
:104C90000000000000000000000000000000000014
:104CA0000000000000000000000000000000000004
:104CB00000000000FFE7E7E70101E7E7E7FFFFFF8C
:104CC000FF000000000000000000000000000000E5
:104CD00000000000000000000000000000000000D4
:104CE00000000000000000000000000000000000C4
:104CF00000000000000000000000000000000000B4
:104D000000000000000000000000000000000000A3
:104D10000000000000000000000000000000000093
:104D20000000000000000000000000000000000083
:104D300000000000FFFFFFFFFFFFFFFFF3E3E7F7C7
:104D4000FB00000000000000000000000000000068
:104D50000000000000000000000000000000000053
:104D60000000000000000000000000000000000043
:104D70000000000000000000000000000000000033
:104D80000000000000000000000000000000000023
:104D90000000000000000000000000000000000013
:104DA0000000000000000000000000000000000003
:104DB00000000000FFFFFFFFFFC3C3FFFFFFFFFF77
:104DC000FF000000000000000000000000000000E4
:104DD00000000000000000000000000000000000D3
:104DE00000000000000000000000000000000000C3
:104DF00000000000000000000000000000000000B3
:104E000000000000000000000000000000000000A2
:104E10000000000000000000000000000000000092
:104E20000000000000000000000000000000000082
:104E300000000000FFFFFFFFFFFFFFFFE7E7FFFFAE
:104E4000FF00000000000000000000000000000063
:104E50000000000000000000000000000000000052
:104E60000000000000000000000000000000000042
:104E70000000000000000000000000000000000032
:104E80000000000000000000000000000000000022
:104E90000000000000000000000000000000000012
:104EA0000000000000000000000000000000000002
:104EB00000000000BF9F9FCFCFEFE7F7F3FBF9F9AA
:104EC000FF000000000000000000000000000000E3
:104ED00000000000000000000000000000000000D2
:104EE00000000000000000000000000000000000C2
:104EF00000000000000000000000000000000000B2
:104F000000000000000000000000000000000000A1
:104F10000000000000000000000000000000000091
:104F20000000000000000000000000000000000081
:104F300000000000C38119190D31399981C3FFFFA9
:104F4000FF00000000000000000000000000000062
:104F50000000000000000000000000000000000051
:104F60000000000000000000000000000000000041
:104F70000000000000000000000000000000000031
:104F80000000000000000000000000000000000021
:104F90000000000000000000000000000000000011
:104FA0000000000000000000000000000000000001
:104FB00000000000EFE3E1EDEFEFEFEF8181FFFF95
:104FC000FF000000000000000000000000000000E2
:104FD00000000000000000000000000000000000D1
:104FE00000000000000000000000000000000000C1
:104FF00000000000000000000000000000000000B1
:1050000000000000000000000000000000000000A0
:105010000000000000000000000000000000000090
:105020000000000000000000000000000000000080
:1050300000000000C3819F9F9FCFE7F38181FFFFA6
:10504000FF00000000000000000000000000000061
:105050000000000000000000000000000000000050
:105060000000000000000000000000000000000040
:105070000000000000000000000000000000000030
:105080000000000000000000000000000000000020
:105090000000000000000000000000000000000010
:1050A0000000000000000000000000000000000000
:1050B000000000008181CFE7C7839F9F81C1FFFF70
:1050C000FF000000000000000000000000000000E1
:1050D00000000000000000000000000000000000D0
:1050E00000000000000000000000000000000000C0
:1050F00000000000000000000000000000000000B0
:10510000000000000000000000000000000000009F
:10511000000000000000000000000000000000008F
:10512000000000000000000000000000000000007F
:1051300000000000CFCFC7D3D90000DFDFDFFFFFC3
:10514000FF00000000000000000000000000000060
:10515000000000000000000000000000000000004F
:10516000000000000000000000000000000000003F
:10517000000000000000000000000000000000002F
:10518000000000000000000000000000000000001F
:10519000000000000000000000000000000000000F
:1051A00000000000000000000000000000000000FF
:1051B000000000008383FBFBC3839F9F81E3FFFF0D
:1051C000FF000000000000000000000000000000E0
:1051D00000000000000000000000000000000000CF
:1051E00000000000000000000000000000000000BF
:1051F00000000000000000000000000000000000AF
:10520000000000000000000000000000000000009E
:10521000000000000000000000000000000000008E
:10522000000000000000000000000000000000007E
:1052300000000000CFC7F3F9C181391981C3FFFF16
:10524000FF0000000000000000000000000000005F
:10525000000000000000000000000000000000004E
:10526000000000000000000000000000000000003E
:10527000000000000000000000000000000000002E
:10528000000000000000000000000000000000001E
:10529000000000000000000000000000000000000E
:1052A00000000000000000000000000000000000FE
:1052B0000000000081819FDFCFEFE7F7F3FBFFFFE6
:1052C000FF000000000000000000000000000000DF
:1052D00000000000000000000000000000000000CE
:1052E00000000000000000000000000000000000BE
:1052F00000000000000000000000000000000000AE
:10530000000000000000000000000000000000009D
:10531000000000000000000000000000000000008D
:10532000000000000000000000000000000000007D
:1053300000000000C3819999C383993981C3FFFF9D
:10534000FF0000000000000000000000000000005E
:10535000000000000000000000000000000000004D
:10536000000000000000000000000000000000003D
:10537000000000000000000000000000000000002D
:10538000000000000000000000000000000000001D
:10539000000000000000000000000000000000000D
:1053A00000000000000000000000000000000000FD
:1053B00000000000C381193901839F9FC3F3FFFFE1
:1053C000FF000000000000000000000000000000DE
:1053D00000000000000000000000000000000000CD
:1053E00000000000000000000000000000000000BD
:1053F00000000000000000000000000000000000AD
:10540000000000000000000000000000000000009C
:10541000000000000000000000000000000000008C
:10542000000000000000000000000000000000007C
:1054300000000000FFFFFFE7E7FFFFFFFFE7E7FFD8
:10544000FF0000000000000000000000000000005D
:10545000000000000000000000000000000000004C
:10546000000000000000000000000000000000003C
:10547000000000000000000000000000000000002C
:10548000000000000000000000000000000000001C
:10549000000000000000000000000000000000000C
:1054A00000000000000000000000000000000000FC
:1054B00000000000000000000000000000000000EC
:1054C00000000000000000000000000000000000DC
:1054D00000000000000000000000000000000000CC
:1054E00000000000000000000000000000000000BC
:1054F00000000000000000000000000000000000AC
:10550000000000000000000000000000000000009B
:10551000000000000000000000000000000000008B
:10552000000000000000000000000000000000007B
:1055300000000000FFBF9FC7F1F8F1C79FBFFFFF4A
:10554000FF0000000000000000000000000000005C
:10555000000000000000000000000000000000004B
:10556000000000000000000000000000000000003B
:10557000000000000000000000000000000000002B
:10558000000000000000000000000000000000001B
:10559000000000000000000000000000000000000B
:1055A00000000000000000000000000000000000FB
:1055B00000000000000000000000000000000000EB
:1055C00000000000000000000000000000000000DB
:1055D00000000000000000000000000000000000CB
:1055E00000000000000000000000000000000000BB
:1055F00000000000000000000000000000000000AB
:10560000000000000000000000000000000000009A
:10561000000000000000000000000000000000008A
:10562000000000000000000000000000000000007A
:10563000000000000000000000000000000000006A
:10564000000000000000000000000000000000005A
:10565000000000000000000000000000000000004A
:10566000000000000000000000000000000000003A
:10567000000000000000000000000000000000002A
:10568000000000000000000000000000000000001A
:10569000000000000000000000000000000000000A
:1056A00000000000000000000000000000000000FA
:1056B00000000000C3819D9FCFE7E7FFE7E7FFFF02
:1056C000FF000000000000000000000000000000DB
:1056D00000000000000000000000000000000000CA
:1056E00000000000000000000000000000000000BA
:1056F00000000000000000000000000000000000AA
:105700000000000000000000000000000000000099
:1064B000000000008181F9F9F9F9F9F9F9F9F98198
:1064C000810000000000000000000000000000004B
:1064D00000000000000000000000000000000000BC
:1064E00000000000000000000000000000000000AC
:1064F000000000000000000000000000000000009C
:10650000000000000000000000000000000000008B
:10651000000000000000000000000000000000007B
:10652000000000000000000000000000000000006B
:1065300000000000F9F9F3F3F7E7EFCFCF9F9FBF1B
:10654000FF0000000000000000000000000000004C
:10655000000000000000000000000000000000003B
:10656000000000000000000000000000000000002B
:10657000000000000000000000000000000000001B
:10658000000000000000000000000000000000000B
:1065900000000000000000000000000000000000FB
:1065A00000000000000000000000000000000000EB
:1065B0000000000083839F9F9F9F9F9F9F9F9F83BB
:1065C0008300000000000000000000000000000048
:1065D00000000000000000000000000000000000BB
:1065E00000000000000000000000000000000000AB
:1065F000000000000000000000000000000000009B
:10660000000000000000000000000000000000008A
:10661000000000000000000000000000000000007A
:10662000000000000000000000000000000000006A
:10663000000000000000000000000000000000005A
:10664000000000000000000000000000000000004A
:10665000000000000000000000000000000000003A
:10666000000000000000000000000000000000002A
:10667000000000000000000000000000000000001A
:10668000000000000000000000000000000000000A
:1066900000000000000000000000000000000000FA
:1066A00000000000000000000000000000000000EA
:1066B00000000000000000000000000000000000DA
:1066C00000000000000000000000000000000000CA
:1066D00000000000000000000000000000000000BA
:1066E00000000000000000000000000000000000AA
:1066F000000000000000000000000000000000009A
:106700000000000000000000000000000000000089
:106710000000000000000000000000000000000079
:106720000000000000000000000000000000000069
:106730000000000000000000000000000000000059
:106740000000000000000000000000000000000049
:106750000000000000000000000000000000000039
:106760000000000000000000000000000000000029
:106770000000000000000000000000000000000019
:106780000000000000000000000000000000000009
:1067900000000000000000000000000000000000F9
:1067A00000000000000000000000000000000000E9
:1067B00000000000FFFFFFC1819F81809C0011FF4E
:1067C000FF000000000000000000000000000000CA
:1067D00000000000000000000000000000000000B9
:1067E00000000000000000000000000000000000A9
:1067F0000000000000000000000000000000000099
:106800000000000000000000000000000000000088
:106810000000000000000000000000000000000078
:106820000000000000000000000000000000000068
:1068300000000000F8F8F98101317979390183FF0E
:10684000FF00000000000000000000000000000049
:106850000000000000000000000000000000000038
:106860000000000000000000000000000000000028
:106870000000000000000000000000000000000018
:106880000000000000000000000000000000000008
:1068900000000000000000000000000000000000F8
:1068A00000000000000000000000000000000000E8
:1068B00000000000FFFFFF8381B8FCFCF80183FFAC
:1068C000FF000000000000000000000000000000C9
:1068D00000000000000000000000000000000000B8
:1068E00000000000000000000000000000000000A8
:1068F0000000000000000000000000000000000098
:106900000000000000000000000000000000000087
:106910000000000000000000000000000000000077
:106920000000000000000000000000000000000067
:10693000000000008F8F9F81809C9C9C9C0021FF09
:10694000FF00000000000000000000000000000048
:106950000000000000000000000000000000000037
:106960000000000000000000000000000000000027
:106970000000000000000000000000000000000017
:106980000000000000000000000000000000000007
:1069900000000000000000000000000000000000F7
:1069A00000000000000000000000000000000000E7
:1069B00000000000FFFFFFC3813C0000FC8183FF5B
:1069C000FF000000000000000000000000000000C8
:1069D00000000000000000000000000000000000B7
:1069E00000000000000000000000000000000000A7
:1069F0000000000000000000000000000000000097
:106A00000000000000000000000000000000000086
:106A10000000000000000000000000000000000076
:106A20000000000000000000000000000000000066
:106A3000000000000703F38080F3F3F3F38000FF0E
:106A4000FF00000000000000000000000000000047
:106A50000000000000000000000000000000000036
:106A60000000000000000000000000000000000026
:106A70000000000000000000000000000000000016
:106A80000000000000000000000000000000000006
:106A900000000000000000000000000000000000F6
:106AA00000000000000000000000000000000000E6
:106AB00000000000FFFFFF8301989C9C1880019F4D
:106AC0008100000000000000000000000000000045
:106AD00000000000000000000000000000000000B6
:106AE00000000000000000000000000000000000A6
:106AF0000000000000000000000000000000000096
:106B00000000000000000000000000000000000085
:106B10000000000000000000000000000000000075
:106B20000000000000000000000000000000000065
:106B300000000000F8F8F98901317939793979FFD5
:106B4000FF00000000000000000000000000000046
:106B50000000000000000000000000000000000035
:106B60000000000000000000000000000000000025
:106B70000000000000000000000000000000000015
:106B80000000000000000000000000000000000005
:106B900000000000000000000000000000000000F5
:106BA00000000000000000000000000000000000E5
:106BB00000000000E7E7FFE0E0E7E7E7E70000FFAD
:106BC000FF000000000000000000000000000000C6
:106BD00000000000000000000000000000000000B5
:106BE00000000000000000000000000000000000A5
:106BF0000000000000000000000000000000000095
:106C00000000000000000000000000000000000084
:106C10000000000000000000000000000000000074
:106C20000000000000000000000000000000000064
:106C3000000000009F9FFF81839F9F9F9F9F9F9FBA
:106C400081000000000000000000000000000000C3
:106C50000000000000000000000000000000000034
:106C60000000000000000000000000000000000024
:106C70000000000000000000000000000000000014
:106C80000000000000000000000000000000000004
:106C900000000000000000000000000000000000F4
:106CA00000000000000000000000000000000000E4
:106CB00000000000F8F8F9391989C1C1991939FFA4
:106CC000FF000000000000000000000000000000C5
:106CD00000000000000000000000000000000000B4
:106CE00000000000000000000000000000000000A4
:106CF0000000000000000000000000000000000094
:106D00000000000000000000000000000000000083
:106D10000000000000000000000000000000000073
:106D20000000000000000000000000000000000063
:106D300000000000E1E1E7E7E7E7E7E7E7070FFF2B
:106D4000FF00000000000000000000000000000044
:106D50000000000000000000000000000000000033
:106D60000000000000000000000000000000000023
:106D70000000000000000000000000000000000013
:106D80000000000000000000000000000000000003
:106D900000000000000000000000000000000000F3
:106DA00000000000000000000000000000000000E3
:106DB00000000000FFFFFF1200262626262626FFE1
:106DC000FF000000000000000000000000000000C4
:106DD00000000000000000000000000000000000B3
:106DE00000000000000000000000000000000000A3
:106DF0000000000000000000000000000000000093
:106E00000000000000000000000000000000000082
:106E10000000000000000000000000000000000072
:106E20000000000000000000000000000000000062
:106E300000000000FFFFFF0800317979797979FFC0
:106E4000FF00000000000000000000000000000043
:106E50000000000000000000000000000000000032
:106E60000000000000000000000000000000000022
:106E70000000000000000000000000000000000012
:106E80000000000000000000000000000000000002
:106E900000000000000000000000000000000000F2
:106EA00000000000000000000000000000000000E2
:106EB00000000000FFFFFFC1801C3C3C1C80C3FFA2
:106EC000FF000000000000000000000000000000C3
:106ED00000000000000000000000000000000000B2
:106EE00000000000000000000000000000000000A2
:106EF0000000000000000000000000000000000092
:106F00000000000000000000000000000000000081
:106F10000000000000000000000000000000000071
:106F20000000000000000000000000000000000061
:106F300000000000FFFF0800317979390181F9F97B
:106F4000F900000000000000000000000000000048
:106F50000000000000000000000000000000000031
:106F60000000000000000000000000000000000021
:106F70000000000000000000000000000000000011
:106F80000000000000000000000000000000000001
:106F900000000000000000000000000000000000F1
:106FA00000000000000000000000000000000000E1
:106FB00000000000FFFF8381989C9C9C80819F9F24
:106FC0001F000000000000000000000000000000A2
:106FD00000000000000000000000000000000000B1
:106FE00000000000000000000000000000000000A1
:106FF0000000000000000000000000000000000091
:107000000000000000000000000000000000000080
:107010000000000000000000000000000000000070
:107020000000000000000000000000000000000060
:1070300000000000FFFF880033F3F3F38080FFFFC0
:10704000FF00000000000000000000000000000041
:107050000000000000000000000000000000000030
:107060000000000000000000000000000000000020
:107070000000000000000000000000000000000010
:107080000000000000000000000000000000000000
:1070900000000000000000000000000000000000F0
:1070A00000000000000000000000000000000000E0
:1070B00000000000FFFF8180F8E1879D80C1FFFF95
:1070C000FF000000000000000000000000000000C1
:1070D00000000000000000000000000000000000B0
:1070E00000000000000000000000000000000000A0
:1070F0000000000000000000000000000000000090
:10710000000000000000000000000000000000007F
:10711000000000000000000000000000000000006F
:10712000000000000000000000000000000000005F
:1071300000000000F3F30000F3F3F3730307FFFF15
:10714000FF00000000000000000000000000000040
:10715000000000000000000000000000000000002F
:10716000000000000000000000000000000000001F
:10717000000000000000000000000000000000000F
:1071800000000000000000000000000000000000FF
:1071900000000000000000000000000000000000EF
:1071A00000000000000000000000000000000000DF
:1071B00000000000FFFF8C8C9C9C9C9C0031FFFF1A
:1071C000FF000000000000000000000000000000C0
:1071D00000000000000000000000000000000000AF
:1071E000000000000000000000000000000000009F
:1071F000000000000000000000000000000000008F
:10720000000000000000000000000000000000007E
:10721000000000000000000000000000000000006E
:10722000000000000000000000000000000000005E
:1072300000000000FFFF3C1C9999C1C3C3E7FFFF9A
:10724000FF0000000000000000000000000000003F
:10725000000000000000000000000000000000002E
:10726000000000000000000000000000000000001E
:10727000000000000000000000000000000000000E
:1072800000000000000000000000000000000000FE
:1072900000000000000000000000000000000000EE
:1072A00000000000000000000000000000000000DE
:1072B00000000000FFFF7E3E242400808899FFFF2D
:1072C000FF000000000000000000000000000000BF
:1072D00000000000000000000000000000000000AE
:1072E000000000000000000000000000000000009E
:1072F000000000000000000000000000000000008E
:10730000000000000000000000000000000000007D
:10731000000000000000000000000000000000006D
:10732000000000000000000000000000000000005D
:1073300000000000FFFF1C99C1C3C3C9981CFFFFD8
:10734000FF0000000000000000000000000000003E
:10735000000000000000000000000000000000002D
:10736000000000000000000000000000000000001D
:10737000000000000000000000000000000000000D
:1073800000000000000000000000000000000000FD
:1073900000000000000000000000000000000000ED
:1073A00000000000000000000000000000000000DD
:1073B00000000000FFFF3C3C9C9999D3C3C3E7E168
:1073C000F1000000000000000000000000000000CC
:1073D00000000000000000000000000000000000AD
:1073E000000000000000000000000000000000009D
:1073F000000000000000000000000000000000008D
:10740000000000000000000000000000000000007C
:10741000000000000000000000000000000000006C
:10742000000000000000000000000000000000005C
:1074300000000000FFFF00008FC7F3F90000FFFF0E
:10744000FF0000000000000000000000000000003D
:10745000000000000000000000000000000000002C
:10746000000000000000000000000000000000001C
:10747000000000000000000000000000000000000C
:1074800000000000000000000000000000000000FC
:1074900000000000000000000000000000000000EC
:1074A00000000000000000000000000000000000DC
:1074B000000000008F87E7E7E7F1F1E7E7E7E787FC
:1074C0008F0000000000000000000000000000002D
:1074D00000000000000000000000000000000000AC
:1074E000000000000000000000000000000000009C
:1074F000000000000000000000000000000000008C
:10750000000000000000000000000000000000007B
:10751000000000000000000000000000000000006B
:10752000000000000000000000000000000000005B
:1075300000000000E1E1CFCFCF8F8FCFCFCFE7E1C9
:10754000E10000000000000000000000000000005A
:10755000000000000000000000000000000000002B
:10756000000000000000000000000000000000001B
:10757000000000000000000000000000000000000B
:1075800000000000000000000000000000000000FB
:1075900000000000000000000000000000000000EB
:1075A00000000000000000000000000000000000DB
:1075B00000000000FFFFFFFFF3818FFFFFFFFFFFD1
:1075C000FF000000000000000000000000000000BC
:1075D00000000000000000000000000000000000AB
:1075E000000000000000000000000000000000009B
:1075F000000000000000000000000000000000008B
:10760000000000000000000000000000000000007A
:10761000000000000000000000000000000000006A
:10762000000000000000000000000000000000005A
:10763000000000000000000000000000000000004A
:10764000000000000000000000000000000000003A
:10765000000000000000000000000000000000002A
:10766000000000000000000000000000000000001A
:10767000000000000000000000000000000000000A
:1076800000000000000000000000000000000000FA
:1076900000000000000000000000000000000000EA
:1076A00000000000000000000000000000000000DA
:1076B00000000000000000000000000000000000CA
:1076C00000000000000000000000000000000000BA
:1076D00000000000000000000000000000000000AA
:1076E000000000000000000000000000000000009A
:1076F000000000000000000000000000000000008A
:107700000000000000000000000000000000000079
:107710000000000000000000000000000000000069
:107720000000000000000000000000000000000059
:107730000000000011241FBECFEFCDBFDFE3DEBF8E
:1077400000E00CBF18BE19BE1ABE1BBE12E2A0E0BC
:10775000B0E2EAE3F3EC00E00BBF02C007900D9249
:10776000AC32B107D9F71BBE15E3ACE2B2E201C0FF
:107770001D92AF37B107E1F70E942A610C949B611B
:107780000C9400000E94323F84E690E00E94E14D9C
:1077900048EC50E068EC70E080E090E00E945E40D1
:1077A00088EB9BE00E94E14D0E9448488BE490E208
:1077B0000E941C3C81E0809361068093660680E015
:1077C00090E20E94B448FBCF0E94AD412AE041E024
:1077D0006DE089E690E20E94AB422BE041E063E17C
:1077E00087E790E20E94AB420E9436430C94D0455A
:1077F00081E080930106089581E080930706089553
:107800000C94E14DCF93DF9300D0CDB7DEB78983E1
:107810009A836B8320E044E650E0BE016F5F7F4FA8
:1078200080917234909173340E94F6532396CDBFA9
:10783000DEBFDF91CF910895CF93DF9300D0CDB716
:10784000DEB789839A831B8220E044E650E0BE01C4
:107850006F5F7F4F80917234909173340E94F65322
:107860002396CDBFDEBFDF91CF910895E0EAF6E029
:1078700088E085838183E0EAFBE083E08583838180
:107880008F63838389E18683178284818D608483FB
:1078900008959091A10B95FFFCCF8093A00B0895C4
:1078A000EF92FF921F93CF93DF931F92CDB7DEB776
:1078B0007C011982FC0101900020E9F731971E2F0D
:1078C000181B19828981811758F48981F701E80F03
:1078D000F11D80810E94493C89818F5F8983F2CFAD
:1078E0000F90DF91CF911F91FF90EF900895FF923D
:1078F0000F931F93CF93DF931F92CDB7DEB78C0109
:1079000019820E94AA46F82E198289818F1558F48F
:107910008981F801E80FF11D80810E94493C99811D
:107920009F5F9983F2CF0F90DF91CF911F910F91BD
:10793000FF900895CF93DF93CDB7DEB72897CDBFE3
:10794000DEBF15E080917234909173340E941C5711
:107950008823C1F34FEF5FEFBE016A5F7F4F8091D5
:107960007234909173340E94F654813059F78E81AD
:107970009F810E94503CECEFF0E2DE011196812FD6
:1079800001900D928A95E1F72AE043E0BE016E5F17
:107990007F4F88850E944746CE0101960E94773C22
:1079A0008AE00E94493C8DE00E94493CCBCF0C9478
:1079B000E14D8093C3088091C20887FFFCCF80E02F
:1079C00008950F931F93CF93DF938C01EB01809168
:1079D000040681FF03C082E08093060610927B3488
:1079E00020917B3430E02C173D0760F4F801E20F62
:1079F000F31F80810E94D93C90917B349F5F9093CC
:107A00007B34EECFDF91CF911F910F9108950F93AB
:107A10001F93CF93DF938C01EB018091040681FDCE
:107A200003C082E08093050610927B3420917B3462
:107A300030E02C173D0760F4F801E20FF31F80815E
:107A40000E94D93C90917B349F5F90937B34EECF22
:107A5000DF91CF911F910F9108958091080683FFC8
:107A600005C084E690E00E94E14DF7CF0895809133
:107A7000440684FF03C080E180934606809104069B
:107A800081FF03C082E08093060682E20E94D93C17
:107A90008091040681FD03C082E08093050684EC9A
:107AA0000E94D93C8091440684FD03C080E180930C
:107AB00045068091440684FF03C080E1809346061A
:107AC0008091040681FF03C082E08093060680E275
:107AD0000E94D93C8091440684FD03C080E18093DC
:107AE00045068091440684FF03C080E180934606EA
:107AF0008091040681FF03C082E0809306068FEF29
:107B00000E94D93C8091440684FD03C080E18093AB
:107B100045060C942D3D0F931F93CF93DF93EC01FB
:107B20008B010E942D3D8091440684FF03C080E1BB
:107B3000809346068091040681FF03C082E0809313
:107B400006068EE40E94D93C83E0D595C7958A95B8
:107B5000E1F78091040681FD03C082E08093050671
:107B60008C2F0E94D93C8091440684FD03C080E1A3
:107B7000809345068091440684FF03C080E1809392
:107B800046068091040681FF03C082E080930606CA
:107B90008FE40E94D93C8091040681FD03C082E0FD
:107BA00080930506802F0E94D93C8091040681FDB8
:107BB00003C082E080930506812F0E94D93C80910A
:107BC000440684FD03C080E180934506DF91CF9198
:107BD0001F910F910895EF92FF920F931F93CF93F0
:107BE000DF93182FE62ED42FC52FF22E032F80916E
:107BF000440684FF03C080E180934606809104061A
:107C000081FF03C082E08093060684E40E94D93C91
:107C10008091040681FD03C082E080930506812FD8
:107C20000E94D93C8091040681FD03C082E08093CC
:107C300005068E2D0E94D93C8091440684FD03C028
:107C400080E1809345068091440684FF03C080E173
:107C5000809346068091040681FF03C082E08093F2
:107C6000060685E40E94D93C8091040681FD03C08C
:107C700082E0809305068D2F0E94D93C80910406F6
:107C800081FD03C082E0809305068C2F0E94D93CC1
:107C90008091040681FD03C082E0809305068F2D4C
:107CA0000E94D93C8091040681FD03C082E080934C
:107CB0000506802F0E94D93C8091440684FD03C0B4
:107CC00080E1809345068091440684FF03C080E1F3
:107CD000809346068091040681FF03C082E0809372
:107CE00006068EE40E94D93C8091040681FD03C003
:107CF00082E080930506812F0E94D93C8091440642
:107D000084FD03C080E1809345068091440684FF92
:107D100003C080E1809346068091040681FF03C082
:107D200082E0809306068FE40E94D93C809104068D
:107D300081FD03C082E0809305068D2F0E94D93C0F
:107D40008091040681FD03C082E0809305068C2F9C
:107D50000E94D93C8091440684FD03C080E1809359
:107D60004506DF91CF911F910F91FF90EF900895FD
:107D70000F931F93CF93DF93182F27EC30E047EC3E
:107D800050E060E080E00E94EB3D8091440684FF7B
:107D900003C080E1809346068091040681FF03C002
:107DA00082E08093060684E20E94D93CC8E8D3E1D1
:107DB00002E08091040681FF00930506812F0E9456
:107DC000D93C2197B1F78091440684FD03C080E13E
:107DD00080934506DF91CF911F910F9108951F93D6
:107DE000CF93DF93EC018091440684FF03C080E1D0
:107DF000809346068091040681FF03C082E0809351
:107E0000060682E30E94D93C10927B3412E09091E6
:107E10007B349E3190F4FE01E90FF11DE4918091D5
:107E2000040681FF109305068E2F0E94D93C909185
:107E30007B349F5F90937B34EACF8091440684FD2E
:107E400003C080E180934506DF91CF911F91089593
:107E50008FEF0E94B83E0E94373D80E00E94B83EFE
:107E60000C94373DCF9380EB80934106809144067C
:107E700084FD03C080E18093450698E0909302065C
:107E800080E58093C0081092793410927A3482E0B1
:107E90008093010680E18093010690930206909101
:107EA000440694FF80934506C0E1C093060684E62D
:107EB00090E00E94E14DC093050684E690E00E94A8
:107EC000E14D8091440684FDC093460680910406EE
:107ED00081FF03C082E08093060681E00E94D93CC6
:107EE0008091040681FD03C082E08093050687EC43
:107EF0000E94D93C8091040681FD03C082E08093FA
:107F0000050680E00E94D93C8091040681FD03C0F3
:107F100082E08093050680E00E94D93C809144066F
:107F200084FD03C080E1809345068091440684FF70
:107F300003C080E1809346068091040681FF03C060
:107F400082E0809306068CE00E94D93C8091040672
:107F500081FD03C082E08093050687ED0E94D93C35
:107F60008091040681FD03C082E08093050686EDC2
:107F70000E94D93C8091040681FD03C082E0809379
:107F800005068DE90E94D93C8091440684FD03C01A
:107F900080E1809345068091440684FF03C080E120
:107FA000809346068091040681FF03C082E080939F
:107FB00006068CE20E94D93C8091040681FD03C034
:107FC00082E08093050688EA0E94D93C80914406AD
:107FD00084FD03C080E1809345068091440684FFC0
:107FE00003C080E1809346068091040681FF03C0B0
:107FF00082E0809306068AE30E94D93C80910406C1
:1080000081FD03C082E0809305068AE10E94D93C8D
:108010008091440684FD03C080E1809345068091F1
:10802000440684FF03C080E18093460680910406E5
:1080300081FF03C082E0809306068BE30E94D93C57
:108040008091040681FD03C082E08093050688E0EC
:108050000E94D93C8091440684FD03C080E1809356
:1080600045068091440684FF03C080E18093460664
:108070008091040681FF03C082E08093060681E1BF
:108080000E94D93C8091040681FD03C082E0809368
:10809000050681E00E94D93C8091440684FD03C01E
:1080A00080E1809345060E94283F81E00E948A5427
:1080B0008093773490937834CF9108957F928F9204
:1080C0009F92AF92BF92CF92DF92EF92FF920F9367
:1080D0001F93CF93DF938C01EB017A016B0187E053
:1080E000C80ED11C23E0D694C7942A95E1F785E900
:1080F00096E10E94EF3E8091440684FF03C080E138
:10810000809346068091040681FF03C082E080933D
:10811000060682E20E94D93C8091040681FD03C0DC
:1081200082E08093050680EC0E94D93C8091440651
:1081300084FD03C080E1809345068091440684FF5E
:1081400003C080E1809346068091040681FF03C04E
:1081500082E08093060680E20E94D93C809144062A
:1081600084FD03C080E1809345060E942D3D6FEFA2
:108170006C0D20E030E0A7014150510980E00E94E1
:10818000EB3DDD27279693E0D595C7959A95E1F7C6
:108190008091440684FF03C080E18093460680916D
:1081A000040681FF03C082E08093060684E20E94F9
:1081B000D93CC12CD12CA12CB12C82E0782EAE144C
:1081C000BF0429F1D0E0DC17F0F40115110549F4E2
:1081D0008091040681FF709205068FEF0E94D93CC2
:1081E00010C046018FEF881A980AF801EC0DFD1DAA
:1081F00084919091040691FF709205060E94D93CEB
:108200006401DF5FE0CF8FEFA81AB80AD8CF809162
:10821000440684FD03C080E1809345060E942D3D05
:108220008091440684FF03C080E1809346068091DC
:10823000040681FF03C082E08093060682E20E946A
:10824000D93C8091040681FD03C082E0809305063D
:1082500087EC0E94D93C8091440684FD03C080E1F4
:10826000809345068091440684FF03C080E180939B
:1082700046068091040681FF03C082E080930606D3
:1082800080E20E94D93C8091440684FD03C080E1D5
:10829000809345068091440684FF03C080E180936B
:1082A00046068091040681FF03C082E080930606A3
:1082B0008FEF0E94D93C8091440684FD03C080E189
:1082C000809345060E942D3D8091440684FF03C0A3
:1082D00080E1809346068091040681FF03C082E01E
:1082E0008093060682E20E94D93C8091040681FDBB
:1082F00003C082E08093050680EC0E94D93C809107
:10830000440684FD03C080E18093450680914406C5
:1083100084FF03C080E1809346068091040681FFBC
:1083200003C082E08093060680E20E94D93C8091DF
:10833000440684FD03C080E180934506DF91CF9120
:108340001F910F91FF90EF90DF90CF90BF90AF9073
:108350009F908F907F900C942D3DAF92BF92CF92C3
:10836000DF92EF92FF920F931F93CF93DF93809151
:1083700077349091783462E370E00E9486550E94D1
:108380002D3D0FB6F8940F9286E796E10E94EF3EDE
:108390008091440684FF03C080E18093460680916B
:1083A000040681FF03C082E08093060682E20E94F9
:1083B000D93C8091040681FD03C082E080930506CC
:1083C00080EC0E94D93C8091440684FD03C080E18A
:1083D000809345068091440684FF03C080E180932A
:1083E00046068091040681FF03C082E08093060662
:1083F00080E20E94D93C8091440684FD03C080E164
:10840000809345060E942D3D20E030E047EC50E08F
:1084100068E180E00E94EB3DC0907934D0907A34DE
:108420008091440684FF03C080E1809346068091DA
:10843000040681FF03C082E08093060684E20E9466
:10844000D93C98ECE92EF12CC0E0D0E002E019E133
:10845000C114D10449F48091040681FF00930506FC
:108460008FEF0E94D93C10C05E018FEFA81AB80AA6
:10847000F601EC0FFD1F84919091040691FF00938B
:1084800005060E94D93CE501115011F781E0E81A78
:10849000F108E9F68091440684FD03C080E18093F1
:1084A000450620E030E047EC50E068E180E00E94C3
:1084B000EB3DC0907934D0907A348091440684FFAB
:1084C00003C080E1809346068091040681FF03C0CB
:1084D00082E08093060684E20E94D93C88ECE82E74
:1084E000F12CC0E0D0E002E019E1C114D10449F45C
:1084F0008091040681FF009305068FEF0E94D93C0E
:1085000010C05E018FEFA81AB80AF601EC0FFD1F2C
:1085100084919091040691FF009305060E94D93C36
:10852000E501115011F781E0E81AF108E9F68091B0
:10853000440684FD03C080E1809345060F900FBE82
:10854000DF91CF911F910F91FF90EF90DF90CF902F
:10855000BF90AF9008952F923F924F925F926F928B
:108560007F928F929F92AF92BF92CF92DF92EF92C3
:10857000FF920F931F93CF93DF935C01262EC8E1E8
:10858000C41B10927B34022F10E048018CE0880E4F
:10859000911C90E1392ED2E080917B34821508F055
:1085A00052C0F501E80FF11D80810E941E466C014A
:1085B0000FB6F8940F929401A8016C2F8C2F0E9493
:1085C000EB3D8091440684FD30924606809104067E
:1085D00081FDD093060684E20E94D93C8DE0E82E0E
:1085E000F12C412C512CC114D10449F48091040682
:1085F00081FFD09305068FEF0E94D93C10C0320155
:108600008FEF681A780AF601E40DF51D84919091B8
:10861000040691FFD09305060E94D93C230181E016
:10862000E81AF10801F78091440684FF309245066C
:108630000F900FBECC2339F0C15080917B348F5FF7
:1086400080937B34A9CFDF91CF911F910F91FF9041
:10865000EF90DF90CF90BF90AF909F908F907F90E2
:108660006F905F904F903F902F9008950FB6F894C1
:108670000F928091440684FF03C080E180934606F8
:108680008091040681FF03C082E08093060682E2A7
:108690000E94D93C8091040681FD03C082E0809352
:1086A000050680EC0E94D93C8091440684FD03C0FD
:1086B00080E1809345068091440684FF03C080E1F9
:1086C000809346068091040681FF03C082E0809378
:1086D000060680E20E94D93C8091440684FD03C0D6
:1086E00080E1809345060E942D3D0F900FBE809142
:1086F00077349091783420E040E050E060E070E022
:108700000C94F6530FB6F8940F928091440684FFB0
:1087100003C080E1809346068091040681FF03C078
:1087200082E08093060682E20E94D93C8091040692
:1087300081FD03C082E08093050684E00E94D93C5D
:108740008091440684FD03C080E1809345068091BA
:10875000440684FF03C080E18093460680910406AE
:1087600081FF03C082E08093060680E20E94D93C2C
:108770008091440684FD03C080E18093450680918A
:10878000440684FF03C080E180934606809104067E
:1087900081FF03C082E0809306068FEF0E94D93CE0
:1087A0008091440684FD03C080E1809345060F90CC
:1087B0000FBE08952F923F924F925F926F927F92D9
:1087C0008F929F92AF92BF92CF92DF92EF92FF92E1
