:100000000C9491420C9491410C94C8490C94D73AA9
:100010000C94B63AFFFFFFFFFFFFFFFFFFFFE77300
:10002000E773E773E773E773E773E773E773E77300
:10003000E773E773800380039FFF9FFF9FFFFFFF2E
:10004000FFFFFE3FFE3FFEFFFEFFFEFFE00FC0078B
:100050008EE39EF39EF39EF39EF39EF39EF39EF338
:100060008EE3C007E00FFEFFFEFFFEFFFEFFFEFF78
:10007000F39FE38FF39FFFFFFFFFF83FE01FC7CF22
:10008000CFE7CFE7C007C007FFE7FFE7FFE7CF8F66
:10009000C00FF03FFFFFFFFFFFFFFFFFFFFFEFFF7E
:1000A000C03FE01FFFCFFFE7F067E017C7C7CFE310
:1000B000CFE38FE38FE3CFE7CFE7CFE7E78FE00F23
:1000C000F83FFFFFFFFFFFFFFFFFFFFFFFFFFFFF07
:1000D000FFFFFFFFFFFFFFFFFC1FFBEFF7FFF7FF37
:1000E000F01FF3E7F7F3F7FBF3FBF4F7C60FFFFF9F
:1000F000FFFFFFFFFFFFFFFFFFFFFFFFFFFFFFFF10
:10010000FFFFFFFFFFFFFFFFFFFFFFFFFFFFFFFFFF
:10011000FFFFFEFFFFFFFFFFFFFFFFFFFFFFFFFFF0
:10012000FFFFFFFFFFFFFFFFFFFFFFFEFFFFFFFFE0
:10013000FFFFFFFFFFFFFFFFFFFFFFFFFFFFFFFFCF
:10014000FFFFFFFFFEFFFFFFFFFFFFFFFFFFFFFFC0
:10015000FFFFFFFFFFFFFFFFFFFFFFFFFFFEFFFFB0
:10016000FFFFFFFFFFFFFFFFFFFFFFFFFFFFFFFF9F
:10017000FFFFFFFFFFFFFEFFFFFFFFFFFFFFFFFF90
:10018000FCE7FCFFFFFFFFFFFFFFFFFFFFFFFFFE9E
:10019000FFFFFFFFFFFFFFFFFFFCE7FCFFFE3F1C31
:1001A00078FFFFFFFFFFFFFFFEFFFFFFFFFFFFFFE7
:1001B000FFFFFCFFFCFFFE1E1E79FFFFFFFFFFFF9E
:1001C000FFFEFFFFFFFFFFFFFFFFFFFCFFFCFFFE47
:1001D0001E1F31FFFFFFFFFFFFFFFEFFFFFFFFFFBF
:1001E000FFFFFFF07CE784F87E5C9F13FFFFFFFFBB
:1001F000FFFFFFFEFFFFFFFFFFFFFFFFE01CE70029
:10020000E01E4C9F87FFFFFFFFFFFFFFFEFFFFFF8A
:10021000FFFFFFFFFFC79CE638E79E4C9FC7FFFF2D
:10022000FFFFFFFFFFFEFFFFFFFFFFFFFFFFCFCC42
:10023000E67CCFCE619FC7FFFFFFFFFFFFFFFEFF02
:10024000FFFFFFFFFFFFFFC00CE67CCFCE619F8763
:10025000FFFFFFFFFFFFFFFEFFFFFFFFFFFFFFFFAF
:10026000C00CE67CCFCE739F93FFFFFFFFFFFFFF25
:10027000FEFFFFFFFFFFFFFFFFFFCCE67CCFCE734B
:100280009F31FFFFFFFFFFFFFFFEFFFFFFFFFFFFAD
:10029000FFFFDF9CE638E79E7F9E39FFFFFFFFFFF1
:1002A000FFFFFEFFFFFFFFFFFFFFFFC01CE700E0B7
:1002B0001E7F9E7CFFFFFFFFFFFFFFFEFFFFFFFF94
:1002C000FFFFFFFFE07CE784F87E7F9C7C7FFFFFE1
:1002D000FFFFFFFFFEFFFFFFFFFFFFFFFFFFFFFF2F
:1002E000FFFFFFFFFFFFFFFFFFFFFFFFFFFEFFFF1F
:1002F000FFFFFFFFFFFFFFFFFFFFFFFFFFFFFFFF0E
:10030000FFFFFFFFFFFFFEFFFFFFFFFFFFFFFFFFFE
:10031000FFFFFFFFFFFFFFFFFFFFFFFFFFFFFFFEEE
:10032000FFFFFFFFFFFFFFFFFFFFFFFFFFFFFFFFDD
:10033000FFFFFFFFFFFFFFFFFEFFFFFFFFFFFFFFCE
:10034000FFFFFFFFFFFFFFFFFFFFFFFFFFFFFFFFBD
:10035000FFFEFFFFFFFFFFFFFFFFFFFFFFFFFFFFAE
:10036000FFFFFFFFFFFFFFFFFFFFFEFFFFFFFFFF9E
:10037000FFFFFFFFFFFFFFFFFFFFFFFFFFFFFFFF8D
:10038000FFFFFFFEFFFFFFFFFFFFFFFFFFFFFFFF7E
:10039000FFFFFFFFFFFFFFFFFFFFFFFFFEFFFFFF6E
:1003A000FFFFFFFFFFFFFFFFFFFFFFFFFFFFFFFF5D
:1003B000FFFFFFFFFFFEFFFFFFFFFFFFFFFFFFFF4E
:1003C000FFFFFFFFFFFFFFFFFFFFFFFFFFFFFEFF3E
:1003D000FFFFFFFFFFFFFFFFFFFFFFFFFFFFFFFF2D
:1003E000FFFFFFFFFFFFFFFEFFFFFFFFFFFFFFFF1E
:1003F000FFFFFFFFFFFFFFFFFFFFFFFFFFFFFFFF0D
:10040000FEFFFFFFFFFFFFFFFFFFFFFFFFFFFFFFFD
:10041000FFFFFFFFFFFFFFFFFFFEFFFFFFFFFFFFED
:10042000FFFFFFFFFFFFFFFFFFFFFFFFFFFFFFFFDC
:10043000FFFFFEFFFFFFFFFFFFFFFFFFFFFFFFFFCD
:10044000FFFFFFFFFFFFFFFFFFFFFFFEFFFFFFFFBD
:10045000FFFFFFFFFFFFFFFFFFFFFFFFFFFFFFFFAC
:10046000FFFFFFFFFEFFFFFFFFFFFFFFFFFFFFFF9D
:10047000FFFFFFFFFFFFFFFFFFFFFFFFFFFEFFFF8D
:10048000FFFFFFFFFFFFFFFFFFFFFFFFFFFFFFFF7C
:10049000FFFFFFFFFFFFFEFFFFFFFFFFFFFFFFFF6D
:1004A000FFFFFFFFFFFFFFFFFFFFFFFFFFFFFFFE5D
:1004B000FFFFFFFFFFFFFFFFFFFFFFFFFFFFFFFF4C
:1004C000FFFFFFFFFFFFFFFFFEFFFFFFFFFFFFFF3D
:1004D000FFFFFFFFFFFFFFFFFFFFFFFFFFFFFFFF2C
:1004E000FFFEFFFFFFFFFFFFFFFFFFFFFFFFFFFF1D
:1004F000FFFFFFFFFFFFFFFFFFFFFEFFFFFFFFFF0D
:10050000FFFE07FFFFFFFFFFFFFBFEFFFFFFFFFFF9
:10051000FFFFFFFEFFFFFFFFFFFFFC03FFFFFFFFEB
:10052000FFFFF9FE7FFFFFFFFFFFFFFFFEFFFFFF63
:10053000FFFFFFF8F3FFFFFFFFFFFFF8FC7FFFFF68
:10054000FFFFFFFFFFFEFFFFFFFFFFFFF9F3FFFFCE
:10055000FFFFFFFFF8787FFFFFFFFFFFFFFFFEFFBA
:10056000FFFFFFFFFFF9F3FFFFFFFFFFFFF8307F03
:10057000FFFFFFFFFFFFFFFEFFFFFF80F8F9F9F32A
:10058000E03E3E7E00F80D837FFFFFFFFFFFFFFF91
:10059000FEFFFFFF00FC79FCF3C01F1E7C00F00C87
:1005A000C33FFFFFFFFFFFFFFFFEFFFFFE3FFE39E0
:1005B000F8038F8F8E78FCE3FCE73FFFFFFFFFFF20
:1005C000FFFFFEFFFFFE7FFF19F0039FCFC679FC00
:1005D000E7FCFF3FFFFFFFFFFFFFFFFEFFFFFE0007
:1005E000FF89E3F39FCFE279FCE00CFF3FFFFFFFC1
:1005F000FFFFFFFFFEFFFFFE007FC1E7F39FCFF08D
:1006000079FCE006FFBFFFFFFFFFFFFFFFFEFFFFDC
:10061000FE7E3FE1E7F39FCFF879FCE7E27F9FFFA3
:10062000FFFFFFFFFFFFFEFFFFFE7F3FC1E7F39FDE
:10063000CFF079FCE7F27F9FFFFFFFFFFFFFFFFE98
:10064000FFFFFE7F3F89E7F39FCFE279FCE7F27F70
:100650009FFFFFFFFFFFFFFFFEFFFFFE7F3F19E74A
:10066000F39FCFC679FCE7F27F9FFFFFFE3FFFFFBE
:10067000FFFEFFFFFE7E3E39E3F38F8F8E78FCE7AF
:10068000E27F9FFFFFF80FFFFFFFFEFFFFFE007CF2
:1006900079F003C01F1E7C00E0073FCFFFFFF0078B
:1006A000FFFFFFFEFFFFFE00F8F9F803E03E3E7E8D
:1006B00000E00F3FCFFFFFF007FFFFFFFEFFFFFF50
:1006C000FFFFFFFFFFFFFFFFFFFCFFFFFFFFFFFF3D
:1006D000F003FFFFFFFEFFFFFFFFFFFFFFFFFFFF36
:1006E000FFFFFCFFFFFFFFFFFFF003FFFFFFFEFF29
:1006F000FFFFFFFFFFFFFFFFFFFFFFFCFFFFFFFF0D
:10070000FFFFF003FFFFFFFEFFFFFFFFFFFFFFFF05
:10071000FFFFFFFFFCFFFFFFFFFFFFF003FFFFFFF7
:10072000FEFFFFFFFFFFFFFFFFFFFFFFFFFCFFFFDD
:10073000FFFFFFFFF803FFFFFFFEFFFFFFFFFFFFCD
:10074000FFFFFFFFFFFFFFFFFFFFFFFFFFF803FFBC
:10075000FFFFFEFFFFFFFFFFFFFFFFFFFFFFFFFFAA
:10076000FFFFFFFFFFFFF803FFFFFFFEFFFFFFFF9D
:10077000FFFFFFFFFFFFFFFFFFFFFFFFFFFFFFFC8C
:1007800003FFFFFFFEFFFFFFFFFFFFFFFFFFFFFF76
:10079000FFFFFFFFFFFFFFFFFC01FFFFFFFEFFFF6B
:1007A000FFFFFFFFFCF3FFFFFFFFFFFFFFFFFFFF68
:1007B000FFFC01FFFFFFFEFFFFFFFFFFFFFCF3FF5A
:1007C000FFFFFFFFFFFFFFFFFFFFFC01FFFFFFFE3B
:1007D000FFFFFFFFFFFFFCF3FFFFFFFFFFFFFFFF38
:1007E000FFFFFFFC01FFFFFFFEFFFFFFFFFFFFFC1E
:1007F000F3FFFFFFFFFFFFFFFFFFFFFFFE01FFFF14
:10080000FFFEFFFFFFFFFFFFFC73FFFFFFFFFFFF88
:10081000FFFFFFFFFFFE01FFFFFFFEFFFFFFFFFFE8
:10082000FFFC33FFFFFFFFFFFFFFFFFFFFFFFE01A6
:10083000FFFFFFFEFFFFFFFFFFFFFC93FFFFFFFF38
:10084000FFFFFFFFFFFFFFFF01FFFFFFFEFFFFFFB7
:10085000FFFFFFFCC3FFFFFFFFFFFFFFFFFFFFFFE7
:10086000FF01FFFFFFFEFFFFFFFFFFFFFCE3FFFFB6
:10087000FFFFFFFFFFFFFFFFFFFF01FFFFFFFEFF87
:10088000FFFFFFFFFFFCF3FFFFFFFFFFFFFFFFFF87
:10089000FFFFFF01FFFFFFFEFFFFFFFFFFFFFCF376
:1008A000FFFFFFFFFFFFFFFFFFFFFFFF01FFFFFF56
:1008B000FEFFFFFFFFFFFFFCF3FFFFFFFFFFFFFF58
:1008C000FFFFFFFFFF80FFFFFFFEFFFFFFFFFFFFB8
:1008D000FCF3FFFFFFFFFFFFFFFFFFFFFFFF80FFB6
:1008E000FFFFFEFFFFFFFFFFFFFFFFFFFFFFFFFF19
:1008F000FFFFFFFFFFFFFF80FFFFFFFEFFFFFFFF88
:10090000FFFFFFFFFFFFFFFFFFFFFFFFFFFFFFFFF7
:10091000C1FFFFFFFEFFFFFFFFFFFFFFFFFFFFFF26
:10092000FFFFFFFFFFFFFFFFFFC1FFFFFFFEFFFF16
:10093000FFFFFFFFFFFFFFFFFFFFFFFFFFFFFFFFC7
:10094000FFFFC0FFFFFFFEFFFFFFFFFFFFFFFFFFF7
:10095000FFFFFFFFFFFFFFFFFFFFFFE0FFFFFFFEC7
:10096000FFFFFFFFFFFFFFFFFFFFFFFFFFFFFFFF97
:10097000FFFFFFFFE0FFFFFFFEFFFFFFFFFFFFFFA7
:10098000FFFFFFFFFFFFFFFFFFFFFFFFFFE0FFFF96
:10099000FFFEFFFFFFFFFFFFFFFFFFFFFFFFFFFF68
:1009A000FFFFFFFFFFFFE0FFFFFFFEFFFFFFFFFF77
:1009B000FFFFFFFFFFFFFFFFFFFFFFFFFFFFFFE066
:1009C000FFFFFFFEFFFFFFFFFFFFFFFFFFFFFFFF38
:1009D000FFFFFFFFFFFFFFFFF07FFFFFFEFFFFFFB7
:1009E000FFFFFFFFFFFFFFFFFFFFFFFFFFFFFFFF17
:1009F000FFF07FFFFFFEFFFFFFFFFFFFFFFFFFFF97
:100A0000FFFFFFFFFFFFFFFFFFFFF07FFFFFFEFF86
:100A1000FFFFFFFFFFFFFFFFFFFFFFFFFFFFFFFFE6
:100A2000FFFFFFF07FFFFFFEFFFFFFFFFFFFFFFF66
:100A3000FFFFFFFFFFFFFFFFFFFFFFFFF07FFFFF55
:100A4000FEFFFFFFFFFFFFFFFFFFFFFFFFFFFFFFB7
:100A5000FFFFFFFFFFF07FFFFFFEFFFFFFFFFFFF36
:100A6000FFFFFFFFFFFFFFFFFFFFFFFFFFFFF07F25
:100A7000FFFFFEFFFFFFFFFFFFFFFFFFFFFFFFFF87
:100A8000FFFFFFFFFFFFFFF83FFFFFFEFFFFFFFF3E
:100A9000FFFFFFFFFFFFFFFFFFFFFFFFFFFFFFFF66
:100AA000FC7FFFFFFEFFFFFFFFFFFFFFFFFFFFFFDA
:100AB000FFFFFFFFFFFFFFFFFFFC7FFFFFFEFFFFCA
:100AC000FFFFFFFFFFFFFFFFFFFFFFFFFFFFFFFF36
:100AD000FFFFFC7FFFFFFEFFFFFFFFFFFFFFFFFFAA
:100AE000FFFFFFFFFFFFFFFFFFFFFFFC7FFFFFFE9A
:100AF000FFFFFFFFFFFFFFFFFFFFFFFFFFFFFFFF06
:100B0000FFFFFFFFFC7FFFFFFEFFFFFFFFFFE01F78
:100B1000FFFFFFFFFFFFFFFFFFFFFFFFFFF83FFFAC
:100B2000FFFEFFFFFFC000000007FFFFFFFFFFFF0A
:100B3000FFFFFFFFFFFFFC1FFFFFFEFFFFFF800027
:100B4000000001FFFFFFFFFFFFFFFFFFFFFFFFFCB4
:100B50001FFFFFFEFFFFFF0000000000FFFFFFFF81
:100B6000FFFFFFFFFFFFFFFFFC1FFFFFFEFFFFFF79
:100B700000000000001FFFFFFFFFFFFFFFFFFFFF60
:100B8000FFFC1FFFFFFEFFFFFF00000000001FFF34
:100B9000FFFFFFFFFFFFFFFFFFFFFC1FFFFFFEFF49
:100BA000FFFE00000000000FFFFFFFFFFFFFE0FF60
:100BB000FFFFFFFE3FFFFFFEFFFFFC000000000005
:100BC0000FFFFFFFFFFFFFC07FFFFFFFFE1FFFFFC5
:100BD000FEFFFFFC01FFE000000FFFFFFFFFFFFF34
:100BE000807FFFFFFFFE1FFFFFFEFFFFF803FFFFF9
:100BF000E00007FFFFFFFFFFFF807FFFFFFFFF1FFA
:100C0000FFFFFEFFFFF803FFFFFFF003FFFFFFFF03
:100C1000FFFF803FFFFFFFFF1FFFFFFEFFFFF0030F
:100C2000FFFFFFF803FFFFFFFFFFFF803FFFFFFF16
:100C3000FE0FFFFFFEFFFFF003FFFFFFF803FFFFC4
:100C4000FFFFC1FF803FFFFFFFFE0FFFFFFEFFFF23
:100C5000E007FFFFFFF803FFFFFFFF80FF803FFF7C
:100C6000FFFFFF07FFFFFEFFFFC007FFFFFFF803C7
:100C7000FFFFFFFF007F803FFFFFFFFF07FFFFFE3B
:100C8000FFFFC00FFFFFFFF803FFFFFFFF003F80E4
:100C90003FFFFFFFFF07FFFFFEFFFF801FFFFFFF7C
:100CA000F803FFFFFFFF003F803FFFFFFFFF07FF4D
:100CB000FFFEFFFF801FFFFFFFF803FFFFFFFF00A6
:100CC0001FC01FFFFFFFFF83FFFFFEFFFF803FFFEF
:100CD000FFFFF803FFFFFFFF001FC01FFFFFFFFF25
:100CE00083FFFFFEFFFF807FFFFFFFF803FFFFFF93
:100CF000FF001FC01FFFFFFFFF83FFFFFEFFFF007E
:100D00007FFFFFFFF803FFFFFFFE001FC01FFFFF75
:100D1000FFFFC3FFFFFEFFFF00FFFFFFFFF803FF22
:100D2000FFFFFE001FC01FFFFFFFFFC1FFFFFEFF11
:100D3000FE00FFFFFFFFF803FFFFFFFC001FC01FC7
:100D4000FFFFFFFFE0FFFFFEFFFE00FFFFFFFFF8DA
:100D500003FFFFFFFC001FC01FFFFFFFFFE0FFFFBF
:100D6000FEFFFE00FFFFFFFFF803FFFFFFFC001F79
:100D7000E00FFFFFFFFFE07FFFFEFFFE00FFFFFF32
:100D8000FFF803FFFFFFFC001FE00FFFFFFFFFF076
:100D90007FFFFEFFFE00FFFFFFFFF803FFFFFFFCEA
:100DA000001FE00FFFFFFFFFF07FFFFEFFFE00FFD1
:100DB000FFFFFFFC03FFFFFFFE001FE00FFFFFFF31
:100DC000FFF83FFFFEFFFE00FFFFFFFFFC03FFFFFA
:100DD000FFFE001FE00FFFFFFFFFF81FFFFEFFFEFB
:100DE000007FFFFFFFFE03FFFFFFFE001FE00FFF7E
:100DF000FFFFFFFC1FFFFEFFFE007FFFFFFFFE0364
:100E0000FFFFFFFC001FF00FFFFFFFFFFC0FFFFEC7
:100E1000FFFE003FFFFFFFFE03FFFFFFFC001FF090
:100E20000FFFFFFFFFFC07FFFEFFFF000FFFFFFFAD
:100E3000FE03FFFFFFFC001FF80FFFFFFFFFFE0791
:100E4000FFFEFFFF0007FFFFFFFE03FFFFFFFC00A9
:100E50001FF80FFFFFFFFFFF03FFFEFFFF8003FFF1
:100E6000FFFFFF07FFFFFFF8001FF80FFFFFFFFF67
:100E7000FF03FFFEFFFF80007FFFFFFF03FFFFFF79
:100E8000F8001FF80FFFFFFFFFFF81FFFEFFFF804D
:100E90000003FFFFFF03FFFFFFF0001FF80FFFFF3E
:100EA000FFFFFF80FFFEFFFFC000003FFFFF03FFCB
:100EB000FFFFE0001FF80FFFFFFFFFFFC07FFEFFF7
:100EC000FFE0000000FFFF03FFFFFFC0001FF80F5F
:100ED000FFFFFFFFFFC07FFEFFFFF800000000FFE5
:100EE00081FFFFFF80000FF80FFFFFFFFFFFE03FD4
:100EF000FEFFFFFC000000000001FFFFFF80000F6D
:100F0000F80FFFFFFFFFFFE03FFEFFFFFE000000C6
:100F1000000001FFFFFF000007F80FFFFFFFFFFFCA
:100F2000F01FFEFFFFFF800000000001FFFFFF0039
:100F30000001F00FFFFFFFFFFFF01FFEFFFFFFC0EC
:100F40000000000001FFFFFF000000E007FE0FFFB0
:100F5000FFFFF81FFEFFFFFFF80000000001FFFF8A
:100F6000FF0020002007FC07FFFFFFF81FFEFFFF28
:100F7000FFFFC000000000FFFFFF007000000FF83F
:100F800003FFFFFFFC0FFEFFFFFFFFFF000000005D
:100F9000FFFFFF007800000FF803FFFFFFF80FFED0
:100FA000FFFFFFFFFFF8000000FFFFFF80FC0000D5
:100FB0001FF803FFFFFFFC07FEFFFFFFFFFFFFF02F
:100FC00000007FFFFFC1FE00001FF803FFFFFFFCD2
:100FD00007FEFFFFFFFFFFFFFE00003FFFFFFFFEDA
:100FE00000001FF003FFFFFFFC03FEFFFFFFFFFFFA
:100FF000FFFFF0003FFFFFFFFF00003FF003FFFF98
:10100000FFFE01FEFFFFFFFFFFFFFFFF883FFFFF27
:10101000FFFFC0007FF007FFFFFFFE01FEFFFFFFA5
:10102000FFFFFFFFFFF81FFFFFFFFFC000FFF007FC
:10103000FFFFFFFE01FEFFFFFFFFFFFFFFFFF81FA7
:10104000FFFFFFFFE001FFF007FFFFFFFF01FEFFD3
:10105000FFFFFFFFFFFFFFFC1FFFFFFFFFF003FF8E
:10106000F007FFFFFFFF00FEFFFFFFFFFFFFFFFF97
:10107000FC0FFFFFFFFFFC1FFFF007FFFFFFFF005C
:101080007EFFFFFFFFFFFFFFFFFE0FFFFFFFFFFFE2
:10109000FFFFF007F8000000007EFFFFFFFFFFFFEB
:1010A000FFFFFF0FFFFFFFFFFFFFFFF0000000004B
:1010B00000007EFFFFFFFFFFFFFFFFFF87FFFFFF37
:1010C000FFFFFFFFF00000000000003EFFFFFFFFFA
:1010D000FFFFFFFFFF87FFFFFFFFFFFFFFF00000A5
:1010E000000000001EFFFFFFFFFFFFFFFFFFC3FF29
:1010F000FFFFFFFFFFFFF00000000000001EFFFFEA
:10110000FFFFFFFFFFFFFFC3FFFFFFFFFFFFFFF832
:101110000000000000001EFFFFFFFFFFFFFFFFFFBA
:10112000E3FFFFFFFFFFFFFFF80000000000003EAD
:10113000FFFFFFFFFFFFFFFFFFC1FFFFFFFFFFFFFD
:10114000FFF80000000000007EFFFFFFFFFFFFFF31
:10115000FFFFE0FFFFFFFFFFFFFFFC0000000000BC
:1011600000FEFFFFFFFFFFFFFFFFFFE0FFFFFFFFAE
:10117000FFFFFFFFF001FFFFFFFFFEFFFFFFFFFF8D
:10118000FFFFFFFFE0FFFFFFFFFFFFFFFFFFFFFF8E
:10119000FFFFFFFEFFFFFFFFFFFFFFFFFFF07FFFEF
:1011A000FFFFFFFFFFFFFFFFFFFFFFFFFEFFFFFF50
:1011B000FFFFFFFFFFFFF8FFFFFFFFFFFFFFFFFF46
:1011C000FFFFFFFFFFFEFFFFFFFFFFFFFFFFFFF837
:1011D0007FFFFFFFFFFFFFFFFFFFFFFFFFFFFEFFA0
:1011E000FFFFFFFFFFFFFFFFF87FFFFFFFFFFFFF96
:1011F000FFFFFFFFFFFFFFFEFFFFFFFFFFFFFFFF00
:10120000FFFC3FFFFFFFFFFFFFFFFFFFFFFFFFFFB1
:10121000FEFFFFFFFFFFFFFFFFFFFC1FFFFFFFFFC2
:10122000FFFFFFFFFFFFFFFFFFFEFFFFFFFFFFFFCF
:10123000FFFFFFFC1FFFFFFFFFFFFFFFFFFFFFFFA1
:10124000FFFFFEFFFFFFFFFFFFFFFFFFFC1FFFFF92
:10125000FFFFFFFFFFFFFFFFFFFFFFFEFFFFFFFF9F
:10126000FFFFFFFFFFFE0FFFFFFFFFFFFFFFFFFF7F
:10127000FFFFFFFFFEFFFFFFFFFFFFFFFFFFFE0F70
:10128000FFFFFFFFFFFFFFFFFFFFFFFFFFFEFFFF6F
:10129000FFFFFFFFFFFFFFFE0FFFFFFFFFFFFFFF4F
:1012A000FFFFFFFFFFFFFEFFFFFFFFFFFFFFFFFF4F
:1012B000FE07FFFFFFFFFFFFFFFFFFFFFFFFFFFE38
:1012C000FFFFFFFFFFFFFFFFFFFE07FFFFFFFFFF27
:1012D000FFFFFFFFFFFFFFFFFEFFFFFFFFFFFFFF1F
:1012E000FFFFFF03FFFFFFFFFFFFFFFFFFFFFFFF0A
:1012F000FFFEFFFFFFFFFFFFFFFFFFFE03FFFFFFFC
:10130000FFFFFFFFFFFFFFFFFFFFFEFFFFFFFFFFEE
:10131000FFFFFFFFFF03FFFFFFFFFFFFFFFFFFFFD9
:10132000FFFFFFFEFFFFFFFFFFFFFFFFFFFF03FFCA
:10133000FFFFFFFFFFFFFFFFFFFFFFFFFEFFFFFFBE
:10134000FFFFFFFFFFFFFF83FFFFFFFFFFFFFFFF29
:10135000FFFFFFFFFFFEFFFFFFFFFFFFFFFFFFFF9E
:1013600081FFFFFFFFFFFFFFFFFFFFFFFFFFFEFF0C
:10137000FFFFFFFFFFFFFFFFFF81FFFFFFFFFFFFFB
:10138000FFFFFFFFFFFFFFFEFFFFFFFFFFFFFFFF6E
:10139000FFFF80FFFFFFFFFFFFFFFFFFFFFFFFFFDC
:1013A000FEFFFFFFFFFFFFFFFFFFFF80FFFFFFFFCD
:1013B000FFFFFFFFFFFFFFFFFFFEFFFFFFFFFFFF3E
:1013C000FFFFFFFF80FFFFFFFFFFFFFFFFFFFFFFAC
:1013D000FFFFFEFFFFFFFFFFFFFFFFFFFF80FFFF9D
:1013E000FFFFFFFFFFFFFFFFFFFFFFFEFFFFFFFF0E
:1013F000FFFFFFFFFFFF007FFFFFFFFFFFFFFFFF7C
:10140000FFFFFFFFFEFFFFFFFFFFFFFFFFFFFF00EC
:101410007FFFFFFFFFFFFFFFFFFFFFFFFFFEFFFF5D
:10142000FFFFFFFFFFFFFFFF007FFFFFFFFFFFFF4B
:10143000FFFFFFFFFFFFFEFFFFFFFFFFFFFFFFFFBD
:10144000FF80FFFFFFFFFFFFFFFFFFFFFFFFFFFE2C
:10145000FFFFFFFFFFFFFFFFFFFFC1FFFFFFFFFFDA
:10146000FFFFFFFFFFFFFFFFFEFFFFFFFFFFFFFF8D
:10147000FFFFFFE3FFFFFFFFFFFFFFFFFFFFFFFF98
:10148000FFFE1018180818180800000000000000DF
:1014900000000000000013144412000000000000CF
:1014A00000020201111212222266696959589999A3
:1014B0008800000000F8B4135135515119010000A3
:1014C000000000000000000000000000000000001C
:1014D000000000000000000000000000000000000C
:1014E00000000000000000000000000000000000FC
:1014F00000000000000000000000000000000000EC
:10244000FFFFFFC3839F83990103FFFFFF0000008D
:10245000000000000000000000000000000000007C
:10246000000000000000000000000000000000006C
:10247000000000000000000000000000000000005C
:10248000000000000000000000000000000000004C
:10249000000000000000000000000000000000003C
:1024A000000000000000000000000000000000002C
:1024B000000000000000000000000000000000001C
:1024C0009F83F1C181383D1981C3FFFFFF000000E8
:1024D00000000000000000000000000000000000FC
:1024E00000000000000000000000000000000000EC
:1024F00000000000000000000000000000000000DC
:1025000000000000000000000000000000000000CB
:1025100000000000000000000000000000000000BB
:1025200000000000000000000000000000000000AB
:10253000000000000000000000000000000000009B
:10254000FFFFFFC0C0CCC09C80C0FFFFFF000000A9
:10255000000000000000000000000000000000007B
:10256000000000000000000000000000000000006B
:10257000000000000000000000000000000000005B
:10258000000000000000000000000000000000004B
:10259000000000000000000000000000000000003B
:1025A000000000000000000000000000000000002B
:1025B000000000000000000000000000000000001B
:1025C000FFFFFF010133F3F3C1C1FFFFFF00000074
:1025D00000000000000000000000000000000000FB
:1025E00000000000000000000000000000000000EB
:1025F00000000000000000000000000000000000DB
:1026000000000000000000000000000000000000CA
:1026100000000000000000000000000000000000BA
:1026200000000000000000000000000000000000AA
:10263000000000000000000000000000000000009A
:10264000FFFFFF8383939B9900003C3CFF00000049
:10265000000000000000000000000000000000007A
:10266000000000000000000000000000000000006A
:10267000000000000000000000000000000000005A
:10268000000000000000000000000000000000004A
:10269000000000000000000000000000000000003A
:1026A000000000000000000000000000000000002A
:1026B000000000000000000000000000000000001A
:1026C000FFFFFFC3813901F98183FFFFFF00000095
:1026D00000000000000000000000000000000000FA
:1026E00000000000000000000000000000000000EA
:1026F00000000000000000000000000000000000DA
:1027000000000000000000000000000000000000C9
:1027100000000000000000000000000000000000B9
:1027200000000000000000000000000000000000A9
:102730000000000000000000000000000000000099
:10274000FFFFFF24A18181A12524FFFFFF000000DE
:102750000000000000000000000000000000000079
:102760000000000000000000000000000000000069
:102770000000000000000000000000000000000059
:102780000000000000000000000000000000000049
:102790000000000000000000000000000000000039
:1027A0000000000000000000000000000000000029
:1027B0000000000000000000000000000000000019
:1027C000FFFFFF8381998F3F8183FFFFFF000000A0
:1027D00000000000000000000000000000000000F9
:1027E00000000000000000000000000000000000E9
:1027F00000000000000000000000000000000000D9
:1028000000000000000000000000000000000000C8
:1028100000000000000000000000000000000000B8
:1028200000000000000000000000000000000000A8
:102830000000000000000000000000000000000098
:10284000FFFFFFB99989A1B1B1B9FFFFFF000000F7
:102850000000000000000000000000000000000078
:102860000000000000000000000000000000000068
:102870000000000000000000000000000000000058
:102880000000000000000000000000000000000048
:102890000000000000000000000000000000000038
:1028A0000000000000000000000000000000000028
:1028B0000000000000000000000000000000000018
:1028C000D3C7FFB99909A1B1B1B9FFFFFF0000005B
:1028D00000000000000000000000000000000000F8
:1028E00000000000000000000000000000000000E8
:1028F00000000000000000000000000000000000D8
:1029000000000000000000000000000000000000C7
:1029100000000000000000000000000000000000B7
:1029200000000000000000000000000000000000A7
:102930000000000000000000000000000000000097
:10294000FFFFFF3999C9C1C91939FFFFFF00000016
:102950000000000000000000000000000000000077
:102960000000000000000000000000000000000067
:102970000000000000000000000000000000000057
:102980000000000000000000000000000000000047
:102990000000000000000000000000000000000037
:1029A0000000000000000000000000000000000027
:1029B0000000000000000000000000000000000017
:1029C000FFFFFF8383939B99989CFFFFFF0000000C
:1029D00000000000000000000000000000000000F7
:1029E00000000000000000000000000000000000E7
:1029F00000000000000000000000000000000000D7
:102A000000000000000000000000000000000000C6
:102A100000000000000000000000000000000000B6
:102A200000000000000000000000000000000000A6
:102A30000000000000000000000000000000000096
:102A4000FFFFFF381800242C3C3CFFFFFF00000074
:102A50000000000000000000000000000000000076
:102A60000000000000000000000000000000000066
:102A70000000000000000000000000000000000056
:102A80000000000000000000000000000000000046
:102A90000000000000000000000000000000000036
:102AA0000000000000000000000000000000000026
:102AB0000000000000000000000000000000000016
:102AC000FFFFFF39390101393939FFFFFF000000ED
:102AD00000000000000000000000000000000000F6
:102AE00000000000000000000000000000000000E6
:102AF00000000000000000000000000000000000D6
:102B000000000000000000000000000000000000C5
:102B100000000000000000000000000000000000B5
:102B200000000000000000000000000000000000A5
:102B30000000000000000000000000000000000095
:102B4000FFFFFFC381393C3981C3FFFFFF00000055
:102B50000000000000000000000000000000000075
:102B60000000000000000000000000000000000065
:102B70000000000000000000000000000000000055
:102B80000000000000000000000000000000000045
:102B90000000000000000000000000000000000035
:102BA0000000000000000000000000000000000025
:102BB0000000000000000000000000000000000015
:102BC000FFFFFF01013939393939FFFFFF000000EC
:102BD00000000000000000000000000000000000F5
:102BE00000000000000000000000000000000000E5
:102BF00000000000000000000000000000000000D5
:102C000000000000000000000000000000000000C4
:102C100000000000000000000000000000000000B4
:102C200000000000000000000000000000000000A4
:102C30000000000000000000000000000000000094
:102C4000FFFFFF808039391981C1F9F9F9000000CF
:102C50000000000000000000000000000000000074
:102C60000000000000000000000000000000000064
:102C70000000000000000000000000000000000054
:102C80000000000000000000000000000000000044
:102C90000000000000000000000000000000000034
:102CA0000000000000000000000000000000000024
:102CB0000000000000000000000000000000000014
:102CC000FFFFFF8783B9F9F98387FFFFFF0000004B
:102CD00000000000000000000000000000000000F4
:102CE00000000000000000000000000000000000E4
:102CF00000000000000000000000000000000000D4
:102D000000000000000000000000000000000000C3
:102D100000000000000000000000000000000000B3
:102D200000000000000000000000000000000000A3
:102D30000000000000000000000000000000000093
:102D4000FFFFFF010125E7E78181FFFFFF00000092
:102D50000000000000000000000000000000000073
:102D60000000000000000000000000000000000063
:102D70000000000000000000000000000000000053
:102D80000000000000000000000000000000000043
:102D90000000000000000000000000000000000033
:102DA0000000000000000000000000000000000023
:102DB0000000000000000000000000000000000013
:102DC000FFFFFF3C39999393C7C7CFE1F3000000A1
:102DD00000000000000000000000000000000000F3
:102DE00000000000000000000000000000000000E3
:102DF00000000000000000000000000000000000D3
:102E000000000000000000000000000000000000C2
:102E100000000000000000000000000000000000B2
:102E200000000000000000000000000000000000A2
:102E30000000000000000000000000000000000092
:102E4000E3E3E781012424240181E7E7E7000000B0
:102E50000000000000000000000000000000000072
:102E60000000000000000000000000000000000062
:102E70000000000000000000000000000000000052
:102E80000000000000000000000000000000000042
:102E90000000000000000000000000000000000032
:102EA0000000000000000000000000000000000022
:102EB0000000000000000000000000000000000012
:102EC000FFFFFF3993C3C7C39939FFFFFF0000001D
:102ED00000000000000000000000000000000000F2
:102EE00000000000000000000000000000000000E2
:102EF00000000000000000000000000000000000D2
:102F000000000000000000000000000000000000C1
:102F100000000000000000000000000000000000B1
:102F200000000000000000000000000000000000A1
:102F30000000000000000000000000000000000091
:102F4000FEFEFE989898989800007E7EFE00000095
:102F50000000000000000000000000000000000071
:102F60000000000000000000000000000000000061
:102F70000000000000000000000000000000000051
:102F80000000000000000000000000000000000041
:102F90000000000000000000000000000000000031
:102FA0000000000000000000000000000000000021
:102FB0000000000000000000000000000000000011
:102FC000FFFFFFB9B9998183BFBFFFFFFF0000007A
:102FD00000000000000000000000000000000000F1
:102FE00000000000000000000000000000000000E1
:102FF00000000000000000000000000000000000D1
:1030000000000000000000000000000000000000C0
:1030100000000000000000000000000000000000B0
:1030200000000000000000000000000000000000A0
:103030000000000000000000000000000000000090
:10304000FFFFFF24242424240000FFFFFF000000D2
:103050000000000000000000000000000000000070
:103060000000000000000000000000000000000060
:103070000000000000000000000000000000000050
:103080000000000000000000000000000000000040
:103090000000000000000000000000000000000030
:1030A0000000000000000000000000000000000020
:1030B0000000000000000000000000000000000010
:1030C000FFFFFFA4A4A4A4A400007F7FFF000000D2
:1030D00000000000000000000000000000000000F0
:1030E00000000000000000000000000000000000E0
:1030F00000000000000000000000000000000000D0
:1031000000000000000000000000000000000000BF
:1031100000000000000000000000000000000000AF
:10312000000000000000000000000000000000009F
:10313000000000000000000000000000000000008F
:10314000FFFFFFF0F08303338383FFFFFF000000E6
:10315000000000000000000000000000000000006F
:10316000000000000000000000000000000000005F
:10317000000000000000000000000000000000004F
:10318000000000000000000000000000000000003F
:10319000000000000000000000000000000000002F
:1031A000000000000000000000000000000000001F
:1031B000000000000000000000000000000000000F
:1031C000FFFFFF3C3C20000C2020FFFFFF00000021
:1031D00000000000000000000000000000000000EF
:1031E00000000000000000000000000000000000DF
:1031F00000000000000000000000000000000000CF
:1032000000000000000000000000000000000000BE
:1032100000000000000000000000000000000000AE
:10322000000000000000000000000000000000009E
:10323000000000000000000000000000000000008E
:10324000FFFFFFF9F981811981C1FFFFFF00000035
:10325000000000000000000000000000000000006E
:10326000000000000000000000000000000000005E
:10327000000000000000000000000000000000004E
:10328000000000000000000000000000000000003E
:10329000000000000000000000000000000000002E
:1032A000000000000000000000000000000000001E
:1032B000000000000000000000000000000000000E
:1032C000FFFFFFC1811D071F81C1FFFFFF0000003D
:1032D00000000000000000000000000000000000EE
:1032E00000000000000000000000000000000000DE
:1032F00000000000000000000000000000000000CE
:1033000000000000000000000000000000000000BD
:1033100000000000000000000000000000000000AD
:10332000000000000000000000000000000000009D
:10333000000000000000000000000000000000008D
:10334000FFFFFF8D05212125058DFFFFFF000000F8
:10335000000000000000000000000000000000006D
:10336000000000000000000000000000000000005D
:10337000000000000000000000000000000000004D
:10338000000000000000000000000000000000003D
:10339000000000000000000000000000000000002D
:1033A000000000000000000000000000000000001D
:1033B000000000000000000000000000000000000D
:1033C000FFFFFF8381B98183B1B9FFFFFF000000D8
:1033D00000000000000000000000000000000000ED
:1033E00000000000000000000000000000000000DD
:1033F00000000000000000000000000000000000CD
:1034000000000000000000000000000000000000BC
:1034100000000000000000000000000000000000AC
:10342000000000000000000000000000000000009C
:10343000000000000000000000000000000000008C
:10344000000000000000000000000000000000007C
:10345000000000000000000000000000000000006C
:10346000000000000000000000000000000000005C
:10347000000000000000000000000000000000004C
:10348000000000000000000000000000000000003C
:10349000000000000000000000000000000000002C
:1034A000000000000000000000000000000000001C
:1034B000000000000000000000000000000000000C
:1034C0009B9BFFC3813901F98183FFFFFF0000004F
:1034D00000000000000000000000000000000000EC
:1034E00000000000000000000000000000000000DC
:1034F00000000000000000000000000000000000CC
:1035000000000000000000000000000000000000BB
:10454000FFFFFFFFFFFFFFFFFFFFFFFFFF00000078
:10455000000000000000000000000000000000005B
:10456000000000000000000000000000000000004B
:10457000000000000000000000000000000000003B
:10458000000000000000000000000000000000002B
:10459000000000000000000000000000000000001B
:1045A000000000000000000000000000000000000B
:1045B00000000000000000000000000000000000FB
:1045C000F3F3F3F3F3F3F7FFF3F3FFFFFF00000060
:1045D00000000000000000000000000000000000DB
:1045E00000000000000000000000000000000000CB
:1045F00000000000000000000000000000000000BB
:1046000000000000000000000000000000000000AA
:10461000000000000000000000000000000000009A
:10462000000000000000000000000000000000008A
:10463000000000000000000000000000000000007A
:10464000C9E9E9E9FFFFFFFFFFFFFFFFFF000000EF
:10465000000000000000000000000000000000005A
:10466000000000000000000000000000000000004A
:10467000000000000000000000000000000000003A
:10468000000000000000000000000000000000002A
:10469000000000000000000000000000000000001A
:1046A000000000000000000000000000000000000A
:1046B00000000000000000000000000000000000FA
:1046C000FFB7970101D38181C9E9FFFFFF00000017
:1046D00000000000000000000000000000000000DA
:1046E00000000000000000000000000000000000CA
:1046F00000000000000000000000000000000000BA
:1047000000000000000000000000000000000000A9
:104710000000000000000000000000000000000099
:104720000000000000000000000000000000000089
:104730000000000000000000000000000000000079
:10474000E783C1E9E9C387979781C1E7FF000000CC
:104750000000000000000000000000000000000059
:104760000000000000000000000000000000000049
:104770000000000000000000000000000000000039
:104780000000000000000000000000000000000029
:104790000000000000000000000000000000000019
:1047A0000000000000000000000000000000000009
:1047B00000000000000000000000000000000000F9
:1047C000713494C4E187436B4D9FFFFFFF000000ED
:1047D00000000000000000000000000000000000D9
:1047E00000000000000000000000000000000000C9
:1047F00000000000000000000000000000000000B9
:1048000000000000000000000000000000000000A8
:104810000000000000000000000000000000000098
:104820000000000000000000000000000000000088
:104830000000000000000000000000000000000078
:10484000E3C1C9E3F3610C1C0061FFFFFF0000003E
:104850000000000000000000000000000000000058
:104860000000000000000000000000000000000048
:104870000000000000000000000000000000000038
:104880000000000000000000000000000000000028
:104890000000000000000000000000000000000018
:1048A0000000000000000000000000000000000008
:1048B00000000000000000000000000000000000F8
:1048C000E7E7E7E7FFFFFFFFFFFFFFFFFF00000055
:1048D00000000000000000000000000000000000D8
:1048E00000000000000000000000000000000000C8
:1048F00000000000000000000000000000000000B8
:1049000000000000000000000000000000000000A7
:104910000000000000000000000000000000000097
:104920000000000000000000000000000000000087
:104930000000000000000000000000000000000077
:10494000DFC7E3F3FBF9F9F9FBF3E3C7DF0000008E
:104950000000000000000000000000000000000057
:104960000000000000000000000000000000000047
:104970000000000000000000000000000000000037
:104980000000000000000000000000000000000027
:104990000000000000000000000000000000000017
:1049A0000000000000000000000000000000000007
:1049B00000000000000000000000000000000000F7
:1049C000E7C79F9F3F3F3F3F3F1F9FC7E700000054
:1049D00000000000000000000000000000000000D7
:1049E00000000000000000000000000000000000C7
:1049F00000000000000000000000000000000000B7
:104A000000000000000000000000000000000000A6
:104A10000000000000000000000000000000000096
:104A20000000000000000000000000000000000086
:104A30000000000000000000000000000000000076
:104A4000DBD3C70101C7D3DBFFFFFFFFFF0000007F
:104A50000000000000000000000000000000000056
:104A60000000000000000000000000000000000046
:104A70000000000000000000000000000000000036
:104A80000000000000000000000000000000000026
:104A90000000000000000000000000000000000016
:104AA0000000000000000000000000000000000006
:104AB00000000000000000000000000000000000F6
:104AC000FFE7E7E70101E7E7E7FFFFFFFF0000007F
:104AD00000000000000000000000000000000000D6
:104AE00000000000000000000000000000000000C6
:104AF00000000000000000000000000000000000B6
:104B000000000000000000000000000000000000A5
:104B10000000000000000000000000000000000095
:104B20000000000000000000000000000000000085
:104B30000000000000000000000000000000000075
:104B4000FFFFFFFFFFFFFFFFF3E3E7F7FB000000BE
:104B50000000000000000000000000000000000055
:104B60000000000000000000000000000000000045
:104B70000000000000000000000000000000000035
:104B80000000000000000000000000000000000025
:104B90000000000000000000000000000000000015
:104BA0000000000000000000000000000000000005
:104BB00000000000000000000000000000000000F5
:104BC000FFFFFFFFFFC3C3FFFFFFFFFFFF0000006A
:104BD00000000000000000000000000000000000D5
:104BE00000000000000000000000000000000000C5
:104BF00000000000000000000000000000000000B5
:104C000000000000000000000000000000000000A4
:104C10000000000000000000000000000000000094
:104C20000000000000000000000000000000000084
:104C30000000000000000000000000000000000074
:104C4000FFFFFFFFFFFFFFFFE7E7FFFFFF000000A1
:104C50000000000000000000000000000000000054
:104C60000000000000000000000000000000000044
:104C70000000000000000000000000000000000034
:104C80000000000000000000000000000000000024
:104C90000000000000000000000000000000000014
:104CA0000000000000000000000000000000000004
:104CB00000000000000000000000000000000000F4
:104CC000BF9F9FCFCFEFE7F7F3FBF9F9FF0000009D
:104CD00000000000000000000000000000000000D4
:104CE00000000000000000000000000000000000C4
:104CF00000000000000000000000000000000000B4
:104D000000000000000000000000000000000000A3
:104D10000000000000000000000000000000000093
:104D20000000000000000000000000000000000083
:104D30000000000000000000000000000000000073
:104D4000C38119190D31399981C3FFFFFF0000009C
:104D50000000000000000000000000000000000053
:104D60000000000000000000000000000000000043
:104D70000000000000000000000000000000000033
:104D80000000000000000000000000000000000023
:104D90000000000000000000000000000000000013
:104DA0000000000000000000000000000000000003
:104DB00000000000000000000000000000000000F3
:104DC000EFE3E1EDEFEFEFEF8181FFFFFF00000088
:104DD00000000000000000000000000000000000D3
:104DE00000000000000000000000000000000000C3
:104DF00000000000000000000000000000000000B3
:104E000000000000000000000000000000000000A2
:104E10000000000000000000000000000000000092
:104E20000000000000000000000000000000000082
:104E30000000000000000000000000000000000072
:104E4000C3819F9F9FCFE7F38181FFFFFF00000099
:104E50000000000000000000000000000000000052
:104E60000000000000000000000000000000000042
:104E70000000000000000000000000000000000032
:104E80000000000000000000000000000000000022
:104E90000000000000000000000000000000000012
:104EA0000000000000000000000000000000000002
:104EB00000000000000000000000000000000000F2
:104EC0008181CFE7C7839F9F81C1FFFFFF00000063
:104ED00000000000000000000000000000000000D2
:104EE00000000000000000000000000000000000C2
:104EF00000000000000000000000000000000000B2
:104F000000000000000000000000000000000000A1
:104F10000000000000000000000000000000000091
:104F20000000000000000000000000000000000081
:104F30000000000000000000000000000000000071
:104F4000CFCFC7D3D90000DFDFDFFFFFFF000000B6
:104F50000000000000000000000000000000000051
:104F60000000000000000000000000000000000041
:104F70000000000000000000000000000000000031
:104F80000000000000000000000000000000000021
:104F90000000000000000000000000000000000011
:104FA0000000000000000000000000000000000001
:104FB00000000000000000000000000000000000F1
:104FC0008383FBFBC3839F9F81E3FFFFFF00000000
:104FD00000000000000000000000000000000000D1
:104FE00000000000000000000000000000000000C1
:104FF00000000000000000000000000000000000B1
:1050000000000000000000000000000000000000A0
:105010000000000000000000000000000000000090
:105020000000000000000000000000000000000080
:105030000000000000000000000000000000000070
:10504000CFC7F3F9C181391981C3FFFFFF00000009
:105050000000000000000000000000000000000050
:105060000000000000000000000000000000000040
:105070000000000000000000000000000000000030
:105080000000000000000000000000000000000020
:105090000000000000000000000000000000000010
:1050A0000000000000000000000000000000000000
:1050B00000000000000000000000000000000000F0
:1050C00081819FDFCFEFE7F7F3FBFFFFFF000000D9
:1050D00000000000000000000000000000000000D0
:1050E00000000000000000000000000000000000C0
:1050F00000000000000000000000000000000000B0
:10510000000000000000000000000000000000009F
:10511000000000000000000000000000000000008F
:10512000000000000000000000000000000000007F
:10513000000000000000000000000000000000006F
:10514000C3819999C383993981C3FFFFFF00000090
:10515000000000000000000000000000000000004F
:10516000000000000000000000000000000000003F
:10517000000000000000000000000000000000002F
:10518000000000000000000000000000000000001F
:10519000000000000000000000000000000000000F
:1051A00000000000000000000000000000000000FF
:1051B00000000000000000000000000000000000EF
:1051C000C381193901839F9FC3F3FFFFFF000000D4
:1051D00000000000000000000000000000000000CF
:1051E00000000000000000000000000000000000BF
:1051F00000000000000000000000000000000000AF
:10520000000000000000000000000000000000009E
:10521000000000000000000000000000000000008E
:10522000000000000000000000000000000000007E
:10523000000000000000000000000000000000006E
:10524000FFFFFFE7E7FFFFFFFFE7E7FFFF000000CB
:10525000000000000000000000000000000000004E
:10526000000000000000000000000000000000003E
:10527000000000000000000000000000000000002E
:10528000000000000000000000000000000000001E
:10529000000000000000000000000000000000000E
:1052A00000000000000000000000000000000000FE
:1052B00000000000000000000000000000000000EE
:1052C00000000000000000000000000000000000DE
:1052D00000000000000000000000000000000000CE
:1052E00000000000000000000000000000000000BE
:1052F00000000000000000000000000000000000AE
:10530000000000000000000000000000000000009D
:10531000000000000000000000000000000000008D
:10532000000000000000000000000000000000007D
:10533000000000000000000000000000000000006D
:10534000FFBF9FC7F1F8F1C79FBFFFFFFF0000003D
:10535000000000000000000000000000000000004D
:10536000000000000000000000000000000000003D
:10537000000000000000000000000000000000002D
:10538000000000000000000000000000000000001D
:10539000000000000000000000000000000000000D
:1053A00000000000000000000000000000000000FD
:1053B00000000000000000000000000000000000ED
:1053C00000000000000000000000000000000000DD
:1053D00000000000000000000000000000000000CD
:1053E00000000000000000000000000000000000BD
:1053F00000000000000000000000000000000000AD
:10540000000000000000000000000000000000009C
:10541000000000000000000000000000000000008C
:10542000000000000000000000000000000000007C
:10543000000000000000000000000000000000006C
:10544000000000000000000000000000000000005C
:10545000000000000000000000000000000000004C
:10546000000000000000000000000000000000003C
:10547000000000000000000000000000000000002C
:10548000000000000000000000000000000000001C
:10549000000000000000000000000000000000000C
:1054A00000000000000000000000000000000000FC
:1054B00000000000000000000000000000000000EC
:1054C000C3819D9FCFE7E7FFE7E7FFFFFF000000F5
:1054D00000000000000000000000000000000000CC
:1054E00000000000000000000000000000000000BC
:1054F00000000000000000000000000000000000AC
:10550000000000000000000000000000000000009B
:1062C0008181F9F9F9F9F9F9F9F9F9818100000009
:1062D00000000000000000000000000000000000BE
:1062E00000000000000000000000000000000000AE
:1062F000000000000000000000000000000000009E
:10630000000000000000000000000000000000008D
:10631000000000000000000000000000000000007D
:10632000000000000000000000000000000000006D
:10633000000000000000000000000000000000005D
:10634000F9F9F3F3F7E7EFCFCF9F9FBFFF0000000E
:10635000000000000000000000000000000000003D
:10636000000000000000000000000000000000002D
:10637000000000000000000000000000000000001D
:10638000000000000000000000000000000000000D
:1063900000000000000000000000000000000000FD
:1063A00000000000000000000000000000000000ED
:1063B00000000000000000000000000000000000DD
:1063C00083839F9F9F9F9F9F9F9F9F83830000002A
:1063D00000000000000000000000000000000000BD
:1063E00000000000000000000000000000000000AD
:1063F000000000000000000000000000000000009D
:10640000000000000000000000000000000000008C
:10641000000000000000000000000000000000007C
:10642000000000000000000000000000000000006C
:10643000000000000000000000000000000000005C
:10644000000000000000000000000000000000004C
:10645000000000000000000000000000000000003C
:10646000000000000000000000000000000000002C
:10647000000000000000000000000000000000001C
:10648000000000000000000000000000000000000C
:1064900000000000000000000000000000000000FC
:1064A00000000000000000000000000000000000EC
:1064B00000000000000000000000000000000000DC
:1064C00000000000000000000000000000000000CC
:1064D00000000000000000000000000000000000BC
:1064E00000000000000000000000000000000000AC
:1064F000000000000000000000000000000000009C
:10650000000000000000000000000000000000008B
:10651000000000000000000000000000000000007B
:10652000000000000000000000000000000000006B
:10653000000000000000000000000000000000005B
:10654000000000000000000000000000000000004B
:10655000000000000000000000000000000000003B
:10656000000000000000000000000000000000002B
:10657000000000000000000000000000000000001B
:10658000000000000000000000000000000000000B
:1065900000000000000000000000000000000000FB
:1065A00000000000000000000000000000000000EB
:1065B00000000000000000000000000000000000DB
:1065C000FFFFFFC1819F81809C0011FFFF00000041
:1065D00000000000000000000000000000000000BB
:1065E00000000000000000000000000000000000AB
:1065F000000000000000000000000000000000009B
:10660000000000000000000000000000000000008A
:10661000000000000000000000000000000000007A
:10662000000000000000000000000000000000006A
:10663000000000000000000000000000000000005A
:10664000F8F8F98101317979390183FFFF00000001
:10665000000000000000000000000000000000003A
:10666000000000000000000000000000000000002A
:10667000000000000000000000000000000000001A
:10668000000000000000000000000000000000000A
:1066900000000000000000000000000000000000FA
:1066A00000000000000000000000000000000000EA
:1066B00000000000000000000000000000000000DA
:1066C000FFFFFF8381B8FCFCF80183FFFF0000009F
:1066D00000000000000000000000000000000000BA
:1066E00000000000000000000000000000000000AA
:1066F000000000000000000000000000000000009A
:106700000000000000000000000000000000000089
:106710000000000000000000000000000000000079
:106720000000000000000000000000000000000069
:106730000000000000000000000000000000000059
:106740008F8F9F81809C9C9C9C0021FFFF000000FC
:106750000000000000000000000000000000000039
:106760000000000000000000000000000000000029
:106770000000000000000000000000000000000019
:106780000000000000000000000000000000000009
:1067900000000000000000000000000000000000F9
:1067A00000000000000000000000000000000000E9
:1067B00000000000000000000000000000000000D9
:1067C000FFFFFFC3813C0000FC8183FFFF0000004E
:1067D00000000000000000000000000000000000B9
:1067E00000000000000000000000000000000000A9
:1067F0000000000000000000000000000000000099
:106800000000000000000000000000000000000088
:106810000000000000000000000000000000000078
:106820000000000000000000000000000000000068
:106830000000000000000000000000000000000058
:106840000703F38080F3F3F3F38000FFFF00000001
:106850000000000000000000000000000000000038
:106860000000000000000000000000000000000028
:106870000000000000000000000000000000000018
:106880000000000000000000000000000000000008
:1068900000000000000000000000000000000000F8
:1068A00000000000000000000000000000000000E8
:1068B00000000000000000000000000000000000D8
:1068C000FFFFFF8301989C9C1880019F81000000BE
:1068D00000000000000000000000000000000000B8
:1068E00000000000000000000000000000000000A8
:1068F0000000000000000000000000000000000098
:106900000000000000000000000000000000000087
:106910000000000000000000000000000000000077
:106920000000000000000000000000000000000067
:106930000000000000000000000000000000000057
:10694000F8F8F98901317939793979FFFF000000C8
:106950000000000000000000000000000000000037
:106960000000000000000000000000000000000027
:106970000000000000000000000000000000000017
:106980000000000000000000000000000000000007
:1069900000000000000000000000000000000000F7
:1069A00000000000000000000000000000000000E7
:1069B00000000000000000000000000000000000D7
:1069C000E7E7FFE0E0E7E7E7E70000FFFF000000A0
:1069D00000000000000000000000000000000000B7
:1069E00000000000000000000000000000000000A7
:1069F0000000000000000000000000000000000097
:106A00000000000000000000000000000000000086
:106A10000000000000000000000000000000000076
:106A20000000000000000000000000000000000066
:106A30000000000000000000000000000000000056
:106A40009F9FFF81839F9F9F9F9F9F9F810000002B
:106A50000000000000000000000000000000000036
:106A60000000000000000000000000000000000026
:106A70000000000000000000000000000000000016
:106A80000000000000000000000000000000000006
:106A900000000000000000000000000000000000F6
:106AA00000000000000000000000000000000000E6
:106AB00000000000000000000000000000000000D6
:106AC000F8F8F9391989C1C1991939FFFF00000097
:106AD00000000000000000000000000000000000B6
:106AE00000000000000000000000000000000000A6
:106AF0000000000000000000000000000000000096
:106B00000000000000000000000000000000000085
:106B10000000000000000000000000000000000075
:106B20000000000000000000000000000000000065
:106B30000000000000000000000000000000000055
:106B4000E1E1E7E7E7E7E7E7E7070FFFFF0000001E
:106B50000000000000000000000000000000000035
:106B60000000000000000000000000000000000025
:106B70000000000000000000000000000000000015
:106B80000000000000000000000000000000000005
:106B900000000000000000000000000000000000F5
:106BA00000000000000000000000000000000000E5
:106BB00000000000000000000000000000000000D5
:106BC000FFFFFF1200262626262626FFFF000000D4
:106BD00000000000000000000000000000000000B5
:106BE00000000000000000000000000000000000A5
:106BF0000000000000000000000000000000000095
:106C00000000000000000000000000000000000084
:106C10000000000000000000000000000000000074
:106C20000000000000000000000000000000000064
:106C30000000000000000000000000000000000054
:106C4000FFFFFF0800317979797979FFFF000000B3
:106C50000000000000000000000000000000000034
:106C60000000000000000000000000000000000024
:106C70000000000000000000000000000000000014
:106C80000000000000000000000000000000000004
:106C900000000000000000000000000000000000F4
:106CA00000000000000000000000000000000000E4
:106CB00000000000000000000000000000000000D4
:106CC000FFFFFFC1801C3C3C1C80C3FFFF00000095
:106CD00000000000000000000000000000000000B4
:106CE00000000000000000000000000000000000A4
:106CF0000000000000000000000000000000000094
:106D00000000000000000000000000000000000083
:106D10000000000000000000000000000000000073
:106D20000000000000000000000000000000000063
:106D30000000000000000000000000000000000053
:106D4000FFFF0800317979390181F9F9F900000074
:106D50000000000000000000000000000000000033
:106D60000000000000000000000000000000000023
:106D70000000000000000000000000000000000013
:106D80000000000000000000000000000000000003
:106D900000000000000000000000000000000000F3
:106DA00000000000000000000000000000000000E3
:106DB00000000000000000000000000000000000D3
:106DC000FFFF8381989C9C9C80819F9F1F000000F7
:106DD00000000000000000000000000000000000B3
:106DE00000000000000000000000000000000000A3
:106DF0000000000000000000000000000000000093
:106E00000000000000000000000000000000000082
:106E10000000000000000000000000000000000072
:106E20000000000000000000000000000000000062
:106E30000000000000000000000000000000000052
:106E4000FFFF880033F3F3F38080FFFFFF000000B3
:106E50000000000000000000000000000000000032
:106E60000000000000000000000000000000000022
:106E70000000000000000000000000000000000012
:106E80000000000000000000000000000000000002
:106E900000000000000000000000000000000000F2
:106EA00000000000000000000000000000000000E2
:106EB00000000000000000000000000000000000D2
:106EC000FFFF8180F8E1879D80C1FFFFFF00000088
:106ED00000000000000000000000000000000000B2
:106EE00000000000000000000000000000000000A2
:106EF0000000000000000000000000000000000092
:106F00000000000000000000000000000000000081
:106F10000000000000000000000000000000000071
:106F20000000000000000000000000000000000061
:106F30000000000000000000000000000000000051
:106F4000F3F30000F3F3F3730307FFFFFF00000008
:106F50000000000000000000000000000000000031
:106F60000000000000000000000000000000000021
:106F70000000000000000000000000000000000011
:106F80000000000000000000000000000000000001
:106F900000000000000000000000000000000000F1
:106FA00000000000000000000000000000000000E1
:106FB00000000000000000000000000000000000D1
:106FC000FFFF8C8C9C9C9C9C0031FFFFFF0000000D
:106FD00000000000000000000000000000000000B1
:106FE00000000000000000000000000000000000A1
:106FF0000000000000000000000000000000000091
:107000000000000000000000000000000000000080
:107010000000000000000000000000000000000070
:107020000000000000000000000000000000000060
:107030000000000000000000000000000000000050
:10704000FFFF3C1C9999C1C3C3E7FFFFFF0000008D
:107050000000000000000000000000000000000030
:107060000000000000000000000000000000000020
:107070000000000000000000000000000000000010
:107080000000000000000000000000000000000000
:1070900000000000000000000000000000000000F0
:1070A00000000000000000000000000000000000E0
:1070B00000000000000000000000000000000000D0
:1070C000FFFF7E3E242400808899FFFFFF00000020
:1070D00000000000000000000000000000000000B0
:1070E00000000000000000000000000000000000A0
:1070F0000000000000000000000000000000000090
:10710000000000000000000000000000000000007F
:10711000000000000000000000000000000000006F
:10712000000000000000000000000000000000005F
:10713000000000000000000000000000000000004F
:10714000FFFF1C99C1C3C3C9981CFFFFFF000000CB
:10715000000000000000000000000000000000002F
:10716000000000000000000000000000000000001F
:10717000000000000000000000000000000000000F
:1071800000000000000000000000000000000000FF
:1071900000000000000000000000000000000000EF
:1071A00000000000000000000000000000000000DF
:1071B00000000000000000000000000000000000CF
:1071C000FFFF3C3C9C9999D3C3C3E7E1F100000069
:1071D00000000000000000000000000000000000AF
:1071E000000000000000000000000000000000009F
:1071F000000000000000000000000000000000008F
:10720000000000000000000000000000000000007E
:10721000000000000000000000000000000000006E
:10722000000000000000000000000000000000005E
:10723000000000000000000000000000000000004E
:10724000FFFF00008FC7F3F90000FFFFFF00000001
:10725000000000000000000000000000000000002E
:10726000000000000000000000000000000000001E
:10727000000000000000000000000000000000000E
:1072800000000000000000000000000000000000FE
:1072900000000000000000000000000000000000EE
:1072A00000000000000000000000000000000000DE
:1072B00000000000000000000000000000000000CE
:1072C0008F87E7E7E7F1F1E7E7E7E7878F0000005F
:1072D00000000000000000000000000000000000AE
:1072E000000000000000000000000000000000009E
:1072F000000000000000000000000000000000008E
:10730000000000000000000000000000000000007D
:10731000000000000000000000000000000000006D
:10732000000000000000000000000000000000005D
:10733000000000000000000000000000000000004D
:10734000E1E1CFCFCF8F8FCFCFCFE7E1E1000000DA
:10735000000000000000000000000000000000002D
:10736000000000000000000000000000000000001D
:10737000000000000000000000000000000000000D
:1073800000000000000000000000000000000000FD
:1073900000000000000000000000000000000000ED
:1073A00000000000000000000000000000000000DD
:1073B00000000000000000000000000000000000CD
:1073C000FFFFFFFFF3818FFFFFFFFFFFFF000000C4
:1073D00000000000000000000000000000000000AD
:1073E000000000000000000000000000000000009D
:1073F000000000000000000000000000000000008D
:10740000000000000000000000000000000000007C
:10741000000000000000000000000000000000006C
:10742000000000000000000000000000000000005C
:10743000000000000000000000000000000000004C
:10744000000000000000000000000000000000003C
:10745000000000000000000000000000000000002C
:10746000000000000000000000000000000000001C
:10747000000000000000000000000000000000000C
:1074800000000000000000000000000000000000FC
:1074900000000000000000000000000000000000EC
:1074A00000000000000000000000000000000000DC
:1074B00000000000000000000000000000000000CC
:1074C00000000000000000000000000000000000BC
:1074D00000000000000000000000000000000000AC
:1074E000000000000000000000000000000000009C
:1074F000000000000000000000000000000000008C
:10750000000000000000000000000000000000007B
:10751000000000000000000000000000000000006B
:10752000000000000000000000000000000000005B
:10753000000000000000000000000000000000004B
:1075400015E2A0E0B0E2E8EDF7EC00E00BBF02C00E
:1075500007900D92A43BB107D9F71BBE2DE3A4EB16
:10756000B5E201C01D92AB36B207E1F70E94574762
:1075700084E690E00E947E4D48EC50E068EC70E0BC
:1075800080E090E00E940E4988EB9BE00E947E4DD7
:1075900088EC90E29F938F930E94443B80E090E2BE
:1075A0000E9477450F900F900E94FA46FDCF0E94EF
:1075B000C5472AE041E06DE086EE90E20E940A486D
:1075C0002BE041E063E184EF90E20E940A480E94D0
:1075D00062480E944D480C94D74081E08093010698
:1075E000089581E08093070608950F931F93CF932A
:1075F000DF93CDB7DEB72A97CDBFDEBF382F4C3033
:1076000018F088E091E230C0E22FF0E0EE0FFF1FAB
:10761000EE5AF34C85819681009719F484E291E249
:1076200023C03983DE011296FB01042F10E09F0175
:10763000261B370B201731071CF421912D93F7CF10
:107640000FB6F8940F920F5F1F4F20E030E0A801B3
:10765000BE016F5F7F4F0E94B45C0F900FBE80171A
:10766000910741F087E491E29F938F930E94443BFE
:107670000F900F902A96CDBFDEBFDF91CF911F9163
:107680000F9108950C947E4D0F931F93CF93DF932A
:10769000CDB7DEB7A397CDBFDEBF9E01255D3F4FBF
:1076A000F901419151919F018E010F5F1F4F83E2BC
:1076B000F80111928A95E9F763E270E0C8010E942F
:1076C0001861AC0155274232510574F4F801E40FFA
:1076D000F51F8AE080838DE0E2E0F0E0EC0FFD1F13
:1076E000E40FF51F808304C08AE08BA38DE08AA39A
:1076F0000FB6F8940F924F5F5F4F20E030E0BE016D
:107700006E5F7F4F80915E3C90915F3C0E94B45CC5
:107710000F900FBE89818093A00BA396CDBFDEBFD3
:10772000DF91CF911F910F910895CF93DF93E0EAFE
:10773000F6E088E085838183C0EADBE083E08D8327
:107740008B8184618B8389E18E831F8240E061E0BD
:1077500070E088EE93E00E94325C80935E3C9093F0
:107760005F3C8C818D618C83DF91CF9108951F9256
:107770000F920FB60F92112408B60F9218BE09B6D9
:107780000F9219BE0AB60F921ABE0BB60F921BBE0D
:107790002F933F934F935F936F937F938F939F9319
:1077A000AF93BF93EF93FF93CF93DF931F921F92FB
:1077B000CDB7DEB719829E012F5F3F4F41E050E009
:1077C000BE016E5F7F4F80915E3C90915F3C0E9456
:1077D000765E892B19F08A818093A00B89818111B3
:1077E0000E9412600F900F90DF91CF91FF91EF9167
:1077F000BF91AF919F918F917F916F915F914F91C9
:107800003F912F910F900BBE0F900ABE0F9009BEB3
:107810000F9008BE0F900FBE0F901F9018951F92EB
:107820000F920FB60F92112408B60F9218BE09B628
:107830000F9219BE0AB60F921ABE0BB60F921BBE5C
:10784000EF92FF921F932F933F934F935F936F930A
:107850007F938F939F93AF93BF93EF93FF93CF93B8
:10786000DF9300D0CDB7DEB719828091A00B8A8359
:1078700090ED980F9A3008F59A8397E5E92E9CE3EE
:10788000F92E10E01B829E012D5F3F4F42E050E039
:10789000BE016F5F7F4FF701819191917F010E943F
:1078A000545D81E09B81913009F080E0182BFDE56B
:1078B000EF16FCE3FF0631F723C0883721F582E09D
:1078C000898387E5E82E8CE3F82E10E01B829E0169
:1078D0002D5F3F4F41E050E0BE016F5F7F4FF701EA
:1078E000819191917F010E94545D81E09B81913053
:1078F00009F080E0182BFDE5EF16FCE3FF0631F7F9
:1079000011110E9412602396CDBFDEBFDF91CF918F
:10791000FF91EF91BF91AF919F918F917F916F9167
:107920005F914F913F912F911F91FF90EF900F909A
:107930000BBE0F900ABE0F9009BE0F9008BE0F90AD
:107940000FBE0F901F90189580914406829581700C
:1079500091E0892708958091440684FF03C080E167
:107960008093460608958091440684FD03C080E11B
:10797000809345060895CF93DF9380EB8093410673
:107980000E94B33C88E080930206C0ECD8E081E01E
:10799000898341E060E070E08DE394E00E94325C16
:1079A000809326269093272681E00E942754809377
:1079B000C0259093C12580E58883DF91CF910895FC
:1079C0008091080683FB882780F9089580E18093E1
:1079D0000506089580E180930606089580910406C7
:1079E00081FD03C082E08093050608951F920F92E7
:1079F0000FB60F92112408B60F9218BE09B60F9257
:107A000019BE0AB60F921ABE0BB60F921BBE0F9389
:107A10001F932F933F934F935F936F937F938F9316
:107A20009F93AF93BF93EF93FF93CF93DF931F92F7
:107A30001F92CDB7DEB71A8219822091BD253091F1
:107A4000BE258091B8259091B9252817390760F196
:107A50008091B4259091B52501968093B42590939B
:107A6000B5252091BB253091BC258217930728F4BA
:107A70001092BD251092BE2517C09E012E5F3F4F6C
:107A800047E050E066EB75E280912626909127262C
:107A90000E94765E079741F41092BD251092BE2594
:107AA0001092B4251092B5250091BD251091BE25E8
:107AB0008091B8259091B92508171907D0F40E9434
:107AC000EE3C8091BA25E091B625F091B725E00F04
:107AD000F11F882321F0E491E093C30803C0808163
:107AE0008093C3080F5F1F4F0093BD251093BE25E1
:107AF0000BC00E94B33CBE016F5F7F4F8091C025D9
:107B00009091C1250E9470548A81811102C089819F
:107B100081110E9412600F900F90DF91CF91FF9121
:107B2000EF91BF91AF919F918F917F916F915F91F5
:107B30004F913F912F911F910F910F900BBE0F907E
:107B40000ABE0F9009BE0F9008BE0F900FBE0F9097
:107B50001F9018958091040681FF03C082E08093F6
:107B600006060895FF920F931F93CF93DF93CDB72F
:107B7000DEB72797CDBFDEBFF82E8A0181E08D8367
:107B800069837A834B835C8381E090E08E839F835B
:107B90006FEF7FEF8091C0259091C1250E94235502
:107BA000813041F02BEC31E23F932F930E94443B14
:107BB0000F900F90012BF1F021E230E047E050E010
:107BC000BE016F5F7F4F80912626909127260E94ED
:107BD000B45C079749F08AEF91E29F938F930E94DC
:107BE000443B0F900F9006C00E94AB3C0E94AA3D00
:107BF000F092C3082796CDBFDEBFDF91CF911F91D2
:107C00000F91FF900895FF920F931F93CF93DF93EF
:107C1000CDB7DEB72797CDBFDEBFF82E8A011D8214
:107C200082EC95E289839A8381E090E08B839C8348
:107C30004E835F836093C2256FEF7FEF8091C025F5
:107C40009091C1250E942355813041F02BEC31E207
:107C50003F932F930E94443B0F900F90012BC1F054
:107C600021E230E047E050E0BE016F5F7F4F80913E
:107C70002626909127260E94B45C079749F08AEF48
:107C800091E29F938F930E94443B0F900F9006C008
:107C90000E94AB3C0E94AA3DF092C3082796CDBF3C
:107CA000DEBFDF91CF911F910F91FF900895FF925A
:107CB0000F931F93CF93DF93CDB7DEB72797CDBF39
:107CC000DEBFF82E8A011D8282EC95E289839A83B9
:107CD0004B835C8381E090E08E839F834536510522
:107CE00020F4FB01A2ECB5E203C084E292E22EC0D4
:107CF000CD01825C95428017910718F481918D9394
:107D0000F7CF6FEF7FEF8091C0259091C1250E9442
:107D10002355813041F02BEC31E23F932F930E94A9
:107D2000443B0F900F90012BC1F021E230E047E07F
:107D300050E0BE016F5F7F4F8091262690912726ED
:107D40000E94B45C079749F087E492E29F938F9377
:107D50000E94443B0F900F9006C00E94AB3C0E94D3
:107D6000AA3DF092C3082796CDBFDEBFDF91CF9129
:107D70001F910F91FF9008950C947E4D1F93CF9308
:107D8000DF9387E692E29F938F930E94443BC0E08B
:107D9000D6E010E11E8384E690E00E947E4D1D83B4
:107DA0000F900F9084E690E0DF91CF911F910C949B
:107DB0007E4D87E792E29F938F930E94443B0F9002
:107DC0000F900E94E03C882329F084E690E00E9416
:107DD0007E4DF7CF089586E892E29F938F930E949D
:107DE000443B41E050E064EC82E20E94033E40E00C
:107DF00050E060E070E080E20E94573E40E050E0DA
:107E000060E070E08FEF0E94573E0F900F900C944F
:107E1000D93EFF920F931F93CF93DF9300D0CDB73E
:107E2000DEB78C01F62E7B830E94D93E88E992E270
:107E30009F938F930E94443B83E0159507958A9505
:107E4000E1F741E050E0602F8EE40E94033EF982AA
:107E50007B817A8342E050E0BE016F5F7F4F8FE409
:107E60000E94573E0F900F902396CDBFDEBFDF914B
:107E7000CF911F910F91FF900895FF920F931F9341
:107E8000CF93DF93CDB7DEB72797CDBFDEBFF82EF8
:107E90008A018FEA92E29F938F932E833F836D83B3
:107EA0000E94443BF9826D816A8342E050E0BE014A
:107EB0006F5F7F4F84E40E94573E09831A832E81AF
:107EC0002B833F813C8344E050E0BE016F5F7F4FD6
:107ED00085E40E94573E41E050E06F2D8EE40E9401
:107EE000033E09831A8342E050E0BE016F5F7F4F7B
:107EF0008FE40E94573E0F900F902796CDBFDEBFB4
:107F0000DF91CF911F910F91FF900895CF93C82FCC
:107F100023EC32E23F932F930E94443B27EC30E066
:107F200047EC50E060E080E00E943D3F0F900F90F2
:107F300048E853E16C2F84E2CF910C94033ECF9339
:107F4000DF93EC012AED32E23F932F930E94443BF2
:107F50000F900F904EE150E0BE0182E3DF91CF9190
:107F60000C94B23D86EE92E29F938F930E94443B25
:107F70008FEF0E94863F0E94EB3E80E00E94863F8A
:107F80000F900F900C94EB3E80EF92E29F938F93B3
:107F90000E94443B41E050E060EC82E20E94033EDC
:107FA00040E050E060E070E080E20E94573E0F90B9
:107FB0000F900C94D93E8DEF92E29F938F930E9485
:107FC000443B41E050E060EC82E20E94033E40E02E
:107FD00050E060E070E080E20E94573E0F900F900A
:107FE0000C94D93E8BE093E29F938F930E94443B85
:107FF0000E94D93E41E050E067EC82E20E94033EDD
:1080000040E050E060E070E080E20E94573E40E0D7
:1080100050E060E070E08FEF0E94573E0F900F90AD
:108020000C94D93EEF92FF920F931F93CF93DF935F
:108030001F92CDB7DEB78B017A012BE133E23F937C
:108040002F9389830E94443B898190E0079623E027
:10805000959587952A95E1F70F900F90809FA00145
:10806000819F500D909F500D1124E114F10459F49B
:108070006FEF84E20F90DF91CF911F910F91FF90EE
:10808000EF900C94033EB70184E20F90DF91CF9103
:108090001F910F91FF90EF900C94B23D80EE809372
:1080A000610687E0809342060895CF93DF9380EEC8
:1080B0008093620680E2809361068093650688E281
:1080C00090E00E94423B8091480680FF03C0C0E0E0
:1080D000D1E002C0C0E0D0E081FDC06282FDC4609A
:1080E00080E28093660680EE8093620680E480934F
:1080F00061068093650688E290E00E94423B809191
:10810000480680FDC06881FDC06182FDC26080E4D8
:108110008093660680EE8093620680E88093610615
:108120008093650688E290E00E94423B8091480679
:1081300080FDC06481FDC86082FDC16080E88093DD
:10814000660680EE80936206CE01DF91CF9108959E
:108150000E945540009729F58091603C9091613CC8
:10816000892B19F120E030E061E070E0822F40912E
:10817000603C5091613CFB01022E02C0EE0FFF1FDC
:108180000A94E2F74E235F23452B31F42F5F3F4FD4
:108190002031310559F780E11092603C1092613C2A
:1081A00008958093603C9093613C80E10895CF9363
:1081B000DF931F92CDB7DEB781E393E29F938F9356
:1081C0000E94443B0F900F900E94A8408031E1F341
:1081D0001F928F9321E433E23F932F9389830E9470
:1081E000443B89810F900F900F900F900F90DF917B
:1081F000CF91089590EE980F9B3138F420E8829F3C
:10820000C0011124805C9A4C08958C3399F08F330F
:10821000A1F095EA980F933088F39FE9980F9B316E
:1082200068F393E8980F923048F3813F49F480E473
:108230009DEC089580E493E5089580EC94E508951D
:1082400080EC95E40895CF93DF93C82FDB01EEEF28
:10825000E20FEF3028F4F0E0E754FF4D308101C029
:1082600038E0431708F4342FD32FD1508C2F622FCE
:108270000E94EF604D2F50E04A0F5B1F9A3010F0C4
:10828000995C01C0905DFA0190838C2F622F0E944F
:10829000EF60C82FD111E9CF832FDF91CF910895DF
:1082A000FF920F931F93CF93DF93FC01EB01AEEF8F
:1082B000A20FAF3028F4B0E0A655BF4D3C9101C0ED
:1082C00030E1431708F4342FF32E022F10E0FA9414
:1082D000CF01B8010E94FB604F2D50E0DE01A40FDA
:1082E000B51F8A3010F097E301C090E3980F9C937C
:1082F000CF01B8010E94FB60FB01F110E8CF832F92
:10830000DF91CF911F910F91FF900895FC0190E0B4
:108310008191882319F09F5F9F3FD1F781E0890FFA
:108320000895EF92FF920F93E12CF12C01E020E0F1
:1083300030E045E550E061E573E281E992E40E94B6
:10834000F44981E080935D3C84E690E00E94423BEA
:1083500021E040E060E070E081E00F91FF90EF905D
:108360000C94F53A0895853051F0883091F08230C0
:10837000B9F48091623C863098F48F5F0FC0809191
:10838000623C28E1829FC0011124875E9F4D0E94BC
:108390004B458091623C882319F081508093623C68
:1083A00008956F927F928F929F92AF92BF92CF92D9
:1083B000DF92EF92FF920F931F93CF93DF93CDB78E
:1083C000DEB7C456D109CDBFDEBF1092623C8FE547
:1083D00093E29F938F930E94443B0F900F900AE883
:1083E00013E28CED682E83E2782E9DE9E92E93E26C
:1083F000F92E25EBC22E23E2D22E35E7A32E33E24F
:10840000B32E2FEF3FEF44E650E0BE016F5F7F4F8A
:108410008091593C90915A3C0E94A65D4C01892B59
:1084200081F38981813021F16CF481116FC08A81DF
:108430001F928F93BF92AF920E94443B8A810E9409
:10844000B3416AC08230B9F1833009F05FC0FF9256
:10845000EF920E94443B4091623CDE01119688E11C
:10846000489FA00111240F900F9020E030E007C03A
:108470001F930F930E94443B0F900F90C2CF8D919A
:10848000F901E40FF51FE75EFF4D84872F5F3F4F33
:1084900028153905A1F7E1E0F0E0EC0FFD1FE20F30
:1084A000F11D8081282F082E000C330B3F938F93F2
:1084B000DF92CF922FC08DEB93E29F938F930E9418
:1084C000443B10925D3C8091593C90915A3C0E94F3
:1084D0005F5C1092593C10925A3C80E090E00E9400
:1084E000F84A0F900F90CC59DF4FCDBFDEBFDF9120
:1084F000CF911F910F91FF90EF90DF90CF90BF90A1
:10850000AF909F908F907F906F9008951F928F9360
:108510007F926F920E94443B0F900F900F900F90AC
:1085200070CF41E060E070E084E690E00E94325C51
:108530008093593C90935A3C0E94D14188EF93E23A
:108540009F938F930E94443B0F900F90089508953E
:108550000F931F93CF93DF93CDB7DEB76997CDBF4E
:10856000DEBF162F042F9EE7998F98E1989FF001A8
:108570001124E75EFF4DDE01119601900D929A9550
:10858000E1F79091623C891308C0242F4FEF460F0A
:1085900061E0CE0149960E940A48202F412F6CE0ED
:1085A000CE0101960E940A484CE0410F202F6CE05A
:1085B000CE010D960E940A486996CDBFDEBFDF91BD
:1085C000CF911F910F910895CF93DF938DE094E2A7
:1085D0009F938F930E94443BE0E6F6E081E0818325
:1085E0008583A0E8B6E088E011968C9311971596E4
:1085F0008C93C0EADAE083E08D8384E18B8389E1A8
:108600008E831F8280E18183858340E061E070E09A
:1086100086E990E00E94325C80935E3C90935F3CE0
:108620008DE18C8380E294E29F938F930E94443B80
:108630000F900F900F900F90DF91CF9108951F92A0
:108640000F920FB60F92112408B60F9218BE09B6FA
:108650000F9219BE0AB60F921ABE0BB60F921BBE2E
:108660002F933F934F935F936F937F938F939F933A
:10867000AF93BF93EF93FF93CF93DF931F921F921C
:10868000CDB7DEB719829E012F5F3F4F41E050E02A
:10869000BE016E5F7F4F8091633C9091643C0E946D
:1086A000765E892B19F08A818093A00A89818111D5
:1086B0000E9412600F900F90DF91CF91FF91EF9188
:1086C000BF91AF919F918F917F916F915F914F91EA
:1086D0003F912F910F900BBE0F900ABE0F9009BED5
:1086E0000F9008BE0F900FBE0F901F9018951F920D
:1086F0000F920FB60F92112408B60F9218BE09B64A
:108700000F9219BE0AB60F921ABE0BB60F921BBE7D
:10871000FF920F931F932F933F934F935F936F930A
:108720007F938F939F93AF93BF93EF93FF93CF93D9
:10873000DF931F92CDB7DEB780E180936606198282
:10874000E091A9208091A00AF0E0EA59F34C8083DF
:108750008091A9208F3F19F481E08093A920809116
:10876000A920853070F48091A9208F5F8093A92083
:1087700080E1809365068981882381F10E941260DF
:108780002DC0E091A920F0E0EB59F34C80818D30B1
:1087900051F7E091A920F0E0EA59F34C80818A304A
:1087A00011F71092A92007E51CE383E0F82EF801E9
:1087B000819191918F01009761F0F092663C409118
:1087C000A92050E09E012F5F3F4F66E67CE30E94A8
:1087D000545DFCE30D351F0751F7C5CF0F90DF91B6
:1087E000CF91FF91EF91BF91AF919F918F917F9129
:1087F0006F915F914F913F912F911F910F91FF903A
