:100000000C94FE000C9424010C9424010C94240103
:100010000C9424010C9424010C9424010C942401CC
:100020000C9424010C9424010C9424010C942401BC
:100030000C9424010C9424010C94B4170C94240106
:100040000C9424010C9424010C9424010C9424019C
:100050000C9424010C9424010C9424010C9424018C
:100060000C9424010C9424010C9424010C9424017C
:100070000C9424010C9424010C9424010C9424016C
:100080000C9424010C9424010C9424010C9424015C
:100090000C9424010C9424010C9424010C9424014C
:1000A0000C9424010C9424010C9424010C9424013C
:1000B0000C9424010C9424010C9424010C9424012C
:1000C0000C9424010C9424010C9424010C9424011C
:1000D0000C9424010C9424010C9424010C9424010C
:1000E0000C9424010C9424010C9424010C942401FC
:1000F0000C9424010C9424010C9424010C942401EC
:100100000C9424010C9424010C9424010C942401DB
:100110000C9424010C9424010C9424010C942401CB
:100120000C9424010C9424010C9424010C942401BB
:100130000C9424010C9424010C9424010C942401AB
:100140000C9424010C9424010C9424010C9424019B
:100150000C9424010C9424010C9424010C9424018B
:100160000C9424010C9424010C9424010C9424017B
:100170000C9424010C9424010C9424010C9424016B
:100180000C9424010C9424010C9424010C9424015B
:100190000C9424010C9424010C9424010C9424014B
:1001A0000C9424010C9424010C9424010C9424013B
:1001B0000C9424010C9424010C9424010C9424012B
:1001C0000C9424010C9424010C9424010C9424011B
:1001D0000C9424010C9424010C9424010C9424010B
:1001E0000C9424010C9424010C9424010C942401FB
:1001F0000C9424010C9475010C94070211241FBE69
:10020000CFEFCDBFDFE3DEBF00E00CBF18BE19BEED
:100210001ABE1BBE10E2A0E0B0E2E0E7F0E300E0AF
:100220000BBF02C007900D92A834B107D9F71BBECF
:100230001EE2A8E4B0E201C01D92A839B107E1F7BF
:100240000E9410180C9436180C94000081E08093E2
:100250000106089581E0809307060895E0EAF6E03C
:1002600088E085838183E0EAFBE083E08583838106
:100270008F63838389E18683178284818D60848381
:1002800008959091A10B95FFFCCF8093A00B08954A
:10029000EF92FF921F93CF93DF931F92CDB7DEB7FC
:1002A0007C011982FC0101900020E9F731971E2F93
:1002B000181B19828981811758F48981F701E80F89
:1002C000F11D80810E94410189818F5F8983F2CF76
:1002D0008AE00E9441018DE00E9441010F90DF9170
:1002E000CF911F91FF90EF90089583E190E20E94DB
:1002F0004801C1E0C093070688EE93E00E94BD0567
:100300008DE290E20E944801F5CFE0917620F091D5
:1003100077208081811103C08FEF9FEF0CC0E091A7
:100320007620F09177200580F681E02D0680F78118
:10033000E02D8281938180934D2090934E200895EB
:10034000EF92FF920F931F93CF93DF931F92CDB73E
:10035000DEB77C01009155201091562080914820F5
:1003600090914920029669830E94651069818FEF00
:10037000E816F80699F4662389F060914820709198
:1003800049206E5F7F4F88E590E20F90DF91CF911B
:100390001F910F91FF90EF900C940C10E00EF11E46
:1003A000E0914820F0914920E282F3826091482058
:1003B00070914920E016F10678F4809174209091B4
:1003C00075206E5F7F4F0F90DF91CF911F910F913E
:1003D000FF90EF900C942D108091762090917720D3
:1003E0006E5F7F4F0E942D1080914D2090914E2086
:1003F000E816F90620F4E0924D20F0924E200F907E
:10040000DF91CF911F910F91FF90EF900895809110
:100410006120882309F10FB6F8940F92E0916720CC
:10042000F0916820C681D781CE0102960E946510A6
:100430008091572081508093572080916120815076
:10044000809361200F900FBE8F89988D0E9481123A
:10045000CE010E948112DBCF80918A208230B8F2D7
:100460000E945B17D4CF2F923F925F926F927F9240
:100470008F929F92AF92BF92CF92DF92EF92FF92B4
:100480000F931F93CF93DF934C01562E172F5A01D2
:100490003901CA010E944F121C01009709F4D4C00F
:1004A00088E290E00E944F12EC01009781F02F8AC1
:1004B000388E650121E0C21AD108C20CD31CBC01E0
:1004C000675E7F4FE52DF12FCF01089607C0C10170
:1004D0000E948112B9C0E817F90749F09F014191C4
:1004E000DB014D93BD01D9012C912111F4CF18A24C
:1004F000043008F003E00E8B09A31AA25E01B2E0FB
:10050000AB0EB11CC5010E940810CE010C960E94D2
:100510000810C887D98784E090E0801B91098C87F8
:100520009D87CA8BDB8B1BA21CA21DA21EA21FA231
:10053000A301B401C6010E949E1688839983E11429
:10054000F10419F0F701C083D1830FB6F8940F922C
:10055000809157208F5F8093572080914820909101
:100560004920892BD1F5C0934820D0934920809110
:100570005720813009F041C08AE890E20E94FA0FCA
:1005800083E990E20E94FA0F8CE990E20E94FA0F50
:1005900085EA90E20E94FA0F81E890E20E94FA0F49
:1005A00088E790E20E94FA0F8BE690E20E94FA0F31
:1005B00082E690E20E94FA0F88E590E20E94FA0F2C
:1005C00081E890E2809376209093772088E790E20C
:1005D000809374209093752010C0809153208111D6
:1005E0000CC0E0914820F091492096898E898917A6
:1005F00020F0C0934820D093492080914F208F5FF6
:1006000080934F208E8990915420981710F48093F6
:100610005420F9E08F9FC0011124B50186579F4DEA
:100620000E940C100F900FBE80915320882351F030
:10063000E0914820F091492096898E89981710F40E
:100640000E945B1781E001C08FEFDF91CF911F9176
:100650000F91FF90EF90DF90CF90BF90AF909F9061
:100660008F907F906F905F903F902F9008950F93A1
:100670001F93CF93DF93EC010FB6F8940F9200977E
:1006800021F4C0914820D09149208E010E5F1F4F68
:10069000C8010E9465108C899D89892B21F0CE01AB
:1006A0000C960E94651090914F209F5F90934F2071
:1006B0008091482090914920C817D90759F4B80172
:1006C00082E690E20E940C10809161208F5F8093FF
:1006D00061200EC0809157208150809357208F89D0
:1006E000988D0E948112CE010E9481120E94850184
:1006F0000F900FBE80915320882349F080914820AD
:1007000090914920C817D90711F40E945B17DF9117
:10071000CF911F910F9108950F931F93CF93DF9364
:10072000209148203091492082179307B9F1009712
:10073000A9F10FB6F8940F92FC0122853385285554
:10074000304251F5FC0124893589F0E22B363F0710
:1007500019F1232B09F5EC018C010E5F1F4FC80125
:100760000E9465109E8980915420891710F49093FF
:10077000542029E0929FC0011124B80186579F4D53
:100780000E940C10E0914820F09149209E898689B2
:10079000981710F00E945B170F900FBEDF91CF915A
:1007A0001F910F910895EF92FF921F93CF93DF93C4
:1007B000EC018A859B858855904299F48C899D89A6
:1007C00020E28B36920769F0892B59F480914A20F8
:1007D000882349F0BE01645F7F4F8BE690E20E9460
:1007E0000C1010E021C0E0914820F091492011E068
:1007F0009E898689981708F410E07E0182E0E80E51
:10080000F11CC7010E9465109E89809154208917B0
:1008100010F49093542029E0929FC0011124B70155
:1008200086579F4D0E940C10812FDF91CF911F9111
:10083000FF90EF900895EF92FF920F938BE4E82ED4
:1008400080E2F82E00E020E030E045E550E062E490
:1008500070E287E092E00E943302813091F4F894D4
:100860002FEF3FEF20934D2030934E208093532065
:1008700010925520109256200F91FF90EF900C94FB
:1008800015170F91FF90EF900895F8941092532050
:100890000C945A1780914A208F5F80934A200895C4
:1008A0000FB6F8940F9280915520909156200F909A
:1008B0000FBE089580915520909156200895809103
:1008C00057200895009721F4809148209091492065
:1008D00049960895CF92DF92EF92FF920F931F9364
:1008E000CF93DF9380914A2081118CC000915520D5
:1008F000109156200F5F1F4F0093552010935620E4
:1009000001151105B9F480917620909177202091FE
:100910007420309175202093762030937720809337
:10092000742090937520809150208F5F8093502089
:100930000E94850180914D2090914E20C0E00817C3
:10094000190708F44FC0D9E0E0917620F0917720A4
:100950008081811103C08FEF9FEF11C0E09176205D
:10096000F09177200580F681E02DE680F780D701B1
:1009700012968D919C9113970817190728F480936C
:100980004D2090934E202EC06701B2E0CB0ED11CBB
:10099000C6010E946510F70184899589892B21F091
:1009A000C7010C960E946510D70156969C918091C4
:1009B0005420891710F490935420D99FC00111241A
:1009C000B60186579F4D0E940C10E0914820F0918F
:1009D0004920D70156969C918689981708F4B4CF80
:1009E000C1E0B2CFE0914820F0914920E689B9E01A
:1009F000EB9FF0011124E657FF4D8081823040F0DB
:100A0000C1E006C0809152208F5F80935220C0E0E9
:100A1000809151208111C1E08C2FDF91CF911F91E6
:100A20000F91FF90EF90DF90CF900895EF92FF929B
:100A30000F931F93CF93DF930FB6F8940F9280918B
:100A40004A20815080934A2080914A20882311F0C7
:100A500080E052C0809157208823D1F3C0E0D0E0DD
:100A600089E0F82EEE24E39480916B20882351F1E5
:100A7000E0917020F0917120C681D781CE010C9653
:100A80000E9465108E010E5F1F4FC8010E94651005
:100A90009E8980915420891710F490935420F99ED8
:100AA000C0011124B80186579F4D0E940C10E0919F
:100AB0004820F09149209E8986899817A8F2E092F3
:100AC0005120D2CFCD2B11F00E948501C091522030
:100AD000CC2351F0D1E00E946A048111D0935120BF
:100AE000C150C9F71092522080915120882309F4F7
:100AF000AFCF0E945B1781E00F900FBEDF91CF91C7
:100B00001F910F91FF90EF9008950F931F93CF9334
:100B1000DF938C01EB010E944A04409155205091D3
:100B20005620F801608171819B012C0F3D1F4617F3
:100B3000570728F42617370748F491E004C091E0DE
:100B40002617370720F04217530708F090E0F80106
:100B500020833183992331F060E0C901841B950B18
:100B60000E94A0010E941605811102C00E945B171D
:100B7000DF91CF911F910F910895CF93DF931F9233
:100B80001F92CDB7DEB7009719F40E945B170DC016
:100B900089839A830E944A0460E089819A810E9435
:100BA000A0010E941605882381F30F900F90DF911A
:100BB000CF91089580914A20882321F081E080938D
:100BC00051200895109251208091542069E0482FBF
:100BD00050E0649F9001659F300D1124F901E657A4
:100BE000FF4D9081911102C08150F1CFA181B2815E
:100BF00012960D90BC91A02DA183B28323573F4D37
:100C0000A217B30731F412962D913C9113972183CB
:100C1000328399E0949FF001959FF00D1124E657DF
:100C2000FF4D0180F281E02D2681378120934820FD
:100C3000309349208093542008950F931F93CF93AE
:100C4000DF93EC010FB6F8940F92009721F4C09156
:100C50004820D09149208E010E5F1F4FC8010E948D
:100C600065108C899D89892B21F0CE010C960E94FC
:100C70006510B80188E590E20E940C108FA18130C8
:100C800009F41FA20F900FBE80915320882339F0E2
:100C90000FB6F8940F920E9485010F900FBE8091BD
:100CA000482090914920C817D907C1F4809153205A
:100CB000882319F00E945B1711C0909158208091F1
:100CC0005720981305C0109248201092492006C062
:100CD000DF91CF911F910F910C94DA05DF91CF91A5
:100CE0001F910F910895CF93DF93EB01209148203E
:100CF00030914920B901645F7F4F0E942D1061E05F
:100D0000CE01DF91CF910C94A001CF93DF93EA0144
:100D1000E0914820F0914920706864877587609160
:100D2000482070914920645F7F4F0E940C1061E061
:100D3000CE01DF91CF910C94A0010F931F93CF931D
:100D4000DF93DC011596ED91FC911697C681D78152
:100D50008E01045F1F4FC8010E94651080914A20D8
:100D6000811114C00A501109C8010E9465109E89A2
:100D700080915420891710F490935420B9E09B9FE0
:100D8000C0011124B80186579F4D03C0B8018BE6FE
:100D900090E20E940C10E0914820F09149209E8939
:100DA0008689891720F481E08093512001C080E07A
:100DB000DF91CF911F910F9108950F931F93CF93C0
:100DC000DF937068FC0160837183C681D7810E94C4
:100DD00065108E010E5F1F4FC8010E9465109E892D
:100DE00080915420891710F490935420F9E09F9F2C
:100DF000C0011124B80186579F4D0E940C10E0914C
:100E00004820F09149209E898689891718F481E04D
:100E100080935120DF91CF911F910F9108950FB6CC
:100E2000F8940F9220915020FC01208320915520AE
:100E300030915620218332830F900FBE0895209168
:100E40005020FC0120832091552030915620218391
:100E500032830895CF93DF930FB6F8940F924091A9
:100E6000552050915620DC011196ED91FC9112977E
:100E7000EB01288139812F3FDFEF3D07C9F0B091A9
:100E80005020EC01A881BA1719F04E175F0790F4B3
:100E90004E1B5F0BFB014217530738F4241B350B25
:100EA000208331830E941F0703C01082118202C079
:100EB00080E001C081E00F900FBEDF91CF910895D7
:100EC00081E080935120089580914820909149209D
:100ED00008950F931F93CF93DF93FC01009709F4BC
:100EE00055C08689A0914820B091492056969C9182
:100EF000891708F041C02485358537FD0CC0A091C5
:100F00004820B091492056969C9124E030E0291B5E
:100F100031092487358729E0829FC0011124865733
:100F20009F4D2285338528173907E9F48F01EF019A
:100F30002296CE010E946510E0914820F091492050
:100F40009689F801968B80915420891710F490931C
:100F50005420F9E09F9FC0011124BE0186579F4D88
:100F60000E940C1007C0A0914820B09149205696CD
:100F70008C91868B81E00BC0A0914820B0914920D4
:100F800081E021A156969C91291708F080E0DF911D
:100F9000CF911F910F9108950F931F93CF93DF93DC
:100FA000FC01009711F480E02CC082A1815082A343
:100FB000268991A12917B9F38111F5CFEF018F018E
:100FC0000E5F1F4FC8010E94651099A19E8B492F8B
:100FD00050E024E030E0241B350B2C873D878091C6
:100FE0005420891710F49093542029E0249FC001C5
:100FF000259F900D1124B80186579F4D0E940C101B
:1010000081E0DF91CF911F910F9108950F931F936E
:10101000CF93DF93FC010097D9F181A1681708F401
:10102000682F86898617A1F192A1913089F5668B88
:101030002485358537FD06C024E030E0261B3109C4
:101040002487358729E0829FC001112486579F4D50
:101050002285338528173907D9F4EF018F010E5FF8
:101060001F4FC8010E9465109E89809154208917E6
:1010700010F49093542029E0929FC0011124B801EC
:1010800086579F4DDF91CF911F910F910C940C10BB
:10109000DF91CF911F910F910895E0914820F09139
:1010A000492084859585E0914820F0914920A091C0
:1010B0004820B091492056964C9124E030E0241B02
:1010C00031092487358708958091482090914920DF
:1010D000892B39F0E0914820F091492082A18F5F5F
:1010E00082A3809148209091492008950F931F93E7
:1010F000182FCB010FB6F8940F92E0914820F09191
:10110000492043A154A165A176A1452B462B472B2D
:1011100069F4E0914820F091492021E027A300974D
:1011200029F061E00E94A0010E945B170F900FBEA2
:101130000FB6F8940F92E0914820F091492063A1F6
:1011400074A185A196A16115710581059105A9F08C
:10115000E0914820F0914920112329F013A214A214
:1011600015A216A20AC08B019C0101501109210988
:10117000310903A314A325A336A3E0914820F091DD
:10118000492017A20F900FBE1F910F9108954F9203
:101190005F926F927F928F929F92AF92BF92EF92E7
:1011A000FF920F931F93CF93DF9300D01F92CDB781
:1011B000DEB70FB6F8940F92E0914820F0914920E5
:1011C000E7A1E23079F1E0914820F091492043A075
:1011D00054A065A076A04B015C0180949094A094EB
:1011E000B094D501C40184219521A621B72183A300
:1011F00094A3A5A3B6A3E0914820F091492081E0F3
:1012000087A3E114F10471F061E0C70129833A83F7
:101210004B835C830E94A0010E945B175C814B8121
:101220003A8129810F900FBE0FB6F8940F920115E5
:10123000110569F0E0914820F091492083A194A123
:10124000A5A1B6A1F80180839183A283B383E09125
:101250004820F091492087A18230C1F4E0914820D4
:10126000F091492083A194A1A5A1B6A1BA01A90139
:10127000409550956095709584239523A623B723B8
:1012800083A394A3A5A3B6A381E001C080E0E0916D
:101290004820F091492017A20F900FBE2496CDBF91
:1012A000DEBFDF91CF911F910F91FF90EF90BF9024
:1012B000AF909F908F907F906F905F904F90089528
:1012C0000F931F93CF93DF93FC010FB6F8940F9207
:1012D0000115110549F083A194A1A5A1B6A1E801CA
:1012E00088839983AA83BB8337A182E087A32230B6
:1012F00089F058F4213001F583A194A1A5A1B6A1EC
:10130000482B592B6A2B7B2B13C0233089F02430B8
:1013100069F012C083A194A1A5A1B6A10196A11D57
:10132000B11D83A394A3A5A3B6A306C0323049F18F
:1013300043A354A365A376A3313009F5EF018F01D0
:101340000E5F1F4FC8010E9465109E898091542036
:10135000891710F49093542029E0929FC001112422
:10136000B80186579F4D0E940C10E0914820F091E3
:1013700049209E898689891710F40E945B1781E0B5
:1013800001C080E00F900FBEDF91CF911F910F91B0
:101390000895EF92FF920F931F93CF93DF93FC0179
:1013A0000115110549F083A194A1A5A1B6A1E801F9
:1013B00088839983AA83BB8337A182E087A32230E5
:1013C00089F058F4213001F583A194A1A5A1B6A11B
:1013D000482B592B6A2B7B2B13C0233089F02430E8
:1013E00069F012C083A194A1A5A1B6A10196A11D87
:1013F000B11D83A394A3A5A3B6A306C03230D9F12F
:1014000043A354A365A376A3313011F081E034C027
:10141000EF0180914A20811115C08F010E5F1F4F8F
:10142000C8010E9465102E8980915420821710F403
:1014300020935420E9E02E9FC0011124B801865763
:101440009F4D05C0BF01645F7F4F8BE690E20E9415
:101450000C10E0914820F09149209E8986898917D7
:10146000A8F6E114F10419F081E0E701888381E036
:101470008093512001C080E0DF91CF911F910F91A7
:10148000FF90EF900895EF92FF920F931F93CF93E9
:10149000DF93FC0127A182E087A383A194A1A5A1EA
:1014A000B6A10196A11DB11D83A394A3A5A3B6A3C4
:1014B0002130A1F58B01EF0180914A20811116C0E6
:1014C0007F0132E0E30EF11CC7010E9465102E89F6
:1014D00080915420821710F420935420E9E02E9F2D
:1014E000C0011124B70186579F4D05C0BF01645F3D
:1014F0007F4F8BE690E20E940C10E0914820F09123
:1015000049209E898689891748F40115110519F02B
:1015100081E0F801808381E080935120DF91CF91B9
:101520001F910F91FF90EF900895009721F4809103
:101530004820909149200FB6F8940F92FC0127A102
:10154000223019F417A281E001C080E00F900FBE95
:1015500008950FB6F8940F92FC01928D0F900FBE74
:1015600081E0911180E008950F931F93CF93DF9353
:10157000EC01042F1A8D8C8D81110CC0888199810A
:10158000892B09F03EC08C819D810E94CC071C8272
:101590001D8238C0482F50E0011115C08A819B81FF
:1015A0000E942D182C8D8A819B81820F911D8A8328
:1015B0009B832C813D818217930718F18881998143
:1015C0008A839B831EC08E819F810E942D188C8DE3
:1015D00090E09195819591092E813F81280F391FC7
:1015E0002E833F83488159812417350730F42C819D
:1015F0003D81820F931F8E839F83023011F411115E
:10160000115080E01F5F1A8FDF91CF911F910F91D2
:101610000895FC01CB01448D4423A1F050E02681C4
:101620003781240F351F2683378364817581261700
:10163000370720F0208131812683378366817781C7
:101640000C942D180895EF92FF921F93CF93DF9380
:10165000EC010FB6F8940F921E8D7C0181E1E80E2B
:10166000F11C11165CF48989882341F0C7010E949E
:101670009D0681110E9460071150F3CF8FEF8E8F6E
:101680000F900FBE0FB6F8940F921D8D7E0188E06B
:10169000E80EF11C11165CF48885882341F0C7011F
:1016A0000E949D0681110E9460071150F3CF8FEFB9
:1016B0008D8F0F900FBEDF91CF911F91FF90EF9014
:1016C0000895CF93DF93EC010FB6F8940F92488101
:1016D00059818B8D7C8D9A01879F200D311D11249E
:1016E0002C833D831A8E4A835B8390E00197789F19
:1016F0009001799F300D1124CA01820F931F8E83B0
:101700009F838FEF8D8F8E8F61110CC0888588230A
:1017100089F0CE0108960E949D06882359F00E9408
:101720005B1708C0CE0108960E94FA0FCE014196C1
:101730000E94FA0F0F900FBE81E0DF91CF910895C4
:10174000EF92FF921F93CF93DF931F92CDB7DEB737
:10175000182F662321F0869FC001112402C080E06B
:1017600090E04F9669830E944F127C016981009737
:1017700089F0611104C0FC018083918304C04F96FD
:10178000F70180839183F701138F648F61E0C701B4
:101790000E94610BC7010F90DF91CF911F91FF90C5
:1017A000EF900895AF92BF92CF92DF92FF920F9386
:1017B0001F93CF93DF93CDB7DEB72597CDBFDEBFA5
:1017C0008C016B014C835D83F22E90E0580188E020
:1017D000A80EB11C0FB6F8940F92F801228D838DDC
:1017E000281718F0F2E0FF1214C04F2DB601C801FF
:1017F0000E94B40AF8019189992321F0C801419609
:101800000E949D0681110E945B170F900FBE81E020
:1018100050C02C813D81232B19F40F900FBE48C07E
:10182000911104C0CE0101960E941F070F900FBEB8
:101830000E944A040FB6F8940F92F801858D8F3FED
:1018400009F4158EF801868D8F3F09F4168E0F90DE
:101850000FBEBE016C5F7F4FCE0101960E942A072A
:10186000811121C00FB6F8940F92F801928D0F905C
:101870000FBE838D981311C06C817D81C5010E94BC
:101880007306C8010E94230B0E941605882311F0DD
:1018900091E0A0CF0E945B17FBCFC8010E94230BF1
:1018A0000E941605F5CFC8010E94230B0E94160561
:1018B00080E02596CDBFDEBFDF91CF911F910F91C4
:1018C000FF90DF90CF90BF90AF900895CF93DF93BC
:1018D000482F60E081E00E94A00BEC01009761F0CE
:1018E0001C821D82188219821E8220E040E050E096
:1018F00060E070E00E94D20BCE01DF91CF9108959D
:10190000EF92FF921F93CF93DF93EC019A8D8B8D13
:10191000981710F02230E1F47A011E8D422FCE018B
:101920000E94B40A1F3F81F48989882379F0CE018F
:1019300041960E949D06882349F0E114F10431F09C
:1019400081E0F701808305C01F5F1E8F81E001C029
:1019500080E0DF91CF911F91FF90EF900895CF939A
:10196000DF93FC01928D838D9817C0F4868D9F5F65
:10197000928F8F3F79F48189882371F0EB01CF0139
:1019800041960E949D06882339F0209729F081E036
:10199000888305C08F5F868F81E001C080E0DF9182
:1019A000CF910895AF92BF92CF92DF92FF920F93A3
:1019B0001F93CF93DF93CDB7DEB72597CDBFDEBFA3
:1019C0008C016B014C835D8390E0580181E1A80E8E
:1019D000B11C0FB6F8940F92F801F28CFF20A9F019
:1019E000B601C8010E94090BFA94F801F28E8085B5
:1019F000882339F0C80108960E949D0681110E9433
:101A00005B170F900FBE81E050C02C813D81232BCE
:101A100019F40F900FBE48C0911104C0CE01019679
:101A20000E941F070F900FBE0E944A040FB6F89441
:101A30000F92F801858D8F3F09F4158EF801868D80
:101A40008F3F09F4168E0F900FBEBE016C5F7F4F63
:101A5000CE0101960E942A0781111CC0C8010E9474
:101A6000A90A882389F06C817D81C5010E947306D3
:101A7000C8010E94230B0E941605882311F091E0F3
:101A8000A8CF0E945B17FBCFC8010E94230B0E94C6
:101A90001605F5CFC8010E94230B0E941605C80148
:101AA0000E94A90A882359F380E02596CDBFDEBFA6
:101AB000DF91CF911F910F91FF90DF90CF90BF905A
:101AC000AF900895CF92DF92FF920F931F93CF9321
:101AD000DF93CDB7DEB72597CDBFDEBF8C016C831A
:101AE0007D83F12C20E06C0181E1C80ED11C0FB682
:101AF000F8940F92D8015A969C915A979923E9F03D
:101B000091505A969C935A978D919C91892B29F4C8
:101B10000E946408F80184839583D80118968C91FB
:101B2000882339F0C80108960E949D0681110E9401
:101B30005B170F900FBE81E07AC08C819D81892B4D
:101B400009F472C0211104C0CE0101960E941F0742
:101B50000F900FBE0E944A040FB6F8940F92F8013E
:101B6000858D8F3F09F4158ED8015E968C915E9716
:101B70008F3F11F45E961C920F900FBEBE016C5FFA
:101B80007F4FCE0101960E942A0781112BC0C80108
:101B90000E94A90A882301F1F80180819181892B93
:101BA00051F40FB6F8940F92848195810E946907D1
:101BB000F82E0F900FBE6C817D81C6010E947306C6
:101BC000C8010E94230B0E941605882311F021E012
:101BD0008ECF0E945B17FBCFC8010E94230B0E948F
:101BE0001605F5CFC8010E94230B0E941605C801F7
:101BF0000E94A90A882359F3FF20C1F00FB6F89478
:101C00000F92F8018189882339F00688F789E02D41
:101C1000808164E0681B01C060E0D80114968D915A
:101C20009C9115970E9406080F900FBE80E02596A4
:101C3000CDBFDEBFDF91CF911F910F91FF90DF905D
:101C4000CF900895CF92DF92EF92FF920F931F9360
:101C5000CF93DF93CDB7DEB72597CDBFDEBF8C0125
:101C60007B014C835D8390E0680181E1C80ED11C4B
:101C70000FB6F8940F92F801828D8823B9F0C680D0
:101C8000D780B701C8010E94090BF801C682D7822C
:101C90008189882339F0C80141960E949D068111EF
:101CA0000E945B170F900FBE81E050C02C813D81D8
:101CB000232B19F40F900FBE48C0911104C0CE0120
:101CC00001960E941F070F900FBE0E944A040FB694
:101CD000F8940F92F801858D8F3F09F4158EF80165
:101CE000868D8F3F09F4168E0F900FBEBE016C5F7C
:101CF0007F4FCE0101960E942A0781111CC0C801A6
:101D00000E94A90A882389F06C817D81C6010E9406
:101D10007306C8010E94230B0E941605882311F048
:101D200091E0A6CF0E945B17FBCFC8010E94230B56
:101D30000E941605F5CFC8010E94230B0E941605CC
:101D4000C8010E94A90A882359F380E02596CDBFD7
:101D5000DEBFDF91CF911F910F91FF90EF90DF9049
:101D6000CF900895EF92FF920F931F93CF93DF933D
:101D7000FC01028D0023E9F07A01EC01158D0E942F
:101D8000090B01500A8F1F3F81F48885882379F061
:101D9000CE0108960E949D06882349F0E114F104C3
:101DA00031F081E0F701808305C01F5F1D8F81E066
:101DB00001C080E0DF91CF911F910F91FF90EF90D4
:101DC00008950F931F93CF93DF93FC01228D22235D
:101DD00049F0EC01068117810E94090B0E831F83D5
:101DE00081E001C080E0DF91CF911F910F910895B4
:101DF0000FB6F8940F92FC01828D0F900FBE0895DC
:101E00000FB6F8940F92FC01228D0F900FBE838DB8
:101E1000821B0895FC01828D08950C948112FC01AF
:101E2000928D81E0911180E00895FC01228D81E086
:101E3000938D291380E00895CF93DF93EC01F894FC
:101E40000FB6F8940F928A8D9B8D0F900FBE891359
:101E50000FC04115510549F0BE01685F7F4FCA01AF
:101E60000E94FB1078948CEF1BC0789480E018C01F
:101E70007894F8948A8D891788F440E0CE010E9406
:101E8000B40A8989811102C081E009C0CE0141965E
:101E90000E942A128823C1F38BEF01C080E078945E
:101EA000DF91CF910895CF93DF93EC01FB01F8947C
:101EB0008A8D81110FC04115510549F0BE016F5E39
:101EC0007F4FCA010E94FB1078948CEF30C0789449
:101ED00080E02DC07894F8948A8D882331F14C8D60
:101EE00050E02E813F81240F351F2E833F838C814C
:101EF0009D812817390720F0888199818E839F83DF
:101F00009A8D91509A8F6E817F81CF010E942D18FA
:101F10008885811102C081E009C0CE0108960E9427
:101F20002A128823C1F38BEF01C080E07894DF91FF
:101F3000CF9108950F931F93CF938C01C42FFC0171
:101F4000928D838D981710F04C2F12C040E0C8017D
:101F50000E94B40AC111F8CFF8018189882339F0B1
:101F6000C80141960E942A1241E0811101C040E05F
:101F7000842FCF911F910F9108950F931F93CF93AB
:101F8000DF93FC01828D882379F1248D30E0A681D6
:101F9000B781A20FB31FA683B78384819581A81749
:101FA000B90720F080819181868397838A01CB01D4
:101FB000EF01428D4150428F66817781A9010E94D5
:101FC0002D18F8018081882311F081E00EC08885EA
:101FD0008823D9F3CE0108960E942A128823A9F3F8
:101FE00081E0F801808301C080E0DF91CF911F91F3
:101FF0000F910895FC010396818392832FEF3FEFA9
:102000002383348385839683878390871082089502
:10201000FC01108611860895CF93DF939C01FB018C
:10202000DC011196CD91DC911297C283D3838C8110
:102030009D81848395838C819D81DC0112966D93B3
:102040007C9313976C837D8320873187F90180818E
:102050008F5F8083DF91CF9108950F931F93CF936C
:10206000DF938C01FB01808191818F3F2FEF9207DD
:1020700021F4E801AF81B8850EC0D80113961296FD
:102080002D913C911397E901488159818417950757
:1020900010F0D901F4CF12968D919C911397828301
:1020A0009383EC01EC83FD83A483B5831296ED93B7
:1020B000FC93139700871187F80180818F5F8083DD
:1020C000DF91CF911F910F910895CF93DF93FC0182
:1020D000A085B1858281938124813581EC012C8397
:1020E0003D83C481D5818A839B8311968D919C9178
:1020F00012978E179F0721F41196CD93DC931297B8
:10210000108611868C9181508C938C91DF91CF91A8
:102110000895CF92DF92EF92FF921F93CF93DF93B8
:102120006C01162FF42E8AE190E00E944F12EC0110
:10213000009709F457C08091AE209091AF20892B71
:1021400021F5C093AE20D093AF2086ED90E20E949F
:10215000FA0F8FED90E20E94FA0F8DEC90E20E9450
:10216000FA0F84EC90E20E94FA0F87EB90E20E9453
:10217000FA0F8DEC90E28093C2209093C32084EC00
:1021800090E28093C0209093C120111111E0188E2D
:10219000198E1E8BFF8AFE01C192D1927F01CF0161
:1021A0000E940810CE010C960E940810C887D9879B
:1021B000CA8BDB8B82E090E0811B91098C879D8725
:1021C0009E898091B620891710F49093B620F9E08B
:1021D0009F9FC0011124B7018A529F4D0E940C108D
:1021E00081E001C08FEFDF91CF911F91FF90EF90C1
:1021F000DF90CF9008950F931F93CF93DF938B01C0
:10220000C091B420D091B520C80FD91F8091AE20C5
:102210009091AF2002960E946510E091AE20F0915F
:10222000AF20C283D3838091B4209091B520BF01A9
:102230006E5F7F4FC817D90728F48091C020909116
:10224000C12004C08091C2209091C3200E942D1013
:102250000115110569F06091AE207091AF20645FA7
:102260007F4FC801DF91CF911F910F910C942D10DA
:10227000DF91CF911F910F910895FF920F931F93BC
:10228000CF93DF9399E0F92E8091B720882311F145
:10229000F894E091BC20F091BD20C681D781CE0199
:1022A0000C960E94651078948E010E5F1F4FC80136
:1022B0000E9465109E898091B620891710F4909332
:1022C000B620F99EC0011124B8018A529F4D0E9488
:1022D0000C10DACF0E9450042091B2203091B3202C
:1022E000821B930B8093B0209093B12089E0F82E4D
:1022F0002091B0203091B1208091B4209091B520F0
:102300002115310509F454C001968093B4209093AF
:10231000B520215031092093B0203093B120892B72
:1023200009F03EC08091C2209091C3202091C0202E
:102330003091C1202093C2203093C3208093C020CD
:102340009093C1202DC00580F681E02DC681D781F4
:102350002091B4203091B5208A819B8128173907BC
:1023600038F2F8948E010E5F1F4FC8010E9465106D
:102370008C899D89892B21F0CE010C960E946510D5
:1023800078949E898091B620891710F49093B62096
:10239000F99EC0011124B8018A529F4D0E940C1071
:1023A000E091C220F091C32080818111CCCFA0CFD9
:1023B0008093B2209093B3208091B62069E0482F9B
:1023C00050E0649F9001659F300D1124F901EA529D
:1023D000FF4D908191110CC0811108C01092B62060
:1023E000DF91CF911F910F91FF9008958150E7CF1A
:1023F0008093B620A181B28112960D90BC91A02D40
:10240000A183B28327523F4DA217B30731F412962E
:102410008D919C9113978183928389E0849FF00131
:10242000859FF00D1124EA52FF4D0180F281E02DCD
:10243000868197818093AE209093AF20DC01ED914F
:10244000FC91119757966C91DF91CF911F910F914D
:10245000FF9019940F931F93CF93DF93DC01159690
:10246000ED91FC911697C681D7818E01045F1F4FB5
:10247000C8010E946510B80187EB90E20E940C1021
:10248000E091AE20F091AF2081E02E899689291746
:1024900008F480E0DF91CF911F910F910895CF93C1
:1024A000DF93EC010E944A048091E8209091E9209A
:1024B000892B31F48DEE90E28093E8209093E9200F
:1024C0002091EA203091EB20CE01820F931F8B3AAE
:1024D0004DE0940770F42817390758F4C091E820AC
:1024E000D091E920C20FD31F8093EA209093EB2074
:1024F00002C0C0E0D0E00E941605CE01DF91CF916E
:10250000089508951092EA201092EB2008952091EA
:10251000EA203091EB208BEA9DE0821B930B08951B
:10252000FC014481558122813381240F351F808134
:102530009181B901681B790BCB016417750710F005
:10254000841B950B0895AF92BF92CF92DF92EF92CA
:10255000FF920F931F93CF93DF936C015B017A017E
:10256000FC01C281D381848195818C1B9D0B8A01E2
:102570008417950708F48C01F60184859585A801D8
:10258000B5018C0F9D1F0E942D180E151F0558F4C4
:10259000A701401B510BB501600F711FF601848527
:1025A00095850E942D1897012C0F3D1FF6018481FF
:1025B00095812817390710F0281B390BF601228363
:1025C0003383C701DF91CF911F910F91FF90EF905F
:1025D000DF90CF90BF90AF900895CF92DF92EF92AF
:1025E000FF920F931F93CF93DF931F921F92CDB74C
:1025F000DEB749835A8321153105C9F06B017C018F
:10260000FC01868580FD07C04217530708F49A0134
:1026100029833A830FC02017310748F042E050E089
:10262000BE016F5F7F4FC7010E94A31203C080E00D
:1026300090E006C049815A81B601C7010E94A312E9
:102640000F900F90DF91CF911F910F91FF90EF901E
:10265000DF90CF900895AF92BF92CF92DF92EF922A
:10266000FF920F931F93CF93DF93EA01241735074F
:1026700008F4E901209799F1FC01E080F1802481C0
:1026800035812E193F096E012C173D0708F46901A9
:102690005B018C01FC01648575856E0D7F1DA601B3
:1026A000C5010E942D18CC16DD0658F4AE014C1958
:1026B0005D09F80164857585C5018C0D9D1D0E941D
:1026C0002D18CE018E0D9F1DF801248135818217B2
:1026D000930710F0821B930BF80180839183CE0146
:1026E000DF91CF911F910F91FF90EF90DF90CF90EE
:1026F000BF90AF900895EF92FF921F93CF93DF9317
:10270000EB0111E0413009F010E0209711F4C1E035
:10271000D0E07C012FEFE21AF20A40960E944F129D
:10272000FC01009771F08FE0DF011D928A95E9F7B7
:10273000CF010F9684879587E482F582C683D7837D
:102740001687CF01DF91CF911F91FF90EF900895F1
:10275000FC01268521FF0C9481122FE0FC011192CF
:102760002A95E9F70895FC010FB6F8940F92808539
:102770009185892BC9F482859385892BA9F4868557
:102780002681378144815581648575859FE0DF010D
:102790001D929A95E9F7648775874483558326834C
:1027A0003783868781E001C080E00F900FBE0895D7
:1027B0006115710511F461E070E0FC01248135813F
:1027C0002617370720F06683778381E0089580E03D
:1027D0000895FC012481358180819181428153815A
:1027E000820F931F0197841B950B8217930710F09C
:1027F000821B930B08950C9490124F925F926F92EC
:102800007F928F929F92AF92BF92CF92DF92EF9280
:10281000FF920F931F93CF93DF93CDB7DEB725972A
:10282000CDBFDEBF6C012B014A012C833D83FC012F
:1028300086853A0180FF03C0F2E06F0E711C8C8127
:102840009D81892B21F4C6010E94E91338C0CE0175
:1028500001960E940F070FB6F8940F92C6010E94CE
:10286000E9135C018615970520F580E090E00E9451
:10287000950A0E946407F601828793870F900FBE26
:10288000EC80FD8000E010E020E030E0A90160E095
:1028900070E0CB010E94C708F60112861386BE01C4
:1028A0006C5F7F4FCE0101960E942A07882399F220
:1028B00002C00F900FBEC501AB2809F4C4CF83013D
:1028C0009C01A401B201C6010E94ED125C010097B7
:1028D000F9F0C6010E949012F60126813781821715
:1028E0009307B0F00E944A04F60180859185892BF8
:1028F00069F08085918500E010E020E040E050E044
:10290000BA010E946009F601108611860E94160520
:10291000C5012596CDBFDEBFDF91CF911F910F91ED
:10292000FF90EF90DF90CF90BF90AF909F908F90EF
:102930007F906F905F904F900895AF92BF92CF922B
:10294000DF92EF92FF920F931F93CF93DF9300D00C
:102950001F92CDB7DEB75C017901FC0186858A0143
:1029600080FF02C00E5F1F4FC5014B835C836983EC
:102970007A830E94E9139C014B815C8169817A8191
:10298000C5010E94ED126C010097D1F0C5010E94B3
:102990009012F501268137818217930788F0808590
:1029A0009185892B69F08085918500E010E020E019
:1029B00040E050E0BA010E94C909F5011086118675
:1029C000C6012496CDBFDEBFDF91CF911F910F913D
:1029D000FF90EF90DF90CF90BF90AF9008956F92EF
:1029E0007F928F929F92AF92BF92CF92DF92EF929F
:1029F000FF920F931F93CF93DF931F921F92CDB738
:102A0000DEB76C013B014A017901FC01868580FD3E
:102A100003C0A12CB12C03C082E0A82EB12CE1147C
:102A2000F10429F10FB6F8940F92C6010E9490129A
:102A30008C01A816B90648F080E090E00E94950A43
:102A40000E946407F601808791870F900FBEA01641
:102A5000B106B8F000E010E020E030E0A90160E04D
:102A600070E0CB010E94C708F60110861186C601EE
:102A70000E9490128C01A816B90618F0E12CF12CD6
:102A80003BC0A114B104C9F0F601E080F1809801C7
:102A9000A501BE016F5F7F4FC6010E942B13898184
:102AA0009A810A191B098816990630F4F601E0820A
:102AB000F182812C912C01C04C019801A401B30139
:102AC000C6010E942B137C010097C1F20E944A04A8
:102AD000F60182859385892B69F08285938500E0D4
:102AE00010E020E040E050E0BA010E946009F601E9
:102AF000128613860E941605C7010F900F90DF9172
:102B0000CF911F910F91FF90EF90DF90CF90BF90EA
:102B1000AF909F908F907F906F900895EF92FF926B
:102B20000F931F93CF93DF931F921F92CDB7DEB702
:102B3000FC01268520FD03C080E090E017C08C01D9
:102B40000E94901283309105B8F3F801E080F18083
:102B50009C0142E050E0BE016F5F7F4FC8010E94C0
:102B60002B1389819A81F801E082F1820F900F90F6
:102B7000DF91CF911F910F91FF90EF9008954F92A9
:102B80005F926F927F928F929F92AF92BF92CF92FD
:102B9000DF92EF92FF920F931F93CF93DF931F92D9
:102BA0001F92CDB7DEB76C014B015A013901FC0110
:102BB000868580FD03C0E12CF12C03C082E0E82E65
:102BC000F12CC6010E9490128C01E816F90618F04B
:102BD000A12CB12C38C0E114F104C9F0F6014080F9
:102BE00051809C01A701BE016F5F7F4FC6010E940B
:102BF0002B1389819A810E191F09A816B90630F482
:102C0000F60140825182A12CB12C01C05C019801D7
:102C1000A501B401C6010E942B135C010097C1F20B
:102C2000F60182859385892B71F0828593857301E6
:102C300000E010E020E040E050E0BA010E94C90945
:102C4000F60112861386C5010F900F90DF91CF9188
:102C50001F910F91FF90EF90DF90CF90BF90AF90BA
:102C60009F908F907F906F905F904F900895FC01A0
:102C7000208131814281538181E04217530709F05D
:102C800080E00895CF93DF93FC01268520FD03C0EB
:102C9000C0E0D0E002C0C2E0D0E00E94E91321E031
:102CA000C817D90708F420E0822FDF91CF9108954B
:102CB000EF92FF920F931F93CF93DF93FC01208538
:102CC0003185232B81F07B01EC018085918500E02B
:102CD00010E020E040E050E0BA010E94C9091886E7
:102CE000198681E001C080E0DF91CF911F910F91A3
:102CF000FF90EF900895EF92FF920F931F93CF9361
:102D0000DF93FC0122853385232B81F07B01EC01CD
:102D10008285938500E010E020E040E050E0BA01B9
:102D20000E94C9091A861B8681E001C080E0DF91FC
:102D3000CF911F910F91FF90EF9008950F931F93E4
:102D40008B0171E1FC017083319762E260833197FE
:102D500023E32083222717FD2095322F319700830C
:102D6000319710833197208331971082319720E873
:102D7000208331971082319722E02083319723E01E
:102D80002083319724E02083319725E020833197F9
:102D900026E02083319727E02083319728E02083A5
:102DA000319729E02083319720E120833197708388
:102DB000319722E12083319723E12083319724E169
:102DC0002083319725E12083319726E120833197B5
:102DD00027E12083319728E12083319729E120835F
:102DE000319720E22083319721E22083319760835D
:102DF000319723E220833197408331975083319775
:102E000026E22083319727E22083319728E220832E
:102E1000319729E22083319720E32083319721E302
:102E2000208387971F910F910895F894E0E7F0E0D1
:102E300083818A7F8383E0E0F8E08FEC97E086A3CC
:102E400097A391E09683A0EAB0E012968C91129736
:102E5000816012968C9390837894A0914820B091D1
:102E600049200D900DBE0D900EBEFF91EF91DF91A8
:102E7000CF91BF91AF919F918F917F916F915F9112
:102E80004F913F912F911F910F91FF90EF90DF9005
:102E9000CF90BF90AF909F908F907F906F905F90FA
:102EA0004F903F902F901F900F900FBE0F9008955E
:102EB00081E0089508950F920FB6F8940F921F9233
:102EC00011242F923F924F925F926F927F928F9236
:102ED0009F92AF92BF92CF92DF92EF92FF920F93A9
:102EE0001F932F933F934F935F936F937F938F9392
:102EF0009F93AF93BF93CF93DF93EF93FF93A091F3
:102F00004820B09149200DB60D920EB60D920E9448
:102F1000DA05A0914820B09149200D900DBE0D908A
:102F20000EBEFF91EF91DF91CF91BF91AF919F9135
:102F30008F917F916F915F914F913F912F911F9151
:102F40000F91FF90EF90DF90CF90BF90AF909F9048
:102F50008F907F906F905F904F903F902F901F9039
:102F60000F900FBE0F9008950F920FB6F8940F9226
:102F70001F9211242F923F924F925F926F927F92F5
:102F80008F929F92AF92BF92CF92DF92EF92FF9279
:102F90000F931F932F933F934F935F936F937F9361
:102FA0008F939F93AF93BF93CF93DF93EF93FF9351
:102FB000A0914820B09149200DB60D920EB60D9209
:102FC0000E946A0481110E94DA05A0914820B09104
:102FD00049200D900DBE0D900EBEFF91EF91DF9137
:102FE000CF91BF91AF919F918F917F916F915F91A1
:102FF0004F913F912F911F910F91FF90EF90DF9094
:10300000CF90BF90AF909F908F907F906F905F9088
:103010004F903F902F901F900F900FBE0F901895DC
:10302000EF92FF920F9381E0809301060E942E01A0
:10303000E12CF12C01E020E030E045E550E060E0DB
:1030400070E285E791E00E9433020E941B0480E059
:1030500090E00F91FF90EF900895FB01DC0102C01A
:1030600001900D9241505040D8F70895F894FFCF49
:10307000626C696E6B5F504F5254415F305F746198
:10308000736B0053746172742076546F67676C655C
:103090005041305461736B207461736B0048656CF0
:1030A0006C6F2066726F6D204672656552544F5387
:0830B000210049444C450000D9
:00000001FF
